{"project/src/ArithmeticOptimized.sol":{"ArithmeticOptimized":{"abi":[{"anonymous":false,"inputs":[{"indexed":true,"internalType":"uint128","name":"a","type":"uint128"},{"indexed":true,"internalType":"uint128","name":"b","type":"uint128"},{"indexed":true,"internalType":"uint8","name":"operationType","type":"uint8"},{"indexed":false,"internalType":"uint128","name":"result","type":"uint128"},{"indexed":false,"internalType":"uint32","name":"timestamp","type":"uint32"}],"name":"CalculationPerformed","type":"event"},{"inputs":[{"internalType":"uint128","name":"a","type":"uint128"},{"internalType":"uint128","name":"b","type":"uint128"}],"name":"add","outputs":[{"internalType":"uint128","name":"","type":"uint128"}],"stateMutability":"nonpayable","type":"function"},{"inputs":[{"internalType":"uint128[]","name":"a","type":"uint128[]"},{"internalType":"uint128[]","name":"b","type":"uint128[]"},{"internalType":"uint8[]","name":"operationTypes","type":"uint8[]"}],"name":"batchExecute","outputs":[{"internalType":"uint128[]","name":"results","type":"uint128[]"}],"stateMutability":"nonpayable","type":"function"},{"inputs":[],"name":"clearHistory","outputs":[],"stateMutability":"nonpayable","type":"function"},{"inputs":[{"internalType":"uint128","name":"a","type":"uint128"},{"internalType":"uint128","name":"b","type":"uint128"}],"name":"divide","outputs":[{"internalType":"uint128","name":"","type":"uint128"}],"stateMutability":"nonpayable","type":"function"},{"inputs":[{"internalType":"uint256","name":"index","type":"uint256"}],"name":"getOperation","outputs":[{"internalType":"uint128","name":"a","type":"uint128"},{"internalType":"uint128","name":"b","type":"uint128"},{"internalType":"uint8","name":"operationType","type":"uint8"},{"internalType":"uint128","name":"result","type":"uint128"},{"internalType":"uint32","name":"timestamp","type":"uint32"}],"stateMutability":"view","type":"function"},{"inputs":[],"name":"getOperationsCount","outputs":[{"internalType":"uint256","name":"","type":"uint256"}],"stateMutability":"view","type":"function"},{"inputs":[],"name":"lastResult","outputs":[{"internalType":"uint128","name":"","type":"uint128"}],"stateMutability":"view","type":"function"},{"inputs":[{"internalType":"uint128","name":"a","type":"uint128"},{"internalType":"uint128","name":"b","type":"uint128"}],"name":"modulo","outputs":[{"internalType":"uint128","name":"","type":"uint128"}],"stateMutability":"nonpayable","type":"function"},{"inputs":[{"internalType":"uint128","name":"a","type":"uint128"},{"internalType":"uint128","name":"b","type":"uint128"}],"name":"multiply","outputs":[{"internalType":"uint128","name":"","type":"uint128"}],"stateMutability":"nonpayable","type":"function"},{"inputs":[{"internalType":"uint256","name":"","type":"uint256"}],"name":"operations","outputs":[{"internalType":"uint128","name":"a","type":"uint128"},{"internalType":"uint128","name":"b","type":"uint128"},{"internalType":"uint8","name":"operationType","type":"uint8"},{"internalType":"uint128","name":"result","type":"uint128"},{"internalType":"uint32","name":"timestamp","type":"uint32"}],"stateMutability":"view","type":"function"},{"inputs":[],"name":"operationsCount","outputs":[{"internalType":"uint256","name":"","type":"uint256"}],"stateMutability":"view","type":"function"},{"inputs":[{"internalType":"uint128","name":"a","type":"uint128"},{"internalType":"uint128","name":"b","type":"uint128"}],"name":"subtract","outputs":[{"internalType":"uint128","name":"","type":"uint128"}],"stateMutability":"nonpayable","type":"function"}],"evm":{"bytecode":{"linkReferences":{},"object":"608060405234801561001057600080fd5b50611990806100206000396000f3fe608060405234801561001057600080fd5b50600436106100b45760003560e01c80639a8eadd4116100715780639a8eadd4146101a5578063abcc11d8146101d5578063b2e9949d146101f3578063bbaa082014610227578063dd1033f814610257578063feb9939014610275576100b4565b8063202e3924146100b95780632b4e7c1d146100ed5780632b7d0e601461010b5780633ea23f321461013b57806356b176e11461016b57806376db4f6614610175575b600080fd5b6100d360048036038101906100ce9190611001565b6102a5565b6040516100e4959493929190611094565b60405180910390f35b6100f5610461565b60405161010291906110f6565b60405180910390f35b610125600480360381019061012091906111cc565b610467565b604051610132919061133e565b60405180910390f35b6101556004803603810190610150919061138c565b61096f565b60405161016291906113cc565b60405180910390f35b6101736109ec565b005b61018f600480360381019061018a919061138c565b610a2f565b60405161019c91906113cc565b60405180910390f35b6101bf60048036038101906101ba919061138c565b610abf565b6040516101cc91906113cc565b60405180910390f35b6101dd610b3c565b6040516101ea91906113cc565b60405180910390f35b61020d60048036038101906102089190611001565b610b5c565b60405161021e959493929190611094565b60405180910390f35b610241600480360381019061023c919061138c565b610c03565b60405161024e91906113cc565b60405180910390f35b61025f610cec565b60405161026c91906110f6565b60405180910390f35b61028f600480360381019061028a919061138c565b610cf6565b60405161029c91906113cc565b60405180910390f35b600080600080600060025486106102f1576040517f08c379a00000000000000000000000000000000000000000000000000000000081526004016102e890611444565b60405180910390fd5b6000600160008881526020019081526020016000206040518060a00160405290816000820160009054906101000a90046fffffffffffffffffffffffffffffffff166fffffffffffffffffffffffffffffffff166fffffffffffffffffffffffffffffffff1681526020016000820160109054906101000a90046fffffffffffffffffffffffffffffffff166fffffffffffffffffffffffffffffffff166fffffffffffffffffffffffffffffffff1681526020016001820160009054906101000a900460ff1660ff1660ff1681526020016001820160019054906101000a90046fffffffffffffffffffffffffffffffff166fffffffffffffffffffffffffffffffff166fffffffffffffffffffffffffffffffff1681526020016001820160119054906101000a900463ffffffff1663ffffffff1663ffffffff1681525050905080600001518160200151826040015183606001518460800151955095509550955095505091939590929450565b60025481565b6060848490508787905014801561048357508282905085859050145b6104c2576040517f08c379a00000000000000000000000000000000000000000000000000000000081526004016104b9906114b0565b60405180910390fd5b8686905067ffffffffffffffff8111156104df576104de6114d0565b5b60405190808252806020026020018201604052801561050d5781602001602082028036833780820191505090505b50905060005b8787905081101561096457600160ff16848483818110610536576105356114ff565b5b905060200201602081019061054b919061155a565b60ff16036105f5576105ab888883818110610569576105686114ff565b5b905060200201602081019061057e9190611587565b878784818110610591576105906114ff565b5b90506020020160208101906105a69190611587565b610cf6565b8282815181106105be576105bd6114ff565b5b60200260200101906fffffffffffffffffffffffffffffffff1690816fffffffffffffffffffffffffffffffff1681525050610951565b600260ff1684848381811061060d5761060c6114ff565b5b9050602002016020810190610622919061155a565b60ff16036106cc576106828888838181106106405761063f6114ff565b5b90506020020160208101906106559190611587565b878784818110610668576106676114ff565b5b905060200201602081019061067d9190611587565b610a2f565b828281518110610695576106946114ff565b5b60200260200101906fffffffffffffffffffffffffffffffff1690816fffffffffffffffffffffffffffffffff1681525050610950565b600360ff168484838181106106e4576106e36114ff565b5b90506020020160208101906106f9919061155a565b60ff16036107a357610759888883818110610717576107166114ff565b5b905060200201602081019061072c9190611587565b87878481811061073f5761073e6114ff565b5b90506020020160208101906107549190611587565b610c03565b82828151811061076c5761076b6114ff565b5b60200260200101906fffffffffffffffffffffffffffffffff1690816fffffffffffffffffffffffffffffffff168152505061094f565b600460ff168484838181106107bb576107ba6114ff565b5b90506020020160208101906107d0919061155a565b60ff160361087a576108308888838181106107ee576107ed6114ff565b5b90506020020160208101906108039190611587565b878784818110610816576108156114ff565b5b905060200201602081019061082b9190611587565b61096f565b828281518110610843576108426114ff565b5b60200260200101906fffffffffffffffffffffffffffffffff1690816fffffffffffffffffffffffffffffffff168152505061094e565b600560ff16848483818110610892576108916114ff565b5b90506020020160208101906108a7919061155a565b60ff160361094d576109078888838181106108c5576108c46114ff565b5b90506020020160208101906108da9190611587565b8787848181106108ed576108ec6114ff565b5b90506020020160208101906109029190611587565b610abf565b82828151811061091a576109196114ff565b5b60200260200101906fffffffffffffffffffffffffffffffff1690816fffffffffffffffffffffffffffffffff16815250505b5b5b5b5b808061095c906115e3565b915050610513565b509695505050505050565b600080826fffffffffffffffffffffffffffffffff16116109c5576040517f08c379a00000000000000000000000000000000000000000000000000000000081526004016109bc90611677565b60405180910390fd5b600082846109d391906116c6565b90506109e28484600484610d85565b8091505092915050565b600060028190555060008060006101000a8154816fffffffffffffffffffffffffffffffff02191690836fffffffffffffffffffffffffffffffff160217905550565b6000826fffffffffffffffffffffffffffffffff16826fffffffffffffffffffffffffffffffff161115610a98576040517f08c379a0000000000000000000000000000000000000000000000000000000008152600401610a8f90611743565b60405180910390fd5b60008284610aa69190611763565b9050610ab58484600284610d85565b8091505092915050565b600080826fffffffffffffffffffffffffffffffff1611610b15576040517f08c379a0000000000000000000000000000000000000000000000000000000008152600401610b0c906117f3565b60405180910390fd5b60008284610b239190611813565b9050610b328484600584610d85565b8091505092915050565b60008054906101000a90046fffffffffffffffffffffffffffffffff1681565b60016020528060005260406000206000915090508060000160009054906101000a90046fffffffffffffffffffffffffffffffff16908060000160109054906101000a90046fffffffffffffffffffffffffffffffff16908060010160009054906101000a900460ff16908060010160019054906101000a90046fffffffffffffffffffffffffffffffff16908060010160119054906101000a900463ffffffff16905085565b600080836fffffffffffffffffffffffffffffffff161480610c3757506000826fffffffffffffffffffffffffffffffff16145b15610c5357610c4a838360036000610d85565b60009050610ce6565b60008284610c619190611844565b9050826fffffffffffffffffffffffffffffffff168482610c8291906116c6565b6fffffffffffffffffffffffffffffffff1614610cd4576040517f08c379a0000000000000000000000000000000000000000000000000000000008152600401610ccb906118cd565b60405180910390fd5b610ce18484600384610d85565b809150505b92915050565b6000600254905090565b6000808284610d0591906118ed565b9050836fffffffffffffffffffffffffffffffff16816fffffffffffffffffffffffffffffffff161015610d6e576040517f08c379a0000000000000000000000000000000000000000000000000000000008152600401610d65906118cd565b60405180910390fd5b610d7b8484600184610d85565b8091505092915050565b806000806101000a8154816fffffffffffffffffffffffffffffffff02191690836fffffffffffffffffffffffffffffffff1602179055506040518060a00160405280856fffffffffffffffffffffffffffffffff168152602001846fffffffffffffffffffffffffffffffff1681526020018360ff168152602001826fffffffffffffffffffffffffffffffff1681526020014263ffffffff1681525060016000600254815260200190815260200160002060008201518160000160006101000a8154816fffffffffffffffffffffffffffffffff02191690836fffffffffffffffffffffffffffffffff16021790555060208201518160000160106101000a8154816fffffffffffffffffffffffffffffffff02191690836fffffffffffffffffffffffffffffffff16021790555060408201518160010160006101000a81548160ff021916908360ff16021790555060608201518160010160016101000a8154816fffffffffffffffffffffffffffffffff02191690836fffffffffffffffffffffffffffffffff16021790555060808201518160010160116101000a81548163ffffffff021916908363ffffffff16021790555090505060026000815480929190610f53906115e3565b91905055508160ff16836fffffffffffffffffffffffffffffffff16856fffffffffffffffffffffffffffffffff167fa045edeed5de13c32927158770e879c073c795d1cd342ac9a6390b7b1371fac78442604051610fb3929190611931565b60405180910390a450505050565b600080fd5b600080fd5b6000819050919050565b610fde81610fcb565b8114610fe957600080fd5b50565b600081359050610ffb81610fd5565b92915050565b60006020828403121561101757611016610fc1565b5b600061102584828501610fec565b91505092915050565b60006fffffffffffffffffffffffffffffffff82169050919050565b6110538161102e565b82525050565b600060ff82169050919050565b61106f81611059565b82525050565b600063ffffffff82169050919050565b61108e81611075565b82525050565b600060a0820190506110a9600083018861104a565b6110b6602083018761104a565b6110c36040830186611066565b6110d0606083018561104a565b6110dd6080830184611085565b9695505050505050565b6110f081610fcb565b82525050565b600060208201905061110b60008301846110e7565b92915050565b600080fd5b600080fd5b600080fd5b60008083601f84011261113657611135611111565b5b8235905067ffffffffffffffff81111561115357611152611116565b5b60208301915083602082028301111561116f5761116e61111b565b5b9250929050565b60008083601f84011261118c5761118b611111565b5b8235905067ffffffffffffffff8111156111a9576111a8611116565b5b6020830191508360208202830111156111c5576111c461111b565b5b9250929050565b600080600080600080606087890312156111e9576111e8610fc1565b5b600087013567ffffffffffffffff81111561120757611206610fc6565b5b61121389828a01611120565b9650965050602087013567ffffffffffffffff81111561123657611235610fc6565b5b61124289828a01611120565b9450945050604087013567ffffffffffffffff81111561126557611264610fc6565b5b61127189828a01611176565b92509250509295509295509295565b600081519050919050565b600082825260208201905092915050565b6000819050602082019050919050565b6112b58161102e565b82525050565b60006112c783836112ac565b60208301905092915050565b6000602082019050919050565b60006112eb82611280565b6112f5818561128b565b93506113008361129c565b8060005b8381101561133157815161131888826112bb565b9750611323836112d3565b925050600181019050611304565b5085935050505092915050565b6000602082019050818103600083015261135881846112e0565b905092915050565b6113698161102e565b811461137457600080fd5b50565b60008135905061138681611360565b92915050565b600080604083850312156113a3576113a2610fc1565b5b60006113b185828601611377565b92505060206113c285828601611377565b9150509250929050565b60006020820190506113e1600083018461104a565b92915050565b600082825260208201905092915050565b7f4f7574206f6620626f756e647300000000000000000000000000000000000000600082015250565b600061142e600d836113e7565b9150611439826113f8565b602082019050919050565b6000602082019050818103600083015261145d81611421565b9050919050565b7f4c656e677468206d69736d617463680000000000000000000000000000000000600082015250565b600061149a600f836113e7565b91506114a582611464565b602082019050919050565b600060208201905081810360008301526114c98161148d565b9050919050565b7f4e487b7100000000000000000000000000000000000000000000000000000000600052604160045260246000fd5b7f4e487b7100000000000000000000000000000000000000000000000000000000600052603260045260246000fd5b61153781611059565b811461154257600080fd5b50565b6000813590506115548161152e565b92915050565b6000602082840312156115705761156f610fc1565b5b600061157e84828501611545565b91505092915050565b60006020828403121561159d5761159c610fc1565b5b60006115ab84828501611377565b91505092915050565b7f4e487b7100000000000000000000000000000000000000000000000000000000600052601160045260246000fd5b60006115ee82610fcb565b91507fffffffffffffffffffffffffffffffffffffffffffffffffffffffffffffffff82036116205761161f6115b4565b5b600182019050919050565b7f446976206279207a65726f000000000000000000000000000000000000000000600082015250565b6000611661600b836113e7565b915061166c8261162b565b602082019050919050565b6000602082019050818103600083015261169081611654565b9050919050565b7f4e487b7100000000000000000000000000000000000000000000000000000000600052601260045260246000fd5b60006116d18261102e565b91506116dc8361102e565b9250826116ec576116eb611697565b5b828204905092915050565b7f556e646572666c6f770000000000000000000000000000000000000000000000600082015250565b600061172d6009836113e7565b9150611738826116f7565b602082019050919050565b6000602082019050818103600083015261175c81611720565b9050919050565b600061176e8261102e565b91506117798361102e565b925082820390506fffffffffffffffffffffffffffffffff8111156117a1576117a06115b4565b5b92915050565b7f4d6f64206279207a65726f000000000000000000000000000000000000000000600082015250565b60006117dd600b836113e7565b91506117e8826117a7565b602082019050919050565b6000602082019050818103600083015261180c816117d0565b9050919050565b600061181e8261102e565b91506118298361102e565b92508261183957611838611697565b5b828206905092915050565b600061184f8261102e565b915061185a8361102e565b92508282026118688161102e565b915080821461187a576118796115b4565b5b5092915050565b7f4f766572666c6f77000000000000000000000000000000000000000000000000600082015250565b60006118b76008836113e7565b91506118c282611881565b602082019050919050565b600060208201905081810360008301526118e6816118aa565b9050919050565b60006118f88261102e565b91506119038361102e565b925082820190506fffffffffffffffffffffffffffffffff81111561192b5761192a6115b4565b5b92915050565b6000604082019050611946600083018561104a565b6119536020830184611085565b939250505056fea2646970667358221220c03ccc82b205ac5f1154bac1f48d15f4338faf75464827f72e6984c1b4865e8464736f6c63430008130033","opcodes":"PUSH1 0x80 PUSH1 0x40 MSTORE CALLVALUE DUP1 ISZERO PUSH2 0x10 JUMPI PUSH1 0x0 DUP1 REVERT JUMPDEST POP PUSH2 0x1990 DUP1 PUSH2 0x20 PUSH1 0x0 CODECOPY PUSH1 0x0 RETURN INVALID PUSH1 0x80 PUSH1 0x40 MSTORE CALLVALUE DUP1 ISZERO PUSH2 0x10 JUMPI PUSH1 0x0 DUP1 REVERT JUMPDEST POP PUSH1 0x4 CALLDATASIZE LT PUSH2 0xB4 JUMPI PUSH1 0x0 CALLDATALOAD PUSH1 0xE0 SHR DUP1 PUSH4 0x9A8EADD4 GT PUSH2 0x71 JUMPI DUP1 PUSH4 0x9A8EADD4 EQ PUSH2 0x1A5 JUMPI DUP1 PUSH4 0xABCC11D8 EQ PUSH2 0x1D5 JUMPI DUP1 PUSH4 0xB2E9949D EQ PUSH2 0x1F3 JUMPI DUP1 PUSH4 0xBBAA0820 EQ PUSH2 0x227 JUMPI DUP1 PUSH4 0xDD1033F8 EQ PUSH2 0x257 JUMPI DUP1 PUSH4 0xFEB99390 EQ PUSH2 0x275 JUMPI PUSH2 0xB4 JUMP JUMPDEST DUP1 PUSH4 0x202E3924 EQ PUSH2 0xB9 JUMPI DUP1 PUSH4 0x2B4E7C1D EQ PUSH2 0xED JUMPI DUP1 PUSH4 0x2B7D0E60 EQ PUSH2 0x10B JUMPI DUP1 PUSH4 0x3EA23F32 EQ PUSH2 0x13B JUMPI DUP1 PUSH4 0x56B176E1 EQ PUSH2 0x16B JUMPI DUP1 PUSH4 0x76DB4F66 EQ PUSH2 0x175 JUMPI JUMPDEST PUSH1 0x0 DUP1 REVERT JUMPDEST PUSH2 0xD3 PUSH1 0x4 DUP1 CALLDATASIZE SUB DUP2 ADD SWAP1 PUSH2 0xCE SWAP2 SWAP1 PUSH2 0x1001 JUMP JUMPDEST PUSH2 0x2A5 JUMP JUMPDEST PUSH1 0x40 MLOAD PUSH2 0xE4 SWAP6 SWAP5 SWAP4 SWAP3 SWAP2 SWAP1 PUSH2 0x1094 JUMP JUMPDEST PUSH1 0x40 MLOAD DUP1 SWAP2 SUB SWAP1 RETURN JUMPDEST PUSH2 0xF5 PUSH2 0x461 JUMP JUMPDEST PUSH1 0x40 MLOAD PUSH2 0x102 SWAP2 SWAP1 PUSH2 0x10F6 JUMP JUMPDEST PUSH1 0x40 MLOAD DUP1 SWAP2 SUB SWAP1 RETURN JUMPDEST PUSH2 0x125 PUSH1 0x4 DUP1 CALLDATASIZE SUB DUP2 ADD SWAP1 PUSH2 0x120 SWAP2 SWAP1 PUSH2 0x11CC JUMP JUMPDEST PUSH2 0x467 JUMP JUMPDEST PUSH1 0x40 MLOAD PUSH2 0x132 SWAP2 SWAP1 PUSH2 0x133E JUMP JUMPDEST PUSH1 0x40 MLOAD DUP1 SWAP2 SUB SWAP1 RETURN JUMPDEST PUSH2 0x155 PUSH1 0x4 DUP1 CALLDATASIZE SUB DUP2 ADD SWAP1 PUSH2 0x150 SWAP2 SWAP1 PUSH2 0x138C JUMP JUMPDEST PUSH2 0x96F JUMP JUMPDEST PUSH1 0x40 MLOAD PUSH2 0x162 SWAP2 SWAP1 PUSH2 0x13CC JUMP JUMPDEST PUSH1 0x40 MLOAD DUP1 SWAP2 SUB SWAP1 RETURN JUMPDEST PUSH2 0x173 PUSH2 0x9EC JUMP JUMPDEST STOP JUMPDEST PUSH2 0x18F PUSH1 0x4 DUP1 CALLDATASIZE SUB DUP2 ADD SWAP1 PUSH2 0x18A SWAP2 SWAP1 PUSH2 0x138C JUMP JUMPDEST PUSH2 0xA2F JUMP JUMPDEST PUSH1 0x40 MLOAD PUSH2 0x19C SWAP2 SWAP1 PUSH2 0x13CC JUMP JUMPDEST PUSH1 0x40 MLOAD DUP1 SWAP2 SUB SWAP1 RETURN JUMPDEST PUSH2 0x1BF PUSH1 0x4 DUP1 CALLDATASIZE SUB DUP2 ADD SWAP1 PUSH2 0x1BA SWAP2 SWAP1 PUSH2 0x138C JUMP JUMPDEST PUSH2 0xABF JUMP JUMPDEST PUSH1 0x40 MLOAD PUSH2 0x1CC SWAP2 SWAP1 PUSH2 0x13CC JUMP JUMPDEST PUSH1 0x40 MLOAD DUP1 SWAP2 SUB SWAP1 RETURN JUMPDEST PUSH2 0x1DD PUSH2 0xB3C JUMP JUMPDEST PUSH1 0x40 MLOAD PUSH2 0x1EA SWAP2 SWAP1 PUSH2 0x13CC JUMP JUMPDEST PUSH1 0x40 MLOAD DUP1 SWAP2 SUB SWAP1 RETURN JUMPDEST PUSH2 0x20D PUSH1 0x4 DUP1 CALLDATASIZE SUB DUP2 ADD SWAP1 PUSH2 0x208 SWAP2 SWAP1 PUSH2 0x1001 JUMP JUMPDEST PUSH2 0xB5C JUMP JUMPDEST PUSH1 0x40 MLOAD PUSH2 0x21E SWAP6 SWAP5 SWAP4 SWAP3 SWAP2 SWAP1 PUSH2 0x1094 JUMP JUMPDEST PUSH1 0x40 MLOAD DUP1 SWAP2 SUB SWAP1 RETURN JUMPDEST PUSH2 0x241 PUSH1 0x4 DUP1 CALLDATASIZE SUB DUP2 ADD SWAP1 PUSH2 0x23C SWAP2 SWAP1 PUSH2 0x138C JUMP JUMPDEST PUSH2 0xC03 JUMP JUMPDEST PUSH1 0x40 MLOAD PUSH2 0x24E SWAP2 SWAP1 PUSH2 0x13CC JUMP JUMPDEST PUSH1 0x40 MLOAD DUP1 SWAP2 SUB SWAP1 RETURN JUMPDEST PUSH2 0x25F PUSH2 0xCEC JUMP JUMPDEST PUSH1 0x40 MLOAD PUSH2 0x26C SWAP2 SWAP1 PUSH2 0x10F6 JUMP JUMPDEST PUSH1 0x40 MLOAD DUP1 SWAP2 SUB SWAP1 RETURN JUMPDEST PUSH2 0x28F PUSH1 0x4 DUP1 CALLDATASIZE SUB DUP2 ADD SWAP1 PUSH2 0x28A SWAP2 SWAP1 PUSH2 0x138C JUMP JUMPDEST PUSH2 0xCF6 JUMP JUMPDEST PUSH1 0x40 MLOAD PUSH2 0x29C SWAP2 SWAP1 PUSH2 0x13CC JUMP JUMPDEST PUSH1 0x40 MLOAD DUP1 SWAP2 SUB SWAP1 RETURN JUMPDEST PUSH1 0x0 DUP1 PUSH1 0x0 DUP1 PUSH1 0x0 PUSH1 0x2 SLOAD DUP7 LT PUSH2 0x2F1 JUMPI PUSH1 0x40 MLOAD PUSH32 0x8C379A000000000000000000000000000000000000000000000000000000000 DUP2 MSTORE PUSH1 0x4 ADD PUSH2 0x2E8 SWAP1 PUSH2 0x1444 JUMP JUMPDEST PUSH1 0x40 MLOAD DUP1 SWAP2 SUB SWAP1 REVERT JUMPDEST PUSH1 0x0 PUSH1 0x1 PUSH1 0x0 DUP9 DUP2 MSTORE PUSH1 0x20 ADD SWAP1 DUP2 MSTORE PUSH1 0x20 ADD PUSH1 0x0 KECCAK256 PUSH1 0x40 MLOAD DUP1 PUSH1 0xA0 ADD PUSH1 0x40 MSTORE SWAP1 DUP2 PUSH1 0x0 DUP3 ADD PUSH1 0x0 SWAP1 SLOAD SWAP1 PUSH2 0x100 EXP SWAP1 DIV PUSH16 0xFFFFFFFFFFFFFFFFFFFFFFFFFFFFFFFF AND PUSH16 0xFFFFFFFFFFFFFFFFFFFFFFFFFFFFFFFF AND PUSH16 0xFFFFFFFFFFFFFFFFFFFFFFFFFFFFFFFF AND DUP2 MSTORE PUSH1 0x20 ADD PUSH1 0x0 DUP3 ADD PUSH1 0x10 SWAP1 SLOAD SWAP1 PUSH2 0x100 EXP SWAP1 DIV PUSH16 0xFFFFFFFFFFFFFFFFFFFFFFFFFFFFFFFF AND PUSH16 0xFFFFFFFFFFFFFFFFFFFFFFFFFFFFFFFF AND PUSH16 0xFFFFFFFFFFFFFFFFFFFFFFFFFFFFFFFF AND DUP2 MSTORE PUSH1 0x20 ADD PUSH1 0x1 DUP3 ADD PUSH1 0x0 SWAP1 SLOAD SWAP1 PUSH2 0x100 EXP SWAP1 DIV PUSH1 0xFF AND PUSH1 0xFF AND PUSH1 0xFF AND DUP2 MSTORE PUSH1 0x20 ADD PUSH1 0x1 DUP3 ADD PUSH1 0x1 SWAP1 SLOAD SWAP1 PUSH2 0x100 EXP SWAP1 DIV PUSH16 0xFFFFFFFFFFFFFFFFFFFFFFFFFFFFFFFF AND PUSH16 0xFFFFFFFFFFFFFFFFFFFFFFFFFFFFFFFF AND PUSH16 0xFFFFFFFFFFFFFFFFFFFFFFFFFFFFFFFF AND DUP2 MSTORE PUSH1 0x20 ADD PUSH1 0x1 DUP3 ADD PUSH1 0x11 SWAP1 SLOAD SWAP1 PUSH2 0x100 EXP SWAP1 DIV PUSH4 0xFFFFFFFF AND PUSH4 0xFFFFFFFF AND PUSH4 0xFFFFFFFF AND DUP2 MSTORE POP POP SWAP1 POP DUP1 PUSH1 0x0 ADD MLOAD DUP2 PUSH1 0x20 ADD MLOAD DUP3 PUSH1 0x40 ADD MLOAD DUP4 PUSH1 0x60 ADD MLOAD DUP5 PUSH1 0x80 ADD MLOAD SWAP6 POP SWAP6 POP SWAP6 POP SWAP6 POP SWAP6 POP POP SWAP2 SWAP4 SWAP6 SWAP1 SWAP3 SWAP5 POP JUMP JUMPDEST PUSH1 0x2 SLOAD DUP2 JUMP JUMPDEST PUSH1 0x60 DUP5 DUP5 SWAP1 POP DUP8 DUP8 SWAP1 POP EQ DUP1 ISZERO PUSH2 0x483 JUMPI POP DUP3 DUP3 SWAP1 POP DUP6 DUP6 SWAP1 POP EQ JUMPDEST PUSH2 0x4C2 JUMPI PUSH1 0x40 MLOAD PUSH32 0x8C379A000000000000000000000000000000000000000000000000000000000 DUP2 MSTORE PUSH1 0x4 ADD PUSH2 0x4B9 SWAP1 PUSH2 0x14B0 JUMP JUMPDEST PUSH1 0x40 MLOAD DUP1 SWAP2 SUB SWAP1 REVERT JUMPDEST DUP7 DUP7 SWAP1 POP PUSH8 0xFFFFFFFFFFFFFFFF DUP2 GT ISZERO PUSH2 0x4DF JUMPI PUSH2 0x4DE PUSH2 0x14D0 JUMP JUMPDEST JUMPDEST PUSH1 0x40 MLOAD SWAP1 DUP1 DUP3 MSTORE DUP1 PUSH1 0x20 MUL PUSH1 0x20 ADD DUP3 ADD PUSH1 0x40 MSTORE DUP1 ISZERO PUSH2 0x50D JUMPI DUP2 PUSH1 0x20 ADD PUSH1 0x20 DUP3 MUL DUP1 CALLDATASIZE DUP4 CALLDATACOPY DUP1 DUP3 ADD SWAP2 POP POP SWAP1 POP JUMPDEST POP SWAP1 POP PUSH1 0x0 JUMPDEST DUP8 DUP8 SWAP1 POP DUP2 LT ISZERO PUSH2 0x964 JUMPI PUSH1 0x1 PUSH1 0xFF AND DUP5 DUP5 DUP4 DUP2 DUP2 LT PUSH2 0x536 JUMPI PUSH2 0x535 PUSH2 0x14FF JUMP JUMPDEST JUMPDEST SWAP1 POP PUSH1 0x20 MUL ADD PUSH1 0x20 DUP2 ADD SWAP1 PUSH2 0x54B SWAP2 SWAP1 PUSH2 0x155A JUMP JUMPDEST PUSH1 0xFF AND SUB PUSH2 0x5F5 JUMPI PUSH2 0x5AB DUP9 DUP9 DUP4 DUP2 DUP2 LT PUSH2 0x569 JUMPI PUSH2 0x568 PUSH2 0x14FF JUMP JUMPDEST JUMPDEST SWAP1 POP PUSH1 0x20 MUL ADD PUSH1 0x20 DUP2 ADD SWAP1 PUSH2 0x57E SWAP2 SWAP1 PUSH2 0x1587 JUMP JUMPDEST DUP8 DUP8 DUP5 DUP2 DUP2 LT PUSH2 0x591 JUMPI PUSH2 0x590 PUSH2 0x14FF JUMP JUMPDEST JUMPDEST SWAP1 POP PUSH1 0x20 MUL ADD PUSH1 0x20 DUP2 ADD SWAP1 PUSH2 0x5A6 SWAP2 SWAP1 PUSH2 0x1587 JUMP JUMPDEST PUSH2 0xCF6 JUMP JUMPDEST DUP3 DUP3 DUP2 MLOAD DUP2 LT PUSH2 0x5BE JUMPI PUSH2 0x5BD PUSH2 0x14FF JUMP JUMPDEST JUMPDEST PUSH1 0x20 MUL PUSH1 0x20 ADD ADD SWAP1 PUSH16 0xFFFFFFFFFFFFFFFFFFFFFFFFFFFFFFFF AND SWAP1 DUP2 PUSH16 0xFFFFFFFFFFFFFFFFFFFFFFFFFFFFFFFF AND DUP2 MSTORE POP POP PUSH2 0x951 JUMP JUMPDEST PUSH1 0x2 PUSH1 0xFF AND DUP5 DUP5 DUP4 DUP2 DUP2 LT PUSH2 0x60D JUMPI PUSH2 0x60C PUSH2 0x14FF JUMP JUMPDEST JUMPDEST SWAP1 POP PUSH1 0x20 MUL ADD PUSH1 0x20 DUP2 ADD SWAP1 PUSH2 0x622 SWAP2 SWAP1 PUSH2 0x155A JUMP JUMPDEST PUSH1 0xFF AND SUB PUSH2 0x6CC JUMPI PUSH2 0x682 DUP9 DUP9 DUP4 DUP2 DUP2 LT PUSH2 0x640 JUMPI PUSH2 0x63F PUSH2 0x14FF JUMP JUMPDEST JUMPDEST SWAP1 POP PUSH1 0x20 MUL ADD PUSH1 0x20 DUP2 ADD SWAP1 PUSH2 0x655 SWAP2 SWAP1 PUSH2 0x1587 JUMP JUMPDEST DUP8 DUP8 DUP5 DUP2 DUP2 LT PUSH2 0x668 JUMPI PUSH2 0x667 PUSH2 0x14FF JUMP JUMPDEST JUMPDEST SWAP1 POP PUSH1 0x20 MUL ADD PUSH1 0x20 DUP2 ADD SWAP1 PUSH2 0x67D SWAP2 SWAP1 PUSH2 0x1587 JUMP JUMPDEST PUSH2 0xA2F JUMP JUMPDEST DUP3 DUP3 DUP2 MLOAD DUP2 LT PUSH2 0x695 JUMPI PUSH2 0x694 PUSH2 0x14FF JUMP JUMPDEST JUMPDEST PUSH1 0x20 MUL PUSH1 0x20 ADD ADD SWAP1 PUSH16 0xFFFFFFFFFFFFFFFFFFFFFFFFFFFFFFFF AND SWAP1 DUP2 PUSH16 0xFFFFFFFFFFFFFFFFFFFFFFFFFFFFFFFF AND DUP2 MSTORE POP POP PUSH2 0x950 JUMP JUMPDEST PUSH1 0x3 PUSH1 0xFF AND DUP5 DUP5 DUP4 DUP2 DUP2 LT PUSH2 0x6E4 JUMPI PUSH2 0x6E3 PUSH2 0x14FF JUMP JUMPDEST JUMPDEST SWAP1 POP PUSH1 0x20 MUL ADD PUSH1 0x20 DUP2 ADD SWAP1 PUSH2 0x6F9 SWAP2 SWAP1 PUSH2 0x155A JUMP JUMPDEST PUSH1 0xFF AND SUB PUSH2 0x7A3 JUMPI PUSH2 0x759 DUP9 DUP9 DUP4 DUP2 DUP2 LT PUSH2 0x717 JUMPI PUSH2 0x716 PUSH2 0x14FF JUMP JUMPDEST JUMPDEST SWAP1 POP PUSH1 0x20 MUL ADD PUSH1 0x20 DUP2 ADD SWAP1 PUSH2 0x72C SWAP2 SWAP1 PUSH2 0x1587 JUMP JUMPDEST DUP8 DUP8 DUP5 DUP2 DUP2 LT PUSH2 0x73F JUMPI PUSH2 0x73E PUSH2 0x14FF JUMP JUMPDEST JUMPDEST SWAP1 POP PUSH1 0x20 MUL ADD PUSH1 0x20 DUP2 ADD SWAP1 PUSH2 0x754 SWAP2 SWAP1 PUSH2 0x1587 JUMP JUMPDEST PUSH2 0xC03 JUMP JUMPDEST DUP3 DUP3 DUP2 MLOAD DUP2 LT PUSH2 0x76C JUMPI PUSH2 0x76B PUSH2 0x14FF JUMP JUMPDEST JUMPDEST PUSH1 0x20 MUL PUSH1 0x20 ADD ADD SWAP1 PUSH16 0xFFFFFFFFFFFFFFFFFFFFFFFFFFFFFFFF AND SWAP1 DUP2 PUSH16 0xFFFFFFFFFFFFFFFFFFFFFFFFFFFFFFFF AND DUP2 MSTORE POP POP PUSH2 0x94F JUMP JUMPDEST PUSH1 0x4 PUSH1 0xFF AND DUP5 DUP5 DUP4 DUP2 DUP2 LT PUSH2 0x7BB JUMPI PUSH2 0x7BA PUSH2 0x14FF JUMP JUMPDEST JUMPDEST SWAP1 POP PUSH1 0x20 MUL ADD PUSH1 0x20 DUP2 ADD SWAP1 PUSH2 0x7D0 SWAP2 SWAP1 PUSH2 0x155A JUMP JUMPDEST PUSH1 0xFF AND SUB PUSH2 0x87A JUMPI PUSH2 0x830 DUP9 DUP9 DUP4 DUP2 DUP2 LT PUSH2 0x7EE JUMPI PUSH2 0x7ED PUSH2 0x14FF JUMP JUMPDEST JUMPDEST SWAP1 POP PUSH1 0x20 MUL ADD PUSH1 0x20 DUP2 ADD SWAP1 PUSH2 0x803 SWAP2 SWAP1 PUSH2 0x1587 JUMP JUMPDEST DUP8 DUP8 DUP5 DUP2 DUP2 LT PUSH2 0x816 JUMPI PUSH2 0x815 PUSH2 0x14FF JUMP JUMPDEST JUMPDEST SWAP1 POP PUSH1 0x20 MUL ADD PUSH1 0x20 DUP2 ADD SWAP1 PUSH2 0x82B SWAP2 SWAP1 PUSH2 0x1587 JUMP JUMPDEST PUSH2 0x96F JUMP JUMPDEST DUP3 DUP3 DUP2 MLOAD DUP2 LT PUSH2 0x843 JUMPI PUSH2 0x842 PUSH2 0x14FF JUMP JUMPDEST JUMPDEST PUSH1 0x20 MUL PUSH1 0x20 ADD ADD SWAP1 PUSH16 0xFFFFFFFFFFFFFFFFFFFFFFFFFFFFFFFF AND SWAP1 DUP2 PUSH16 0xFFFFFFFFFFFFFFFFFFFFFFFFFFFFFFFF AND DUP2 MSTORE POP POP PUSH2 0x94E JUMP JUMPDEST PUSH1 0x5 PUSH1 0xFF AND DUP5 DUP5 DUP4 DUP2 DUP2 LT PUSH2 0x892 JUMPI PUSH2 0x891 PUSH2 0x14FF JUMP JUMPDEST JUMPDEST SWAP1 POP PUSH1 0x20 MUL ADD PUSH1 0x20 DUP2 ADD SWAP1 PUSH2 0x8A7 SWAP2 SWAP1 PUSH2 0x155A JUMP JUMPDEST PUSH1 0xFF AND SUB PUSH2 0x94D JUMPI PUSH2 0x907 DUP9 DUP9 DUP4 DUP2 DUP2 LT PUSH2 0x8C5 JUMPI PUSH2 0x8C4 PUSH2 0x14FF JUMP JUMPDEST JUMPDEST SWAP1 POP PUSH1 0x20 MUL ADD PUSH1 0x20 DUP2 ADD SWAP1 PUSH2 0x8DA SWAP2 SWAP1 PUSH2 0x1587 JUMP JUMPDEST DUP8 DUP8 DUP5 DUP2 DUP2 LT PUSH2 0x8ED JUMPI PUSH2 0x8EC PUSH2 0x14FF JUMP JUMPDEST JUMPDEST SWAP1 POP PUSH1 0x20 MUL ADD PUSH1 0x20 DUP2 ADD SWAP1 PUSH2 0x902 SWAP2 SWAP1 PUSH2 0x1587 JUMP JUMPDEST PUSH2 0xABF JUMP JUMPDEST DUP3 DUP3 DUP2 MLOAD DUP2 LT PUSH2 0x91A JUMPI PUSH2 0x919 PUSH2 0x14FF JUMP JUMPDEST JUMPDEST PUSH1 0x20 MUL PUSH1 0x20 ADD ADD SWAP1 PUSH16 0xFFFFFFFFFFFFFFFFFFFFFFFFFFFFFFFF AND SWAP1 DUP2 PUSH16 0xFFFFFFFFFFFFFFFFFFFFFFFFFFFFFFFF AND DUP2 MSTORE POP POP JUMPDEST JUMPDEST JUMPDEST JUMPDEST JUMPDEST DUP1 DUP1 PUSH2 0x95C SWAP1 PUSH2 0x15E3 JUMP JUMPDEST SWAP2 POP POP PUSH2 0x513 JUMP JUMPDEST POP SWAP7 SWAP6 POP POP POP POP POP POP JUMP JUMPDEST PUSH1 0x0 DUP1 DUP3 PUSH16 0xFFFFFFFFFFFFFFFFFFFFFFFFFFFFFFFF AND GT PUSH2 0x9C5 JUMPI PUSH1 0x40 MLOAD PUSH32 0x8C379A000000000000000000000000000000000000000000000000000000000 DUP2 MSTORE PUSH1 0x4 ADD PUSH2 0x9BC SWAP1 PUSH2 0x1677 JUMP JUMPDEST PUSH1 0x40 MLOAD DUP1 SWAP2 SUB SWAP1 REVERT JUMPDEST PUSH1 0x0 DUP3 DUP5 PUSH2 0x9D3 SWAP2 SWAP1 PUSH2 0x16C6 JUMP JUMPDEST SWAP1 POP PUSH2 0x9E2 DUP5 DUP5 PUSH1 0x4 DUP5 PUSH2 0xD85 JUMP JUMPDEST DUP1 SWAP2 POP POP SWAP3 SWAP2 POP POP JUMP JUMPDEST PUSH1 0x0 PUSH1 0x2 DUP2 SWAP1 SSTORE POP PUSH1 0x0 DUP1 PUSH1 0x0 PUSH2 0x100 EXP DUP2 SLOAD DUP2 PUSH16 0xFFFFFFFFFFFFFFFFFFFFFFFFFFFFFFFF MUL NOT AND SWAP1 DUP4 PUSH16 0xFFFFFFFFFFFFFFFFFFFFFFFFFFFFFFFF AND MUL OR SWAP1 SSTORE POP JUMP JUMPDEST PUSH1 0x0 DUP3 PUSH16 0xFFFFFFFFFFFFFFFFFFFFFFFFFFFFFFFF AND DUP3 PUSH16 0xFFFFFFFFFFFFFFFFFFFFFFFFFFFFFFFF AND GT ISZERO PUSH2 0xA98 JUMPI PUSH1 0x40 MLOAD PUSH32 0x8C379A000000000000000000000000000000000000000000000000000000000 DUP2 MSTORE PUSH1 0x4 ADD PUSH2 0xA8F SWAP1 PUSH2 0x1743 JUMP JUMPDEST PUSH1 0x40 MLOAD DUP1 SWAP2 SUB SWAP1 REVERT JUMPDEST PUSH1 0x0 DUP3 DUP5 PUSH2 0xAA6 SWAP2 SWAP1 PUSH2 0x1763 JUMP JUMPDEST SWAP1 POP PUSH2 0xAB5 DUP5 DUP5 PUSH1 0x2 DUP5 PUSH2 0xD85 JUMP JUMPDEST DUP1 SWAP2 POP POP SWAP3 SWAP2 POP POP JUMP JUMPDEST PUSH1 0x0 DUP1 DUP3 PUSH16 0xFFFFFFFFFFFFFFFFFFFFFFFFFFFFFFFF AND GT PUSH2 0xB15 JUMPI PUSH1 0x40 MLOAD PUSH32 0x8C379A000000000000000000000000000000000000000000000000000000000 DUP2 MSTORE PUSH1 0x4 ADD PUSH2 0xB0C SWAP1 PUSH2 0x17F3 JUMP JUMPDEST PUSH1 0x40 MLOAD DUP1 SWAP2 SUB SWAP1 REVERT JUMPDEST PUSH1 0x0 DUP3 DUP5 PUSH2 0xB23 SWAP2 SWAP1 PUSH2 0x1813 JUMP JUMPDEST SWAP1 POP PUSH2 0xB32 DUP5 DUP5 PUSH1 0x5 DUP5 PUSH2 0xD85 JUMP JUMPDEST DUP1 SWAP2 POP POP SWAP3 SWAP2 POP POP JUMP JUMPDEST PUSH1 0x0 DUP1 SLOAD SWAP1 PUSH2 0x100 EXP SWAP1 DIV PUSH16 0xFFFFFFFFFFFFFFFFFFFFFFFFFFFFFFFF AND DUP2 JUMP JUMPDEST PUSH1 0x1 PUSH1 0x20 MSTORE DUP1 PUSH1 0x0 MSTORE PUSH1 0x40 PUSH1 0x0 KECCAK256 PUSH1 0x0 SWAP2 POP SWAP1 POP DUP1 PUSH1 0x0 ADD PUSH1 0x0 SWAP1 SLOAD SWAP1 PUSH2 0x100 EXP SWAP1 DIV PUSH16 0xFFFFFFFFFFFFFFFFFFFFFFFFFFFFFFFF AND SWAP1 DUP1 PUSH1 0x0 ADD PUSH1 0x10 SWAP1 SLOAD SWAP1 PUSH2 0x100 EXP SWAP1 DIV PUSH16 0xFFFFFFFFFFFFFFFFFFFFFFFFFFFFFFFF AND SWAP1 DUP1 PUSH1 0x1 ADD PUSH1 0x0 SWAP1 SLOAD SWAP1 PUSH2 0x100 EXP SWAP1 DIV PUSH1 0xFF AND SWAP1 DUP1 PUSH1 0x1 ADD PUSH1 0x1 SWAP1 SLOAD SWAP1 PUSH2 0x100 EXP SWAP1 DIV PUSH16 0xFFFFFFFFFFFFFFFFFFFFFFFFFFFFFFFF AND SWAP1 DUP1 PUSH1 0x1 ADD PUSH1 0x11 SWAP1 SLOAD SWAP1 PUSH2 0x100 EXP SWAP1 DIV PUSH4 0xFFFFFFFF AND SWAP1 POP DUP6 JUMP JUMPDEST PUSH1 0x0 DUP1 DUP4 PUSH16 0xFFFFFFFFFFFFFFFFFFFFFFFFFFFFFFFF AND EQ DUP1 PUSH2 0xC37 JUMPI POP PUSH1 0x0 DUP3 PUSH16 0xFFFFFFFFFFFFFFFFFFFFFFFFFFFFFFFF AND EQ JUMPDEST ISZERO PUSH2 0xC53 JUMPI PUSH2 0xC4A DUP4 DUP4 PUSH1 0x3 PUSH1 0x0 PUSH2 0xD85 JUMP JUMPDEST PUSH1 0x0 SWAP1 POP PUSH2 0xCE6 JUMP JUMPDEST PUSH1 0x0 DUP3 DUP5 PUSH2 0xC61 SWAP2 SWAP1 PUSH2 0x1844 JUMP JUMPDEST SWAP1 POP DUP3 PUSH16 0xFFFFFFFFFFFFFFFFFFFFFFFFFFFFFFFF AND DUP5 DUP3 PUSH2 0xC82 SWAP2 SWAP1 PUSH2 0x16C6 JUMP JUMPDEST PUSH16 0xFFFFFFFFFFFFFFFFFFFFFFFFFFFFFFFF AND EQ PUSH2 0xCD4 JUMPI PUSH1 0x40 MLOAD PUSH32 0x8C379A000000000000000000000000000000000000000000000000000000000 DUP2 MSTORE PUSH1 0x4 ADD PUSH2 0xCCB SWAP1 PUSH2 0x18CD JUMP JUMPDEST PUSH1 0x40 MLOAD DUP1 SWAP2 SUB SWAP1 REVERT JUMPDEST PUSH2 0xCE1 DUP5 DUP5 PUSH1 0x3 DUP5 PUSH2 0xD85 JUMP JUMPDEST DUP1 SWAP2 POP POP JUMPDEST SWAP3 SWAP2 POP POP JUMP JUMPDEST PUSH1 0x0 PUSH1 0x2 SLOAD SWAP1 POP SWAP1 JUMP JUMPDEST PUSH1 0x0 DUP1 DUP3 DUP5 PUSH2 0xD05 SWAP2 SWAP1 PUSH2 0x18ED JUMP JUMPDEST SWAP1 POP DUP4 PUSH16 0xFFFFFFFFFFFFFFFFFFFFFFFFFFFFFFFF AND DUP2 PUSH16 0xFFFFFFFFFFFFFFFFFFFFFFFFFFFFFFFF AND LT ISZERO PUSH2 0xD6E JUMPI PUSH1 0x40 MLOAD PUSH32 0x8C379A000000000000000000000000000000000000000000000000000000000 DUP2 MSTORE PUSH1 0x4 ADD PUSH2 0xD65 SWAP1 PUSH2 0x18CD JUMP JUMPDEST PUSH1 0x40 MLOAD DUP1 SWAP2 SUB SWAP1 REVERT JUMPDEST PUSH2 0xD7B DUP5 DUP5 PUSH1 0x1 DUP5 PUSH2 0xD85 JUMP JUMPDEST DUP1 SWAP2 POP POP SWAP3 SWAP2 POP POP JUMP JUMPDEST DUP1 PUSH1 0x0 DUP1 PUSH2 0x100 EXP DUP2 SLOAD DUP2 PUSH16 0xFFFFFFFFFFFFFFFFFFFFFFFFFFFFFFFF MUL NOT AND SWAP1 DUP4 PUSH16 0xFFFFFFFFFFFFFFFFFFFFFFFFFFFFFFFF AND MUL OR SWAP1 SSTORE POP PUSH1 0x40 MLOAD DUP1 PUSH1 0xA0 ADD PUSH1 0x40 MSTORE DUP1 DUP6 PUSH16 0xFFFFFFFFFFFFFFFFFFFFFFFFFFFFFFFF AND DUP2 MSTORE PUSH1 0x20 ADD DUP5 PUSH16 0xFFFFFFFFFFFFFFFFFFFFFFFFFFFFFFFF AND DUP2 MSTORE PUSH1 0x20 ADD DUP4 PUSH1 0xFF AND DUP2 MSTORE PUSH1 0x20 ADD DUP3 PUSH16 0xFFFFFFFFFFFFFFFFFFFFFFFFFFFFFFFF AND DUP2 MSTORE PUSH1 0x20 ADD TIMESTAMP PUSH4 0xFFFFFFFF AND DUP2 MSTORE POP PUSH1 0x1 PUSH1 0x0 PUSH1 0x2 SLOAD DUP2 MSTORE PUSH1 0x20 ADD SWAP1 DUP2 MSTORE PUSH1 0x20 ADD PUSH1 0x0 KECCAK256 PUSH1 0x0 DUP3 ADD MLOAD DUP2 PUSH1 0x0 ADD PUSH1 0x0 PUSH2 0x100 EXP DUP2 SLOAD DUP2 PUSH16 0xFFFFFFFFFFFFFFFFFFFFFFFFFFFFFFFF MUL NOT AND SWAP1 DUP4 PUSH16 0xFFFFFFFFFFFFFFFFFFFFFFFFFFFFFFFF AND MUL OR SWAP1 SSTORE POP PUSH1 0x20 DUP3 ADD MLOAD DUP2 PUSH1 0x0 ADD PUSH1 0x10 PUSH2 0x100 EXP DUP2 SLOAD DUP2 PUSH16 0xFFFFFFFFFFFFFFFFFFFFFFFFFFFFFFFF MUL NOT AND SWAP1 DUP4 PUSH16 0xFFFFFFFFFFFFFFFFFFFFFFFFFFFFFFFF AND MUL OR SWAP1 SSTORE POP PUSH1 0x40 DUP3 ADD MLOAD DUP2 PUSH1 0x1 ADD PUSH1 0x0 PUSH2 0x100 EXP DUP2 SLOAD DUP2 PUSH1 0xFF MUL NOT AND SWAP1 DUP4 PUSH1 0xFF AND MUL OR SWAP1 SSTORE POP PUSH1 0x60 DUP3 ADD MLOAD DUP2 PUSH1 0x1 ADD PUSH1 0x1 PUSH2 0x100 EXP DUP2 SLOAD DUP2 PUSH16 0xFFFFFFFFFFFFFFFFFFFFFFFFFFFFFFFF MUL NOT AND SWAP1 DUP4 PUSH16 0xFFFFFFFFFFFFFFFFFFFFFFFFFFFFFFFF AND MUL OR SWAP1 SSTORE POP PUSH1 0x80 DUP3 ADD MLOAD DUP2 PUSH1 0x1 ADD PUSH1 0x11 PUSH2 0x100 EXP DUP2 SLOAD DUP2 PUSH4 0xFFFFFFFF MUL NOT AND SWAP1 DUP4 PUSH4 0xFFFFFFFF AND MUL OR SWAP1 SSTORE POP SWAP1 POP POP PUSH1 0x2 PUSH1 0x0 DUP2 SLOAD DUP1 SWAP3 SWAP2 SWAP1 PUSH2 0xF53 SWAP1 PUSH2 0x15E3 JUMP JUMPDEST SWAP2 SWAP1 POP SSTORE POP DUP2 PUSH1 0xFF AND DUP4 PUSH16 0xFFFFFFFFFFFFFFFFFFFFFFFFFFFFFFFF AND DUP6 PUSH16 0xFFFFFFFFFFFFFFFFFFFFFFFFFFFFFFFF AND PUSH32 0xA045EDEED5DE13C32927158770E879C073C795D1CD342AC9A6390B7B1371FAC7 DUP5 TIMESTAMP PUSH1 0x40 MLOAD PUSH2 0xFB3 SWAP3 SWAP2 SWAP1 PUSH2 0x1931 JUMP JUMPDEST PUSH1 0x40 MLOAD DUP1 SWAP2 SUB SWAP1 LOG4 POP POP POP POP JUMP JUMPDEST PUSH1 0x0 DUP1 REVERT JUMPDEST PUSH1 0x0 DUP1 REVERT JUMPDEST PUSH1 0x0 DUP2 SWAP1 POP SWAP2 SWAP1 POP JUMP JUMPDEST PUSH2 0xFDE DUP2 PUSH2 0xFCB JUMP JUMPDEST DUP2 EQ PUSH2 0xFE9 JUMPI PUSH1 0x0 DUP1 REVERT JUMPDEST POP JUMP JUMPDEST PUSH1 0x0 DUP2 CALLDATALOAD SWAP1 POP PUSH2 0xFFB DUP2 PUSH2 0xFD5 JUMP JUMPDEST SWAP3 SWAP2 POP POP JUMP JUMPDEST PUSH1 0x0 PUSH1 0x20 DUP3 DUP5 SUB SLT ISZERO PUSH2 0x1017 JUMPI PUSH2 0x1016 PUSH2 0xFC1 JUMP JUMPDEST JUMPDEST PUSH1 0x0 PUSH2 0x1025 DUP5 DUP3 DUP6 ADD PUSH2 0xFEC JUMP JUMPDEST SWAP2 POP POP SWAP3 SWAP2 POP POP JUMP JUMPDEST PUSH1 0x0 PUSH16 0xFFFFFFFFFFFFFFFFFFFFFFFFFFFFFFFF DUP3 AND SWAP1 POP SWAP2 SWAP1 POP JUMP JUMPDEST PUSH2 0x1053 DUP2 PUSH2 0x102E JUMP JUMPDEST DUP3 MSTORE POP POP JUMP JUMPDEST PUSH1 0x0 PUSH1 0xFF DUP3 AND SWAP1 POP SWAP2 SWAP1 POP JUMP JUMPDEST PUSH2 0x106F DUP2 PUSH2 0x1059 JUMP JUMPDEST DUP3 MSTORE POP POP JUMP JUMPDEST PUSH1 0x0 PUSH4 0xFFFFFFFF DUP3 AND SWAP1 POP SWAP2 SWAP1 POP JUMP JUMPDEST PUSH2 0x108E DUP2 PUSH2 0x1075 JUMP JUMPDEST DUP3 MSTORE POP POP JUMP JUMPDEST PUSH1 0x0 PUSH1 0xA0 DUP3 ADD SWAP1 POP PUSH2 0x10A9 PUSH1 0x0 DUP4 ADD DUP9 PUSH2 0x104A JUMP JUMPDEST PUSH2 0x10B6 PUSH1 0x20 DUP4 ADD DUP8 PUSH2 0x104A JUMP JUMPDEST PUSH2 0x10C3 PUSH1 0x40 DUP4 ADD DUP7 PUSH2 0x1066 JUMP JUMPDEST PUSH2 0x10D0 PUSH1 0x60 DUP4 ADD DUP6 PUSH2 0x104A JUMP JUMPDEST PUSH2 0x10DD PUSH1 0x80 DUP4 ADD DUP5 PUSH2 0x1085 JUMP JUMPDEST SWAP7 SWAP6 POP POP POP POP POP POP JUMP JUMPDEST PUSH2 0x10F0 DUP2 PUSH2 0xFCB JUMP JUMPDEST DUP3 MSTORE POP POP JUMP JUMPDEST PUSH1 0x0 PUSH1 0x20 DUP3 ADD SWAP1 POP PUSH2 0x110B PUSH1 0x0 DUP4 ADD DUP5 PUSH2 0x10E7 JUMP JUMPDEST SWAP3 SWAP2 POP POP JUMP JUMPDEST PUSH1 0x0 DUP1 REVERT JUMPDEST PUSH1 0x0 DUP1 REVERT JUMPDEST PUSH1 0x0 DUP1 REVERT JUMPDEST PUSH1 0x0 DUP1 DUP4 PUSH1 0x1F DUP5 ADD SLT PUSH2 0x1136 JUMPI PUSH2 0x1135 PUSH2 0x1111 JUMP JUMPDEST JUMPDEST DUP3 CALLDATALOAD SWAP1 POP PUSH8 0xFFFFFFFFFFFFFFFF DUP2 GT ISZERO PUSH2 0x1153 JUMPI PUSH2 0x1152 PUSH2 0x1116 JUMP JUMPDEST JUMPDEST PUSH1 0x20 DUP4 ADD SWAP2 POP DUP4 PUSH1 0x20 DUP3 MUL DUP4 ADD GT ISZERO PUSH2 0x116F JUMPI PUSH2 0x116E PUSH2 0x111B JUMP JUMPDEST JUMPDEST SWAP3 POP SWAP3 SWAP1 POP JUMP JUMPDEST PUSH1 0x0 DUP1 DUP4 PUSH1 0x1F DUP5 ADD SLT PUSH2 0x118C JUMPI PUSH2 0x118B PUSH2 0x1111 JUMP JUMPDEST JUMPDEST DUP3 CALLDATALOAD SWAP1 POP PUSH8 0xFFFFFFFFFFFFFFFF DUP2 GT ISZERO PUSH2 0x11A9 JUMPI PUSH2 0x11A8 PUSH2 0x1116 JUMP JUMPDEST JUMPDEST PUSH1 0x20 DUP4 ADD SWAP2 POP DUP4 PUSH1 0x20 DUP3 MUL DUP4 ADD GT ISZERO PUSH2 0x11C5 JUMPI PUSH2 0x11C4 PUSH2 0x111B JUMP JUMPDEST JUMPDEST SWAP3 POP SWAP3 SWAP1 POP JUMP JUMPDEST PUSH1 0x0 DUP1 PUSH1 0x0 DUP1 PUSH1 0x0 DUP1 PUSH1 0x60 DUP8 DUP10 SUB SLT ISZERO PUSH2 0x11E9 JUMPI PUSH2 0x11E8 PUSH2 0xFC1 JUMP JUMPDEST JUMPDEST PUSH1 0x0 DUP8 ADD CALLDATALOAD PUSH8 0xFFFFFFFFFFFFFFFF DUP2 GT ISZERO PUSH2 0x1207 JUMPI PUSH2 0x1206 PUSH2 0xFC6 JUMP JUMPDEST JUMPDEST PUSH2 0x1213 DUP10 DUP3 DUP11 ADD PUSH2 0x1120 JUMP JUMPDEST SWAP7 POP SWAP7 POP POP PUSH1 0x20 DUP8 ADD CALLDATALOAD PUSH8 0xFFFFFFFFFFFFFFFF DUP2 GT ISZERO PUSH2 0x1236 JUMPI PUSH2 0x1235 PUSH2 0xFC6 JUMP JUMPDEST JUMPDEST PUSH2 0x1242 DUP10 DUP3 DUP11 ADD PUSH2 0x1120 JUMP JUMPDEST SWAP5 POP SWAP5 POP POP PUSH1 0x40 DUP8 ADD CALLDATALOAD PUSH8 0xFFFFFFFFFFFFFFFF DUP2 GT ISZERO PUSH2 0x1265 JUMPI PUSH2 0x1264 PUSH2 0xFC6 JUMP JUMPDEST JUMPDEST PUSH2 0x1271 DUP10 DUP3 DUP11 ADD PUSH2 0x1176 JUMP JUMPDEST SWAP3 POP SWAP3 POP POP SWAP3 SWAP6 POP SWAP3 SWAP6 POP SWAP3 SWAP6 JUMP JUMPDEST PUSH1 0x0 DUP2 MLOAD SWAP1 POP SWAP2 SWAP1 POP JUMP JUMPDEST PUSH1 0x0 DUP3 DUP3 MSTORE PUSH1 0x20 DUP3 ADD SWAP1 POP SWAP3 SWAP2 POP POP JUMP JUMPDEST PUSH1 0x0 DUP2 SWAP1 POP PUSH1 0x20 DUP3 ADD SWAP1 POP SWAP2 SWAP1 POP JUMP JUMPDEST PUSH2 0x12B5 DUP2 PUSH2 0x102E JUMP JUMPDEST DUP3 MSTORE POP POP JUMP JUMPDEST PUSH1 0x0 PUSH2 0x12C7 DUP4 DUP4 PUSH2 0x12AC JUMP JUMPDEST PUSH1 0x20 DUP4 ADD SWAP1 POP SWAP3 SWAP2 POP POP JUMP JUMPDEST PUSH1 0x0 PUSH1 0x20 DUP3 ADD SWAP1 POP SWAP2 SWAP1 POP JUMP JUMPDEST PUSH1 0x0 PUSH2 0x12EB DUP3 PUSH2 0x1280 JUMP JUMPDEST PUSH2 0x12F5 DUP2 DUP6 PUSH2 0x128B JUMP JUMPDEST SWAP4 POP PUSH2 0x1300 DUP4 PUSH2 0x129C JUMP JUMPDEST DUP1 PUSH1 0x0 JUMPDEST DUP4 DUP2 LT ISZERO PUSH2 0x1331 JUMPI DUP2 MLOAD PUSH2 0x1318 DUP9 DUP3 PUSH2 0x12BB JUMP JUMPDEST SWAP8 POP PUSH2 0x1323 DUP4 PUSH2 0x12D3 JUMP JUMPDEST SWAP3 POP POP PUSH1 0x1 DUP2 ADD SWAP1 POP PUSH2 0x1304 JUMP JUMPDEST POP DUP6 SWAP4 POP POP POP POP SWAP3 SWAP2 POP POP JUMP JUMPDEST PUSH1 0x0 PUSH1 0x20 DUP3 ADD SWAP1 POP DUP2 DUP2 SUB PUSH1 0x0 DUP4 ADD MSTORE PUSH2 0x1358 DUP2 DUP5 PUSH2 0x12E0 JUMP JUMPDEST SWAP1 POP SWAP3 SWAP2 POP POP JUMP JUMPDEST PUSH2 0x1369 DUP2 PUSH2 0x102E JUMP JUMPDEST DUP2 EQ PUSH2 0x1374 JUMPI PUSH1 0x0 DUP1 REVERT JUMPDEST POP JUMP JUMPDEST PUSH1 0x0 DUP2 CALLDATALOAD SWAP1 POP PUSH2 0x1386 DUP2 PUSH2 0x1360 JUMP JUMPDEST SWAP3 SWAP2 POP POP JUMP JUMPDEST PUSH1 0x0 DUP1 PUSH1 0x40 DUP4 DUP6 SUB SLT ISZERO PUSH2 0x13A3 JUMPI PUSH2 0x13A2 PUSH2 0xFC1 JUMP JUMPDEST JUMPDEST PUSH1 0x0 PUSH2 0x13B1 DUP6 DUP3 DUP7 ADD PUSH2 0x1377 JUMP JUMPDEST SWAP3 POP POP PUSH1 0x20 PUSH2 0x13C2 DUP6 DUP3 DUP7 ADD PUSH2 0x1377 JUMP JUMPDEST SWAP2 POP POP SWAP3 POP SWAP3 SWAP1 POP JUMP JUMPDEST PUSH1 0x0 PUSH1 0x20 DUP3 ADD SWAP1 POP PUSH2 0x13E1 PUSH1 0x0 DUP4 ADD DUP5 PUSH2 0x104A JUMP JUMPDEST SWAP3 SWAP2 POP POP JUMP JUMPDEST PUSH1 0x0 DUP3 DUP3 MSTORE PUSH1 0x20 DUP3 ADD SWAP1 POP SWAP3 SWAP2 POP POP JUMP JUMPDEST PUSH32 0x4F7574206F6620626F756E647300000000000000000000000000000000000000 PUSH1 0x0 DUP3 ADD MSTORE POP JUMP JUMPDEST PUSH1 0x0 PUSH2 0x142E PUSH1 0xD DUP4 PUSH2 0x13E7 JUMP JUMPDEST SWAP2 POP PUSH2 0x1439 DUP3 PUSH2 0x13F8 JUMP JUMPDEST PUSH1 0x20 DUP3 ADD SWAP1 POP SWAP2 SWAP1 POP JUMP JUMPDEST PUSH1 0x0 PUSH1 0x20 DUP3 ADD SWAP1 POP DUP2 DUP2 SUB PUSH1 0x0 DUP4 ADD MSTORE PUSH2 0x145D DUP2 PUSH2 0x1421 JUMP JUMPDEST SWAP1 POP SWAP2 SWAP1 POP JUMP JUMPDEST PUSH32 0x4C656E677468206D69736D617463680000000000000000000000000000000000 PUSH1 0x0 DUP3 ADD MSTORE POP JUMP JUMPDEST PUSH1 0x0 PUSH2 0x149A PUSH1 0xF DUP4 PUSH2 0x13E7 JUMP JUMPDEST SWAP2 POP PUSH2 0x14A5 DUP3 PUSH2 0x1464 JUMP JUMPDEST PUSH1 0x20 DUP3 ADD SWAP1 POP SWAP2 SWAP1 POP JUMP JUMPDEST PUSH1 0x0 PUSH1 0x20 DUP3 ADD SWAP1 POP DUP2 DUP2 SUB PUSH1 0x0 DUP4 ADD MSTORE PUSH2 0x14C9 DUP2 PUSH2 0x148D JUMP JUMPDEST SWAP1 POP SWAP2 SWAP1 POP JUMP JUMPDEST PUSH32 0x4E487B7100000000000000000000000000000000000000000000000000000000 PUSH1 0x0 MSTORE PUSH1 0x41 PUSH1 0x4 MSTORE PUSH1 0x24 PUSH1 0x0 REVERT JUMPDEST PUSH32 0x4E487B7100000000000000000000000000000000000000000000000000000000 PUSH1 0x0 MSTORE PUSH1 0x32 PUSH1 0x4 MSTORE PUSH1 0x24 PUSH1 0x0 REVERT JUMPDEST PUSH2 0x1537 DUP2 PUSH2 0x1059 JUMP JUMPDEST DUP2 EQ PUSH2 0x1542 JUMPI PUSH1 0x0 DUP1 REVERT JUMPDEST POP JUMP JUMPDEST PUSH1 0x0 DUP2 CALLDATALOAD SWAP1 POP PUSH2 0x1554 DUP2 PUSH2 0x152E JUMP JUMPDEST SWAP3 SWAP2 POP POP JUMP JUMPDEST PUSH1 0x0 PUSH1 0x20 DUP3 DUP5 SUB SLT ISZERO PUSH2 0x1570 JUMPI PUSH2 0x156F PUSH2 0xFC1 JUMP JUMPDEST JUMPDEST PUSH1 0x0 PUSH2 0x157E DUP5 DUP3 DUP6 ADD PUSH2 0x1545 JUMP JUMPDEST SWAP2 POP POP SWAP3 SWAP2 POP POP JUMP JUMPDEST PUSH1 0x0 PUSH1 0x20 DUP3 DUP5 SUB SLT ISZERO PUSH2 0x159D JUMPI PUSH2 0x159C PUSH2 0xFC1 JUMP JUMPDEST JUMPDEST PUSH1 0x0 PUSH2 0x15AB DUP5 DUP3 DUP6 ADD PUSH2 0x1377 JUMP JUMPDEST SWAP2 POP POP SWAP3 SWAP2 POP POP JUMP JUMPDEST PUSH32 0x4E487B7100000000000000000000000000000000000000000000000000000000 PUSH1 0x0 MSTORE PUSH1 0x11 PUSH1 0x4 MSTORE PUSH1 0x24 PUSH1 0x0 REVERT JUMPDEST PUSH1 0x0 PUSH2 0x15EE DUP3 PUSH2 0xFCB JUMP JUMPDEST SWAP2 POP PUSH32 0xFFFFFFFFFFFFFFFFFFFFFFFFFFFFFFFFFFFFFFFFFFFFFFFFFFFFFFFFFFFFFFFF DUP3 SUB PUSH2 0x1620 JUMPI PUSH2 0x161F PUSH2 0x15B4 JUMP JUMPDEST JUMPDEST PUSH1 0x1 DUP3 ADD SWAP1 POP SWAP2 SWAP1 POP JUMP JUMPDEST PUSH32 0x446976206279207A65726F000000000000000000000000000000000000000000 PUSH1 0x0 DUP3 ADD MSTORE POP JUMP JUMPDEST PUSH1 0x0 PUSH2 0x1661 PUSH1 0xB DUP4 PUSH2 0x13E7 JUMP JUMPDEST SWAP2 POP PUSH2 0x166C DUP3 PUSH2 0x162B JUMP JUMPDEST PUSH1 0x20 DUP3 ADD SWAP1 POP SWAP2 SWAP1 POP JUMP JUMPDEST PUSH1 0x0 PUSH1 0x20 DUP3 ADD SWAP1 POP DUP2 DUP2 SUB PUSH1 0x0 DUP4 ADD MSTORE PUSH2 0x1690 DUP2 PUSH2 0x1654 JUMP JUMPDEST SWAP1 POP SWAP2 SWAP1 POP JUMP JUMPDEST PUSH32 0x4E487B7100000000000000000000000000000000000000000000000000000000 PUSH1 0x0 MSTORE PUSH1 0x12 PUSH1 0x4 MSTORE PUSH1 0x24 PUSH1 0x0 REVERT JUMPDEST PUSH1 0x0 PUSH2 0x16D1 DUP3 PUSH2 0x102E JUMP JUMPDEST SWAP2 POP PUSH2 0x16DC DUP4 PUSH2 0x102E JUMP JUMPDEST SWAP3 POP DUP3 PUSH2 0x16EC JUMPI PUSH2 0x16EB PUSH2 0x1697 JUMP JUMPDEST JUMPDEST DUP3 DUP3 DIV SWAP1 POP SWAP3 SWAP2 POP POP JUMP JUMPDEST PUSH32 0x556E646572666C6F770000000000000000000000000000000000000000000000 PUSH1 0x0 DUP3 ADD MSTORE POP JUMP JUMPDEST PUSH1 0x0 PUSH2 0x172D PUSH1 0x9 DUP4 PUSH2 0x13E7 JUMP JUMPDEST SWAP2 POP PUSH2 0x1738 DUP3 PUSH2 0x16F7 JUMP JUMPDEST PUSH1 0x20 DUP3 ADD SWAP1 POP SWAP2 SWAP1 POP JUMP JUMPDEST PUSH1 0x0 PUSH1 0x20 DUP3 ADD SWAP1 POP DUP2 DUP2 SUB PUSH1 0x0 DUP4 ADD MSTORE PUSH2 0x175C DUP2 PUSH2 0x1720 JUMP JUMPDEST SWAP1 POP SWAP2 SWAP1 POP JUMP JUMPDEST PUSH1 0x0 PUSH2 0x176E DUP3 PUSH2 0x102E JUMP JUMPDEST SWAP2 POP PUSH2 0x1779 DUP4 PUSH2 0x102E JUMP JUMPDEST SWAP3 POP DUP3 DUP3 SUB SWAP1 POP PUSH16 0xFFFFFFFFFFFFFFFFFFFFFFFFFFFFFFFF DUP2 GT ISZERO PUSH2 0x17A1 JUMPI PUSH2 0x17A0 PUSH2 0x15B4 JUMP JUMPDEST JUMPDEST SWAP3 SWAP2 POP POP JUMP JUMPDEST PUSH32 0x4D6F64206279207A65726F000000000000000000000000000000000000000000 PUSH1 0x0 DUP3 ADD MSTORE POP JUMP JUMPDEST PUSH1 0x0 PUSH2 0x17DD PUSH1 0xB DUP4 PUSH2 0x13E7 JUMP JUMPDEST SWAP2 POP PUSH2 0x17E8 DUP3 PUSH2 0x17A7 JUMP JUMPDEST PUSH1 0x20 DUP3 ADD SWAP1 POP SWAP2 SWAP1 POP JUMP JUMPDEST PUSH1 0x0 PUSH1 0x20 DUP3 ADD SWAP1 POP DUP2 DUP2 SUB PUSH1 0x0 DUP4 ADD MSTORE PUSH2 0x180C DUP2 PUSH2 0x17D0 JUMP JUMPDEST SWAP1 POP SWAP2 SWAP1 POP JUMP JUMPDEST PUSH1 0x0 PUSH2 0x181E DUP3 PUSH2 0x102E JUMP JUMPDEST SWAP2 POP PUSH2 0x1829 DUP4 PUSH2 0x102E JUMP JUMPDEST SWAP3 POP DUP3 PUSH2 0x1839 JUMPI PUSH2 0x1838 PUSH2 0x1697 JUMP JUMPDEST JUMPDEST DUP3 DUP3 MOD SWAP1 POP SWAP3 SWAP2 POP POP JUMP JUMPDEST PUSH1 0x0 PUSH2 0x184F DUP3 PUSH2 0x102E JUMP JUMPDEST SWAP2 POP PUSH2 0x185A DUP4 PUSH2 0x102E JUMP JUMPDEST SWAP3 POP DUP3 DUP3 MUL PUSH2 0x1868 DUP2 PUSH2 0x102E JUMP JUMPDEST SWAP2 POP DUP1 DUP3 EQ PUSH2 0x187A JUMPI PUSH2 0x1879 PUSH2 0x15B4 JUMP JUMPDEST JUMPDEST POP SWAP3 SWAP2 POP POP JUMP JUMPDEST PUSH32 0x4F766572666C6F77000000000000000000000000000000000000000000000000 PUSH1 0x0 DUP3 ADD MSTORE POP JUMP JUMPDEST PUSH1 0x0 PUSH2 0x18B7 PUSH1 0x8 DUP4 PUSH2 0x13E7 JUMP JUMPDEST SWAP2 POP PUSH2 0x18C2 DUP3 PUSH2 0x1881 JUMP JUMPDEST PUSH1 0x20 DUP3 ADD SWAP1 POP SWAP2 SWAP1 POP JUMP JUMPDEST PUSH1 0x0 PUSH1 0x20 DUP3 ADD SWAP1 POP DUP2 DUP2 SUB PUSH1 0x0 DUP4 ADD MSTORE PUSH2 0x18E6 DUP2 PUSH2 0x18AA JUMP JUMPDEST SWAP1 POP SWAP2 SWAP1 POP JUMP JUMPDEST PUSH1 0x0 PUSH2 0x18F8 DUP3 PUSH2 0x102E JUMP JUMPDEST SWAP2 POP PUSH2 0x1903 DUP4 PUSH2 0x102E JUMP JUMPDEST SWAP3 POP DUP3 DUP3 ADD SWAP1 POP PUSH16 0xFFFFFFFFFFFFFFFFFFFFFFFFFFFFFFFF DUP2 GT ISZERO PUSH2 0x192B JUMPI PUSH2 0x192A PUSH2 0x15B4 JUMP JUMPDEST JUMPDEST SWAP3 SWAP2 POP POP JUMP JUMPDEST PUSH1 0x0 PUSH1 0x40 DUP3 ADD SWAP1 POP PUSH2 0x1946 PUSH1 0x0 DUP4 ADD DUP6 PUSH2 0x104A JUMP JUMPDEST PUSH2 0x1953 PUSH1 0x20 DUP4 ADD DUP5 PUSH2 0x1085 JUMP JUMPDEST SWAP4 SWAP3 POP POP POP JUMP INVALID LOG2 PUSH5 0x6970667358 0x22 SLT KECCAK256 0xC0 EXTCODECOPY 0xCC DUP3 0xB2 SDIV 0xAC 0x5F GT SLOAD 0xBA 0xC1 DELEGATECALL DUP14 ISZERO DELEGATECALL CALLER DUP16 0xAF PUSH22 0x464827F72E6984C1B4865E8464736F6C634300081300 CALLER "},"methodIdentifiers":{"add(uint128,uint128)":"feb99390","batchExecute(uint128[],uint128[],uint8[])":"2b7d0e60","clearHistory()":"56b176e1","divide(uint128,uint128)":"3ea23f32","getOperation(uint256)":"202e3924","getOperationsCount()":"dd1033f8","lastResult()":"abcc11d8","modulo(uint128,uint128)":"9a8eadd4","multiply(uint128,uint128)":"bbaa0820","operations(uint256)":"b2e9949d","operationsCount()":"2b4e7c1d","subtract(uint128,uint128)":"76db4f66"}}}}}