{"project/src/Arithmetic.sol":{"Arithmetic":{"abi":[{"anonymous":false,"inputs":[{"indexed":true,"internalType":"uint256","name":"a","type":"uint256"},{"indexed":true,"internalType":"uint256","name":"b","type":"uint256"},{"indexed":false,"internalType":"string","name":"operation","type":"string"},{"indexed":false,"internalType":"uint256","name":"result","type":"uint256"},{"indexed":false,"internalType":"uint256","name":"timestamp","type":"uint256"}],"name":"CalculationPerformed","type":"event"},{"anonymous":false,"inputs":[{"indexed":false,"internalType":"string","name":"message","type":"string"}],"name":"ErrorOccurred","type":"event"},{"inputs":[{"internalType":"uint256","name":"a","type":"uint256"},{"internalType":"uint256","name":"b","type":"uint256"}],"name":"add","outputs":[{"internalType":"uint256","name":"","type":"uint256"}],"stateMutability":"nonpayable","type":"function"},{"inputs":[],"name":"clearHistory","outputs":[],"stateMutability":"nonpayable","type":"function"},{"inputs":[{"internalType":"uint256","name":"a","type":"uint256"},{"internalType":"uint256","name":"b","type":"uint256"}],"name":"divide","outputs":[{"internalType":"uint256","name":"","type":"uint256"}],"stateMutability":"nonpayable","type":"function"},{"inputs":[{"internalType":"uint256","name":"index","type":"uint256"}],"name":"getOperation","outputs":[{"internalType":"uint256","name":"a","type":"uint256"},{"internalType":"uint256","name":"b","type":"uint256"},{"internalType":"string","name":"operation","type":"string"},{"internalType":"uint256","name":"result","type":"uint256"},{"internalType":"uint256","name":"timestamp","type":"uint256"}],"stateMutability":"view","type":"function"},{"inputs":[],"name":"getOperationsCount","outputs":[{"internalType":"uint256","name":"","type":"uint256"}],"stateMutability":"view","type":"function"},{"inputs":[],"name":"lastResult","outputs":[{"internalType":"uint256","name":"","type":"uint256"}],"stateMutability":"view","type":"function"},{"inputs":[{"internalType":"uint256","name":"a","type":"uint256"},{"internalType":"uint256","name":"b","type":"uint256"}],"name":"modulo","outputs":[{"internalType":"uint256","name":"","type":"uint256"}],"stateMutability":"nonpayable","type":"function"},{"inputs":[{"internalType":"uint256","name":"a","type":"uint256"},{"internalType":"uint256","name":"b","type":"uint256"}],"name":"multiply","outputs":[{"internalType":"uint256","name":"","type":"uint256"}],"stateMutability":"nonpayable","type":"function"},{"inputs":[{"internalType":"uint256","name":"","type":"uint256"}],"name":"operations","outputs":[{"internalType":"uint256","name":"a","type":"uint256"},{"internalType":"uint256","name":"b","type":"uint256"},{"internalType":"string","name":"operation","type":"string"},{"internalType":"uint256","name":"result","type":"uint256"},{"internalType":"uint256","name":"timestamp","type":"uint256"}],"stateMutability":"view","type":"function"},{"inputs":[{"internalType":"uint256","name":"a","type":"uint256"},{"internalType":"uint256","name":"b","type":"uint256"}],"name":"subtract","outputs":[{"internalType":"uint256","name":"","type":"uint256"}],"stateMutability":"nonpayable","type":"function"}],"evm":{"bytecode":{"linkReferences":{},"object":"608060405234801561001057600080fd5b50611374806100206000396000f3fe608060405234801561001057600080fd5b506004361061009e5760003560e01c8063abcc11d811610066578063abcc11d814610171578063b2e9949d1461018f578063baaf073d146101c3578063dd1033f8146101f3578063f88e9fbf146102115761009e565b8063165c4a16146100a3578063202e3924146100d35780633ef5e4451461010757806356b176e114610137578063771602f714610141575b600080fd5b6100bd60048036038101906100b89190610a05565b610241565b6040516100ca9190610a54565b60405180910390f35b6100ed60048036038101906100e89190610a6f565b61034a565b6040516100fe959493929190610b2c565b60405180910390f35b610121600480360381019061011c9190610a05565b6104b1565b60405161012e9190610a54565b60405180910390f35b61013f610551565b005b61015b60048036038101906101569190610a05565b610568565b6040516101689190610a54565b60405180910390f35b610179610607565b6040516101869190610a54565b60405180910390f35b6101a960048036038101906101a49190610a6f565b61060d565b6040516101ba959493929190610b2c565b60405180910390f35b6101dd60048036038101906101d89190610a05565b6106db565b6040516101ea9190610a54565b60405180910390f35b6101fb61077a565b6040516102089190610a54565b60405180910390f35b61022b60048036038101906102269190610a05565b610787565b6040516102389190610a54565b60405180910390f35b6000808314806102515750600082145b156102a15761029883836040518060400160405280600881526020017f6d756c7469706c790000000000000000000000000000000000000000000000008152506000610826565b60009050610344565b600082846102af9190610bb5565b90508284826102be9190610c26565b146102fe576040517f08c379a00000000000000000000000000000000000000000000000000000000081526004016102f590610cc9565b60405180910390fd5b61033f84846040518060400160405280600881526020017f6d756c7469706c7900000000000000000000000000000000000000000000000081525084610826565b809150505b92915050565b60008060606000806001805490508610610399576040517f08c379a000000000000000000000000000000000000000000000000000000000815260040161039090610d35565b60405180910390fd5b6000600187815481106103af576103ae610d55565b5b90600052602060002090600502016040518060a001604052908160008201548152602001600182015481526020016002820180546103ec90610db3565b80601f016020809104026020016040519081016040528092919081815260200182805461041890610db3565b80156104655780601f1061043a57610100808354040283529160200191610465565b820191906000526020600020905b81548152906001019060200180831161044857829003601f168201915b5050505050815260200160038201548152602001600482015481525050905080600001518160200151826040015183606001518460800151955095509550955095505091939590929450565b6000828211156104f6576040517f08c379a00000000000000000000000000000000000000000000000000000000081526004016104ed90610e56565b60405180910390fd5b600082846105049190610e76565b905061054784846040518060400160405280600881526020017f737562747261637400000000000000000000000000000000000000000000000081525084610826565b8091505092915050565b6001600061055f9190610902565b60008081905550565b60008082846105779190610eaa565b9050838110156105bc576040517f08c379a00000000000000000000000000000000000000000000000000000000081526004016105b390610f2a565b60405180910390fd5b6105fd84846040518060400160405280600381526020017f616464000000000000000000000000000000000000000000000000000000000081525084610826565b8091505092915050565b60005481565b6001818154811061061d57600080fd5b906000526020600020906005020160009150905080600001549080600101549080600201805461064c90610db3565b80601f016020809104026020016040519081016040528092919081815260200182805461067890610db3565b80156106c55780601f1061069a576101008083540402835291602001916106c5565b820191906000526020600020905b8154815290600101906020018083116106a857829003601f168201915b5050505050908060030154908060040154905085565b600080821161071f576040517f08c379a000000000000000000000000000000000000000000000000000000000815260040161071690610f96565b60405180910390fd5b6000828461072d9190610fb6565b905061077084846040518060400160405280600681526020017f6d6f64756c6f000000000000000000000000000000000000000000000000000081525084610826565b8091505092915050565b6000600180549050905090565b60008082116107cb576040517f08c379a00000000000000000000000000000000000000000000000000000000081526004016107c290611033565b60405180910390fd5b600082846107d99190610c26565b905061081c84846040518060400160405280600681526020017f646976696465000000000000000000000000000000000000000000000000000081525084610826565b8091505092915050565b8060008190555060016040518060a00160405280868152602001858152602001848152602001838152602001428152509080600181540180825580915050600190039060005260206000209060050201600090919091909150600082015181600001556020820151816001015560408201518160020190816108a8919061122e565b506060820151816003015560808201518160040155505082847ff2a1973fe525f2c9b0d0ce12c52883b0937d5af06c50fe3e4e66dde64e1bb4658484426040516108f493929190611300565b60405180910390a350505050565b50805460008255600502906000526020600020908101906109239190610926565b50565b5b80821115610969576000808201600090556001820160009055600282016000610950919061096d565b6003820160009055600482016000905550600501610927565b5090565b50805461097990610db3565b6000825580601f1061098b57506109aa565b601f0160209004906000526020600020908101906109a991906109ad565b5b50565b5b808211156109c65760008160009055506001016109ae565b5090565b600080fd5b6000819050919050565b6109e2816109cf565b81146109ed57600080fd5b50565b6000813590506109ff816109d9565b92915050565b60008060408385031215610a1c57610a1b6109ca565b5b6000610a2a858286016109f0565b9250506020610a3b858286016109f0565b9150509250929050565b610a4e816109cf565b82525050565b6000602082019050610a696000830184610a45565b92915050565b600060208284031215610a8557610a846109ca565b5b6000610a93848285016109f0565b91505092915050565b600081519050919050565b600082825260208201905092915050565b60005b83811015610ad6578082015181840152602081019050610abb565b60008484015250505050565b6000601f19601f8301169050919050565b6000610afe82610a9c565b610b088185610aa7565b9350610b18818560208601610ab8565b610b2181610ae2565b840191505092915050565b600060a082019050610b416000830188610a45565b610b4e6020830187610a45565b8181036040830152610b608186610af3565b9050610b6f6060830185610a45565b610b7c6080830184610a45565b9695505050505050565b7f4e487b7100000000000000000000000000000000000000000000000000000000600052601160045260246000fd5b6000610bc0826109cf565b9150610bcb836109cf565b9250828202610bd9816109cf565b91508282048414831517610bf057610bef610b86565b5b5092915050565b7f4e487b7100000000000000000000000000000000000000000000000000000000600052601260045260246000fd5b6000610c31826109cf565b9150610c3c836109cf565b925082610c4c57610c4b610bf7565b5b828204905092915050565b7f41726974686d657469633a206d756c7469706c69636174696f6e206f7665726660008201527f6c6f770000000000000000000000000000000000000000000000000000000000602082015250565b6000610cb3602383610aa7565b9150610cbe82610c57565b604082019050919050565b60006020820190508181036000830152610ce281610ca6565b9050919050565b7f41726974686d657469633a20696e646578206f7574206f6620626f756e647300600082015250565b6000610d1f601f83610aa7565b9150610d2a82610ce9565b602082019050919050565b60006020820190508181036000830152610d4e81610d12565b9050919050565b7f4e487b7100000000000000000000000000000000000000000000000000000000600052603260045260246000fd5b7f4e487b7100000000000000000000000000000000000000000000000000000000600052602260045260246000fd5b60006002820490506001821680610dcb57607f821691505b602082108103610dde57610ddd610d84565b5b50919050565b7f41726974686d657469633a207375627472616374696f6e20756e646572666c6f60008201527f7700000000000000000000000000000000000000000000000000000000000000602082015250565b6000610e40602183610aa7565b9150610e4b82610de4565b604082019050919050565b60006020820190508181036000830152610e6f81610e33565b9050919050565b6000610e81826109cf565b9150610e8c836109cf565b9250828203905081811115610ea457610ea3610b86565b5b92915050565b6000610eb5826109cf565b9150610ec0836109cf565b9250828201905080821115610ed857610ed7610b86565b5b92915050565b7f41726974686d657469633a206164646974696f6e206f766572666c6f77000000600082015250565b6000610f14601d83610aa7565b9150610f1f82610ede565b602082019050919050565b60006020820190508181036000830152610f4381610f07565b9050919050565b7f41726974686d657469633a206d6f64756c6f206279207a65726f000000000000600082015250565b6000610f80601a83610aa7565b9150610f8b82610f4a565b602082019050919050565b60006020820190508181036000830152610faf81610f73565b9050919050565b6000610fc1826109cf565b9150610fcc836109cf565b925082610fdc57610fdb610bf7565b5b828206905092915050565b7f41726974686d657469633a206469766973696f6e206279207a65726f00000000600082015250565b600061101d601c83610aa7565b915061102882610fe7565b602082019050919050565b6000602082019050818103600083015261104c81611010565b9050919050565b7f4e487b7100000000000000000000000000000000000000000000000000000000600052604160045260246000fd5b60008190508160005260206000209050919050565b60006020601f8301049050919050565b600082821b905092915050565b6000600883026110e47fffffffffffffffffffffffffffffffffffffffffffffffffffffffffffffffff826110a7565b6110ee86836110a7565b95508019841693508086168417925050509392505050565b6000819050919050565b600061112b611126611121846109cf565b611106565b6109cf565b9050919050565b6000819050919050565b61114583611110565b61115961115182611132565b8484546110b4565b825550505050565b600090565b61116e611161565b61117981848461113c565b505050565b5b8181101561119d57611192600082611166565b60018101905061117f565b5050565b601f8211156111e2576111b381611082565b6111bc84611097565b810160208510156111cb578190505b6111df6111d785611097565b83018261117e565b50505b505050565b600082821c905092915050565b6000611205600019846008026111e7565b1980831691505092915050565b600061121e83836111f4565b9150826002028217905092915050565b61123782610a9c565b67ffffffffffffffff8111156112505761124f611053565b5b61125a8254610db3565b6112658282856111a1565b600060209050601f8311600181146112985760008415611286578287015190505b6112908582611212565b8655506112f8565b601f1984166112a686611082565b60005b828110156112ce578489015182556001820191506020850194506020810190506112a9565b868310156112eb57848901516112e7601f8916826111f4565b8355505b6001600288020188555050505b505050505050565b6000606082019050818103600083015261131a8186610af3565b90506113296020830185610a45565b6113366040830184610a45565b94935050505056fea26469706673582212200061ba28924995053f44a5fb34be9f73a6ac5280c2bd4ee27dfb72c9a085f30564736f6c63430008130033","opcodes":"PUSH1 0x80 PUSH1 0x40 MSTORE CALLVALUE DUP1 ISZERO PUSH2 0x10 JUMPI PUSH1 0x0 DUP1 REVERT JUMPDEST POP PUSH2 0x1374 DUP1 PUSH2 0x20 PUSH1 0x0 CODECOPY PUSH1 0x0 RETURN INVALID PUSH1 0x80 PUSH1 0x40 MSTORE CALLVALUE DUP1 ISZERO PUSH2 0x10 JUMPI PUSH1 0x0 DUP1 REVERT JUMPDEST POP PUSH1 0x4 CALLDATASIZE LT PUSH2 0x9E JUMPI PUSH1 0x0 CALLDATALOAD PUSH1 0xE0 SHR DUP1 PUSH4 0xABCC11D8 GT PUSH2 0x66 JUMPI DUP1 PUSH4 0xABCC11D8 EQ PUSH2 0x171 JUMPI DUP1 PUSH4 0xB2E9949D EQ PUSH2 0x18F JUMPI DUP1 PUSH4 0xBAAF073D EQ PUSH2 0x1C3 JUMPI DUP1 PUSH4 0xDD1033F8 EQ PUSH2 0x1F3 JUMPI DUP1 PUSH4 0xF88E9FBF EQ PUSH2 0x211 JUMPI PUSH2 0x9E JUMP JUMPDEST DUP1 PUSH4 0x165C4A16 EQ PUSH2 0xA3 JUMPI DUP1 PUSH4 0x202E3924 EQ PUSH2 0xD3 JUMPI DUP1 PUSH4 0x3EF5E445 EQ PUSH2 0x107 JUMPI DUP1 PUSH4 0x56B176E1 EQ PUSH2 0x137 JUMPI DUP1 PUSH4 0x771602F7 EQ PUSH2 0x141 JUMPI JUMPDEST PUSH1 0x0 DUP1 REVERT JUMPDEST PUSH2 0xBD PUSH1 0x4 DUP1 CALLDATASIZE SUB DUP2 ADD SWAP1 PUSH2 0xB8 SWAP2 SWAP1 PUSH2 0xA05 JUMP JUMPDEST PUSH2 0x241 JUMP JUMPDEST PUSH1 0x40 MLOAD PUSH2 0xCA SWAP2 SWAP1 PUSH2 0xA54 JUMP JUMPDEST PUSH1 0x40 MLOAD DUP1 SWAP2 SUB SWAP1 RETURN JUMPDEST PUSH2 0xED PUSH1 0x4 DUP1 CALLDATASIZE SUB DUP2 ADD SWAP1 PUSH2 0xE8 SWAP2 SWAP1 PUSH2 0xA6F JUMP JUMPDEST PUSH2 0x34A JUMP JUMPDEST PUSH1 0x40 MLOAD PUSH2 0xFE SWAP6 SWAP5 SWAP4 SWAP3 SWAP2 SWAP1 PUSH2 0xB2C JUMP JUMPDEST PUSH1 0x40 MLOAD DUP1 SWAP2 SUB SWAP1 RETURN JUMPDEST PUSH2 0x121 PUSH1 0x4 DUP1 CALLDATASIZE SUB DUP2 ADD SWAP1 PUSH2 0x11C SWAP2 SWAP1 PUSH2 0xA05 JUMP JUMPDEST PUSH2 0x4B1 JUMP JUMPDEST PUSH1 0x40 MLOAD PUSH2 0x12E SWAP2 SWAP1 PUSH2 0xA54 JUMP JUMPDEST PUSH1 0x40 MLOAD DUP1 SWAP2 SUB SWAP1 RETURN JUMPDEST PUSH2 0x13F PUSH2 0x551 JUMP JUMPDEST STOP JUMPDEST PUSH2 0x15B PUSH1 0x4 DUP1 CALLDATASIZE SUB DUP2 ADD SWAP1 PUSH2 0x156 SWAP2 SWAP1 PUSH2 0xA05 JUMP JUMPDEST PUSH2 0x568 JUMP JUMPDEST PUSH1 0x40 MLOAD PUSH2 0x168 SWAP2 SWAP1 PUSH2 0xA54 JUMP JUMPDEST PUSH1 0x40 MLOAD DUP1 SWAP2 SUB SWAP1 RETURN JUMPDEST PUSH2 0x179 PUSH2 0x607 JUMP JUMPDEST PUSH1 0x40 MLOAD PUSH2 0x186 SWAP2 SWAP1 PUSH2 0xA54 JUMP JUMPDEST PUSH1 0x40 MLOAD DUP1 SWAP2 SUB SWAP1 RETURN JUMPDEST PUSH2 0x1A9 PUSH1 0x4 DUP1 CALLDATASIZE SUB DUP2 ADD SWAP1 PUSH2 0x1A4 SWAP2 SWAP1 PUSH2 0xA6F JUMP JUMPDEST PUSH2 0x60D JUMP JUMPDEST PUSH1 0x40 MLOAD PUSH2 0x1BA SWAP6 SWAP5 SWAP4 SWAP3 SWAP2 SWAP1 PUSH2 0xB2C JUMP JUMPDEST PUSH1 0x40 MLOAD DUP1 SWAP2 SUB SWAP1 RETURN JUMPDEST PUSH2 0x1DD PUSH1 0x4 DUP1 CALLDATASIZE SUB DUP2 ADD SWAP1 PUSH2 0x1D8 SWAP2 SWAP1 PUSH2 0xA05 JUMP JUMPDEST PUSH2 0x6DB JUMP JUMPDEST PUSH1 0x40 MLOAD PUSH2 0x1EA SWAP2 SWAP1 PUSH2 0xA54 JUMP JUMPDEST PUSH1 0x40 MLOAD DUP1 SWAP2 SUB SWAP1 RETURN JUMPDEST PUSH2 0x1FB PUSH2 0x77A JUMP JUMPDEST PUSH1 0x40 MLOAD PUSH2 0x208 SWAP2 SWAP1 PUSH2 0xA54 JUMP JUMPDEST PUSH1 0x40 MLOAD DUP1 SWAP2 SUB SWAP1 RETURN JUMPDEST PUSH2 0x22B PUSH1 0x4 DUP1 CALLDATASIZE SUB DUP2 ADD SWAP1 PUSH2 0x226 SWAP2 SWAP1 PUSH2 0xA05 JUMP JUMPDEST PUSH2 0x787 JUMP JUMPDEST PUSH1 0x40 MLOAD PUSH2 0x238 SWAP2 SWAP1 PUSH2 0xA54 JUMP JUMPDEST PUSH1 0x40 MLOAD DUP1 SWAP2 SUB SWAP1 RETURN JUMPDEST PUSH1 0x0 DUP1 DUP4 EQ DUP1 PUSH2 0x251 JUMPI POP PUSH1 0x0 DUP3 EQ JUMPDEST ISZERO PUSH2 0x2A1 JUMPI PUSH2 0x298 DUP4 DUP4 PUSH1 0x40 MLOAD DUP1 PUSH1 0x40 ADD PUSH1 0x40 MSTORE DUP1 PUSH1 0x8 DUP2 MSTORE PUSH1 0x20 ADD PUSH32 0x6D756C7469706C79000000000000000000000000000000000000000000000000 DUP2 MSTORE POP PUSH1 0x0 PUSH2 0x826 JUMP JUMPDEST PUSH1 0x0 SWAP1 POP PUSH2 0x344 JUMP JUMPDEST PUSH1 0x0 DUP3 DUP5 PUSH2 0x2AF SWAP2 SWAP1 PUSH2 0xBB5 JUMP JUMPDEST SWAP1 POP DUP3 DUP5 DUP3 PUSH2 0x2BE SWAP2 SWAP1 PUSH2 0xC26 JUMP JUMPDEST EQ PUSH2 0x2FE JUMPI PUSH1 0x40 MLOAD PUSH32 0x8C379A000000000000000000000000000000000000000000000000000000000 DUP2 MSTORE PUSH1 0x4 ADD PUSH2 0x2F5 SWAP1 PUSH2 0xCC9 JUMP JUMPDEST PUSH1 0x40 MLOAD DUP1 SWAP2 SUB SWAP1 REVERT JUMPDEST PUSH2 0x33F DUP5 DUP5 PUSH1 0x40 MLOAD DUP1 PUSH1 0x40 ADD PUSH1 0x40 MSTORE DUP1 PUSH1 0x8 DUP2 MSTORE PUSH1 0x20 ADD PUSH32 0x6D756C7469706C79000000000000000000000000000000000000000000000000 DUP2 MSTORE POP DUP5 PUSH2 0x826 JUMP JUMPDEST DUP1 SWAP2 POP POP JUMPDEST SWAP3 SWAP2 POP POP JUMP JUMPDEST PUSH1 0x0 DUP1 PUSH1 0x60 PUSH1 0x0 DUP1 PUSH1 0x1 DUP1 SLOAD SWAP1 POP DUP7 LT PUSH2 0x399 JUMPI PUSH1 0x40 MLOAD PUSH32 0x8C379A000000000000000000000000000000000000000000000000000000000 DUP2 MSTORE PUSH1 0x4 ADD PUSH2 0x390 SWAP1 PUSH2 0xD35 JUMP JUMPDEST PUSH1 0x40 MLOAD DUP1 SWAP2 SUB SWAP1 REVERT JUMPDEST PUSH1 0x0 PUSH1 0x1 DUP8 DUP2 SLOAD DUP2 LT PUSH2 0x3AF JUMPI PUSH2 0x3AE PUSH2 0xD55 JUMP JUMPDEST JUMPDEST SWAP1 PUSH1 0x0 MSTORE PUSH1 0x20 PUSH1 0x0 KECCAK256 SWAP1 PUSH1 0x5 MUL ADD PUSH1 0x40 MLOAD DUP1 PUSH1 0xA0 ADD PUSH1 0x40 MSTORE SWAP1 DUP2 PUSH1 0x0 DUP3 ADD SLOAD DUP2 MSTORE PUSH1 0x20 ADD PUSH1 0x1 DUP3 ADD SLOAD DUP2 MSTORE PUSH1 0x20 ADD PUSH1 0x2 DUP3 ADD DUP1 SLOAD PUSH2 0x3EC SWAP1 PUSH2 0xDB3 JUMP JUMPDEST DUP1 PUSH1 0x1F ADD PUSH1 0x20 DUP1 SWAP2 DIV MUL PUSH1 0x20 ADD PUSH1 0x40 MLOAD SWAP1 DUP2 ADD PUSH1 0x40 MSTORE DUP1 SWAP3 SWAP2 SWAP1 DUP2 DUP2 MSTORE PUSH1 0x20 ADD DUP3 DUP1 SLOAD PUSH2 0x418 SWAP1 PUSH2 0xDB3 JUMP JUMPDEST DUP1 ISZERO PUSH2 0x465 JUMPI DUP1 PUSH1 0x1F LT PUSH2 0x43A JUMPI PUSH2 0x100 DUP1 DUP4 SLOAD DIV MUL DUP4 MSTORE SWAP2 PUSH1 0x20 ADD SWAP2 PUSH2 0x465 JUMP JUMPDEST DUP3 ADD SWAP2 SWAP1 PUSH1 0x0 MSTORE PUSH1 0x20 PUSH1 0x0 KECCAK256 SWAP1 JUMPDEST DUP2 SLOAD DUP2 MSTORE SWAP1 PUSH1 0x1 ADD SWAP1 PUSH1 0x20 ADD DUP1 DUP4 GT PUSH2 0x448 JUMPI DUP3 SWAP1 SUB PUSH1 0x1F AND DUP3 ADD SWAP2 JUMPDEST POP POP POP POP POP DUP2 MSTORE PUSH1 0x20 ADD PUSH1 0x3 DUP3 ADD SLOAD DUP2 MSTORE PUSH1 0x20 ADD PUSH1 0x4 DUP3 ADD SLOAD DUP2 MSTORE POP POP SWAP1 POP DUP1 PUSH1 0x0 ADD MLOAD DUP2 PUSH1 0x20 ADD MLOAD DUP3 PUSH1 0x40 ADD MLOAD DUP4 PUSH1 0x60 ADD MLOAD DUP5 PUSH1 0x80 ADD MLOAD SWAP6 POP SWAP6 POP SWAP6 POP SWAP6 POP SWAP6 POP POP SWAP2 SWAP4 SWAP6 SWAP1 SWAP3 SWAP5 POP JUMP JUMPDEST PUSH1 0x0 DUP3 DUP3 GT ISZERO PUSH2 0x4F6 JUMPI PUSH1 0x40 MLOAD PUSH32 0x8C379A000000000000000000000000000000000000000000000000000000000 DUP2 MSTORE PUSH1 0x4 ADD PUSH2 0x4ED SWAP1 PUSH2 0xE56 JUMP JUMPDEST PUSH1 0x40 MLOAD DUP1 SWAP2 SUB SWAP1 REVERT JUMPDEST PUSH1 0x0 DUP3 DUP5 PUSH2 0x504 SWAP2 SWAP1 PUSH2 0xE76 JUMP JUMPDEST SWAP1 POP PUSH2 0x547 DUP5 DUP5 PUSH1 0x40 MLOAD DUP1 PUSH1 0x40 ADD PUSH1 0x40 MSTORE DUP1 PUSH1 0x8 DUP2 MSTORE PUSH1 0x20 ADD PUSH32 0x7375627472616374000000000000000000000000000000000000000000000000 DUP2 MSTORE POP DUP5 PUSH2 0x826 JUMP JUMPDEST DUP1 SWAP2 POP POP SWAP3 SWAP2 POP POP JUMP JUMPDEST PUSH1 0x1 PUSH1 0x0 PUSH2 0x55F SWAP2 SWAP1 PUSH2 0x902 JUMP JUMPDEST PUSH1 0x0 DUP1 DUP2 SWAP1 SSTORE POP JUMP JUMPDEST PUSH1 0x0 DUP1 DUP3 DUP5 PUSH2 0x577 SWAP2 SWAP1 PUSH2 0xEAA JUMP JUMPDEST SWAP1 POP DUP4 DUP2 LT ISZERO PUSH2 0x5BC JUMPI PUSH1 0x40 MLOAD PUSH32 0x8C379A000000000000000000000000000000000000000000000000000000000 DUP2 MSTORE PUSH1 0x4 ADD PUSH2 0x5B3 SWAP1 PUSH2 0xF2A JUMP JUMPDEST PUSH1 0x40 MLOAD DUP1 SWAP2 SUB SWAP1 REVERT JUMPDEST PUSH2 0x5FD DUP5 DUP5 PUSH1 0x40 MLOAD DUP1 PUSH1 0x40 ADD PUSH1 0x40 MSTORE DUP1 PUSH1 0x3 DUP2 MSTORE PUSH1 0x20 ADD PUSH32 0x6164640000000000000000000000000000000000000000000000000000000000 DUP2 MSTORE POP DUP5 PUSH2 0x826 JUMP JUMPDEST DUP1 SWAP2 POP POP SWAP3 SWAP2 POP POP JUMP JUMPDEST PUSH1 0x0 SLOAD DUP2 JUMP JUMPDEST PUSH1 0x1 DUP2 DUP2 SLOAD DUP2 LT PUSH2 0x61D JUMPI PUSH1 0x0 DUP1 REVERT JUMPDEST SWAP1 PUSH1 0x0 MSTORE PUSH1 0x20 PUSH1 0x0 KECCAK256 SWAP1 PUSH1 0x5 MUL ADD PUSH1 0x0 SWAP2 POP SWAP1 POP DUP1 PUSH1 0x0 ADD SLOAD SWAP1 DUP1 PUSH1 0x1 ADD SLOAD SWAP1 DUP1 PUSH1 0x2 ADD DUP1 SLOAD PUSH2 0x64C SWAP1 PUSH2 0xDB3 JUMP JUMPDEST DUP1 PUSH1 0x1F ADD PUSH1 0x20 DUP1 SWAP2 DIV MUL PUSH1 0x20 ADD PUSH1 0x40 MLOAD SWAP1 DUP2 ADD PUSH1 0x40 MSTORE DUP1 SWAP3 SWAP2 SWAP1 DUP2 DUP2 MSTORE PUSH1 0x20 ADD DUP3 DUP1 SLOAD PUSH2 0x678 SWAP1 PUSH2 0xDB3 JUMP JUMPDEST DUP1 ISZERO PUSH2 0x6C5 JUMPI DUP1 PUSH1 0x1F LT PUSH2 0x69A JUMPI PUSH2 0x100 DUP1 DUP4 SLOAD DIV MUL DUP4 MSTORE SWAP2 PUSH1 0x20 ADD SWAP2 PUSH2 0x6C5 JUMP JUMPDEST DUP3 ADD SWAP2 SWAP1 PUSH1 0x0 MSTORE PUSH1 0x20 PUSH1 0x0 KECCAK256 SWAP1 JUMPDEST DUP2 SLOAD DUP2 MSTORE SWAP1 PUSH1 0x1 ADD SWAP1 PUSH1 0x20 ADD DUP1 DUP4 GT PUSH2 0x6A8 JUMPI DUP3 SWAP1 SUB PUSH1 0x1F AND DUP3 ADD SWAP2 JUMPDEST POP POP POP POP POP SWAP1 DUP1 PUSH1 0x3 ADD SLOAD SWAP1 DUP1 PUSH1 0x4 ADD SLOAD SWAP1 POP DUP6 JUMP JUMPDEST PUSH1 0x0 DUP1 DUP3 GT PUSH2 0x71F JUMPI PUSH1 0x40 MLOAD PUSH32 0x8C379A000000000000000000000000000000000000000000000000000000000 DUP2 MSTORE PUSH1 0x4 ADD PUSH2 0x716 SWAP1 PUSH2 0xF96 JUMP JUMPDEST PUSH1 0x40 MLOAD DUP1 SWAP2 SUB SWAP1 REVERT JUMPDEST PUSH1 0x0 DUP3 DUP5 PUSH2 0x72D SWAP2 SWAP1 PUSH2 0xFB6 JUMP JUMPDEST SWAP1 POP PUSH2 0x770 DUP5 DUP5 PUSH1 0x40 MLOAD DUP1 PUSH1 0x40 ADD PUSH1 0x40 MSTORE DUP1 PUSH1 0x6 DUP2 MSTORE PUSH1 0x20 ADD PUSH32 0x6D6F64756C6F0000000000000000000000000000000000000000000000000000 DUP2 MSTORE POP DUP5 PUSH2 0x826 JUMP JUMPDEST DUP1 SWAP2 POP POP SWAP3 SWAP2 POP POP JUMP JUMPDEST PUSH1 0x0 PUSH1 0x1 DUP1 SLOAD SWAP1 POP SWAP1 POP SWAP1 JUMP JUMPDEST PUSH1 0x0 DUP1 DUP3 GT PUSH2 0x7CB JUMPI PUSH1 0x40 MLOAD PUSH32 0x8C379A000000000000000000000000000000000000000000000000000000000 DUP2 MSTORE PUSH1 0x4 ADD PUSH2 0x7C2 SWAP1 PUSH2 0x1033 JUMP JUMPDEST PUSH1 0x40 MLOAD DUP1 SWAP2 SUB SWAP1 REVERT JUMPDEST PUSH1 0x0 DUP3 DUP5 PUSH2 0x7D9 SWAP2 SWAP1 PUSH2 0xC26 JUMP JUMPDEST SWAP1 POP PUSH2 0x81C DUP5 DUP5 PUSH1 0x40 MLOAD DUP1 PUSH1 0x40 ADD PUSH1 0x40 MSTORE DUP1 PUSH1 0x6 DUP2 MSTORE PUSH1 0x20 ADD PUSH32 0x6469766964650000000000000000000000000000000000000000000000000000 DUP2 MSTORE POP DUP5 PUSH2 0x826 JUMP JUMPDEST DUP1 SWAP2 POP POP SWAP3 SWAP2 POP POP JUMP JUMPDEST DUP1 PUSH1 0x0 DUP2 SWAP1 SSTORE POP PUSH1 0x1 PUSH1 0x40 MLOAD DUP1 PUSH1 0xA0 ADD PUSH1 0x40 MSTORE DUP1 DUP7 DUP2 MSTORE PUSH1 0x20 ADD DUP6 DUP2 MSTORE PUSH1 0x20 ADD DUP5 DUP2 MSTORE PUSH1 0x20 ADD DUP4 DUP2 MSTORE PUSH1 0x20 ADD TIMESTAMP DUP2 MSTORE POP SWAP1 DUP1 PUSH1 0x1 DUP2 SLOAD ADD DUP1 DUP3 SSTORE DUP1 SWAP2 POP POP PUSH1 0x1 SWAP1 SUB SWAP1 PUSH1 0x0 MSTORE PUSH1 0x20 PUSH1 0x0 KECCAK256 SWAP1 PUSH1 0x5 MUL ADD PUSH1 0x0 SWAP1 SWAP2 SWAP1 SWAP2 SWAP1 SWAP2 POP PUSH1 0x0 DUP3 ADD MLOAD DUP2 PUSH1 0x0 ADD SSTORE PUSH1 0x20 DUP3 ADD MLOAD DUP2 PUSH1 0x1 ADD SSTORE PUSH1 0x40 DUP3 ADD MLOAD DUP2 PUSH1 0x2 ADD SWAP1 DUP2 PUSH2 0x8A8 SWAP2 SWAP1 PUSH2 0x122E JUMP JUMPDEST POP PUSH1 0x60 DUP3 ADD MLOAD DUP2 PUSH1 0x3 ADD SSTORE PUSH1 0x80 DUP3 ADD MLOAD DUP2 PUSH1 0x4 ADD SSTORE POP POP DUP3 DUP5 PUSH32 0xF2A1973FE525F2C9B0D0CE12C52883B0937D5AF06C50FE3E4E66DDE64E1BB465 DUP5 DUP5 TIMESTAMP PUSH1 0x40 MLOAD PUSH2 0x8F4 SWAP4 SWAP3 SWAP2 SWAP1 PUSH2 0x1300 JUMP JUMPDEST PUSH1 0x40 MLOAD DUP1 SWAP2 SUB SWAP1 LOG3 POP POP POP POP JUMP JUMPDEST POP DUP1 SLOAD PUSH1 0x0 DUP3 SSTORE PUSH1 0x5 MUL SWAP1 PUSH1 0x0 MSTORE PUSH1 0x20 PUSH1 0x0 KECCAK256 SWAP1 DUP2 ADD SWAP1 PUSH2 0x923 SWAP2 SWAP1 PUSH2 0x926 JUMP JUMPDEST POP JUMP JUMPDEST JUMPDEST DUP1 DUP3 GT ISZERO PUSH2 0x969 JUMPI PUSH1 0x0 DUP1 DUP3 ADD PUSH1 0x0 SWAP1 SSTORE PUSH1 0x1 DUP3 ADD PUSH1 0x0 SWAP1 SSTORE PUSH1 0x2 DUP3 ADD PUSH1 0x0 PUSH2 0x950 SWAP2 SWAP1 PUSH2 0x96D JUMP JUMPDEST PUSH1 0x3 DUP3 ADD PUSH1 0x0 SWAP1 SSTORE PUSH1 0x4 DUP3 ADD PUSH1 0x0 SWAP1 SSTORE POP PUSH1 0x5 ADD PUSH2 0x927 JUMP JUMPDEST POP SWAP1 JUMP JUMPDEST POP DUP1 SLOAD PUSH2 0x979 SWAP1 PUSH2 0xDB3 JUMP JUMPDEST PUSH1 0x0 DUP3 SSTORE DUP1 PUSH1 0x1F LT PUSH2 0x98B JUMPI POP PUSH2 0x9AA JUMP JUMPDEST PUSH1 0x1F ADD PUSH1 0x20 SWAP1 DIV SWAP1 PUSH1 0x0 MSTORE PUSH1 0x20 PUSH1 0x0 KECCAK256 SWAP1 DUP2 ADD SWAP1 PUSH2 0x9A9 SWAP2 SWAP1 PUSH2 0x9AD JUMP JUMPDEST JUMPDEST POP JUMP JUMPDEST JUMPDEST DUP1 DUP3 GT ISZERO PUSH2 0x9C6 JUMPI PUSH1 0x0 DUP2 PUSH1 0x0 SWAP1 SSTORE POP PUSH1 0x1 ADD PUSH2 0x9AE JUMP JUMPDEST POP SWAP1 JUMP JUMPDEST PUSH1 0x0 DUP1 REVERT JUMPDEST PUSH1 0x0 DUP2 SWAP1 POP SWAP2 SWAP1 POP JUMP JUMPDEST PUSH2 0x9E2 DUP2 PUSH2 0x9CF JUMP JUMPDEST DUP2 EQ PUSH2 0x9ED JUMPI PUSH1 0x0 DUP1 REVERT JUMPDEST POP JUMP JUMPDEST PUSH1 0x0 DUP2 CALLDATALOAD SWAP1 POP PUSH2 0x9FF DUP2 PUSH2 0x9D9 JUMP JUMPDEST SWAP3 SWAP2 POP POP JUMP JUMPDEST PUSH1 0x0 DUP1 PUSH1 0x40 DUP4 DUP6 SUB SLT ISZERO PUSH2 0xA1C JUMPI PUSH2 0xA1B PUSH2 0x9CA JUMP JUMPDEST JUMPDEST PUSH1 0x0 PUSH2 0xA2A DUP6 DUP3 DUP7 ADD PUSH2 0x9F0 JUMP JUMPDEST SWAP3 POP POP PUSH1 0x20 PUSH2 0xA3B DUP6 DUP3 DUP7 ADD PUSH2 0x9F0 JUMP JUMPDEST SWAP2 POP POP SWAP3 POP SWAP3 SWAP1 POP JUMP JUMPDEST PUSH2 0xA4E DUP2 PUSH2 0x9CF JUMP JUMPDEST DUP3 MSTORE POP POP JUMP JUMPDEST PUSH1 0x0 PUSH1 0x20 DUP3 ADD SWAP1 POP PUSH2 0xA69 PUSH1 0x0 DUP4 ADD DUP5 PUSH2 0xA45 JUMP JUMPDEST SWAP3 SWAP2 POP POP JUMP JUMPDEST PUSH1 0x0 PUSH1 0x20 DUP3 DUP5 SUB SLT ISZERO PUSH2 0xA85 JUMPI PUSH2 0xA84 PUSH2 0x9CA JUMP JUMPDEST JUMPDEST PUSH1 0x0 PUSH2 0xA93 DUP5 DUP3 DUP6 ADD PUSH2 0x9F0 JUMP JUMPDEST SWAP2 POP POP SWAP3 SWAP2 POP POP JUMP JUMPDEST PUSH1 0x0 DUP2 MLOAD SWAP1 POP SWAP2 SWAP1 POP JUMP JUMPDEST PUSH1 0x0 DUP3 DUP3 MSTORE PUSH1 0x20 DUP3 ADD SWAP1 POP SWAP3 SWAP2 POP POP JUMP JUMPDEST PUSH1 0x0 JUMPDEST DUP4 DUP2 LT ISZERO PUSH2 0xAD6 JUMPI DUP1 DUP3 ADD MLOAD DUP2 DUP5 ADD MSTORE PUSH1 0x20 DUP2 ADD SWAP1 POP PUSH2 0xABB JUMP JUMPDEST PUSH1 0x0 DUP5 DUP5 ADD MSTORE POP POP POP POP JUMP JUMPDEST PUSH1 0x0 PUSH1 0x1F NOT PUSH1 0x1F DUP4 ADD AND SWAP1 POP SWAP2 SWAP1 POP JUMP JUMPDEST PUSH1 0x0 PUSH2 0xAFE DUP3 PUSH2 0xA9C JUMP JUMPDEST PUSH2 0xB08 DUP2 DUP6 PUSH2 0xAA7 JUMP JUMPDEST SWAP4 POP PUSH2 0xB18 DUP2 DUP6 PUSH1 0x20 DUP7 ADD PUSH2 0xAB8 JUMP JUMPDEST PUSH2 0xB21 DUP2 PUSH2 0xAE2 JUMP JUMPDEST DUP5 ADD SWAP2 POP POP SWAP3 SWAP2 POP POP JUMP JUMPDEST PUSH1 0x0 PUSH1 0xA0 DUP3 ADD SWAP1 POP PUSH2 0xB41 PUSH1 0x0 DUP4 ADD DUP9 PUSH2 0xA45 JUMP JUMPDEST PUSH2 0xB4E PUSH1 0x20 DUP4 ADD DUP8 PUSH2 0xA45 JUMP JUMPDEST DUP2 DUP2 SUB PUSH1 0x40 DUP4 ADD MSTORE PUSH2 0xB60 DUP2 DUP7 PUSH2 0xAF3 JUMP JUMPDEST SWAP1 POP PUSH2 0xB6F PUSH1 0x60 DUP4 ADD DUP6 PUSH2 0xA45 JUMP JUMPDEST PUSH2 0xB7C PUSH1 0x80 DUP4 ADD DUP5 PUSH2 0xA45 JUMP JUMPDEST SWAP7 SWAP6 POP POP POP POP POP POP JUMP JUMPDEST PUSH32 0x4E487B7100000000000000000000000000000000000000000000000000000000 PUSH1 0x0 MSTORE PUSH1 0x11 PUSH1 0x4 MSTORE PUSH1 0x24 PUSH1 0x0 REVERT JUMPDEST PUSH1 0x0 PUSH2 0xBC0 DUP3 PUSH2 0x9CF JUMP JUMPDEST SWAP2 POP PUSH2 0xBCB DUP4 PUSH2 0x9CF JUMP JUMPDEST SWAP3 POP DUP3 DUP3 MUL PUSH2 0xBD9 DUP2 PUSH2 0x9CF JUMP JUMPDEST SWAP2 POP DUP3 DUP3 DIV DUP5 EQ DUP4 ISZERO OR PUSH2 0xBF0 JUMPI PUSH2 0xBEF PUSH2 0xB86 JUMP JUMPDEST JUMPDEST POP SWAP3 SWAP2 POP POP JUMP JUMPDEST PUSH32 0x4E487B7100000000000000000000000000000000000000000000000000000000 PUSH1 0x0 MSTORE PUSH1 0x12 PUSH1 0x4 MSTORE PUSH1 0x24 PUSH1 0x0 REVERT JUMPDEST PUSH1 0x0 PUSH2 0xC31 DUP3 PUSH2 0x9CF JUMP JUMPDEST SWAP2 POP PUSH2 0xC3C DUP4 PUSH2 0x9CF JUMP JUMPDEST SWAP3 POP DUP3 PUSH2 0xC4C JUMPI PUSH2 0xC4B PUSH2 0xBF7 JUMP JUMPDEST JUMPDEST DUP3 DUP3 DIV SWAP1 POP SWAP3 SWAP2 POP POP JUMP JUMPDEST PUSH32 0x41726974686D657469633A206D756C7469706C69636174696F6E206F76657266 PUSH1 0x0 DUP3 ADD MSTORE PUSH32 0x6C6F770000000000000000000000000000000000000000000000000000000000 PUSH1 0x20 DUP3 ADD MSTORE POP JUMP JUMPDEST PUSH1 0x0 PUSH2 0xCB3 PUSH1 0x23 DUP4 PUSH2 0xAA7 JUMP JUMPDEST SWAP2 POP PUSH2 0xCBE DUP3 PUSH2 0xC57 JUMP JUMPDEST PUSH1 0x40 DUP3 ADD SWAP1 POP SWAP2 SWAP1 POP JUMP JUMPDEST PUSH1 0x0 PUSH1 0x20 DUP3 ADD SWAP1 POP DUP2 DUP2 SUB PUSH1 0x0 DUP4 ADD MSTORE PUSH2 0xCE2 DUP2 PUSH2 0xCA6 JUMP JUMPDEST SWAP1 POP SWAP2 SWAP1 POP JUMP JUMPDEST PUSH32 0x41726974686D657469633A20696E646578206F7574206F6620626F756E647300 PUSH1 0x0 DUP3 ADD MSTORE POP JUMP JUMPDEST PUSH1 0x0 PUSH2 0xD1F PUSH1 0x1F DUP4 PUSH2 0xAA7 JUMP JUMPDEST SWAP2 POP PUSH2 0xD2A DUP3 PUSH2 0xCE9 JUMP JUMPDEST PUSH1 0x20 DUP3 ADD SWAP1 POP SWAP2 SWAP1 POP JUMP JUMPDEST PUSH1 0x0 PUSH1 0x20 DUP3 ADD SWAP1 POP DUP2 DUP2 SUB PUSH1 0x0 DUP4 ADD MSTORE PUSH2 0xD4E DUP2 PUSH2 0xD12 JUMP JUMPDEST SWAP1 POP SWAP2 SWAP1 POP JUMP JUMPDEST PUSH32 0x4E487B7100000000000000000000000000000000000000000000000000000000 PUSH1 0x0 MSTORE PUSH1 0x32 PUSH1 0x4 MSTORE PUSH1 0x24 PUSH1 0x0 REVERT JUMPDEST PUSH32 0x4E487B7100000000000000000000000000000000000000000000000000000000 PUSH1 0x0 MSTORE PUSH1 0x22 PUSH1 0x4 MSTORE PUSH1 0x24 PUSH1 0x0 REVERT JUMPDEST PUSH1 0x0 PUSH1 0x2 DUP3 DIV SWAP1 POP PUSH1 0x1 DUP3 AND DUP1 PUSH2 0xDCB JUMPI PUSH1 0x7F DUP3 AND SWAP2 POP JUMPDEST PUSH1 0x20 DUP3 LT DUP2 SUB PUSH2 0xDDE JUMPI PUSH2 0xDDD PUSH2 0xD84 JUMP JUMPDEST JUMPDEST POP SWAP2 SWAP1 POP JUMP JUMPDEST PUSH32 0x41726974686D657469633A207375627472616374696F6E20756E646572666C6F PUSH1 0x0 DUP3 ADD MSTORE PUSH32 0x7700000000000000000000000000000000000000000000000000000000000000 PUSH1 0x20 DUP3 ADD MSTORE POP JUMP JUMPDEST PUSH1 0x0 PUSH2 0xE40 PUSH1 0x21 DUP4 PUSH2 0xAA7 JUMP JUMPDEST SWAP2 POP PUSH2 0xE4B DUP3 PUSH2 0xDE4 JUMP JUMPDEST PUSH1 0x40 DUP3 ADD SWAP1 POP SWAP2 SWAP1 POP JUMP JUMPDEST PUSH1 0x0 PUSH1 0x20 DUP3 ADD SWAP1 POP DUP2 DUP2 SUB PUSH1 0x0 DUP4 ADD MSTORE PUSH2 0xE6F DUP2 PUSH2 0xE33 JUMP JUMPDEST SWAP1 POP SWAP2 SWAP1 POP JUMP JUMPDEST PUSH1 0x0 PUSH2 0xE81 DUP3 PUSH2 0x9CF JUMP JUMPDEST SWAP2 POP PUSH2 0xE8C DUP4 PUSH2 0x9CF JUMP JUMPDEST SWAP3 POP DUP3 DUP3 SUB SWAP1 POP DUP2 DUP2 GT ISZERO PUSH2 0xEA4 JUMPI PUSH2 0xEA3 PUSH2 0xB86 JUMP JUMPDEST JUMPDEST SWAP3 SWAP2 POP POP JUMP JUMPDEST PUSH1 0x0 PUSH2 0xEB5 DUP3 PUSH2 0x9CF JUMP JUMPDEST SWAP2 POP PUSH2 0xEC0 DUP4 PUSH2 0x9CF JUMP JUMPDEST SWAP3 POP DUP3 DUP3 ADD SWAP1 POP DUP1 DUP3 GT ISZERO PUSH2 0xED8 JUMPI PUSH2 0xED7 PUSH2 0xB86 JUMP JUMPDEST JUMPDEST SWAP3 SWAP2 POP POP JUMP JUMPDEST PUSH32 0x41726974686D657469633A206164646974696F6E206F766572666C6F77000000 PUSH1 0x0 DUP3 ADD MSTORE POP JUMP JUMPDEST PUSH1 0x0 PUSH2 0xF14 PUSH1 0x1D DUP4 PUSH2 0xAA7 JUMP JUMPDEST SWAP2 POP PUSH2 0xF1F DUP3 PUSH2 0xEDE JUMP JUMPDEST PUSH1 0x20 DUP3 ADD SWAP1 POP SWAP2 SWAP1 POP JUMP JUMPDEST PUSH1 0x0 PUSH1 0x20 DUP3 ADD SWAP1 POP DUP2 DUP2 SUB PUSH1 0x0 DUP4 ADD MSTORE PUSH2 0xF43 DUP2 PUSH2 0xF07 JUMP JUMPDEST SWAP1 POP SWAP2 SWAP1 POP JUMP JUMPDEST PUSH32 0x41726974686D657469633A206D6F64756C6F206279207A65726F000000000000 PUSH1 0x0 DUP3 ADD MSTORE POP JUMP JUMPDEST PUSH1 0x0 PUSH2 0xF80 PUSH1 0x1A DUP4 PUSH2 0xAA7 JUMP JUMPDEST SWAP2 POP PUSH2 0xF8B DUP3 PUSH2 0xF4A JUMP JUMPDEST PUSH1 0x20 DUP3 ADD SWAP1 POP SWAP2 SWAP1 POP JUMP JUMPDEST PUSH1 0x0 PUSH1 0x20 DUP3 ADD SWAP1 POP DUP2 DUP2 SUB PUSH1 0x0 DUP4 ADD MSTORE PUSH2 0xFAF DUP2 PUSH2 0xF73 JUMP JUMPDEST SWAP1 POP SWAP2 SWAP1 POP JUMP JUMPDEST PUSH1 0x0 PUSH2 0xFC1 DUP3 PUSH2 0x9CF JUMP JUMPDEST SWAP2 POP PUSH2 0xFCC DUP4 PUSH2 0x9CF JUMP JUMPDEST SWAP3 POP DUP3 PUSH2 0xFDC JUMPI PUSH2 0xFDB PUSH2 0xBF7 JUMP JUMPDEST JUMPDEST DUP3 DUP3 MOD SWAP1 POP SWAP3 SWAP2 POP POP JUMP JUMPDEST PUSH32 0x41726974686D657469633A206469766973696F6E206279207A65726F00000000 PUSH1 0x0 DUP3 ADD MSTORE POP JUMP JUMPDEST PUSH1 0x0 PUSH2 0x101D PUSH1 0x1C DUP4 PUSH2 0xAA7 JUMP JUMPDEST SWAP2 POP PUSH2 0x1028 DUP3 PUSH2 0xFE7 JUMP JUMPDEST PUSH1 0x20 DUP3 ADD SWAP1 POP SWAP2 SWAP1 POP JUMP JUMPDEST PUSH1 0x0 PUSH1 0x20 DUP3 ADD SWAP1 POP DUP2 DUP2 SUB PUSH1 0x0 DUP4 ADD MSTORE PUSH2 0x104C DUP2 PUSH2 0x1010 JUMP JUMPDEST SWAP1 POP SWAP2 SWAP1 POP JUMP JUMPDEST PUSH32 0x4E487B7100000000000000000000000000000000000000000000000000000000 PUSH1 0x0 MSTORE PUSH1 0x41 PUSH1 0x4 MSTORE PUSH1 0x24 PUSH1 0x0 REVERT JUMPDEST PUSH1 0x0 DUP2 SWAP1 POP DUP2 PUSH1 0x0 MSTORE PUSH1 0x20 PUSH1 0x0 KECCAK256 SWAP1 POP SWAP2 SWAP1 POP JUMP JUMPDEST PUSH1 0x0 PUSH1 0x20 PUSH1 0x1F DUP4 ADD DIV SWAP1 POP SWAP2 SWAP1 POP JUMP JUMPDEST PUSH1 0x0 DUP3 DUP3 SHL SWAP1 POP SWAP3 SWAP2 POP POP JUMP JUMPDEST PUSH1 0x0 PUSH1 0x8 DUP4 MUL PUSH2 0x10E4 PUSH32 0xFFFFFFFFFFFFFFFFFFFFFFFFFFFFFFFFFFFFFFFFFFFFFFFFFFFFFFFFFFFFFFFF DUP3 PUSH2 0x10A7 JUMP JUMPDEST PUSH2 0x10EE DUP7 DUP4 PUSH2 0x10A7 JUMP JUMPDEST SWAP6 POP DUP1 NOT DUP5 AND SWAP4 POP DUP1 DUP7 AND DUP5 OR SWAP3 POP POP POP SWAP4 SWAP3 POP POP POP JUMP JUMPDEST PUSH1 0x0 DUP2 SWAP1 POP SWAP2 SWAP1 POP JUMP JUMPDEST PUSH1 0x0 PUSH2 0x112B PUSH2 0x1126 PUSH2 0x1121 DUP5 PUSH2 0x9CF JUMP JUMPDEST PUSH2 0x1106 JUMP JUMPDEST PUSH2 0x9CF JUMP JUMPDEST SWAP1 POP SWAP2 SWAP1 POP JUMP JUMPDEST PUSH1 0x0 DUP2 SWAP1 POP SWAP2 SWAP1 POP JUMP JUMPDEST PUSH2 0x1145 DUP4 PUSH2 0x1110 JUMP JUMPDEST PUSH2 0x1159 PUSH2 0x1151 DUP3 PUSH2 0x1132 JUMP JUMPDEST DUP5 DUP5 SLOAD PUSH2 0x10B4 JUMP JUMPDEST DUP3 SSTORE POP POP POP POP JUMP JUMPDEST PUSH1 0x0 SWAP1 JUMP JUMPDEST PUSH2 0x116E PUSH2 0x1161 JUMP JUMPDEST PUSH2 0x1179 DUP2 DUP5 DUP5 PUSH2 0x113C JUMP JUMPDEST POP POP POP JUMP JUMPDEST JUMPDEST DUP2 DUP2 LT ISZERO PUSH2 0x119D JUMPI PUSH2 0x1192 PUSH1 0x0 DUP3 PUSH2 0x1166 JUMP JUMPDEST PUSH1 0x1 DUP2 ADD SWAP1 POP PUSH2 0x117F JUMP JUMPDEST POP POP JUMP JUMPDEST PUSH1 0x1F DUP3 GT ISZERO PUSH2 0x11E2 JUMPI PUSH2 0x11B3 DUP2 PUSH2 0x1082 JUMP JUMPDEST PUSH2 0x11BC DUP5 PUSH2 0x1097 JUMP JUMPDEST DUP2 ADD PUSH1 0x20 DUP6 LT ISZERO PUSH2 0x11CB JUMPI DUP2 SWAP1 POP JUMPDEST PUSH2 0x11DF PUSH2 0x11D7 DUP6 PUSH2 0x1097 JUMP JUMPDEST DUP4 ADD DUP3 PUSH2 0x117E JUMP JUMPDEST POP POP JUMPDEST POP POP POP JUMP JUMPDEST PUSH1 0x0 DUP3 DUP3 SHR SWAP1 POP SWAP3 SWAP2 POP POP JUMP JUMPDEST PUSH1 0x0 PUSH2 0x1205 PUSH1 0x0 NOT DUP5 PUSH1 0x8 MUL PUSH2 0x11E7 JUMP JUMPDEST NOT DUP1 DUP4 AND SWAP2 POP POP SWAP3 SWAP2 POP POP JUMP JUMPDEST PUSH1 0x0 PUSH2 0x121E DUP4 DUP4 PUSH2 0x11F4 JUMP JUMPDEST SWAP2 POP DUP3 PUSH1 0x2 MUL DUP3 OR SWAP1 POP SWAP3 SWAP2 POP POP JUMP JUMPDEST PUSH2 0x1237 DUP3 PUSH2 0xA9C JUMP JUMPDEST PUSH8 0xFFFFFFFFFFFFFFFF DUP2 GT ISZERO PUSH2 0x1250 JUMPI PUSH2 0x124F PUSH2 0x1053 JUMP JUMPDEST JUMPDEST PUSH2 0x125A DUP3 SLOAD PUSH2 0xDB3 JUMP JUMPDEST PUSH2 0x1265 DUP3 DUP3 DUP6 PUSH2 0x11A1 JUMP JUMPDEST PUSH1 0x0 PUSH1 0x20 SWAP1 POP PUSH1 0x1F DUP4 GT PUSH1 0x1 DUP2 EQ PUSH2 0x1298 JUMPI PUSH1 0x0 DUP5 ISZERO PUSH2 0x1286 JUMPI DUP3 DUP8 ADD MLOAD SWAP1 POP JUMPDEST PUSH2 0x1290 DUP6 DUP3 PUSH2 0x1212 JUMP JUMPDEST DUP7 SSTORE POP PUSH2 0x12F8 JUMP JUMPDEST PUSH1 0x1F NOT DUP5 AND PUSH2 0x12A6 DUP7 PUSH2 0x1082 JUMP JUMPDEST PUSH1 0x0 JUMPDEST DUP3 DUP2 LT ISZERO PUSH2 0x12CE JUMPI DUP5 DUP10 ADD MLOAD DUP3 SSTORE PUSH1 0x1 DUP3 ADD SWAP2 POP PUSH1 0x20 DUP6 ADD SWAP5 POP PUSH1 0x20 DUP2 ADD SWAP1 POP PUSH2 0x12A9 JUMP JUMPDEST DUP7 DUP4 LT ISZERO PUSH2 0x12EB JUMPI DUP5 DUP10 ADD MLOAD PUSH2 0x12E7 PUSH1 0x1F DUP10 AND DUP3 PUSH2 0x11F4 JUMP JUMPDEST DUP4 SSTORE POP JUMPDEST PUSH1 0x1 PUSH1 0x2 DUP9 MUL ADD DUP9 SSTORE POP POP POP JUMPDEST POP POP POP POP POP POP JUMP JUMPDEST PUSH1 0x0 PUSH1 0x60 DUP3 ADD SWAP1 POP DUP2 DUP2 SUB PUSH1 0x0 DUP4 ADD MSTORE PUSH2 0x131A DUP2 DUP7 PUSH2 0xAF3 JUMP JUMPDEST SWAP1 POP PUSH2 0x1329 PUSH1 0x20 DUP4 ADD DUP6 PUSH2 0xA45 JUMP JUMPDEST PUSH2 0x1336 PUSH1 0x40 DUP4 ADD DUP5 PUSH2 0xA45 JUMP JUMPDEST SWAP5 SWAP4 POP POP POP POP JUMP INVALID LOG2 PUSH5 0x6970667358 0x22 SLT KECCAK256 STOP PUSH2 0xBA28 SWAP3 0x49 SWAP6 SDIV EXTCODEHASH PREVRANDAO 0xA5 0xFB CALLVALUE 0xBE SWAP16 PUSH20 0xA6AC5280C2BD4EE27DFB72C9A085F30564736F6C PUSH4 0x43000813 STOP CALLER "},"methodIdentifiers":{"add(uint256,uint256)":"771602f7","clearHistory()":"56b176e1","divide(uint256,uint256)":"f88e9fbf","getOperation(uint256)":"202e3924","getOperationsCount()":"dd1033f8","lastResult()":"abcc11d8","modulo(uint256,uint256)":"baaf073d","multiply(uint256,uint256)":"165c4a16","operations(uint256)":"b2e9949d","subtract(uint256,uint256)":"3ef5e445"}}}}}