{
  "_format": "hh3-artifact-1",
  "contractName": "ArithmeticOptimized",
  "sourceName": "src/ArithmeticOptimized.sol",
  "abi": [
    {
      "anonymous": false,
      "inputs": [
        {
          "indexed": true,
          "internalType": "uint128",
          "name": "a",
          "type": "uint128"
        },
        {
          "indexed": true,
          "internalType": "uint128",
          "name": "b",
          "type": "uint128"
        },
        {
          "indexed": true,
          "internalType": "uint8",
          "name": "operationType",
          "type": "uint8"
        },
        {
          "indexed": false,
          "internalType": "uint128",
          "name": "result",
          "type": "uint128"
        },
        {
          "indexed": false,
          "internalType": "uint32",
          "name": "timestamp",
          "type": "uint32"
        }
      ],
      "name": "CalculationPerformed",
      "type": "event"
    },
    {
      "inputs": [
        {
          "internalType": "uint128",
          "name": "a",
          "type": "uint128"
        },
        {
          "internalType": "uint128",
          "name": "b",
          "type": "uint128"
        }
      ],
      "name": "add",
      "outputs": [
        {
          "internalType": "uint128",
          "name": "",
          "type": "uint128"
        }
      ],
      "stateMutability": "nonpayable",
      "type": "function"
    },
    {
      "inputs": [
        {
          "internalType": "uint128[]",
          "name": "a",
          "type": "uint128[]"
        },
        {
          "internalType": "uint128[]",
          "name": "b",
          "type": "uint128[]"
        },
        {
          "internalType": "uint8[]",
          "name": "operationTypes",
          "type": "uint8[]"
        }
      ],
      "name": "batchExecute",
      "outputs": [
        {
          "internalType": "uint128[]",
          "name": "results",
          "type": "uint128[]"
        }
      ],
      "stateMutability": "nonpayable",
      "type": "function"
    },
    {
      "inputs": [],
      "name": "clearHistory",
      "outputs": [],
      "stateMutability": "nonpayable",
      "type": "function"
    },
    {
      "inputs": [
        {
          "internalType": "uint128",
          "name": "a",
          "type": "uint128"
        },
        {
          "internalType": "uint128",
          "name": "b",
          "type": "uint128"
        }
      ],
      "name": "divide",
      "outputs": [
        {
          "internalType": "uint128",
          "name": "",
          "type": "uint128"
        }
      ],
      "stateMutability": "nonpayable",
      "type": "function"
    },
    {
      "inputs": [
        {
          "internalType": "uint256",
          "name": "index",
          "type": "uint256"
        }
      ],
      "name": "getOperation",
      "outputs": [
        {
          "internalType": "uint128",
          "name": "a",
          "type": "uint128"
        },
        {
          "internalType": "uint128",
          "name": "b",
          "type": "uint128"
        },
        {
          "internalType": "uint8",
          "name": "operationType",
          "type": "uint8"
        },
        {
          "internalType": "uint128",
          "name": "result",
          "type": "uint128"
        },
        {
          "internalType": "uint32",
          "name": "timestamp",
          "type": "uint32"
        }
      ],
      "stateMutability": "view",
      "type": "function"
    },
    {
      "inputs": [],
      "name": "getOperationsCount",
      "outputs": [
        {
          "internalType": "uint256",
          "name": "",
          "type": "uint256"
        }
      ],
      "stateMutability": "view",
      "type": "function"
    },
    {
      "inputs": [],
      "name": "lastResult",
      "outputs": [
        {
          "internalType": "uint128",
          "name": "",
          "type": "uint128"
        }
      ],
      "stateMutability": "view",
      "type": "function"
    },
    {
      "inputs": [
        {
          "internalType": "uint128",
          "name": "a",
          "type": "uint128"
        },
        {
          "internalType": "uint128",
          "name": "b",
          "type": "uint128"
        }
      ],
      "name": "modulo",
      "outputs": [
        {
          "internalType": "uint128",
          "name": "",
          "type": "uint128"
        }
      ],
      "stateMutability": "nonpayable",
      "type": "function"
    },
    {
      "inputs": [
        {
          "internalType": "uint128",
          "name": "a",
          "type": "uint128"
        },
        {
          "internalType": "uint128",
          "name": "b",
          "type": "uint128"
        }
      ],
      "name": "multiply",
      "outputs": [
        {
          "internalType": "uint128",
          "name": "",
          "type": "uint128"
        }
      ],
      "stateMutability": "nonpayable",
      "type": "function"
    },
    {
      "inputs": [
        {
          "internalType": "uint256",
          "name": "",
          "type": "uint256"
        }
      ],
      "name": "operations",
      "outputs": [
        {
          "internalType": "uint128",
          "name": "a",
          "type": "uint128"
        },
        {
          "internalType": "uint128",
          "name": "b",
          "type": "uint128"
        },
        {
          "internalType": "uint8",
          "name": "operationType",
          "type": "uint8"
        },
        {
          "internalType": "uint128",
          "name": "result",
          "type": "uint128"
        },
        {
          "internalType": "uint32",
          "name": "timestamp",
          "type": "uint32"
        }
      ],
      "stateMutability": "view",
      "type": "function"
    },
    {
      "inputs": [],
      "name": "operationsCount",
      "outputs": [
        {
          "internalType": "uint256",
          "name": "",
          "type": "uint256"
        }
      ],
      "stateMutability": "view",
      "type": "function"
    },
    {
      "inputs": [
        {
          "internalType": "uint128",
          "name": "a",
          "type": "uint128"
        },
        {
          "internalType": "uint128",
          "name": "b",
          "type": "uint128"
        }
      ],
      "name": "subtract",
      "outputs": [
        {
          "internalType": "uint128",
          "name": "",
          "type": "uint128"
        }
      ],
      "stateMutability": "nonpayable",
      "type": "function"
    }
  ],
  "bytecode": "0x608060405234801561001057600080fd5b50611990806100206000396000f3fe608060405234801561001057600080fd5b50600436106100b45760003560e01c80639a8eadd4116100715780639a8eadd4146101a5578063abcc11d8146101d5578063b2e9949d146101f3578063bbaa082014610227578063dd1033f814610257578063feb9939014610275576100b4565b8063202e3924146100b95780632b4e7c1d146100ed5780632b7d0e601461010b5780633ea23f321461013b57806356b176e11461016b57806376db4f6614610175575b600080fd5b6100d360048036038101906100ce9190611001565b6102a5565b6040516100e4959493929190611094565b60405180910390f35b6100f5610461565b60405161010291906110f6565b60405180910390f35b610125600480360381019061012091906111cc565b610467565b604051610132919061133e565b60405180910390f35b6101556004803603810190610150919061138c565b61096f565b60405161016291906113cc565b60405180910390f35b6101736109ec565b005b61018f600480360381019061018a919061138c565b610a2f565b60405161019c91906113cc565b60405180910390f35b6101bf60048036038101906101ba919061138c565b610abf565b6040516101cc91906113cc565b60405180910390f35b6101dd610b3c565b6040516101ea91906113cc565b60405180910390f35b61020d60048036038101906102089190611001565b610b5c565b60405161021e959493929190611094565b60405180910390f35b610241600480360381019061023c919061138c565b610c03565b60405161024e91906113cc565b60405180910390f35b61025f610cec565b60405161026c91906110f6565b60405180910390f35b61028f600480360381019061028a919061138c565b610cf6565b60405161029c91906113cc565b60405180910390f35b600080600080600060025486106102f1576040517f08c379a00000000000000000000000000000000000000000000000000000000081526004016102e890611444565b60405180910390fd5b6000600160008881526020019081526020016000206040518060a00160405290816000820160009054906101000a90046fffffffffffffffffffffffffffffffff166fffffffffffffffffffffffffffffffff166fffffffffffffffffffffffffffffffff1681526020016000820160109054906101000a90046fffffffffffffffffffffffffffffffff166fffffffffffffffffffffffffffffffff166fffffffffffffffffffffffffffffffff1681526020016001820160009054906101000a900460ff1660ff1660ff1681526020016001820160019054906101000a90046fffffffffffffffffffffffffffffffff166fffffffffffffffffffffffffffffffff166fffffffffffffffffffffffffffffffff1681526020016001820160119054906101000a900463ffffffff1663ffffffff1663ffffffff1681525050905080600001518160200151826040015183606001518460800151955095509550955095505091939590929450565b60025481565b6060848490508787905014801561048357508282905085859050145b6104c2576040517f08c379a00000000000000000000000000000000000000000000000000000000081526004016104b9906114b0565b60405180910390fd5b8686905067ffffffffffffffff8111156104df576104de6114d0565b5b60405190808252806020026020018201604052801561050d5781602001602082028036833780820191505090505b50905060005b8787905081101561096457600160ff16848483818110610536576105356114ff565b5b905060200201602081019061054b919061155a565b60ff16036105f5576105ab888883818110610569576105686114ff565b5b905060200201602081019061057e9190611587565b878784818110610591576105906114ff565b5b90506020020160208101906105a69190611587565b610cf6565b8282815181106105be576105bd6114ff565b5b60200260200101906fffffffffffffffffffffffffffffffff1690816fffffffffffffffffffffffffffffffff1681525050610951565b600260ff1684848381811061060d5761060c6114ff565b5b9050602002016020810190610622919061155a565b60ff16036106cc576106828888838181106106405761063f6114ff565b5b90506020020160208101906106559190611587565b878784818110610668576106676114ff565b5b905060200201602081019061067d9190611587565b610a2f565b828281518110610695576106946114ff565b5b60200260200101906fffffffffffffffffffffffffffffffff1690816fffffffffffffffffffffffffffffffff1681525050610950565b600360ff168484838181106106e4576106e36114ff565b5b90506020020160208101906106f9919061155a565b60ff16036107a357610759888883818110610717576107166114ff565b5b905060200201602081019061072c9190611587565b87878481811061073f5761073e6114ff565b5b90506020020160208101906107549190611587565b610c03565b82828151811061076c5761076b6114ff565b5b60200260200101906fffffffffffffffffffffffffffffffff1690816fffffffffffffffffffffffffffffffff168152505061094f565b600460ff168484838181106107bb576107ba6114ff565b5b90506020020160208101906107d0919061155a565b60ff160361087a576108308888838181106107ee576107ed6114ff565b5b90506020020160208101906108039190611587565b878784818110610816576108156114ff565b5b905060200201602081019061082b9190611587565b61096f565b828281518110610843576108426114ff565b5b60200260200101906fffffffffffffffffffffffffffffffff1690816fffffffffffffffffffffffffffffffff168152505061094e565b600560ff16848483818110610892576108916114ff565b5b90506020020160208101906108a7919061155a565b60ff160361094d576109078888838181106108c5576108c46114ff565b5b90506020020160208101906108da9190611587565b8787848181106108ed576108ec6114ff565b5b90506020020160208101906109029190611587565b610abf565b82828151811061091a576109196114ff565b5b60200260200101906fffffffffffffffffffffffffffffffff1690816fffffffffffffffffffffffffffffffff16815250505b5b5b5b5b808061095c906115e3565b915050610513565b509695505050505050565b600080826fffffffffffffffffffffffffffffffff16116109c5576040517f08c379a00000000000000000000000000000000000000000000000000000000081526004016109bc90611677565b60405180910390fd5b600082846109d391906116c6565b90506109e28484600484610d85565b8091505092915050565b600060028190555060008060006101000a8154816fffffffffffffffffffffffffffffffff02191690836fffffffffffffffffffffffffffffffff160217905550565b6000826fffffffffffffffffffffffffffffffff16826fffffffffffffffffffffffffffffffff161115610a98576040517f08c379a0000000000000000000000000000000000000000000000000000000008152600401610a8f90611743565b60405180910390fd5b60008284610aa69190611763565b9050610ab58484600284610d85565b8091505092915050565b600080826fffffffffffffffffffffffffffffffff1611610b15576040517f08c379a0000000000000000000000000000000000000000000000000000000008152600401610b0c906117f3565b60405180910390fd5b60008284610b239190611813565b9050610b328484600584610d85565b8091505092915050565b60008054906101000a90046fffffffffffffffffffffffffffffffff1681565b60016020528060005260406000206000915090508060000160009054906101000a90046fffffffffffffffffffffffffffffffff16908060000160109054906101000a90046fffffffffffffffffffffffffffffffff16908060010160009054906101000a900460ff16908060010160019054906101000a90046fffffffffffffffffffffffffffffffff16908060010160119054906101000a900463ffffffff16905085565b600080836fffffffffffffffffffffffffffffffff161480610c3757506000826fffffffffffffffffffffffffffffffff16145b15610c5357610c4a838360036000610d85565b60009050610ce6565b60008284610c619190611844565b9050826fffffffffffffffffffffffffffffffff168482610c8291906116c6565b6fffffffffffffffffffffffffffffffff1614610cd4576040517f08c379a0000000000000000000000000000000000000000000000000000000008152600401610ccb906118cd565b60405180910390fd5b610ce18484600384610d85565b809150505b92915050565b6000600254905090565b6000808284610d0591906118ed565b9050836fffffffffffffffffffffffffffffffff16816fffffffffffffffffffffffffffffffff161015610d6e576040517f08c379a0000000000000000000000000000000000000000000000000000000008152600401610d65906118cd565b60405180910390fd5b610d7b8484600184610d85565b8091505092915050565b806000806101000a8154816fffffffffffffffffffffffffffffffff02191690836fffffffffffffffffffffffffffffffff1602179055506040518060a00160405280856fffffffffffffffffffffffffffffffff168152602001846fffffffffffffffffffffffffffffffff1681526020018360ff168152602001826fffffffffffffffffffffffffffffffff1681526020014263ffffffff1681525060016000600254815260200190815260200160002060008201518160000160006101000a8154816fffffffffffffffffffffffffffffffff02191690836fffffffffffffffffffffffffffffffff16021790555060208201518160000160106101000a8154816fffffffffffffffffffffffffffffffff02191690836fffffffffffffffffffffffffffffffff16021790555060408201518160010160006101000a81548160ff021916908360ff16021790555060608201518160010160016101000a8154816fffffffffffffffffffffffffffffffff02191690836fffffffffffffffffffffffffffffffff16021790555060808201518160010160116101000a81548163ffffffff021916908363ffffffff16021790555090505060026000815480929190610f53906115e3565b91905055508160ff16836fffffffffffffffffffffffffffffffff16856fffffffffffffffffffffffffffffffff167fa045edeed5de13c32927158770e879c073c795d1cd342ac9a6390b7b1371fac78442604051610fb3929190611931565b60405180910390a450505050565b600080fd5b600080fd5b6000819050919050565b610fde81610fcb565b8114610fe957600080fd5b50565b600081359050610ffb81610fd5565b92915050565b60006020828403121561101757611016610fc1565b5b600061102584828501610fec565b91505092915050565b60006fffffffffffffffffffffffffffffffff82169050919050565b6110538161102e565b82525050565b600060ff82169050919050565b61106f81611059565b82525050565b600063ffffffff82169050919050565b61108e81611075565b82525050565b600060a0820190506110a9600083018861104a565b6110b6602083018761104a565b6110c36040830186611066565b6110d0606083018561104a565b6110dd6080830184611085565b9695505050505050565b6110f081610fcb565b82525050565b600060208201905061110b60008301846110e7565b92915050565b600080fd5b600080fd5b600080fd5b60008083601f84011261113657611135611111565b5b8235905067ffffffffffffffff81111561115357611152611116565b5b60208301915083602082028301111561116f5761116e61111b565b5b9250929050565b60008083601f84011261118c5761118b611111565b5b8235905067ffffffffffffffff8111156111a9576111a8611116565b5b6020830191508360208202830111156111c5576111c461111b565b5b9250929050565b600080600080600080606087890312156111e9576111e8610fc1565b5b600087013567ffffffffffffffff81111561120757611206610fc6565b5b61121389828a01611120565b9650965050602087013567ffffffffffffffff81111561123657611235610fc6565b5b61124289828a01611120565b9450945050604087013567ffffffffffffffff81111561126557611264610fc6565b5b61127189828a01611176565b92509250509295509295509295565b600081519050919050565b600082825260208201905092915050565b6000819050602082019050919050565b6112b58161102e565b82525050565b60006112c783836112ac565b60208301905092915050565b6000602082019050919050565b60006112eb82611280565b6112f5818561128b565b93506113008361129c565b8060005b8381101561133157815161131888826112bb565b9750611323836112d3565b925050600181019050611304565b5085935050505092915050565b6000602082019050818103600083015261135881846112e0565b905092915050565b6113698161102e565b811461137457600080fd5b50565b60008135905061138681611360565b92915050565b600080604083850312156113a3576113a2610fc1565b5b60006113b185828601611377565b92505060206113c285828601611377565b9150509250929050565b60006020820190506113e1600083018461104a565b92915050565b600082825260208201905092915050565b7f4f7574206f6620626f756e647300000000000000000000000000000000000000600082015250565b600061142e600d836113e7565b9150611439826113f8565b602082019050919050565b6000602082019050818103600083015261145d81611421565b9050919050565b7f4c656e677468206d69736d617463680000000000000000000000000000000000600082015250565b600061149a600f836113e7565b91506114a582611464565b602082019050919050565b600060208201905081810360008301526114c98161148d565b9050919050565b7f4e487b7100000000000000000000000000000000000000000000000000000000600052604160045260246000fd5b7f4e487b7100000000000000000000000000000000000000000000000000000000600052603260045260246000fd5b61153781611059565b811461154257600080fd5b50565b6000813590506115548161152e565b92915050565b6000602082840312156115705761156f610fc1565b5b600061157e84828501611545565b91505092915050565b60006020828403121561159d5761159c610fc1565b5b60006115ab84828501611377565b91505092915050565b7f4e487b7100000000000000000000000000000000000000000000000000000000600052601160045260246000fd5b60006115ee82610fcb565b91507fffffffffffffffffffffffffffffffffffffffffffffffffffffffffffffffff82036116205761161f6115b4565b5b600182019050919050565b7f446976206279207a65726f000000000000000000000000000000000000000000600082015250565b6000611661600b836113e7565b915061166c8261162b565b602082019050919050565b6000602082019050818103600083015261169081611654565b9050919050565b7f4e487b7100000000000000000000000000000000000000000000000000000000600052601260045260246000fd5b60006116d18261102e565b91506116dc8361102e565b9250826116ec576116eb611697565b5b828204905092915050565b7f556e646572666c6f770000000000000000000000000000000000000000000000600082015250565b600061172d6009836113e7565b9150611738826116f7565b602082019050919050565b6000602082019050818103600083015261175c81611720565b9050919050565b600061176e8261102e565b91506117798361102e565b925082820390506fffffffffffffffffffffffffffffffff8111156117a1576117a06115b4565b5b92915050565b7f4d6f64206279207a65726f000000000000000000000000000000000000000000600082015250565b60006117dd600b836113e7565b91506117e8826117a7565b602082019050919050565b6000602082019050818103600083015261180c816117d0565b9050919050565b600061181e8261102e565b91506118298361102e565b92508261183957611838611697565b5b828206905092915050565b600061184f8261102e565b915061185a8361102e565b92508282026118688161102e565b915080821461187a576118796115b4565b5b5092915050565b7f4f766572666c6f77000000000000000000000000000000000000000000000000600082015250565b60006118b76008836113e7565b91506118c282611881565b602082019050919050565b600060208201905081810360008301526118e6816118aa565b9050919050565b60006118f88261102e565b91506119038361102e565b925082820190506fffffffffffffffffffffffffffffffff81111561192b5761192a6115b4565b5b92915050565b6000604082019050611946600083018561104a565b6119536020830184611085565b939250505056fea2646970667358221220c03ccc82b205ac5f1154bac1f48d15f4338faf75464827f72e6984c1b4865e8464736f6c63430008130033",
  "linkReferences": {},
  "deployedLinkReferences": {},
  "immutableReferences": {},
  "inputSourceName": "project/src/ArithmeticOptimized.sol",
  "buildInfoId": "solc-0_8_19-8c38817de50b97abb3fac498896b46f4961a4dba"
}