{
  "_format": "hh3-artifact-1",
  "contractName": "ArithmeticOptimizedTest",
  "sourceName": "test/ArithmeticOptimizedTest.sol",
  "abi": [
    {
      "inputs": [],
      "name": "arithmetic",
      "outputs": [
        {
          "internalType": "contract ArithmeticOptimized",
          "name": "",
          "type": "address"
        }
      ],
      "stateMutability": "view",
      "type": "function"
    },
    {
      "inputs": [],
      "name": "setUp",
      "outputs": [],
      "stateMutability": "nonpayable",
      "type": "function"
    },
    {
      "inputs": [],
      "name": "testAdd",
      "outputs": [],
      "stateMutability": "nonpayable",
      "type": "function"
    },
    {
      "inputs": [],
      "name": "testBatchExecute",
      "outputs": [],
      "stateMutability": "nonpayable",
      "type": "function"
    },
    {
      "inputs": [],
      "name": "testDivide",
      "outputs": [],
      "stateMutability": "nonpayable",
      "type": "function"
    },
    {
      "inputs": [],
      "name": "testModulo",
      "outputs": [],
      "stateMutability": "nonpayable",
      "type": "function"
    },
    {
      "inputs": [],
      "name": "testMultiply",
      "outputs": [],
      "stateMutability": "nonpayable",
      "type": "function"
    },
    {
      "inputs": [],
      "name": "testSubtract",
      "outputs": [],
      "stateMutability": "nonpayable",
      "type": "function"
    }
  ],
  "bytecode": "0x608060405234801561001057600080fd5b5061313d806100206000396000f3fe608060405234801561001057600080fd5b50600436106100885760003560e01c80638e155d8a1161005b5780638e155d8a146100b5578063980a67fd146100bf578063ae40f72f146100dd578063d0e493cf146100e757610088565b80630a9254e41461008d578063385e27ed146100975780633d149c84146100a157806370f4b86c146100ab575b600080fd5b6100956100f1565b005b61009f61015b565b005b6100a9610277565b005b6100b3610393565b005b6100bd6104af565b005b6100c7610ab3565b6040516100d49190610f20565b60405180910390f35b6100e5610ad7565b005b6100ef610bf3565b005b6040516100fd90610e8a565b604051809103906000f080158015610119573d6000803e3d6000fd5b506000806101000a81548173ffffffffffffffffffffffffffffffffffffffff021916908373ffffffffffffffffffffffffffffffffffffffff160217905550565b60008060009054906101000a900473ffffffffffffffffffffffffffffffffffffffff1673ffffffffffffffffffffffffffffffffffffffff166376db4f66600a60046040518363ffffffff1660e01b81526004016101bb929190610fcd565b6020604051808303816000875af11580156101da573d6000803e3d6000fd5b505050506040513d601f19601f820116820180604052508101906101fe9190611036565b90506102516040518060400160405280600881526020017f3130202d2034203d000000000000000000000000000000000000000000000000815250826fffffffffffffffffffffffffffffffff16610d0f565b6006816fffffffffffffffffffffffffffffffff161461027457610273611063565b5b50565b60008060009054906101000a900473ffffffffffffffffffffffffffffffffffffffff1673ffffffffffffffffffffffffffffffffffffffff16639a8eadd4601160056040518363ffffffff1660e01b81526004016102d7929190611108565b6020604051808303816000875af11580156102f6573d6000803e3d6000fd5b505050506040513d601f19601f8201168201806040525081019061031a9190611036565b905061036d6040518060400160405280600881526020017f313720252035203d000000000000000000000000000000000000000000000000815250826fffffffffffffffffffffffffffffffff16610d0f565b6002816fffffffffffffffffffffffffffffffff16146103905761038f611063565b5b50565b60008060009054906101000a900473ffffffffffffffffffffffffffffffffffffffff1673ffffffffffffffffffffffffffffffffffffffff1663bbaa0820600660076040518363ffffffff1660e01b81526004016103f39291906111a7565b6020604051808303816000875af1158015610412573d6000803e3d6000fd5b505050506040513d601f19601f820116820180604052508101906104369190611036565b90506104896040518060400160405280600781526020017f36202a2037203d00000000000000000000000000000000000000000000000000815250826fffffffffffffffffffffffffffffffff16610d0f565b602a816fffffffffffffffffffffffffffffffff16146104ac576104ab611063565b5b50565b6000600367ffffffffffffffff8111156104cc576104cb6111d0565b5b6040519080825280602002602001820160405280156104fa5781602001602082028036833780820191505090505b5090506000600367ffffffffffffffff81111561051a576105196111d0565b5b6040519080825280602002602001820160405280156105485781602001602082028036833780820191505090505b5090506000600367ffffffffffffffff811115610568576105676111d0565b5b6040519080825280602002602001820160405280156105965781602001602082028036833780820191505090505b5090506005836000815181106105af576105ae6111ff565b5b60200260200101906fffffffffffffffffffffffffffffffff1690816fffffffffffffffffffffffffffffffff16815250506003826000815181106105f7576105f66111ff565b5b60200260200101906fffffffffffffffffffffffffffffffff1690816fffffffffffffffffffffffffffffffff168152505060018160008151811061063f5761063e6111ff565b5b602002602001019060ff16908160ff1681525050600a83600181518110610669576106686111ff565b5b60200260200101906fffffffffffffffffffffffffffffffff1690816fffffffffffffffffffffffffffffffff16815250506004826001815181106106b1576106b06111ff565b5b60200260200101906fffffffffffffffffffffffffffffffff1690816fffffffffffffffffffffffffffffffff16815250506002816001815181106106f9576106f86111ff565b5b602002602001019060ff16908160ff1681525050600683600281518110610723576107226111ff565b5b60200260200101906fffffffffffffffffffffffffffffffff1690816fffffffffffffffffffffffffffffffff168152505060078260028151811061076b5761076a6111ff565b5b60200260200101906fffffffffffffffffffffffffffffffff1690816fffffffffffffffffffffffffffffffff16815250506003816002815181106107b3576107b26111ff565b5b602002602001019060ff16908160ff168152505060008060009054906101000a900473ffffffffffffffffffffffffffffffffffffffff1673ffffffffffffffffffffffffffffffffffffffff16632b7d0e608585856040518463ffffffff1660e01b8152600401610827939291906113b7565b6000604051808303816000875af1158015610846573d6000803e3d6000fd5b505050506040513d6000823e3d601f19601f8201168201806040525081019061086f919061152d565b90506108af6040518060400160405280601881526020017f4261746368206f7065726174696f6e20726573756c74733a0000000000000000815250610dab565b61091b6040518060400160405280600781526020017f35202b2033203d00000000000000000000000000000000000000000000000000815250826000815181106108fc576108fb6111ff565b5b60200260200101516fffffffffffffffffffffffffffffffff16610d0f565b6109876040518060400160405280600881526020017f3130202d2034203d00000000000000000000000000000000000000000000000081525082600181518110610968576109676111ff565b5b60200260200101516fffffffffffffffffffffffffffffffff16610d0f565b6109f36040518060400160405280600781526020017f36202a2037203d00000000000000000000000000000000000000000000000000815250826002815181106109d4576109d36111ff565b5b60200260200101516fffffffffffffffffffffffffffffffff16610d0f565b600881600081518110610a0957610a086111ff565b5b60200260200101516fffffffffffffffffffffffffffffffff1614610a3157610a30611063565b5b600681600181518110610a4757610a466111ff565b5b60200260200101516fffffffffffffffffffffffffffffffff1614610a6f57610a6e611063565b5b602a81600281518110610a8557610a846111ff565b5b60200260200101516fffffffffffffffffffffffffffffffff1614610aad57610aac611063565b5b50505050565b60008054906101000a900473ffffffffffffffffffffffffffffffffffffffff1681565b60008060009054906101000a900473ffffffffffffffffffffffffffffffffffffffff1673ffffffffffffffffffffffffffffffffffffffff1663feb99390600560036040518363ffffffff1660e01b8152600401610b379291906115b1565b6020604051808303816000875af1158015610b56573d6000803e3d6000fd5b505050506040513d601f19601f82011682018060405250810190610b7a9190611036565b9050610bcd6040518060400160405280600781526020017f35202b2033203d00000000000000000000000000000000000000000000000000815250826fffffffffffffffffffffffffffffffff16610d0f565b6008816fffffffffffffffffffffffffffffffff1614610bf057610bef611063565b5b50565b60008060009054906101000a900473ffffffffffffffffffffffffffffffffffffffff1673ffffffffffffffffffffffffffffffffffffffff16633ea23f32601460056040518363ffffffff1660e01b8152600401610c53929190611615565b6020604051808303816000875af1158015610c72573d6000803e3d6000fd5b505050506040513d601f19601f82011682018060405250810190610c969190611036565b9050610ce96040518060400160405280600881526020017f3230202f2035203d000000000000000000000000000000000000000000000000815250826fffffffffffffffffffffffffffffffff16610d0f565b6004816fffffffffffffffffffffffffffffffff1614610d0c57610d0b611063565b5b50565b610da78282604051602401610d259291906116d6565b6040516020818303038152906040527fb60e72cc000000000000000000000000000000000000000000000000000000007bffffffffffffffffffffffffffffffffffffffffffffffffffffffff19166020820180517bffffffffffffffffffffffffffffffffffffffffffffffffffffffff8381831617835250505050610e44565b5050565b610e4181604051602401610dbf9190611706565b6040516020818303038152906040527f41304fac000000000000000000000000000000000000000000000000000000007bffffffffffffffffffffffffffffffffffffffffffffffffffffffff19166020820180517bffffffffffffffffffffffffffffffffffffffffffffffffffffffff8381831617835250505050610e44565b50565b610e5b81610e53610e5e610e7f565b63ffffffff16565b50565b60006a636f6e736f6c652e6c6f679050600080835160208501845afa505050565b610e97819050919050565b6119b08061175883390190565b610e9f611728565b565b600073ffffffffffffffffffffffffffffffffffffffff82169050919050565b6000819050919050565b6000610ee6610ee1610edc84610ea1565b610ec1565b610ea1565b9050919050565b6000610ef882610ecb565b9050919050565b6000610f0a82610eed565b9050919050565b610f1a81610eff565b82525050565b6000602082019050610f356000830184610f11565b92915050565b6000819050919050565b60006fffffffffffffffffffffffffffffffff82169050919050565b6000610f7c610f77610f7284610f3b565b610ec1565b610f45565b9050919050565b610f8c81610f61565b82525050565b6000819050919050565b6000610fb7610fb2610fad84610f92565b610ec1565b610f45565b9050919050565b610fc781610f9c565b82525050565b6000604082019050610fe26000830185610f83565b610fef6020830184610fbe565b9392505050565b6000604051905090565b600080fd5b600080fd5b61101381610f45565b811461101e57600080fd5b50565b6000815190506110308161100a565b92915050565b60006020828403121561104c5761104b611000565b5b600061105a84828501611021565b91505092915050565b7f4e487b7100000000000000000000000000000000000000000000000000000000600052600160045260246000fd5b6000819050919050565b60006110b76110b26110ad84611092565b610ec1565b610f45565b9050919050565b6110c78161109c565b82525050565b6000819050919050565b60006110f26110ed6110e8846110cd565b610ec1565b610f45565b9050919050565b611102816110d7565b82525050565b600060408201905061111d60008301856110be565b61112a60208301846110f9565b9392505050565b6000819050919050565b600061115661115161114c84611131565b610ec1565b610f45565b9050919050565b6111668161113b565b82525050565b6000819050919050565b600061119161118c6111878461116c565b610ec1565b610f45565b9050919050565b6111a181611176565b82525050565b60006040820190506111bc600083018561115d565b6111c96020830184611198565b9392505050565b7f4e487b7100000000000000000000000000000000000000000000000000000000600052604160045260246000fd5b7f4e487b7100000000000000000000000000000000000000000000000000000000600052603260045260246000fd5b600081519050919050565b600082825260208201905092915050565b6000819050602082019050919050565b61126381610f45565b82525050565b6000611275838361125a565b60208301905092915050565b6000602082019050919050565b60006112998261122e565b6112a38185611239565b93506112ae8361124a565b8060005b838110156112df5781516112c68882611269565b97506112d183611281565b9250506001810190506112b2565b5085935050505092915050565b600081519050919050565b600082825260208201905092915050565b6000819050602082019050919050565b600060ff82169050919050565b61132e81611318565b82525050565b60006113408383611325565b60208301905092915050565b6000602082019050919050565b6000611364826112ec565b61136e81856112f7565b935061137983611308565b8060005b838110156113aa5781516113918882611334565b975061139c8361134c565b92505060018101905061137d565b5085935050505092915050565b600060608201905081810360008301526113d1818661128e565b905081810360208301526113e5818561128e565b905081810360408301526113f98184611359565b9050949350505050565b600080fd5b6000601f19601f8301169050919050565b61142282611408565b810181811067ffffffffffffffff82111715611441576114406111d0565b5b80604052505050565b6000611454610ff6565b90506114608282611419565b919050565b600067ffffffffffffffff8211156114805761147f6111d0565b5b602082029050602081019050919050565b600080fd5b60006114a96114a484611465565b61144a565b905080838252602082019050602084028301858111156114cc576114cb611491565b5b835b818110156114f557806114e18882611021565b8452602084019350506020810190506114ce565b5050509392505050565b600082601f83011261151457611513611403565b5b8151611524848260208601611496565b91505092915050565b60006020828403121561154357611542611000565b5b600082015167ffffffffffffffff81111561156157611560611005565b5b61156d848285016114ff565b91505092915050565b6000819050919050565b600061159b61159661159184611576565b610ec1565b610f45565b9050919050565b6115ab81611580565b82525050565b60006040820190506115c660008301856110f9565b6115d360208301846115a2565b9392505050565b6000819050919050565b60006115ff6115fa6115f5846115da565b610ec1565b610f45565b9050919050565b61160f816115e4565b82525050565b600060408201905061162a6000830185611606565b61163760208301846110f9565b9392505050565b600081519050919050565b600082825260208201905092915050565b60005b8381101561167857808201518184015260208101905061165d565b60008484015250505050565b600061168f8261163e565b6116998185611649565b93506116a981856020860161165a565b6116b281611408565b840191505092915050565b6000819050919050565b6116d0816116bd565b82525050565b600060408201905081810360008301526116f08185611684565b90506116ff60208301846116c7565b9392505050565b600060208201905081810360008301526117208184611684565b905092915050565b7f4e487b7100000000000000000000000000000000000000000000000000000000600052605160045260246000fdfe608060405234801561001057600080fd5b50611990806100206000396000f3fe608060405234801561001057600080fd5b50600436106100b45760003560e01c80639a8eadd4116100715780639a8eadd4146101a5578063abcc11d8146101d5578063b2e9949d146101f3578063bbaa082014610227578063dd1033f814610257578063feb9939014610275576100b4565b8063202e3924146100b95780632b4e7c1d146100ed5780632b7d0e601461010b5780633ea23f321461013b57806356b176e11461016b57806376db4f6614610175575b600080fd5b6100d360048036038101906100ce9190611001565b6102a5565b6040516100e4959493929190611094565b60405180910390f35b6100f5610461565b60405161010291906110f6565b60405180910390f35b610125600480360381019061012091906111cc565b610467565b604051610132919061133e565b60405180910390f35b6101556004803603810190610150919061138c565b61096f565b60405161016291906113cc565b60405180910390f35b6101736109ec565b005b61018f600480360381019061018a919061138c565b610a2f565b60405161019c91906113cc565b60405180910390f35b6101bf60048036038101906101ba919061138c565b610abf565b6040516101cc91906113cc565b60405180910390f35b6101dd610b3c565b6040516101ea91906113cc565b60405180910390f35b61020d60048036038101906102089190611001565b610b5c565b60405161021e959493929190611094565b60405180910390f35b610241600480360381019061023c919061138c565b610c03565b60405161024e91906113cc565b60405180910390f35b61025f610cec565b60405161026c91906110f6565b60405180910390f35b61028f600480360381019061028a919061138c565b610cf6565b60405161029c91906113cc565b60405180910390f35b600080600080600060025486106102f1576040517f08c379a00000000000000000000000000000000000000000000000000000000081526004016102e890611444565b60405180910390fd5b6000600160008881526020019081526020016000206040518060a00160405290816000820160009054906101000a90046fffffffffffffffffffffffffffffffff166fffffffffffffffffffffffffffffffff166fffffffffffffffffffffffffffffffff1681526020016000820160109054906101000a90046fffffffffffffffffffffffffffffffff166fffffffffffffffffffffffffffffffff166fffffffffffffffffffffffffffffffff1681526020016001820160009054906101000a900460ff1660ff1660ff1681526020016001820160019054906101000a90046fffffffffffffffffffffffffffffffff166fffffffffffffffffffffffffffffffff166fffffffffffffffffffffffffffffffff1681526020016001820160119054906101000a900463ffffffff1663ffffffff1663ffffffff1681525050905080600001518160200151826040015183606001518460800151955095509550955095505091939590929450565b60025481565b6060848490508787905014801561048357508282905085859050145b6104c2576040517f08c379a00000000000000000000000000000000000000000000000000000000081526004016104b9906114b0565b60405180910390fd5b8686905067ffffffffffffffff8111156104df576104de6114d0565b5b60405190808252806020026020018201604052801561050d5781602001602082028036833780820191505090505b50905060005b8787905081101561096457600160ff16848483818110610536576105356114ff565b5b905060200201602081019061054b919061155a565b60ff16036105f5576105ab888883818110610569576105686114ff565b5b905060200201602081019061057e9190611587565b878784818110610591576105906114ff565b5b90506020020160208101906105a69190611587565b610cf6565b8282815181106105be576105bd6114ff565b5b60200260200101906fffffffffffffffffffffffffffffffff1690816fffffffffffffffffffffffffffffffff1681525050610951565b600260ff1684848381811061060d5761060c6114ff565b5b9050602002016020810190610622919061155a565b60ff16036106cc576106828888838181106106405761063f6114ff565b5b90506020020160208101906106559190611587565b878784818110610668576106676114ff565b5b905060200201602081019061067d9190611587565b610a2f565b828281518110610695576106946114ff565b5b60200260200101906fffffffffffffffffffffffffffffffff1690816fffffffffffffffffffffffffffffffff1681525050610950565b600360ff168484838181106106e4576106e36114ff565b5b90506020020160208101906106f9919061155a565b60ff16036107a357610759888883818110610717576107166114ff565b5b905060200201602081019061072c9190611587565b87878481811061073f5761073e6114ff565b5b90506020020160208101906107549190611587565b610c03565b82828151811061076c5761076b6114ff565b5b60200260200101906fffffffffffffffffffffffffffffffff1690816fffffffffffffffffffffffffffffffff168152505061094f565b600460ff168484838181106107bb576107ba6114ff565b5b90506020020160208101906107d0919061155a565b60ff160361087a576108308888838181106107ee576107ed6114ff565b5b90506020020160208101906108039190611587565b878784818110610816576108156114ff565b5b905060200201602081019061082b9190611587565b61096f565b828281518110610843576108426114ff565b5b60200260200101906fffffffffffffffffffffffffffffffff1690816fffffffffffffffffffffffffffffffff168152505061094e565b600560ff16848483818110610892576108916114ff565b5b90506020020160208101906108a7919061155a565b60ff160361094d576109078888838181106108c5576108c46114ff565b5b90506020020160208101906108da9190611587565b8787848181106108ed576108ec6114ff565b5b90506020020160208101906109029190611587565b610abf565b82828151811061091a576109196114ff565b5b60200260200101906fffffffffffffffffffffffffffffffff1690816fffffffffffffffffffffffffffffffff16815250505b5b5b5b5b808061095c906115e3565b915050610513565b509695505050505050565b600080826fffffffffffffffffffffffffffffffff16116109c5576040517f08c379a00000000000000000000000000000000000000000000000000000000081526004016109bc90611677565b60405180910390fd5b600082846109d391906116c6565b90506109e28484600484610d85565b8091505092915050565b600060028190555060008060006101000a8154816fffffffffffffffffffffffffffffffff02191690836fffffffffffffffffffffffffffffffff160217905550565b6000826fffffffffffffffffffffffffffffffff16826fffffffffffffffffffffffffffffffff161115610a98576040517f08c379a0000000000000000000000000000000000000000000000000000000008152600401610a8f90611743565b60405180910390fd5b60008284610aa69190611763565b9050610ab58484600284610d85565b8091505092915050565b600080826fffffffffffffffffffffffffffffffff1611610b15576040517f08c379a0000000000000000000000000000000000000000000000000000000008152600401610b0c906117f3565b60405180910390fd5b60008284610b239190611813565b9050610b328484600584610d85565b8091505092915050565b60008054906101000a90046fffffffffffffffffffffffffffffffff1681565b60016020528060005260406000206000915090508060000160009054906101000a90046fffffffffffffffffffffffffffffffff16908060000160109054906101000a90046fffffffffffffffffffffffffffffffff16908060010160009054906101000a900460ff16908060010160019054906101000a90046fffffffffffffffffffffffffffffffff16908060010160119054906101000a900463ffffffff16905085565b600080836fffffffffffffffffffffffffffffffff161480610c3757506000826fffffffffffffffffffffffffffffffff16145b15610c5357610c4a838360036000610d85565b60009050610ce6565b60008284610c619190611844565b9050826fffffffffffffffffffffffffffffffff168482610c8291906116c6565b6fffffffffffffffffffffffffffffffff1614610cd4576040517f08c379a0000000000000000000000000000000000000000000000000000000008152600401610ccb906118cd565b60405180910390fd5b610ce18484600384610d85565b809150505b92915050565b6000600254905090565b6000808284610d0591906118ed565b9050836fffffffffffffffffffffffffffffffff16816fffffffffffffffffffffffffffffffff161015610d6e576040517f08c379a0000000000000000000000000000000000000000000000000000000008152600401610d65906118cd565b60405180910390fd5b610d7b8484600184610d85565b8091505092915050565b806000806101000a8154816fffffffffffffffffffffffffffffffff02191690836fffffffffffffffffffffffffffffffff1602179055506040518060a00160405280856fffffffffffffffffffffffffffffffff168152602001846fffffffffffffffffffffffffffffffff1681526020018360ff168152602001826fffffffffffffffffffffffffffffffff1681526020014263ffffffff1681525060016000600254815260200190815260200160002060008201518160000160006101000a8154816fffffffffffffffffffffffffffffffff02191690836fffffffffffffffffffffffffffffffff16021790555060208201518160000160106101000a8154816fffffffffffffffffffffffffffffffff02191690836fffffffffffffffffffffffffffffffff16021790555060408201518160010160006101000a81548160ff021916908360ff16021790555060608201518160010160016101000a8154816fffffffffffffffffffffffffffffffff02191690836fffffffffffffffffffffffffffffffff16021790555060808201518160010160116101000a81548163ffffffff021916908363ffffffff16021790555090505060026000815480929190610f53906115e3565b91905055508160ff16836fffffffffffffffffffffffffffffffff16856fffffffffffffffffffffffffffffffff167fa045edeed5de13c32927158770e879c073c795d1cd342ac9a6390b7b1371fac78442604051610fb3929190611931565b60405180910390a450505050565b600080fd5b600080fd5b6000819050919050565b610fde81610fcb565b8114610fe957600080fd5b50565b600081359050610ffb81610fd5565b92915050565b60006020828403121561101757611016610fc1565b5b600061102584828501610fec565b91505092915050565b60006fffffffffffffffffffffffffffffffff82169050919050565b6110538161102e565b82525050565b600060ff82169050919050565b61106f81611059565b82525050565b600063ffffffff82169050919050565b61108e81611075565b82525050565b600060a0820190506110a9600083018861104a565b6110b6602083018761104a565b6110c36040830186611066565b6110d0606083018561104a565b6110dd6080830184611085565b9695505050505050565b6110f081610fcb565b82525050565b600060208201905061110b60008301846110e7565b92915050565b600080fd5b600080fd5b600080fd5b60008083601f84011261113657611135611111565b5b8235905067ffffffffffffffff81111561115357611152611116565b5b60208301915083602082028301111561116f5761116e61111b565b5b9250929050565b60008083601f84011261118c5761118b611111565b5b8235905067ffffffffffffffff8111156111a9576111a8611116565b5b6020830191508360208202830111156111c5576111c461111b565b5b9250929050565b600080600080600080606087890312156111e9576111e8610fc1565b5b600087013567ffffffffffffffff81111561120757611206610fc6565b5b61121389828a01611120565b9650965050602087013567ffffffffffffffff81111561123657611235610fc6565b5b61124289828a01611120565b9450945050604087013567ffffffffffffffff81111561126557611264610fc6565b5b61127189828a01611176565b92509250509295509295509295565b600081519050919050565b600082825260208201905092915050565b6000819050602082019050919050565b6112b58161102e565b82525050565b60006112c783836112ac565b60208301905092915050565b6000602082019050919050565b60006112eb82611280565b6112f5818561128b565b93506113008361129c565b8060005b8381101561133157815161131888826112bb565b9750611323836112d3565b925050600181019050611304565b5085935050505092915050565b6000602082019050818103600083015261135881846112e0565b905092915050565b6113698161102e565b811461137457600080fd5b50565b60008135905061138681611360565b92915050565b600080604083850312156113a3576113a2610fc1565b5b60006113b185828601611377565b92505060206113c285828601611377565b9150509250929050565b60006020820190506113e1600083018461104a565b92915050565b600082825260208201905092915050565b7f4f7574206f6620626f756e647300000000000000000000000000000000000000600082015250565b600061142e600d836113e7565b9150611439826113f8565b602082019050919050565b6000602082019050818103600083015261145d81611421565b9050919050565b7f4c656e677468206d69736d617463680000000000000000000000000000000000600082015250565b600061149a600f836113e7565b91506114a582611464565b602082019050919050565b600060208201905081810360008301526114c98161148d565b9050919050565b7f4e487b7100000000000000000000000000000000000000000000000000000000600052604160045260246000fd5b7f4e487b7100000000000000000000000000000000000000000000000000000000600052603260045260246000fd5b61153781611059565b811461154257600080fd5b50565b6000813590506115548161152e565b92915050565b6000602082840312156115705761156f610fc1565b5b600061157e84828501611545565b91505092915050565b60006020828403121561159d5761159c610fc1565b5b60006115ab84828501611377565b91505092915050565b7f4e487b7100000000000000000000000000000000000000000000000000000000600052601160045260246000fd5b60006115ee82610fcb565b91507fffffffffffffffffffffffffffffffffffffffffffffffffffffffffffffffff82036116205761161f6115b4565b5b600182019050919050565b7f446976206279207a65726f000000000000000000000000000000000000000000600082015250565b6000611661600b836113e7565b915061166c8261162b565b602082019050919050565b6000602082019050818103600083015261169081611654565b9050919050565b7f4e487b7100000000000000000000000000000000000000000000000000000000600052601260045260246000fd5b60006116d18261102e565b91506116dc8361102e565b9250826116ec576116eb611697565b5b828204905092915050565b7f556e646572666c6f770000000000000000000000000000000000000000000000600082015250565b600061172d6009836113e7565b9150611738826116f7565b602082019050919050565b6000602082019050818103600083015261175c81611720565b9050919050565b600061176e8261102e565b91506117798361102e565b925082820390506fffffffffffffffffffffffffffffffff8111156117a1576117a06115b4565b5b92915050565b7f4d6f64206279207a65726f000000000000000000000000000000000000000000600082015250565b60006117dd600b836113e7565b91506117e8826117a7565b602082019050919050565b6000602082019050818103600083015261180c816117d0565b9050919050565b600061181e8261102e565b91506118298361102e565b92508261183957611838611697565b5b828206905092915050565b600061184f8261102e565b915061185a8361102e565b92508282026118688161102e565b915080821461187a576118796115b4565b5b5092915050565b7f4f766572666c6f77000000000000000000000000000000000000000000000000600082015250565b60006118b76008836113e7565b91506118c282611881565b602082019050919050565b600060208201905081810360008301526118e6816118aa565b9050919050565b60006118f88261102e565b91506119038361102e565b925082820190506fffffffffffffffffffffffffffffffff81111561192b5761192a6115b4565b5b92915050565b6000604082019050611946600083018561104a565b6119536020830184611085565b939250505056fea2646970667358221220f5f60fc81fb95154311170fc31ed3f71690dae8eb7590cae3eac6328f3e3ad8764736f6c63430008130033a264697066735822122002de73720665168b7f8a449bd461eb6a52c7e44449093702693d380ff9affe5764736f6c63430008130033",
  "linkReferences": {},
  "deployedLinkReferences": {},
  "immutableReferences": {},
  "inputSourceName": "project/test/ArithmeticOptimizedTest.sol",
  "buildInfoId": "solc-0_8_19-854db0ec9f9708c1bc3496e90b213fb81c45207a"
}