{
  "_format": "hh-sol-artifact-1",
  "contractName": "MemeToken",
  "sourceName": "contracts/MemeToken.sol",
  "abi": [
    {
      "inputs": [
        {
          "internalType": "string",
          "name": "name",
          "type": "string"
        },
        {
          "internalType": "string",
          "name": "symbol",
          "type": "string"
        },
        {
          "internalType": "uint256",
          "name": "totalSupply",
          "type": "uint256"
        },
        {
          "internalType": "address",
          "name": "_devWallet",
          "type": "address"
        },
        {
          "internalType": "address",
          "name": "_liquidityPool",
          "type": "address"
        }
      ],
      "stateMutability": "nonpayable",
      "type": "constructor"
    },
    {
      "anonymous": false,
      "inputs": [
        {
          "indexed": true,
          "internalType": "address",
          "name": "provider",
          "type": "address"
        },
        {
          "indexed": false,
          "internalType": "uint256",
          "name": "amountToken",
          "type": "uint256"
        },
        {
          "indexed": false,
          "internalType": "uint256",
          "name": "amountETH",
          "type": "uint256"
        },
        {
          "indexed": false,
          "internalType": "uint256",
          "name": "liquidity",
          "type": "uint256"
        }
      ],
      "name": "AddLiquidity",
      "type": "event"
    },
    {
      "anonymous": false,
      "inputs": [
        {
          "indexed": true,
          "internalType": "address",
          "name": "owner",
          "type": "address"
        },
        {
          "indexed": true,
          "internalType": "address",
          "name": "spender",
          "type": "address"
        },
        {
          "indexed": false,
          "internalType": "uint256",
          "name": "value",
          "type": "uint256"
        }
      ],
      "name": "Approval",
      "type": "event"
    },
    {
      "anonymous": false,
      "inputs": [
        {
          "indexed": true,
          "internalType": "address",
          "name": "previousOwner",
          "type": "address"
        },
        {
          "indexed": true,
          "internalType": "address",
          "name": "newOwner",
          "type": "address"
        }
      ],
      "name": "OwnershipTransferred",
      "type": "event"
    },
    {
      "anonymous": false,
      "inputs": [
        {
          "indexed": true,
          "internalType": "address",
          "name": "from",
          "type": "address"
        },
        {
          "indexed": true,
          "internalType": "address",
          "name": "to",
          "type": "address"
        },
        {
          "indexed": false,
          "internalType": "uint256",
          "name": "value",
          "type": "uint256"
        }
      ],
      "name": "Transfer",
      "type": "event"
    },
    {
      "anonymous": false,
      "inputs": [
        {
          "indexed": false,
          "internalType": "uint256",
          "name": "newBuyTax",
          "type": "uint256"
        },
        {
          "indexed": false,
          "internalType": "uint256",
          "name": "newSellTax",
          "type": "uint256"
        },
        {
          "indexed": false,
          "internalType": "uint256",
          "name": "newLiquidityTax",
          "type": "uint256"
        },
        {
          "indexed": false,
          "internalType": "uint256",
          "name": "newRewardTax",
          "type": "uint256"
        },
        {
          "indexed": false,
          "internalType": "uint256",
          "name": "newDevTax",
          "type": "uint256"
        }
      ],
      "name": "UpdateTaxRates",
      "type": "event"
    },
    {
      "anonymous": false,
      "inputs": [
        {
          "indexed": false,
          "internalType": "uint256",
          "name": "newMaxTransactionAmount",
          "type": "uint256"
        },
        {
          "indexed": false,
          "internalType": "uint256",
          "name": "newMaxWalletAmount",
          "type": "uint256"
        },
        {
          "indexed": false,
          "internalType": "uint256",
          "name": "newDailyTransactionLimit",
          "type": "uint256"
        }
      ],
      "name": "UpdateTransactionLimits",
      "type": "event"
    },
    {
      "inputs": [],
      "name": "activateTrading",
      "outputs": [],
      "stateMutability": "nonpayable",
      "type": "function"
    },
    {
      "inputs": [
        {
          "internalType": "uint256",
          "name": "tokenAmount",
          "type": "uint256"
        }
      ],
      "name": "addLiquidity",
      "outputs": [],
      "stateMutability": "payable",
      "type": "function"
    },
    {
      "inputs": [
        {
          "internalType": "address",
          "name": "owner",
          "type": "address"
        },
        {
          "internalType": "address",
          "name": "spender",
          "type": "address"
        }
      ],
      "name": "allowance",
      "outputs": [
        {
          "internalType": "uint256",
          "name": "",
          "type": "uint256"
        }
      ],
      "stateMutability": "view",
      "type": "function"
    },
    {
      "inputs": [
        {
          "internalType": "address",
          "name": "spender",
          "type": "address"
        },
        {
          "internalType": "uint256",
          "name": "amount",
          "type": "uint256"
        }
      ],
      "name": "approve",
      "outputs": [
        {
          "internalType": "bool",
          "name": "",
          "type": "bool"
        }
      ],
      "stateMutability": "nonpayable",
      "type": "function"
    },
    {
      "inputs": [
        {
          "internalType": "address",
          "name": "account",
          "type": "address"
        }
      ],
      "name": "balanceOf",
      "outputs": [
        {
          "internalType": "uint256",
          "name": "",
          "type": "uint256"
        }
      ],
      "stateMutability": "view",
      "type": "function"
    },
    {
      "inputs": [],
      "name": "buyTax",
      "outputs": [
        {
          "internalType": "uint256",
          "name": "",
          "type": "uint256"
        }
      ],
      "stateMutability": "view",
      "type": "function"
    },
    {
      "inputs": [],
      "name": "dailyTransactionLimit",
      "outputs": [
        {
          "internalType": "uint256",
          "name": "",
          "type": "uint256"
        }
      ],
      "stateMutability": "view",
      "type": "function"
    },
    {
      "inputs": [],
      "name": "decimals",
      "outputs": [
        {
          "internalType": "uint8",
          "name": "",
          "type": "uint8"
        }
      ],
      "stateMutability": "view",
      "type": "function"
    },
    {
      "inputs": [
        {
          "internalType": "address",
          "name": "spender",
          "type": "address"
        },
        {
          "internalType": "uint256",
          "name": "subtractedValue",
          "type": "uint256"
        }
      ],
      "name": "decreaseAllowance",
      "outputs": [
        {
          "internalType": "bool",
          "name": "",
          "type": "bool"
        }
      ],
      "stateMutability": "nonpayable",
      "type": "function"
    },
    {
      "inputs": [],
      "name": "devTax",
      "outputs": [
        {
          "internalType": "uint256",
          "name": "",
          "type": "uint256"
        }
      ],
      "stateMutability": "view",
      "type": "function"
    },
    {
      "inputs": [],
      "name": "devWallet",
      "outputs": [
        {
          "internalType": "address",
          "name": "",
          "type": "address"
        }
      ],
      "stateMutability": "view",
      "type": "function"
    },
    {
      "inputs": [],
      "name": "distributeRewards",
      "outputs": [],
      "stateMutability": "nonpayable",
      "type": "function"
    },
    {
      "inputs": [
        {
          "internalType": "address",
          "name": "spender",
          "type": "address"
        },
        {
          "internalType": "uint256",
          "name": "addedValue",
          "type": "uint256"
        }
      ],
      "name": "increaseAllowance",
      "outputs": [
        {
          "internalType": "bool",
          "name": "",
          "type": "bool"
        }
      ],
      "stateMutability": "nonpayable",
      "type": "function"
    },
    {
      "inputs": [
        {
          "internalType": "address",
          "name": "",
          "type": "address"
        }
      ],
      "name": "isExcludedFromTax",
      "outputs": [
        {
          "internalType": "bool",
          "name": "",
          "type": "bool"
        }
      ],
      "stateMutability": "view",
      "type": "function"
    },
    {
      "inputs": [
        {
          "internalType": "address",
          "name": "",
          "type": "address"
        }
      ],
      "name": "lastTransactionDay",
      "outputs": [
        {
          "internalType": "uint256",
          "name": "",
          "type": "uint256"
        }
      ],
      "stateMutability": "view",
      "type": "function"
    },
    {
      "inputs": [],
      "name": "liquidityPool",
      "outputs": [
        {
          "internalType": "address",
          "name": "",
          "type": "address"
        }
      ],
      "stateMutability": "view",
      "type": "function"
    },
    {
      "inputs": [],
      "name": "liquidityTax",
      "outputs": [
        {
          "internalType": "uint256",
          "name": "",
          "type": "uint256"
        }
      ],
      "stateMutability": "view",
      "type": "function"
    },
    {
      "inputs": [],
      "name": "liquidityWallet",
      "outputs": [
        {
          "internalType": "address",
          "name": "",
          "type": "address"
        }
      ],
      "stateMutability": "view",
      "type": "function"
    },
    {
      "inputs": [],
      "name": "maxTransactionAmount",
      "outputs": [
        {
          "internalType": "uint256",
          "name": "",
          "type": "uint256"
        }
      ],
      "stateMutability": "view",
      "type": "function"
    },
    {
      "inputs": [],
      "name": "maxWalletAmount",
      "outputs": [
        {
          "internalType": "uint256",
          "name": "",
          "type": "uint256"
        }
      ],
      "stateMutability": "view",
      "type": "function"
    },
    {
      "inputs": [],
      "name": "name",
      "outputs": [
        {
          "internalType": "string",
          "name": "",
          "type": "string"
        }
      ],
      "stateMutability": "view",
      "type": "function"
    },
    {
      "inputs": [],
      "name": "owner",
      "outputs": [
        {
          "internalType": "address",
          "name": "",
          "type": "address"
        }
      ],
      "stateMutability": "view",
      "type": "function"
    },
    {
      "inputs": [
        {
          "internalType": "uint256",
          "name": "liquidityAmount",
          "type": "uint256"
        }
      ],
      "name": "removeLiquidity",
      "outputs": [],
      "stateMutability": "nonpayable",
      "type": "function"
    },
    {
      "inputs": [],
      "name": "renounceOwnership",
      "outputs": [],
      "stateMutability": "nonpayable",
      "type": "function"
    },
    {
      "inputs": [],
      "name": "rewardTax",
      "outputs": [
        {
          "internalType": "uint256",
          "name": "",
          "type": "uint256"
        }
      ],
      "stateMutability": "view",
      "type": "function"
    },
    {
      "inputs": [],
      "name": "rewardWallet",
      "outputs": [
        {
          "internalType": "address",
          "name": "",
          "type": "address"
        }
      ],
      "stateMutability": "view",
      "type": "function"
    },
    {
      "inputs": [],
      "name": "sellTax",
      "outputs": [
        {
          "internalType": "uint256",
          "name": "",
          "type": "uint256"
        }
      ],
      "stateMutability": "view",
      "type": "function"
    },
    {
      "inputs": [
        {
          "internalType": "address",
          "name": "_devWallet",
          "type": "address"
        }
      ],
      "name": "setDevWallet",
      "outputs": [],
      "stateMutability": "nonpayable",
      "type": "function"
    },
    {
      "inputs": [
        {
          "internalType": "address",
          "name": "_address",
          "type": "address"
        },
        {
          "internalType": "bool",
          "name": "_excluded",
          "type": "bool"
        }
      ],
      "name": "setExcludedFromTax",
      "outputs": [],
      "stateMutability": "nonpayable",
      "type": "function"
    },
    {
      "inputs": [
        {
          "internalType": "address",
          "name": "_liquidityPool",
          "type": "address"
        }
      ],
      "name": "setLiquidityPool",
      "outputs": [],
      "stateMutability": "nonpayable",
      "type": "function"
    },
    {
      "inputs": [],
      "name": "symbol",
      "outputs": [
        {
          "internalType": "string",
          "name": "",
          "type": "string"
        }
      ],
      "stateMutability": "view",
      "type": "function"
    },
    {
      "inputs": [],
      "name": "totalSupply",
      "outputs": [
        {
          "internalType": "uint256",
          "name": "",
          "type": "uint256"
        }
      ],
      "stateMutability": "view",
      "type": "function"
    },
    {
      "inputs": [],
      "name": "tradingActive",
      "outputs": [
        {
          "internalType": "bool",
          "name": "",
          "type": "bool"
        }
      ],
      "stateMutability": "view",
      "type": "function"
    },
    {
      "inputs": [
        {
          "internalType": "address",
          "name": "",
          "type": "address"
        }
      ],
      "name": "transactionCount",
      "outputs": [
        {
          "internalType": "uint256",
          "name": "",
          "type": "uint256"
        }
      ],
      "stateMutability": "view",
      "type": "function"
    },
    {
      "inputs": [
        {
          "internalType": "address",
          "name": "recipient",
          "type": "address"
        },
        {
          "internalType": "uint256",
          "name": "amount",
          "type": "uint256"
        }
      ],
      "name": "transfer",
      "outputs": [
        {
          "internalType": "bool",
          "name": "",
          "type": "bool"
        }
      ],
      "stateMutability": "nonpayable",
      "type": "function"
    },
    {
      "inputs": [
        {
          "internalType": "address",
          "name": "from",
          "type": "address"
        },
        {
          "internalType": "address",
          "name": "to",
          "type": "address"
        },
        {
          "internalType": "uint256",
          "name": "amount",
          "type": "uint256"
        }
      ],
      "name": "transferFrom",
      "outputs": [
        {
          "internalType": "bool",
          "name": "",
          "type": "bool"
        }
      ],
      "stateMutability": "nonpayable",
      "type": "function"
    },
    {
      "inputs": [
        {
          "internalType": "address",
          "name": "newOwner",
          "type": "address"
        }
      ],
      "name": "transferOwnership",
      "outputs": [],
      "stateMutability": "nonpayable",
      "type": "function"
    },
    {
      "inputs": [
        {
          "internalType": "uint256",
          "name": "_buyTax",
          "type": "uint256"
        },
        {
          "internalType": "uint256",
          "name": "_sellTax",
          "type": "uint256"
        },
        {
          "internalType": "uint256",
          "name": "_liquidityTax",
          "type": "uint256"
        },
        {
          "internalType": "uint256",
          "name": "_rewardTax",
          "type": "uint256"
        },
        {
          "internalType": "uint256",
          "name": "_devTax",
          "type": "uint256"
        }
      ],
      "name": "updateTaxRates",
      "outputs": [],
      "stateMutability": "nonpayable",
      "type": "function"
    },
    {
      "inputs": [
        {
          "internalType": "uint256",
          "name": "_maxTransactionAmount",
          "type": "uint256"
        },
        {
          "internalType": "uint256",
          "name": "_maxWalletAmount",
          "type": "uint256"
        },
        {
          "internalType": "uint256",
          "name": "_dailyTransactionLimit",
          "type": "uint256"
        }
      ],
      "name": "updateTransactionLimits",
      "outputs": [],
      "stateMutability": "nonpayable",
      "type": "function"
    }
  ],
  "bytecode": "0x60806040526005600755600a60085560036009556002600a556002600b55600a600e5560006014806101000a81548160ff0219169083151502179055503480156200004957600080fd5b506040516200418b3803806200418b83398181016040528101906200006f919062000864565b8484816003908162000082919062000b6b565b50806004908162000094919062000b6b565b505050620000b7620000ab620003ec60201b60201c565b620003f460201b60201c565b6001600681905550620000d13384620004ba60201b60201c565b81601060006101000a81548173ffffffffffffffffffffffffffffffffffffffff021916908373ffffffffffffffffffffffffffffffffffffffff16021790555080600f60006101000a81548173ffffffffffffffffffffffffffffffffffffffff021916908373ffffffffffffffffffffffffffffffffffffffff16021790555033601360006101000a81548173ffffffffffffffffffffffffffffffffffffffff021916908373ffffffffffffffffffffffffffffffffffffffff16021790555033601460006101000a81548173ffffffffffffffffffffffffffffffffffffffff021916908373ffffffffffffffffffffffffffffffffffffffff1602179055506064600284620001e6919062000c81565b620001f2919062000cfb565b600c81905550606460058462000209919062000c81565b62000215919062000cfb565b600d819055506001601560003373ffffffffffffffffffffffffffffffffffffffff1673ffffffffffffffffffffffffffffffffffffffff16815260200190815260200160002060006101000a81548160ff021916908315150217905550600160156000601060009054906101000a900473ffffffffffffffffffffffffffffffffffffffff1673ffffffffffffffffffffffffffffffffffffffff1673ffffffffffffffffffffffffffffffffffffffff16815260200190815260200160002060006101000a81548160ff021916908315150217905550600160156000601360009054906101000a900473ffffffffffffffffffffffffffffffffffffffff1673ffffffffffffffffffffffffffffffffffffffff1673ffffffffffffffffffffffffffffffffffffffff16815260200190815260200160002060006101000a81548160ff021916908315150217905550600160156000601460009054906101000a900473ffffffffffffffffffffffffffffffffffffffff1673ffffffffffffffffffffffffffffffffffffffff1673ffffffffffffffffffffffffffffffffffffffff16815260200190815260200160002060006101000a81548160ff021916908315150217905550505050505062000e1f565b600033905090565b6000600560009054906101000a900473ffffffffffffffffffffffffffffffffffffffff16905081600560006101000a81548173ffffffffffffffffffffffffffffffffffffffff021916908373ffffffffffffffffffffffffffffffffffffffff1602179055508173ffffffffffffffffffffffffffffffffffffffff168173ffffffffffffffffffffffffffffffffffffffff167f8be0079c531659141344cd1fd0a4f28419497f9722a3daafe3b4186f6b6457e060405160405180910390a35050565b600073ffffffffffffffffffffffffffffffffffffffff168273ffffffffffffffffffffffffffffffffffffffff16036200052c576040517f08c379a0000000000000000000000000000000000000000000000000000000008152600401620005239062000d94565b60405180910390fd5b62000540600083836200062760201b60201c565b806002600082825462000554919062000db6565b92505081905550806000808473ffffffffffffffffffffffffffffffffffffffff1673ffffffffffffffffffffffffffffffffffffffff168152602001908152602001600020600082825401925050819055508173ffffffffffffffffffffffffffffffffffffffff16600073ffffffffffffffffffffffffffffffffffffffff167fddf252ad1be2c89b69c2b068fc378daa952ba7f163c4a11628f55a4df523b3ef8360405162000607919062000e02565b60405180910390a362000623600083836200062c60201b60201c565b5050565b505050565b505050565b6000604051905090565b600080fd5b600080fd5b600080fd5b600080fd5b6000601f19601f8301169050919050565b7f4e487b7100000000000000000000000000000000000000000000000000000000600052604160045260246000fd5b6200069a826200064f565b810181811067ffffffffffffffff82111715620006bc57620006bb62000660565b5b80604052505050565b6000620006d162000631565b9050620006df82826200068f565b919050565b600067ffffffffffffffff82111562000702576200070162000660565b5b6200070d826200064f565b9050602081019050919050565b60005b838110156200073a5780820151818401526020810190506200071d565b60008484015250505050565b60006200075d6200075784620006e4565b620006c5565b9050828152602081018484840111156200077c576200077b6200064a565b5b620007898482856200071a565b509392505050565b600082601f830112620007a957620007a862000645565b5b8151620007bb84826020860162000746565b91505092915050565b6000819050919050565b620007d981620007c4565b8114620007e557600080fd5b50565b600081519050620007f981620007ce565b92915050565b600073ffffffffffffffffffffffffffffffffffffffff82169050919050565b60006200082c82620007ff565b9050919050565b6200083e816200081f565b81146200084a57600080fd5b50565b6000815190506200085e8162000833565b92915050565b600080600080600060a086880312156200088357620008826200063b565b5b600086015167ffffffffffffffff811115620008a457620008a362000640565b5b620008b28882890162000791565b955050602086015167ffffffffffffffff811115620008d657620008d562000640565b5b620008e48882890162000791565b9450506040620008f788828901620007e8565b93505060606200090a888289016200084d565b92505060806200091d888289016200084d565b9150509295509295909350565b600081519050919050565b7f4e487b7100000000000000000000000000000000000000000000000000000000600052602260045260246000fd5b600060028204905060018216806200097d57607f821691505b60208210810362000993576200099262000935565b5b50919050565b60008190508160005260206000209050919050565b60006020601f8301049050919050565b600082821b905092915050565b600060088302620009fd7fffffffffffffffffffffffffffffffffffffffffffffffffffffffffffffffff82620009be565b62000a098683620009be565b95508019841693508086168417925050509392505050565b6000819050919050565b600062000a4c62000a4662000a4084620007c4565b62000a21565b620007c4565b9050919050565b6000819050919050565b62000a688362000a2b565b62000a8062000a778262000a53565b848454620009cb565b825550505050565b600090565b62000a9762000a88565b62000aa481848462000a5d565b505050565b5b8181101562000acc5762000ac060008262000a8d565b60018101905062000aaa565b5050565b601f82111562000b1b5762000ae58162000999565b62000af084620009ae565b8101602085101562000b00578190505b62000b1862000b0f85620009ae565b83018262000aa9565b50505b505050565b600082821c905092915050565b600062000b406000198460080262000b20565b1980831691505092915050565b600062000b5b838362000b2d565b9150826002028217905092915050565b62000b76826200092a565b67ffffffffffffffff81111562000b925762000b9162000660565b5b62000b9e825462000964565b62000bab82828562000ad0565b600060209050601f83116001811462000be3576000841562000bce578287015190505b62000bda858262000b4d565b86555062000c4a565b601f19841662000bf38662000999565b60005b8281101562000c1d5784890151825560018201915060208501945060208101905062000bf6565b8683101562000c3d578489015162000c39601f89168262000b2d565b8355505b6001600288020188555050505b505050505050565b7f4e487b7100000000000000000000000000000000000000000000000000000000600052601160045260246000fd5b600062000c8e82620007c4565b915062000c9b83620007c4565b925082820262000cab81620007c4565b9150828204841483151762000cc55762000cc462000c52565b5b5092915050565b7f4e487b7100000000000000000000000000000000000000000000000000000000600052601260045260246000fd5b600062000d0882620007c4565b915062000d1583620007c4565b92508262000d285762000d2762000ccc565b5b828204905092915050565b600082825260208201905092915050565b7f45524332303a206d696e7420746f20746865207a65726f206164647265737300600082015250565b600062000d7c601f8362000d33565b915062000d898262000d44565b602082019050919050565b6000602082019050818103600083015262000daf8162000d6d565b9050919050565b600062000dc382620007c4565b915062000dd083620007c4565b925082820190508082111562000deb5762000dea62000c52565b5b92915050565b62000dfc81620007c4565b82525050565b600060208201905062000e19600083018462000df1565b92915050565b61335c8062000e2f6000396000f3fe6080604052600436106102305760003560e01c80638da5cb5b1161012e578063be617fa0116100ab578063d46980161161006f578063d469801614610836578063dd62ed3e14610861578063f2fde38b1461089e578063f9cc6901146108c7578063fb75b2c7146108f257610230565b8063be617fa01461074f578063c2ed286b1461077a578063c8c8ebe4146107a3578063cb4ca631146107ce578063cc1776d31461080b57610230565b8063a457c2d7116100f2578063a457c2d714610642578063a9059cbb1461067f578063aa4bde28146106bc578063af59c95f146106e7578063bbc0c7421461072457610230565b80638da5cb5b1461055b5780638ea5220f1461058657806395d89b41146105b157806399be3375146105dc5780639c8f9f231461061957610230565b80634e81ad29116101bc5780636e5c59ae116101805780636e5c59ae1461049c5780636f4a2cd0146104c757806370a08231146104de578063715018a61461051b57806373e94ad41461053257610230565b80634e81ad29146103d65780634f7041a5146103ff57806351c6590a1461042a578063665a11ca14610446578063665c6de91461047157610230565b806318160ddd1161020357806318160ddd146102dd5780631f53ac021461030857806323b872dd14610331578063313ce5671461036e578063395093511461039957610230565b8063018770201461023557806306fdde031461025e578063095ea7b3146102895780630bd05b69146102c6575b600080fd5b34801561024157600080fd5b5061025c600480360381019061025791906121d7565b61091d565b005b34801561026a57600080fd5b50610273610969565b6040516102809190612294565b60405180910390f35b34801561029557600080fd5b506102b060048036038101906102ab91906122ec565b6109fb565b6040516102bd9190612347565b60405180910390f35b3480156102d257600080fd5b506102db610a1e565b005b3480156102e957600080fd5b506102f2610a90565b6040516102ff9190612371565b60405180910390f35b34801561031457600080fd5b5061032f600480360381019061032a91906121d7565b610a9a565b005b34801561033d57600080fd5b506103586004803603810190610353919061238c565b610ae6565b6040516103659190612347565b60405180910390f35b34801561037a57600080fd5b50610383610b15565b60405161039091906123fb565b60405180910390f35b3480156103a557600080fd5b506103c060048036038101906103bb91906122ec565b610b1e565b6040516103cd9190612347565b60405180910390f35b3480156103e257600080fd5b506103fd60048036038101906103f89190612416565b610b55565b005b34801561040b57600080fd5b50610414610bb2565b6040516104219190612371565b60405180910390f35b610444600480360381019061043f9190612469565b610bb8565b005b34801561045257600080fd5b5061045b610d62565b60405161046891906124a5565b60405180910390f35b34801561047d57600080fd5b50610486610d88565b6040516104939190612371565b60405180910390f35b3480156104a857600080fd5b506104b1610d8e565b6040516104be9190612371565b60405180910390f35b3480156104d357600080fd5b506104dc610d94565b005b3480156104ea57600080fd5b50610505600480360381019061050091906121d7565b610e19565b6040516105129190612371565b60405180910390f35b34801561052757600080fd5b50610530610e61565b005b34801561053e57600080fd5b50610559600480360381019061055491906124c0565b610e75565b005b34801561056757600080fd5b50610570610f98565b60405161057d91906124a5565b60405180910390f35b34801561059257600080fd5b5061059b610fc2565b6040516105a891906124a5565b60405180910390f35b3480156105bd57600080fd5b506105c6610fe8565b6040516105d39190612294565b60405180910390f35b3480156105e857600080fd5b5061060360048036038101906105fe91906121d7565b61107a565b6040516106109190612371565b60405180910390f35b34801561062557600080fd5b50610640600480360381019061063b9190612469565b611092565b005b34801561064e57600080fd5b50610669600480360381019061066491906122ec565b611181565b6040516106769190612347565b60405180910390f35b34801561068b57600080fd5b506106a660048036038101906106a191906122ec565b6111f8565b6040516106b39190612347565b60405180910390f35b3480156106c857600080fd5b506106d161123f565b6040516106de9190612371565b60405180910390f35b3480156106f357600080fd5b5061070e600480360381019061070991906121d7565b611245565b60405161071b9190612371565b60405180910390f35b34801561073057600080fd5b5061073961125d565b6040516107469190612347565b60405180910390f35b34801561075b57600080fd5b5061076461126e565b6040516107719190612371565b60405180910390f35b34801561078657600080fd5b506107a1600480360381019061079c9190612567565b611274565b005b3480156107af57600080fd5b506107b86112d7565b6040516107c59190612371565b60405180910390f35b3480156107da57600080fd5b506107f560048036038101906107f091906121d7565b6112dd565b6040516108029190612347565b60405180910390f35b34801561081757600080fd5b506108206112fd565b60405161082d9190612371565b60405180910390f35b34801561084257600080fd5b5061084b611303565b60405161085891906124a5565b60405180910390f35b34801561086d57600080fd5b50610888600480360381019061088391906125a7565b611329565b6040516108959190612371565b60405180910390f35b3480156108aa57600080fd5b506108c560048036038101906108c091906121d7565b6113b0565b005b3480156108d357600080fd5b506108dc611433565b6040516108e99190612371565b60405180910390f35b3480156108fe57600080fd5b50610907611439565b60405161091491906124a5565b60405180910390f35b61092561145f565b80600f60006101000a81548173ffffffffffffffffffffffffffffffffffffffff021916908373ffffffffffffffffffffffffffffffffffffffff16021790555050565b60606003805461097890612616565b80601f01602080910402602001604051908101604052809291908181526020018280546109a490612616565b80156109f15780601f106109c6576101008083540402835291602001916109f1565b820191906000526020600020905b8154815290600101906020018083116109d457829003601f168201915b5050505050905090565b600080610a066114dd565b9050610a138185856114e5565b600191505092915050565b610a2661145f565b60148054906101000a900460ff1615610a74576040517f08c379a0000000000000000000000000000000000000000000000000000000008152600401610a6b90612693565b60405180910390fd5b60016014806101000a81548160ff021916908315150217905550565b6000600254905090565b610aa261145f565b80601060006101000a81548173ffffffffffffffffffffffffffffffffffffffff021916908373ffffffffffffffffffffffffffffffffffffffff16021790555050565b600080610af16114dd565b9050610afe8582856116ae565b610b0985858561173a565b60019150509392505050565b60006012905090565b600080610b296114dd565b9050610b4a818585610b3b8589611329565b610b4591906126e2565b6114e5565b600191505092915050565b610b5d61145f565b82600c8190555081600d8190555080600e819055507f139005e5694a782fec3918800dda36f893fded6cb7b9603c19b14f62575361ce838383604051610ba593929190612716565b60405180910390a1505050565b60075481565b610bc06119b0565b600073ffffffffffffffffffffffffffffffffffffffff16600f60009054906101000a900473ffffffffffffffffffffffffffffffffffffffff1673ffffffffffffffffffffffffffffffffffffffff1603610c51576040517f08c379a0000000000000000000000000000000000000000000000000000000008152600401610c4890612799565b60405180910390fd5b60008111610c94576040517f08c379a0000000000000000000000000000000000000000000000000000000008152600401610c8b90612805565b60405180910390fd5b60003411610cd7576040517f08c379a0000000000000000000000000000000000000000000000000000000008152600401610cce90612897565b60405180910390fd5b610d0433600f60009054906101000a900473ffffffffffffffffffffffffffffffffffffffff168361173a565b3373ffffffffffffffffffffffffffffffffffffffff167fbeb3885786d637a474cbc287c0a44587231633a077f0bd30354d5a4b18996fce82346000604051610d4f939291906128fc565b60405180910390a2610d5f6119ff565b50565b600f60009054906101000a900473ffffffffffffffffffffffffffffffffffffffff1681565b600b5481565b600a5481565b610d9c6119b0565b6000610dc9601360009054906101000a900473ffffffffffffffffffffffffffffffffffffffff16610e19565b905060008111610e0e576040517f08c379a0000000000000000000000000000000000000000000000000000000008152600401610e059061297f565b60405180910390fd5b50610e176119ff565b565b60008060008373ffffffffffffffffffffffffffffffffffffffff1673ffffffffffffffffffffffffffffffffffffffff168152602001908152602001600020549050919050565b610e6961145f565b610e736000611a09565b565b610e7d61145f565b84818385610e8b91906126e2565b610e9591906126e2565b1115610ed6576040517f08c379a0000000000000000000000000000000000000000000000000000000008152600401610ecd90612a11565b60405180910390fd5b83818385610ee491906126e2565b610eee91906126e2565b1115610f2f576040517f08c379a0000000000000000000000000000000000000000000000000000000008152600401610f2690612aa3565b60405180910390fd5b84600781905550836008819055508260098190555081600a8190555080600b819055507f7d66afa8a3dff3c2f621fb5123d93148e893b59875e6558680c0b6a6b5957f028585858585604051610f89959493929190612ac3565b60405180910390a15050505050565b6000600560009054906101000a900473ffffffffffffffffffffffffffffffffffffffff16905090565b601060009054906101000a900473ffffffffffffffffffffffffffffffffffffffff1681565b606060048054610ff790612616565b80601f016020809104026020016040519081016040528092919081815260200182805461102390612616565b80156110705780601f1061104557610100808354040283529160200191611070565b820191906000526020600020905b81548152906001019060200180831161105357829003601f168201915b5050505050905090565b60116020528060005260406000206000915090505481565b61109a6119b0565b6110a261145f565b600073ffffffffffffffffffffffffffffffffffffffff16600f60009054906101000a900473ffffffffffffffffffffffffffffffffffffffff1673ffffffffffffffffffffffffffffffffffffffff1603611133576040517f08c379a000000000000000000000000000000000000000000000000000000000815260040161112a90612799565b60405180910390fd5b60008111611176576040517f08c379a000000000000000000000000000000000000000000000000000000000815260040161116d90612805565b60405180910390fd5b61117e6119ff565b50565b60008061118c6114dd565b9050600061119a8286611329565b9050838110156111df576040517f08c379a00000000000000000000000000000000000000000000000000000000081526004016111d690612b88565b60405180910390fd5b6111ec82868684036114e5565b60019250505092915050565b600061120c6112056114dd565b8484611acf565b60006112206112196114dd565b8585611e87565b905061123461122d6114dd565b858361173a565b600191505092915050565b600d5481565b60126020528060005260406000206000915090505481565b60148054906101000a900460ff1681565b60095481565b61127c61145f565b80601560008473ffffffffffffffffffffffffffffffffffffffff1673ffffffffffffffffffffffffffffffffffffffff16815260200190815260200160002060006101000a81548160ff0219169083151502179055505050565b600c5481565b60156020528060005260406000206000915054906101000a900460ff1681565b60085481565b601460009054906101000a900473ffffffffffffffffffffffffffffffffffffffff1681565b6000600160008473ffffffffffffffffffffffffffffffffffffffff1673ffffffffffffffffffffffffffffffffffffffff16815260200190815260200160002060008373ffffffffffffffffffffffffffffffffffffffff1673ffffffffffffffffffffffffffffffffffffffff16815260200190815260200160002054905092915050565b6113b861145f565b600073ffffffffffffffffffffffffffffffffffffffff168173ffffffffffffffffffffffffffffffffffffffff1603611427576040517f08c379a000000000000000000000000000000000000000000000000000000000815260040161141e90612c1a565b60405180910390fd5b61143081611a09565b50565b600e5481565b601360009054906101000a900473ffffffffffffffffffffffffffffffffffffffff1681565b6114676114dd565b73ffffffffffffffffffffffffffffffffffffffff16611485610f98565b73ffffffffffffffffffffffffffffffffffffffff16146114db576040517f08c379a00000000000000000000000000000000000000000000000000000000081526004016114d290612c86565b60405180910390fd5b565b600033905090565b600073ffffffffffffffffffffffffffffffffffffffff168373ffffffffffffffffffffffffffffffffffffffff1603611554576040517f08c379a000000000000000000000000000000000000000000000000000000000815260040161154b90612d18565b60405180910390fd5b600073ffffffffffffffffffffffffffffffffffffffff168273ffffffffffffffffffffffffffffffffffffffff16036115c3576040517f08c379a00000000000000000000000000000000000000000000000000000000081526004016115ba90612daa565b60405180910390fd5b80600160008573ffffffffffffffffffffffffffffffffffffffff1673ffffffffffffffffffffffffffffffffffffffff16815260200190815260200160002060008473ffffffffffffffffffffffffffffffffffffffff1673ffffffffffffffffffffffffffffffffffffffff168152602001908152602001600020819055508173ffffffffffffffffffffffffffffffffffffffff168373ffffffffffffffffffffffffffffffffffffffff167f8c5be1e5ebec7d5bd14f71427d1e84f3dd0314c0f7b2291e5b200ac8c7c3b925836040516116a19190612371565b60405180910390a3505050565b60006116ba8484611329565b90507fffffffffffffffffffffffffffffffffffffffffffffffffffffffffffffffff81146117345781811015611726576040517f08c379a000000000000000000000000000000000000000000000000000000000815260040161171d90612e16565b60405180910390fd5b61173384848484036114e5565b5b50505050565b600073ffffffffffffffffffffffffffffffffffffffff168373ffffffffffffffffffffffffffffffffffffffff16036117a9576040517f08c379a00000000000000000000000000000000000000000000000000000000081526004016117a090612ea8565b60405180910390fd5b600073ffffffffffffffffffffffffffffffffffffffff168273ffffffffffffffffffffffffffffffffffffffff1603611818576040517f08c379a000000000000000000000000000000000000000000000000000000000815260040161180f90612f3a565b60405180910390fd5b6118238383836120b6565b60008060008573ffffffffffffffffffffffffffffffffffffffff1673ffffffffffffffffffffffffffffffffffffffff168152602001908152602001600020549050818110156118a9576040517f08c379a00000000000000000000000000000000000000000000000000000000081526004016118a090612fcc565b60405180910390fd5b8181036000808673ffffffffffffffffffffffffffffffffffffffff1673ffffffffffffffffffffffffffffffffffffffff16815260200190815260200160002081905550816000808573ffffffffffffffffffffffffffffffffffffffff1673ffffffffffffffffffffffffffffffffffffffff168152602001908152602001600020600082825401925050819055508273ffffffffffffffffffffffffffffffffffffffff168473ffffffffffffffffffffffffffffffffffffffff167fddf252ad1be2c89b69c2b068fc378daa952ba7f163c4a11628f55a4df523b3ef846040516119979190612371565b60405180910390a36119aa8484846120bb565b50505050565b6002600654036119f5576040517f08c379a00000000000000000000000000000000000000000000000000000000081526004016119ec90613038565b60405180910390fd5b6002600681905550565b6001600681905550565b6000600560009054906101000a900473ffffffffffffffffffffffffffffffffffffffff16905081600560006101000a81548173ffffffffffffffffffffffffffffffffffffffff021916908373ffffffffffffffffffffffffffffffffffffffff1602179055508173ffffffffffffffffffffffffffffffffffffffff168173ffffffffffffffffffffffffffffffffffffffff167f8be0079c531659141344cd1fd0a4f28419497f9722a3daafe3b4186f6b6457e060405160405180910390a35050565b60148054906101000a900460ff1680611b315750601560008473ffffffffffffffffffffffffffffffffffffffff1673ffffffffffffffffffffffffffffffffffffffff16815260200190815260200160002060009054906101000a900460ff165b611b70576040517f08c379a0000000000000000000000000000000000000000000000000000000008152600401611b67906130a4565b60405180910390fd5b601560008473ffffffffffffffffffffffffffffffffffffffff1673ffffffffffffffffffffffffffffffffffffffff16815260200190815260200160002060009054906101000a900460ff16158015611c145750601560008373ffffffffffffffffffffffffffffffffffffffff1673ffffffffffffffffffffffffffffffffffffffff16815260200190815260200160002060009054906101000a900460ff16155b15611e8257600c54811115611c5e576040517f08c379a0000000000000000000000000000000000000000000000000000000008152600401611c5590613110565b60405180910390fd5b611c67836120c0565b15611cc557600d5481611c7984610e19565b611c8391906126e2565b1115611cc4576040517f08c379a0000000000000000000000000000000000000000000000000000000008152600401611cbb9061317c565b60405180910390fd5b5b60006201518042611cd691906131cb565b905080601260008673ffffffffffffffffffffffffffffffffffffffff1673ffffffffffffffffffffffffffffffffffffffff1681526020019081526020016000205414611da85780601260008673ffffffffffffffffffffffffffffffffffffffff1673ffffffffffffffffffffffffffffffffffffffff168152602001908152602001600020819055506000601160008673ffffffffffffffffffffffffffffffffffffffff1673ffffffffffffffffffffffffffffffffffffffff168152602001908152602001600020819055505b600e54601160008673ffffffffffffffffffffffffffffffffffffffff1673ffffffffffffffffffffffffffffffffffffffff1681526020019081526020016000205410611e2b576040517f08c379a0000000000000000000000000000000000000000000000000000000008152600401611e2290613248565b60405180910390fd5b601160008573ffffffffffffffffffffffffffffffffffffffff1673ffffffffffffffffffffffffffffffffffffffff1681526020019081526020016000206000815480929190611e7b90613268565b9190505550505b505050565b6000601560008573ffffffffffffffffffffffffffffffffffffffff1673ffffffffffffffffffffffffffffffffffffffff16815260200190815260200160002060009054906101000a900460ff1680611f2a5750601560008473ffffffffffffffffffffffffffffffffffffffff1673ffffffffffffffffffffffffffffffffffffffff16815260200190815260200160002060009054906101000a900460ff165b15611f37578190506120af565b6000611f428461211a565b611f6357611f4f856120c0565b611f5a576000611f5e565b6007545b611f67565b6008545b905060008103611f7a57829150506120af565b600060648285611f8a91906132b0565b611f9491906131cb565b905060008185611fa491906132f2565b90506000606460095487611fb891906132b0565b611fc291906131cb565b905060006064600a5488611fd691906132b0565b611fe091906131cb565b905060006064600b5489611ff491906132b0565b611ffe91906131cb565b90506000831115612037576120368a601460009054906101000a900473ffffffffffffffffffffffffffffffffffffffff168561173a565b5b600082111561206e5761206d8a601360009054906101000a900473ffffffffffffffffffffffffffffffffffffffff168461173a565b5b60008111156120a5576120a48a601060009054906101000a900473ffffffffffffffffffffffffffffffffffffffff168361173a565b5b8396505050505050505b9392505050565b505050565b505050565b6000600f60009054906101000a900473ffffffffffffffffffffffffffffffffffffffff1673ffffffffffffffffffffffffffffffffffffffff168273ffffffffffffffffffffffffffffffffffffffff16149050919050565b6000600f60009054906101000a900473ffffffffffffffffffffffffffffffffffffffff1673ffffffffffffffffffffffffffffffffffffffff168273ffffffffffffffffffffffffffffffffffffffff16149050919050565b600080fd5b600073ffffffffffffffffffffffffffffffffffffffff82169050919050565b60006121a482612179565b9050919050565b6121b481612199565b81146121bf57600080fd5b50565b6000813590506121d1816121ab565b92915050565b6000602082840312156121ed576121ec612174565b5b60006121fb848285016121c2565b91505092915050565b600081519050919050565b600082825260208201905092915050565b60005b8381101561223e578082015181840152602081019050612223565b60008484015250505050565b6000601f19601f8301169050919050565b600061226682612204565b612270818561220f565b9350612280818560208601612220565b6122898161224a565b840191505092915050565b600060208201905081810360008301526122ae818461225b565b905092915050565b6000819050919050565b6122c9816122b6565b81146122d457600080fd5b50565b6000813590506122e6816122c0565b92915050565b6000806040838503121561230357612302612174565b5b6000612311858286016121c2565b9250506020612322858286016122d7565b9150509250929050565b60008115159050919050565b6123418161232c565b82525050565b600060208201905061235c6000830184612338565b92915050565b61236b816122b6565b82525050565b60006020820190506123866000830184612362565b92915050565b6000806000606084860312156123a5576123a4612174565b5b60006123b3868287016121c2565b93505060206123c4868287016121c2565b92505060406123d5868287016122d7565b9150509250925092565b600060ff82169050919050565b6123f5816123df565b82525050565b600060208201905061241060008301846123ec565b92915050565b60008060006060848603121561242f5761242e612174565b5b600061243d868287016122d7565b935050602061244e868287016122d7565b925050604061245f868287016122d7565b9150509250925092565b60006020828403121561247f5761247e612174565b5b600061248d848285016122d7565b91505092915050565b61249f81612199565b82525050565b60006020820190506124ba6000830184612496565b92915050565b600080600080600060a086880312156124dc576124db612174565b5b60006124ea888289016122d7565b95505060206124fb888289016122d7565b945050604061250c888289016122d7565b935050606061251d888289016122d7565b925050608061252e888289016122d7565b9150509295509295909350565b6125448161232c565b811461254f57600080fd5b50565b6000813590506125618161253b565b92915050565b6000806040838503121561257e5761257d612174565b5b600061258c858286016121c2565b925050602061259d85828601612552565b9150509250929050565b600080604083850312156125be576125bd612174565b5b60006125cc858286016121c2565b92505060206125dd858286016121c2565b9150509250929050565b7f4e487b7100000000000000000000000000000000000000000000000000000000600052602260045260246000fd5b6000600282049050600182168061262e57607f821691505b602082108103612641576126406125e7565b5b50919050565b7f54726164696e6720616c72656164792061637469766500000000000000000000600082015250565b600061267d60168361220f565b915061268882612647565b602082019050919050565b600060208201905081810360008301526126ac81612670565b9050919050565b7f4e487b7100000000000000000000000000000000000000000000000000000000600052601160045260246000fd5b60006126ed826122b6565b91506126f8836122b6565b92508282019050808211156127105761270f6126b3565b5b92915050565b600060608201905061272b6000830186612362565b6127386020830185612362565b6127456040830184612362565b949350505050565b7f4c697175696469747920706f6f6c206e6f742073657400000000000000000000600082015250565b600061278360168361220f565b915061278e8261274d565b602082019050919050565b600060208201905081810360008301526127b281612776565b9050919050565b7f416d6f756e74206d7573742062652067726561746572207468616e2030000000600082015250565b60006127ef601d8361220f565b91506127fa826127b9565b602082019050919050565b6000602082019050818103600083015261281e816127e2565b9050919050565b7f45544820616d6f756e74206d7573742062652067726561746572207468616e2060008201527f3000000000000000000000000000000000000000000000000000000000000000602082015250565b600061288160218361220f565b915061288c82612825565b604082019050919050565b600060208201905081810360008301526128b081612874565b9050919050565b6000819050919050565b6000819050919050565b60006128e66128e16128dc846128b7565b6128c1565b6122b6565b9050919050565b6128f6816128cb565b82525050565b60006060820190506129116000830186612362565b61291e6020830185612362565b61292b60408301846128ed565b949350505050565b7f4e6f207265776172647320746f20646973747269627574650000000000000000600082015250565b600061296960188361220f565b915061297482612933565b602082019050919050565b600060208201905081810360008301526129988161295c565b9050919050565b7f4275792074617820636f6d706f6e656e74732065786365656420746f74616c2060008201527f6275792074617800000000000000000000000000000000000000000000000000602082015250565b60006129fb60278361220f565b9150612a068261299f565b604082019050919050565b60006020820190508181036000830152612a2a816129ee565b9050919050565b7f53656c6c2074617820636f6d706f6e656e74732065786365656420746f74616c60008201527f2073656c6c207461780000000000000000000000000000000000000000000000602082015250565b6000612a8d60298361220f565b9150612a9882612a31565b604082019050919050565b60006020820190508181036000830152612abc81612a80565b9050919050565b600060a082019050612ad86000830188612362565b612ae56020830187612362565b612af26040830186612362565b612aff6060830185612362565b612b0c6080830184612362565b9695505050505050565b7f45524332303a2064656372656173656420616c6c6f77616e63652062656c6f7760008201527f207a65726f000000000000000000000000000000000000000000000000000000602082015250565b6000612b7260258361220f565b9150612b7d82612b16565b604082019050919050565b60006020820190508181036000830152612ba181612b65565b9050919050565b7f4f776e61626c653a206e6577206f776e657220697320746865207a65726f206160008201527f6464726573730000000000000000000000000000000000000000000000000000602082015250565b6000612c0460268361220f565b9150612c0f82612ba8565b604082019050919050565b60006020820190508181036000830152612c3381612bf7565b9050919050565b7f4f776e61626c653a2063616c6c6572206973206e6f7420746865206f776e6572600082015250565b6000612c7060208361220f565b9150612c7b82612c3a565b602082019050919050565b60006020820190508181036000830152612c9f81612c63565b9050919050565b7f45524332303a20617070726f76652066726f6d20746865207a65726f2061646460008201527f7265737300000000000000000000000000000000000000000000000000000000602082015250565b6000612d0260248361220f565b9150612d0d82612ca6565b604082019050919050565b60006020820190508181036000830152612d3181612cf5565b9050919050565b7f45524332303a20617070726f766520746f20746865207a65726f20616464726560008201527f7373000000000000000000000000000000000000000000000000000000000000602082015250565b6000612d9460228361220f565b9150612d9f82612d38565b604082019050919050565b60006020820190508181036000830152612dc381612d87565b9050919050565b7f45524332303a20696e73756666696369656e7420616c6c6f77616e6365000000600082015250565b6000612e00601d8361220f565b9150612e0b82612dca565b602082019050919050565b60006020820190508181036000830152612e2f81612df3565b9050919050565b7f45524332303a207472616e736665722066726f6d20746865207a65726f20616460008201527f6472657373000000000000000000000000000000000000000000000000000000602082015250565b6000612e9260258361220f565b9150612e9d82612e36565b604082019050919050565b60006020820190508181036000830152612ec181612e85565b9050919050565b7f45524332303a207472616e7366657220746f20746865207a65726f206164647260008201527f6573730000000000000000000000000000000000000000000000000000000000602082015250565b6000612f2460238361220f565b9150612f2f82612ec8565b604082019050919050565b60006020820190508181036000830152612f5381612f17565b9050919050565b7f45524332303a207472616e7366657220616d6f756e742065786365656473206260008201527f616c616e63650000000000000000000000000000000000000000000000000000602082015250565b6000612fb660268361220f565b9150612fc182612f5a565b604082019050919050565b60006020820190508181036000830152612fe581612fa9565b9050919050565b7f5265656e7472616e637947756172643a207265656e7472616e742063616c6c00600082015250565b6000613022601f8361220f565b915061302d82612fec565b602082019050919050565b6000602082019050818103600083015261305181613015565b9050919050565b7f54726164696e67206e6f74206163746976650000000000000000000000000000600082015250565b600061308e60128361220f565b915061309982613058565b602082019050919050565b600060208201905081810360008301526130bd81613081565b9050919050565b7f416d6f756e742065786365656473206d6178207472616e73616374696f6e0000600082015250565b60006130fa601e8361220f565b9150613105826130c4565b602082019050919050565b60006020820190508181036000830152613129816130ed565b9050919050565b7f57616c6c65742065786365656473206d617820686f6c64696e67000000000000600082015250565b6000613166601a8361220f565b915061317182613130565b602082019050919050565b6000602082019050818103600083015261319581613159565b9050919050565b7f4e487b7100000000000000000000000000000000000000000000000000000000600052601260045260246000fd5b60006131d6826122b6565b91506131e1836122b6565b9250826131f1576131f061319c565b5b828204905092915050565b7f4578636565646564206461696c79207472616e73616374696f6e206c696d6974600082015250565b600061323260208361220f565b915061323d826131fc565b602082019050919050565b6000602082019050818103600083015261326181613225565b9050919050565b6000613273826122b6565b91507fffffffffffffffffffffffffffffffffffffffffffffffffffffffffffffffff82036132a5576132a46126b3565b5b600182019050919050565b60006132bb826122b6565b91506132c6836122b6565b92508282026132d4816122b6565b915082820484148315176132eb576132ea6126b3565b5b5092915050565b60006132fd826122b6565b9150613308836122b6565b92508282039050818111156133205761331f6126b3565b5b9291505056fea2646970667358221220fc747137b49092daff6ff277cfe5a057e397f2d669515c5efbf3c74f975e927064736f6c63430008110033",
  "linkReferences": {},
  "deployedLinkReferences": {}
}