{"contracts/MemeToken.sol":{"MemeToken":{"abi":[{"inputs":[{"internalType":"string","name":"name","type":"string"},{"internalType":"string","name":"symbol","type":"string"},{"internalType":"uint256","name":"totalSupply","type":"uint256"},{"internalType":"address","name":"_devWallet","type":"address"},{"internalType":"address","name":"_liquidityPool","type":"address"}],"stateMutability":"nonpayable","type":"constructor"},{"anonymous":false,"inputs":[{"indexed":true,"internalType":"address","name":"provider","type":"address"},{"indexed":false,"internalType":"uint256","name":"amountToken","type":"uint256"},{"indexed":false,"internalType":"uint256","name":"amountETH","type":"uint256"},{"indexed":false,"internalType":"uint256","name":"liquidity","type":"uint256"}],"name":"AddLiquidity","type":"event"},{"anonymous":false,"inputs":[{"indexed":true,"internalType":"address","name":"owner","type":"address"},{"indexed":true,"internalType":"address","name":"spender","type":"address"},{"indexed":false,"internalType":"uint256","name":"value","type":"uint256"}],"name":"Approval","type":"event"},{"anonymous":false,"inputs":[{"indexed":true,"internalType":"address","name":"previousOwner","type":"address"},{"indexed":true,"internalType":"address","name":"newOwner","type":"address"}],"name":"OwnershipTransferred","type":"event"},{"anonymous":false,"inputs":[{"indexed":true,"internalType":"address","name":"from","type":"address"},{"indexed":true,"internalType":"address","name":"to","type":"address"},{"indexed":false,"internalType":"uint256","name":"value","type":"uint256"}],"name":"Transfer","type":"event"},{"anonymous":false,"inputs":[{"indexed":false,"internalType":"uint256","name":"newBuyTax","type":"uint256"},{"indexed":false,"internalType":"uint256","name":"newSellTax","type":"uint256"},{"indexed":false,"internalType":"uint256","name":"newLiquidityTax","type":"uint256"},{"indexed":false,"internalType":"uint256","name":"newRewardTax","type":"uint256"},{"indexed":false,"internalType":"uint256","name":"newDevTax","type":"uint256"}],"name":"UpdateTaxRates","type":"event"},{"anonymous":false,"inputs":[{"indexed":false,"internalType":"uint256","name":"newMaxTransactionAmount","type":"uint256"},{"indexed":false,"internalType":"uint256","name":"newMaxWalletAmount","type":"uint256"},{"indexed":false,"internalType":"uint256","name":"newDailyTransactionLimit","type":"uint256"}],"name":"UpdateTransactionLimits","type":"event"},{"inputs":[],"name":"activateTrading","outputs":[],"stateMutability":"nonpayable","type":"function"},{"inputs":[{"internalType":"uint256","name":"tokenAmount","type":"uint256"}],"name":"addLiquidity","outputs":[],"stateMutability":"payable","type":"function"},{"inputs":[{"internalType":"address","name":"owner","type":"address"},{"internalType":"address","name":"spender","type":"address"}],"name":"allowance","outputs":[{"internalType":"uint256","name":"","type":"uint256"}],"stateMutability":"view","type":"function"},{"inputs":[{"internalType":"address","name":"spender","type":"address"},{"internalType":"uint256","name":"amount","type":"uint256"}],"name":"approve","outputs":[{"internalType":"bool","name":"","type":"bool"}],"stateMutability":"nonpayable","type":"function"},{"inputs":[{"internalType":"address","name":"account","type":"address"}],"name":"balanceOf","outputs":[{"internalType":"uint256","name":"","type":"uint256"}],"stateMutability":"view","type":"function"},{"inputs":[],"name":"buyTax","outputs":[{"internalType":"uint256","name":"","type":"uint256"}],"stateMutability":"view","type":"function"},{"inputs":[],"name":"dailyTransactionLimit","outputs":[{"internalType":"uint256","name":"","type":"uint256"}],"stateMutability":"view","type":"function"},{"inputs":[],"name":"decimals","outputs":[{"internalType":"uint8","name":"","type":"uint8"}],"stateMutability":"view","type":"function"},{"inputs":[{"internalType":"address","name":"spender","type":"address"},{"internalType":"uint256","name":"subtractedValue","type":"uint256"}],"name":"decreaseAllowance","outputs":[{"internalType":"bool","name":"","type":"bool"}],"stateMutability":"nonpayable","type":"function"},{"inputs":[],"name":"devTax","outputs":[{"internalType":"uint256","name":"","type":"uint256"}],"stateMutability":"view","type":"function"},{"inputs":[],"name":"devWallet","outputs":[{"internalType":"address","name":"","type":"address"}],"stateMutability":"view","type":"function"},{"inputs":[],"name":"distributeRewards","outputs":[],"stateMutability":"nonpayable","type":"function"},{"inputs":[{"internalType":"address","name":"spender","type":"address"},{"internalType":"uint256","name":"addedValue","type":"uint256"}],"name":"increaseAllowance","outputs":[{"internalType":"bool","name":"","type":"bool"}],"stateMutability":"nonpayable","type":"function"},{"inputs":[{"internalType":"address","name":"","type":"address"}],"name":"isExcludedFromTax","outputs":[{"internalType":"bool","name":"","type":"bool"}],"stateMutability":"view","type":"function"},{"inputs":[{"internalType":"address","name":"","type":"address"}],"name":"lastTransactionDay","outputs":[{"internalType":"uint256","name":"","type":"uint256"}],"stateMutability":"view","type":"function"},{"inputs":[],"name":"liquidityPool","outputs":[{"internalType":"address","name":"","type":"address"}],"stateMutability":"view","type":"function"},{"inputs":[],"name":"liquidityTax","outputs":[{"internalType":"uint256","name":"","type":"uint256"}],"stateMutability":"view","type":"function"},{"inputs":[],"name":"liquidityWallet","outputs":[{"internalType":"address","name":"","type":"address"}],"stateMutability":"view","type":"function"},{"inputs":[],"name":"maxTransactionAmount","outputs":[{"internalType":"uint256","name":"","type":"uint256"}],"stateMutability":"view","type":"function"},{"inputs":[],"name":"maxWalletAmount","outputs":[{"internalType":"uint256","name":"","type":"uint256"}],"stateMutability":"view","type":"function"},{"inputs":[],"name":"name","outputs":[{"internalType":"string","name":"","type":"string"}],"stateMutability":"view","type":"function"},{"inputs":[],"name":"owner","outputs":[{"internalType":"address","name":"","type":"address"}],"stateMutability":"view","type":"function"},{"inputs":[{"internalType":"uint256","name":"liquidityAmount","type":"uint256"}],"name":"removeLiquidity","outputs":[],"stateMutability":"nonpayable","type":"function"},{"inputs":[],"name":"renounceOwnership","outputs":[],"stateMutability":"nonpayable","type":"function"},{"inputs":[],"name":"rewardTax","outputs":[{"internalType":"uint256","name":"","type":"uint256"}],"stateMutability":"view","type":"function"},{"inputs":[],"name":"rewardWallet","outputs":[{"internalType":"address","name":"","type":"address"}],"stateMutability":"view","type":"function"},{"inputs":[],"name":"sellTax","outputs":[{"internalType":"uint256","name":"","type":"uint256"}],"stateMutability":"view","type":"function"},{"inputs":[{"internalType":"address","name":"_devWallet","type":"address"}],"name":"setDevWallet","outputs":[],"stateMutability":"nonpayable","type":"function"},{"inputs":[{"internalType":"address","name":"_address","type":"address"},{"internalType":"bool","name":"_excluded","type":"bool"}],"name":"setExcludedFromTax","outputs":[],"stateMutability":"nonpayable","type":"function"},{"inputs":[{"internalType":"address","name":"_liquidityPool","type":"address"}],"name":"setLiquidityPool","outputs":[],"stateMutability":"nonpayable","type":"function"},{"inputs":[],"name":"symbol","outputs":[{"internalType":"string","name":"","type":"string"}],"stateMutability":"view","type":"function"},{"inputs":[],"name":"totalSupply","outputs":[{"internalType":"uint256","name":"","type":"uint256"}],"stateMutability":"view","type":"function"},{"inputs":[],"name":"tradingActive","outputs":[{"internalType":"bool","name":"","type":"bool"}],"stateMutability":"view","type":"function"},{"inputs":[{"internalType":"address","name":"","type":"address"}],"name":"transactionCount","outputs":[{"internalType":"uint256","name":"","type":"uint256"}],"stateMutability":"view","type":"function"},{"inputs":[{"internalType":"address","name":"recipient","type":"address"},{"internalType":"uint256","name":"amount","type":"uint256"}],"name":"transfer","outputs":[{"internalType":"bool","name":"","type":"bool"}],"stateMutability":"nonpayable","type":"function"},{"inputs":[{"internalType":"address","name":"from","type":"address"},{"internalType":"address","name":"to","type":"address"},{"internalType":"uint256","name":"amount","type":"uint256"}],"name":"transferFrom","outputs":[{"internalType":"bool","name":"","type":"bool"}],"stateMutability":"nonpayable","type":"function"},{"inputs":[{"internalType":"address","name":"newOwner","type":"address"}],"name":"transferOwnership","outputs":[],"stateMutability":"nonpayable","type":"function"},{"inputs":[{"internalType":"uint256","name":"_buyTax","type":"uint256"},{"internalType":"uint256","name":"_sellTax","type":"uint256"},{"internalType":"uint256","name":"_liquidityTax","type":"uint256"},{"internalType":"uint256","name":"_rewardTax","type":"uint256"},{"internalType":"uint256","name":"_devTax","type":"uint256"}],"name":"updateTaxRates","outputs":[],"stateMutability":"nonpayable","type":"function"},{"inputs":[{"internalType":"uint256","name":"_maxTransactionAmount","type":"uint256"},{"internalType":"uint256","name":"_maxWalletAmount","type":"uint256"},{"internalType":"uint256","name":"_dailyTransactionLimit","type":"uint256"}],"name":"updateTransactionLimits","outputs":[],"stateMutability":"nonpayable","type":"function"}],"evm":{"bytecode":{"linkReferences":{},"object":"60806040526005600755600a60085560036009556002600a556002600b55600a600e5560006014806101000a81548160ff0219169083151502179055503480156200004957600080fd5b506040516200418b3803806200418b83398181016040528101906200006f919062000864565b8484816003908162000082919062000b6b565b50806004908162000094919062000b6b565b505050620000b7620000ab620003ec60201b60201c565b620003f460201b60201c565b6001600681905550620000d13384620004ba60201b60201c565b81601060006101000a81548173ffffffffffffffffffffffffffffffffffffffff021916908373ffffffffffffffffffffffffffffffffffffffff16021790555080600f60006101000a81548173ffffffffffffffffffffffffffffffffffffffff021916908373ffffffffffffffffffffffffffffffffffffffff16021790555033601360006101000a81548173ffffffffffffffffffffffffffffffffffffffff021916908373ffffffffffffffffffffffffffffffffffffffff16021790555033601460006101000a81548173ffffffffffffffffffffffffffffffffffffffff021916908373ffffffffffffffffffffffffffffffffffffffff1602179055506064600284620001e6919062000c81565b620001f2919062000cfb565b600c81905550606460058462000209919062000c81565b62000215919062000cfb565b600d819055506001601560003373ffffffffffffffffffffffffffffffffffffffff1673ffffffffffffffffffffffffffffffffffffffff16815260200190815260200160002060006101000a81548160ff021916908315150217905550600160156000601060009054906101000a900473ffffffffffffffffffffffffffffffffffffffff1673ffffffffffffffffffffffffffffffffffffffff1673ffffffffffffffffffffffffffffffffffffffff16815260200190815260200160002060006101000a81548160ff021916908315150217905550600160156000601360009054906101000a900473ffffffffffffffffffffffffffffffffffffffff1673ffffffffffffffffffffffffffffffffffffffff1673ffffffffffffffffffffffffffffffffffffffff16815260200190815260200160002060006101000a81548160ff021916908315150217905550600160156000601460009054906101000a900473ffffffffffffffffffffffffffffffffffffffff1673ffffffffffffffffffffffffffffffffffffffff1673ffffffffffffffffffffffffffffffffffffffff16815260200190815260200160002060006101000a81548160ff021916908315150217905550505050505062000e1f565b600033905090565b6000600560009054906101000a900473ffffffffffffffffffffffffffffffffffffffff16905081600560006101000a81548173ffffffffffffffffffffffffffffffffffffffff021916908373ffffffffffffffffffffffffffffffffffffffff1602179055508173ffffffffffffffffffffffffffffffffffffffff168173ffffffffffffffffffffffffffffffffffffffff167f8be0079c531659141344cd1fd0a4f28419497f9722a3daafe3b4186f6b6457e060405160405180910390a35050565b600073ffffffffffffffffffffffffffffffffffffffff168273ffffffffffffffffffffffffffffffffffffffff16036200052c576040517f08c379a0000000000000000000000000000000000000000000000000000000008152600401620005239062000d94565b60405180910390fd5b62000540600083836200062760201b60201c565b806002600082825462000554919062000db6565b92505081905550806000808473ffffffffffffffffffffffffffffffffffffffff1673ffffffffffffffffffffffffffffffffffffffff168152602001908152602001600020600082825401925050819055508173ffffffffffffffffffffffffffffffffffffffff16600073ffffffffffffffffffffffffffffffffffffffff167fddf252ad1be2c89b69c2b068fc378daa952ba7f163c4a11628f55a4df523b3ef8360405162000607919062000e02565b60405180910390a362000623600083836200062c60201b60201c565b5050565b505050565b505050565b6000604051905090565b600080fd5b600080fd5b600080fd5b600080fd5b6000601f19601f8301169050919050565b7f4e487b7100000000000000000000000000000000000000000000000000000000600052604160045260246000fd5b6200069a826200064f565b810181811067ffffffffffffffff82111715620006bc57620006bb62000660565b5b80604052505050565b6000620006d162000631565b9050620006df82826200068f565b919050565b600067ffffffffffffffff82111562000702576200070162000660565b5b6200070d826200064f565b9050602081019050919050565b60005b838110156200073a5780820151818401526020810190506200071d565b60008484015250505050565b60006200075d6200075784620006e4565b620006c5565b9050828152602081018484840111156200077c576200077b6200064a565b5b620007898482856200071a565b509392505050565b600082601f830112620007a957620007a862000645565b5b8151620007bb84826020860162000746565b91505092915050565b6000819050919050565b620007d981620007c4565b8114620007e557600080fd5b50565b600081519050620007f981620007ce565b92915050565b600073ffffffffffffffffffffffffffffffffffffffff82169050919050565b60006200082c82620007ff565b9050919050565b6200083e816200081f565b81146200084a57600080fd5b50565b6000815190506200085e8162000833565b92915050565b600080600080600060a086880312156200088357620008826200063b565b5b600086015167ffffffffffffffff811115620008a457620008a362000640565b5b620008b28882890162000791565b955050602086015167ffffffffffffffff811115620008d657620008d562000640565b5b620008e48882890162000791565b9450506040620008f788828901620007e8565b93505060606200090a888289016200084d565b92505060806200091d888289016200084d565b9150509295509295909350565b600081519050919050565b7f4e487b7100000000000000000000000000000000000000000000000000000000600052602260045260246000fd5b600060028204905060018216806200097d57607f821691505b60208210810362000993576200099262000935565b5b50919050565b60008190508160005260206000209050919050565b60006020601f8301049050919050565b600082821b905092915050565b600060088302620009fd7fffffffffffffffffffffffffffffffffffffffffffffffffffffffffffffffff82620009be565b62000a098683620009be565b95508019841693508086168417925050509392505050565b6000819050919050565b600062000a4c62000a4662000a4084620007c4565b62000a21565b620007c4565b9050919050565b6000819050919050565b62000a688362000a2b565b62000a8062000a778262000a53565b848454620009cb565b825550505050565b600090565b62000a9762000a88565b62000aa481848462000a5d565b505050565b5b8181101562000acc5762000ac060008262000a8d565b60018101905062000aaa565b5050565b601f82111562000b1b5762000ae58162000999565b62000af084620009ae565b8101602085101562000b00578190505b62000b1862000b0f85620009ae565b83018262000aa9565b50505b505050565b600082821c905092915050565b600062000b406000198460080262000b20565b1980831691505092915050565b600062000b5b838362000b2d565b9150826002028217905092915050565b62000b76826200092a565b67ffffffffffffffff81111562000b925762000b9162000660565b5b62000b9e825462000964565b62000bab82828562000ad0565b600060209050601f83116001811462000be3576000841562000bce578287015190505b62000bda858262000b4d565b86555062000c4a565b601f19841662000bf38662000999565b60005b8281101562000c1d5784890151825560018201915060208501945060208101905062000bf6565b8683101562000c3d578489015162000c39601f89168262000b2d565b8355505b6001600288020188555050505b505050505050565b7f4e487b7100000000000000000000000000000000000000000000000000000000600052601160045260246000fd5b600062000c8e82620007c4565b915062000c9b83620007c4565b925082820262000cab81620007c4565b9150828204841483151762000cc55762000cc462000c52565b5b5092915050565b7f4e487b7100000000000000000000000000000000000000000000000000000000600052601260045260246000fd5b600062000d0882620007c4565b915062000d1583620007c4565b92508262000d285762000d2762000ccc565b5b828204905092915050565b600082825260208201905092915050565b7f45524332303a206d696e7420746f20746865207a65726f206164647265737300600082015250565b600062000d7c601f8362000d33565b915062000d898262000d44565b602082019050919050565b6000602082019050818103600083015262000daf8162000d6d565b9050919050565b600062000dc382620007c4565b915062000dd083620007c4565b925082820190508082111562000deb5762000dea62000c52565b5b92915050565b62000dfc81620007c4565b82525050565b600060208201905062000e19600083018462000df1565b92915050565b61335c8062000e2f6000396000f3fe6080604052600436106102305760003560e01c80638da5cb5b1161012e578063be617fa0116100ab578063d46980161161006f578063d469801614610836578063dd62ed3e14610861578063f2fde38b1461089e578063f9cc6901146108c7578063fb75b2c7146108f257610230565b8063be617fa01461074f578063c2ed286b1461077a578063c8c8ebe4146107a3578063cb4ca631146107ce578063cc1776d31461080b57610230565b8063a457c2d7116100f2578063a457c2d714610642578063a9059cbb1461067f578063aa4bde28146106bc578063af59c95f146106e7578063bbc0c7421461072457610230565b80638da5cb5b1461055b5780638ea5220f1461058657806395d89b41146105b157806399be3375146105dc5780639c8f9f231461061957610230565b80634e81ad29116101bc5780636e5c59ae116101805780636e5c59ae1461049c5780636f4a2cd0146104c757806370a08231146104de578063715018a61461051b57806373e94ad41461053257610230565b80634e81ad29146103d65780634f7041a5146103ff57806351c6590a1461042a578063665a11ca14610446578063665c6de91461047157610230565b806318160ddd1161020357806318160ddd146102dd5780631f53ac021461030857806323b872dd14610331578063313ce5671461036e578063395093511461039957610230565b8063018770201461023557806306fdde031461025e578063095ea7b3146102895780630bd05b69146102c6575b600080fd5b34801561024157600080fd5b5061025c600480360381019061025791906121d7565b61091d565b005b34801561026a57600080fd5b50610273610969565b6040516102809190612294565b60405180910390f35b34801561029557600080fd5b506102b060048036038101906102ab91906122ec565b6109fb565b6040516102bd9190612347565b60405180910390f35b3480156102d257600080fd5b506102db610a1e565b005b3480156102e957600080fd5b506102f2610a90565b6040516102ff9190612371565b60405180910390f35b34801561031457600080fd5b5061032f600480360381019061032a91906121d7565b610a9a565b005b34801561033d57600080fd5b506103586004803603810190610353919061238c565b610ae6565b6040516103659190612347565b60405180910390f35b34801561037a57600080fd5b50610383610b15565b60405161039091906123fb565b60405180910390f35b3480156103a557600080fd5b506103c060048036038101906103bb91906122ec565b610b1e565b6040516103cd9190612347565b60405180910390f35b3480156103e257600080fd5b506103fd60048036038101906103f89190612416565b610b55565b005b34801561040b57600080fd5b50610414610bb2565b6040516104219190612371565b60405180910390f35b610444600480360381019061043f9190612469565b610bb8565b005b34801561045257600080fd5b5061045b610d62565b60405161046891906124a5565b60405180910390f35b34801561047d57600080fd5b50610486610d88565b6040516104939190612371565b60405180910390f35b3480156104a857600080fd5b506104b1610d8e565b6040516104be9190612371565b60405180910390f35b3480156104d357600080fd5b506104dc610d94565b005b3480156104ea57600080fd5b50610505600480360381019061050091906121d7565b610e19565b6040516105129190612371565b60405180910390f35b34801561052757600080fd5b50610530610e61565b005b34801561053e57600080fd5b50610559600480360381019061055491906124c0565b610e75565b005b34801561056757600080fd5b50610570610f98565b60405161057d91906124a5565b60405180910390f35b34801561059257600080fd5b5061059b610fc2565b6040516105a891906124a5565b60405180910390f35b3480156105bd57600080fd5b506105c6610fe8565b6040516105d39190612294565b60405180910390f35b3480156105e857600080fd5b5061060360048036038101906105fe91906121d7565b61107a565b6040516106109190612371565b60405180910390f35b34801561062557600080fd5b50610640600480360381019061063b9190612469565b611092565b005b34801561064e57600080fd5b50610669600480360381019061066491906122ec565b611181565b6040516106769190612347565b60405180910390f35b34801561068b57600080fd5b506106a660048036038101906106a191906122ec565b6111f8565b6040516106b39190612347565b60405180910390f35b3480156106c857600080fd5b506106d161123f565b6040516106de9190612371565b60405180910390f35b3480156106f357600080fd5b5061070e600480360381019061070991906121d7565b611245565b60405161071b9190612371565b60405180910390f35b34801561073057600080fd5b5061073961125d565b6040516107469190612347565b60405180910390f35b34801561075b57600080fd5b5061076461126e565b6040516107719190612371565b60405180910390f35b34801561078657600080fd5b506107a1600480360381019061079c9190612567565b611274565b005b3480156107af57600080fd5b506107b86112d7565b6040516107c59190612371565b60405180910390f35b3480156107da57600080fd5b506107f560048036038101906107f091906121d7565b6112dd565b6040516108029190612347565b60405180910390f35b34801561081757600080fd5b506108206112fd565b60405161082d9190612371565b60405180910390f35b34801561084257600080fd5b5061084b611303565b60405161085891906124a5565b60405180910390f35b34801561086d57600080fd5b50610888600480360381019061088391906125a7565b611329565b6040516108959190612371565b60405180910390f35b3480156108aa57600080fd5b506108c560048036038101906108c091906121d7565b6113b0565b005b3480156108d357600080fd5b506108dc611433565b6040516108e99190612371565b60405180910390f35b3480156108fe57600080fd5b50610907611439565b60405161091491906124a5565b60405180910390f35b61092561145f565b80600f60006101000a81548173ffffffffffffffffffffffffffffffffffffffff021916908373ffffffffffffffffffffffffffffffffffffffff16021790555050565b60606003805461097890612616565b80601f01602080910402602001604051908101604052809291908181526020018280546109a490612616565b80156109f15780601f106109c6576101008083540402835291602001916109f1565b820191906000526020600020905b8154815290600101906020018083116109d457829003601f168201915b5050505050905090565b600080610a066114dd565b9050610a138185856114e5565b600191505092915050565b610a2661145f565b60148054906101000a900460ff1615610a74576040517f08c379a0000000000000000000000000000000000000000000000000000000008152600401610a6b90612693565b60405180910390fd5b60016014806101000a81548160ff021916908315150217905550565b6000600254905090565b610aa261145f565b80601060006101000a81548173ffffffffffffffffffffffffffffffffffffffff021916908373ffffffffffffffffffffffffffffffffffffffff16021790555050565b600080610af16114dd565b9050610afe8582856116ae565b610b0985858561173a565b60019150509392505050565b60006012905090565b600080610b296114dd565b9050610b4a818585610b3b8589611329565b610b4591906126e2565b6114e5565b600191505092915050565b610b5d61145f565b82600c8190555081600d8190555080600e819055507f139005e5694a782fec3918800dda36f893fded6cb7b9603c19b14f62575361ce838383604051610ba593929190612716565b60405180910390a1505050565b60075481565b610bc06119b0565b600073ffffffffffffffffffffffffffffffffffffffff16600f60009054906101000a900473ffffffffffffffffffffffffffffffffffffffff1673ffffffffffffffffffffffffffffffffffffffff1603610c51576040517f08c379a0000000000000000000000000000000000000000000000000000000008152600401610c4890612799565b60405180910390fd5b60008111610c94576040517f08c379a0000000000000000000000000000000000000000000000000000000008152600401610c8b90612805565b60405180910390fd5b60003411610cd7576040517f08c379a0000000000000000000000000000000000000000000000000000000008152600401610cce90612897565b60405180910390fd5b610d0433600f60009054906101000a900473ffffffffffffffffffffffffffffffffffffffff168361173a565b3373ffffffffffffffffffffffffffffffffffffffff167fbeb3885786d637a474cbc287c0a44587231633a077f0bd30354d5a4b18996fce82346000604051610d4f939291906128fc565b60405180910390a2610d5f6119ff565b50565b600f60009054906101000a900473ffffffffffffffffffffffffffffffffffffffff1681565b600b5481565b600a5481565b610d9c6119b0565b6000610dc9601360009054906101000a900473ffffffffffffffffffffffffffffffffffffffff16610e19565b905060008111610e0e576040517f08c379a0000000000000000000000000000000000000000000000000000000008152600401610e059061297f565b60405180910390fd5b50610e176119ff565b565b60008060008373ffffffffffffffffffffffffffffffffffffffff1673ffffffffffffffffffffffffffffffffffffffff168152602001908152602001600020549050919050565b610e6961145f565b610e736000611a09565b565b610e7d61145f565b84818385610e8b91906126e2565b610e9591906126e2565b1115610ed6576040517f08c379a0000000000000000000000000000000000000000000000000000000008152600401610ecd90612a11565b60405180910390fd5b83818385610ee491906126e2565b610eee91906126e2565b1115610f2f576040517f08c379a0000000000000000000000000000000000000000000000000000000008152600401610f2690612aa3565b60405180910390fd5b84600781905550836008819055508260098190555081600a8190555080600b819055507f7d66afa8a3dff3c2f621fb5123d93148e893b59875e6558680c0b6a6b5957f028585858585604051610f89959493929190612ac3565b60405180910390a15050505050565b6000600560009054906101000a900473ffffffffffffffffffffffffffffffffffffffff16905090565b601060009054906101000a900473ffffffffffffffffffffffffffffffffffffffff1681565b606060048054610ff790612616565b80601f016020809104026020016040519081016040528092919081815260200182805461102390612616565b80156110705780601f1061104557610100808354040283529160200191611070565b820191906000526020600020905b81548152906001019060200180831161105357829003601f168201915b5050505050905090565b60116020528060005260406000206000915090505481565b61109a6119b0565b6110a261145f565b600073ffffffffffffffffffffffffffffffffffffffff16600f60009054906101000a900473ffffffffffffffffffffffffffffffffffffffff1673ffffffffffffffffffffffffffffffffffffffff1603611133576040517f08c379a000000000000000000000000000000000000000000000000000000000815260040161112a90612799565b60405180910390fd5b60008111611176576040517f08c379a000000000000000000000000000000000000000000000000000000000815260040161116d90612805565b60405180910390fd5b61117e6119ff565b50565b60008061118c6114dd565b9050600061119a8286611329565b9050838110156111df576040517f08c379a00000000000000000000000000000000000000000000000000000000081526004016111d690612b88565b60405180910390fd5b6111ec82868684036114e5565b60019250505092915050565b600061120c6112056114dd565b8484611acf565b60006112206112196114dd565b8585611e87565b905061123461122d6114dd565b858361173a565b600191505092915050565b600d5481565b60126020528060005260406000206000915090505481565b60148054906101000a900460ff1681565b60095481565b61127c61145f565b80601560008473ffffffffffffffffffffffffffffffffffffffff1673ffffffffffffffffffffffffffffffffffffffff16815260200190815260200160002060006101000a81548160ff0219169083151502179055505050565b600c5481565b60156020528060005260406000206000915054906101000a900460ff1681565b60085481565b601460009054906101000a900473ffffffffffffffffffffffffffffffffffffffff1681565b6000600160008473ffffffffffffffffffffffffffffffffffffffff1673ffffffffffffffffffffffffffffffffffffffff16815260200190815260200160002060008373ffffffffffffffffffffffffffffffffffffffff1673ffffffffffffffffffffffffffffffffffffffff16815260200190815260200160002054905092915050565b6113b861145f565b600073ffffffffffffffffffffffffffffffffffffffff168173ffffffffffffffffffffffffffffffffffffffff1603611427576040517f08c379a000000000000000000000000000000000000000000000000000000000815260040161141e90612c1a565b60405180910390fd5b61143081611a09565b50565b600e5481565b601360009054906101000a900473ffffffffffffffffffffffffffffffffffffffff1681565b6114676114dd565b73ffffffffffffffffffffffffffffffffffffffff16611485610f98565b73ffffffffffffffffffffffffffffffffffffffff16146114db576040517f08c379a00000000000000000000000000000000000000000000000000000000081526004016114d290612c86565b60405180910390fd5b565b600033905090565b600073ffffffffffffffffffffffffffffffffffffffff168373ffffffffffffffffffffffffffffffffffffffff1603611554576040517f08c379a000000000000000000000000000000000000000000000000000000000815260040161154b90612d18565b60405180910390fd5b600073ffffffffffffffffffffffffffffffffffffffff168273ffffffffffffffffffffffffffffffffffffffff16036115c3576040517f08c379a00000000000000000000000000000000000000000000000000000000081526004016115ba90612daa565b60405180910390fd5b80600160008573ffffffffffffffffffffffffffffffffffffffff1673ffffffffffffffffffffffffffffffffffffffff16815260200190815260200160002060008473ffffffffffffffffffffffffffffffffffffffff1673ffffffffffffffffffffffffffffffffffffffff168152602001908152602001600020819055508173ffffffffffffffffffffffffffffffffffffffff168373ffffffffffffffffffffffffffffffffffffffff167f8c5be1e5ebec7d5bd14f71427d1e84f3dd0314c0f7b2291e5b200ac8c7c3b925836040516116a19190612371565b60405180910390a3505050565b60006116ba8484611329565b90507fffffffffffffffffffffffffffffffffffffffffffffffffffffffffffffffff81146117345781811015611726576040517f08c379a000000000000000000000000000000000000000000000000000000000815260040161171d90612e16565b60405180910390fd5b61173384848484036114e5565b5b50505050565b600073ffffffffffffffffffffffffffffffffffffffff168373ffffffffffffffffffffffffffffffffffffffff16036117a9576040517f08c379a00000000000000000000000000000000000000000000000000000000081526004016117a090612ea8565b60405180910390fd5b600073ffffffffffffffffffffffffffffffffffffffff168273ffffffffffffffffffffffffffffffffffffffff1603611818576040517f08c379a000000000000000000000000000000000000000000000000000000000815260040161180f90612f3a565b60405180910390fd5b6118238383836120b6565b60008060008573ffffffffffffffffffffffffffffffffffffffff1673ffffffffffffffffffffffffffffffffffffffff168152602001908152602001600020549050818110156118a9576040517f08c379a00000000000000000000000000000000000000000000000000000000081526004016118a090612fcc565b60405180910390fd5b8181036000808673ffffffffffffffffffffffffffffffffffffffff1673ffffffffffffffffffffffffffffffffffffffff16815260200190815260200160002081905550816000808573ffffffffffffffffffffffffffffffffffffffff1673ffffffffffffffffffffffffffffffffffffffff168152602001908152602001600020600082825401925050819055508273ffffffffffffffffffffffffffffffffffffffff168473ffffffffffffffffffffffffffffffffffffffff167fddf252ad1be2c89b69c2b068fc378daa952ba7f163c4a11628f55a4df523b3ef846040516119979190612371565b60405180910390a36119aa8484846120bb565b50505050565b6002600654036119f5576040517f08c379a00000000000000000000000000000000000000000000000000000000081526004016119ec90613038565b60405180910390fd5b6002600681905550565b6001600681905550565b6000600560009054906101000a900473ffffffffffffffffffffffffffffffffffffffff16905081600560006101000a81548173ffffffffffffffffffffffffffffffffffffffff021916908373ffffffffffffffffffffffffffffffffffffffff1602179055508173ffffffffffffffffffffffffffffffffffffffff168173ffffffffffffffffffffffffffffffffffffffff167f8be0079c531659141344cd1fd0a4f28419497f9722a3daafe3b4186f6b6457e060405160405180910390a35050565b60148054906101000a900460ff1680611b315750601560008473ffffffffffffffffffffffffffffffffffffffff1673ffffffffffffffffffffffffffffffffffffffff16815260200190815260200160002060009054906101000a900460ff165b611b70576040517f08c379a0000000000000000000000000000000000000000000000000000000008152600401611b67906130a4565b60405180910390fd5b601560008473ffffffffffffffffffffffffffffffffffffffff1673ffffffffffffffffffffffffffffffffffffffff16815260200190815260200160002060009054906101000a900460ff16158015611c145750601560008373ffffffffffffffffffffffffffffffffffffffff1673ffffffffffffffffffffffffffffffffffffffff16815260200190815260200160002060009054906101000a900460ff16155b15611e8257600c54811115611c5e576040517f08c379a0000000000000000000000000000000000000000000000000000000008152600401611c5590613110565b60405180910390fd5b611c67836120c0565b15611cc557600d5481611c7984610e19565b611c8391906126e2565b1115611cc4576040517f08c379a0000000000000000000000000000000000000000000000000000000008152600401611cbb9061317c565b60405180910390fd5b5b60006201518042611cd691906131cb565b905080601260008673ffffffffffffffffffffffffffffffffffffffff1673ffffffffffffffffffffffffffffffffffffffff1681526020019081526020016000205414611da85780601260008673ffffffffffffffffffffffffffffffffffffffff1673ffffffffffffffffffffffffffffffffffffffff168152602001908152602001600020819055506000601160008673ffffffffffffffffffffffffffffffffffffffff1673ffffffffffffffffffffffffffffffffffffffff168152602001908152602001600020819055505b600e54601160008673ffffffffffffffffffffffffffffffffffffffff1673ffffffffffffffffffffffffffffffffffffffff1681526020019081526020016000205410611e2b576040517f08c379a0000000000000000000000000000000000000000000000000000000008152600401611e2290613248565b60405180910390fd5b601160008573ffffffffffffffffffffffffffffffffffffffff1673ffffffffffffffffffffffffffffffffffffffff1681526020019081526020016000206000815480929190611e7b90613268565b9190505550505b505050565b6000601560008573ffffffffffffffffffffffffffffffffffffffff1673ffffffffffffffffffffffffffffffffffffffff16815260200190815260200160002060009054906101000a900460ff1680611f2a5750601560008473ffffffffffffffffffffffffffffffffffffffff1673ffffffffffffffffffffffffffffffffffffffff16815260200190815260200160002060009054906101000a900460ff165b15611f37578190506120af565b6000611f428461211a565b611f6357611f4f856120c0565b611f5a576000611f5e565b6007545b611f67565b6008545b905060008103611f7a57829150506120af565b600060648285611f8a91906132b0565b611f9491906131cb565b905060008185611fa491906132f2565b90506000606460095487611fb891906132b0565b611fc291906131cb565b905060006064600a5488611fd691906132b0565b611fe091906131cb565b905060006064600b5489611ff491906132b0565b611ffe91906131cb565b90506000831115612037576120368a601460009054906101000a900473ffffffffffffffffffffffffffffffffffffffff168561173a565b5b600082111561206e5761206d8a601360009054906101000a900473ffffffffffffffffffffffffffffffffffffffff168461173a565b5b60008111156120a5576120a48a601060009054906101000a900473ffffffffffffffffffffffffffffffffffffffff168361173a565b5b8396505050505050505b9392505050565b505050565b505050565b6000600f60009054906101000a900473ffffffffffffffffffffffffffffffffffffffff1673ffffffffffffffffffffffffffffffffffffffff168273ffffffffffffffffffffffffffffffffffffffff16149050919050565b6000600f60009054906101000a900473ffffffffffffffffffffffffffffffffffffffff1673ffffffffffffffffffffffffffffffffffffffff168273ffffffffffffffffffffffffffffffffffffffff16149050919050565b600080fd5b600073ffffffffffffffffffffffffffffffffffffffff82169050919050565b60006121a482612179565b9050919050565b6121b481612199565b81146121bf57600080fd5b50565b6000813590506121d1816121ab565b92915050565b6000602082840312156121ed576121ec612174565b5b60006121fb848285016121c2565b91505092915050565b600081519050919050565b600082825260208201905092915050565b60005b8381101561223e578082015181840152602081019050612223565b60008484015250505050565b6000601f19601f8301169050919050565b600061226682612204565b612270818561220f565b9350612280818560208601612220565b6122898161224a565b840191505092915050565b600060208201905081810360008301526122ae818461225b565b905092915050565b6000819050919050565b6122c9816122b6565b81146122d457600080fd5b50565b6000813590506122e6816122c0565b92915050565b6000806040838503121561230357612302612174565b5b6000612311858286016121c2565b9250506020612322858286016122d7565b9150509250929050565b60008115159050919050565b6123418161232c565b82525050565b600060208201905061235c6000830184612338565b92915050565b61236b816122b6565b82525050565b60006020820190506123866000830184612362565b92915050565b6000806000606084860312156123a5576123a4612174565b5b60006123b3868287016121c2565b93505060206123c4868287016121c2565b92505060406123d5868287016122d7565b9150509250925092565b600060ff82169050919050565b6123f5816123df565b82525050565b600060208201905061241060008301846123ec565b92915050565b60008060006060848603121561242f5761242e612174565b5b600061243d868287016122d7565b935050602061244e868287016122d7565b925050604061245f868287016122d7565b9150509250925092565b60006020828403121561247f5761247e612174565b5b600061248d848285016122d7565b91505092915050565b61249f81612199565b82525050565b60006020820190506124ba6000830184612496565b92915050565b600080600080600060a086880312156124dc576124db612174565b5b60006124ea888289016122d7565b95505060206124fb888289016122d7565b945050604061250c888289016122d7565b935050606061251d888289016122d7565b925050608061252e888289016122d7565b9150509295509295909350565b6125448161232c565b811461254f57600080fd5b50565b6000813590506125618161253b565b92915050565b6000806040838503121561257e5761257d612174565b5b600061258c858286016121c2565b925050602061259d85828601612552565b9150509250929050565b600080604083850312156125be576125bd612174565b5b60006125cc858286016121c2565b92505060206125dd858286016121c2565b9150509250929050565b7f4e487b7100000000000000000000000000000000000000000000000000000000600052602260045260246000fd5b6000600282049050600182168061262e57607f821691505b602082108103612641576126406125e7565b5b50919050565b7f54726164696e6720616c72656164792061637469766500000000000000000000600082015250565b600061267d60168361220f565b915061268882612647565b602082019050919050565b600060208201905081810360008301526126ac81612670565b9050919050565b7f4e487b7100000000000000000000000000000000000000000000000000000000600052601160045260246000fd5b60006126ed826122b6565b91506126f8836122b6565b92508282019050808211156127105761270f6126b3565b5b92915050565b600060608201905061272b6000830186612362565b6127386020830185612362565b6127456040830184612362565b949350505050565b7f4c697175696469747920706f6f6c206e6f742073657400000000000000000000600082015250565b600061278360168361220f565b915061278e8261274d565b602082019050919050565b600060208201905081810360008301526127b281612776565b9050919050565b7f416d6f756e74206d7573742062652067726561746572207468616e2030000000600082015250565b60006127ef601d8361220f565b91506127fa826127b9565b602082019050919050565b6000602082019050818103600083015261281e816127e2565b9050919050565b7f45544820616d6f756e74206d7573742062652067726561746572207468616e2060008201527f3000000000000000000000000000000000000000000000000000000000000000602082015250565b600061288160218361220f565b915061288c82612825565b604082019050919050565b600060208201905081810360008301526128b081612874565b9050919050565b6000819050919050565b6000819050919050565b60006128e66128e16128dc846128b7565b6128c1565b6122b6565b9050919050565b6128f6816128cb565b82525050565b60006060820190506129116000830186612362565b61291e6020830185612362565b61292b60408301846128ed565b949350505050565b7f4e6f207265776172647320746f20646973747269627574650000000000000000600082015250565b600061296960188361220f565b915061297482612933565b602082019050919050565b600060208201905081810360008301526129988161295c565b9050919050565b7f4275792074617820636f6d706f6e656e74732065786365656420746f74616c2060008201527f6275792074617800000000000000000000000000000000000000000000000000602082015250565b60006129fb60278361220f565b9150612a068261299f565b604082019050919050565b60006020820190508181036000830152612a2a816129ee565b9050919050565b7f53656c6c2074617820636f6d706f6e656e74732065786365656420746f74616c60008201527f2073656c6c207461780000000000000000000000000000000000000000000000602082015250565b6000612a8d60298361220f565b9150612a9882612a31565b604082019050919050565b60006020820190508181036000830152612abc81612a80565b9050919050565b600060a082019050612ad86000830188612362565b612ae56020830187612362565b612af26040830186612362565b612aff6060830185612362565b612b0c6080830184612362565b9695505050505050565b7f45524332303a2064656372656173656420616c6c6f77616e63652062656c6f7760008201527f207a65726f000000000000000000000000000000000000000000000000000000602082015250565b6000612b7260258361220f565b9150612b7d82612b16565b604082019050919050565b60006020820190508181036000830152612ba181612b65565b9050919050565b7f4f776e61626c653a206e6577206f776e657220697320746865207a65726f206160008201527f6464726573730000000000000000000000000000000000000000000000000000602082015250565b6000612c0460268361220f565b9150612c0f82612ba8565b604082019050919050565b60006020820190508181036000830152612c3381612bf7565b9050919050565b7f4f776e61626c653a2063616c6c6572206973206e6f7420746865206f776e6572600082015250565b6000612c7060208361220f565b9150612c7b82612c3a565b602082019050919050565b60006020820190508181036000830152612c9f81612c63565b9050919050565b7f45524332303a20617070726f76652066726f6d20746865207a65726f2061646460008201527f7265737300000000000000000000000000000000000000000000000000000000602082015250565b6000612d0260248361220f565b9150612d0d82612ca6565b604082019050919050565b60006020820190508181036000830152612d3181612cf5565b9050919050565b7f45524332303a20617070726f766520746f20746865207a65726f20616464726560008201527f7373000000000000000000000000000000000000000000000000000000000000602082015250565b6000612d9460228361220f565b9150612d9f82612d38565b604082019050919050565b60006020820190508181036000830152612dc381612d87565b9050919050565b7f45524332303a20696e73756666696369656e7420616c6c6f77616e6365000000600082015250565b6000612e00601d8361220f565b9150612e0b82612dca565b602082019050919050565b60006020820190508181036000830152612e2f81612df3565b9050919050565b7f45524332303a207472616e736665722066726f6d20746865207a65726f20616460008201527f6472657373000000000000000000000000000000000000000000000000000000602082015250565b6000612e9260258361220f565b9150612e9d82612e36565b604082019050919050565b60006020820190508181036000830152612ec181612e85565b9050919050565b7f45524332303a207472616e7366657220746f20746865207a65726f206164647260008201527f6573730000000000000000000000000000000000000000000000000000000000602082015250565b6000612f2460238361220f565b9150612f2f82612ec8565b604082019050919050565b60006020820190508181036000830152612f5381612f17565b9050919050565b7f45524332303a207472616e7366657220616d6f756e742065786365656473206260008201527f616c616e63650000000000000000000000000000000000000000000000000000602082015250565b6000612fb660268361220f565b9150612fc182612f5a565b604082019050919050565b60006020820190508181036000830152612fe581612fa9565b9050919050565b7f5265656e7472616e637947756172643a207265656e7472616e742063616c6c00600082015250565b6000613022601f8361220f565b915061302d82612fec565b602082019050919050565b6000602082019050818103600083015261305181613015565b9050919050565b7f54726164696e67206e6f74206163746976650000000000000000000000000000600082015250565b600061308e60128361220f565b915061309982613058565b602082019050919050565b600060208201905081810360008301526130bd81613081565b9050919050565b7f416d6f756e742065786365656473206d6178207472616e73616374696f6e0000600082015250565b60006130fa601e8361220f565b9150613105826130c4565b602082019050919050565b60006020820190508181036000830152613129816130ed565b9050919050565b7f57616c6c65742065786365656473206d617820686f6c64696e67000000000000600082015250565b6000613166601a8361220f565b915061317182613130565b602082019050919050565b6000602082019050818103600083015261319581613159565b9050919050565b7f4e487b7100000000000000000000000000000000000000000000000000000000600052601260045260246000fd5b60006131d6826122b6565b91506131e1836122b6565b9250826131f1576131f061319c565b5b828204905092915050565b7f4578636565646564206461696c79207472616e73616374696f6e206c696d6974600082015250565b600061323260208361220f565b915061323d826131fc565b602082019050919050565b6000602082019050818103600083015261326181613225565b9050919050565b6000613273826122b6565b91507fffffffffffffffffffffffffffffffffffffffffffffffffffffffffffffffff82036132a5576132a46126b3565b5b600182019050919050565b60006132bb826122b6565b91506132c6836122b6565b92508282026132d4816122b6565b915082820484148315176132eb576132ea6126b3565b5b5092915050565b60006132fd826122b6565b9150613308836122b6565b92508282039050818111156133205761331f6126b3565b5b9291505056fea2646970667358221220fc747137b49092daff6ff277cfe5a057e397f2d669515c5efbf3c74f975e927064736f6c63430008110033","opcodes":"PUSH1 0x80 PUSH1 0x40 MSTORE PUSH1 0x5 PUSH1 0x7 SSTORE PUSH1 0xA PUSH1 0x8 SSTORE PUSH1 0x3 PUSH1 0x9 SSTORE PUSH1 0x2 PUSH1 0xA SSTORE PUSH1 0x2 PUSH1 0xB SSTORE PUSH1 0xA PUSH1 0xE SSTORE PUSH1 0x0 PUSH1 0x14 DUP1 PUSH2 0x100 EXP DUP2 SLOAD DUP2 PUSH1 0xFF MUL NOT AND SWAP1 DUP4 ISZERO ISZERO MUL OR SWAP1 SSTORE POP CALLVALUE DUP1 ISZERO PUSH3 0x49 JUMPI PUSH1 0x0 DUP1 REVERT JUMPDEST POP PUSH1 0x40 MLOAD PUSH3 0x418B CODESIZE SUB DUP1 PUSH3 0x418B DUP4 CODECOPY DUP2 DUP2 ADD PUSH1 0x40 MSTORE DUP2 ADD SWAP1 PUSH3 0x6F SWAP2 SWAP1 PUSH3 0x864 JUMP JUMPDEST DUP5 DUP5 DUP2 PUSH1 0x3 SWAP1 DUP2 PUSH3 0x82 SWAP2 SWAP1 PUSH3 0xB6B JUMP JUMPDEST POP DUP1 PUSH1 0x4 SWAP1 DUP2 PUSH3 0x94 SWAP2 SWAP1 PUSH3 0xB6B JUMP JUMPDEST POP POP POP PUSH3 0xB7 PUSH3 0xAB PUSH3 0x3EC PUSH1 0x20 SHL PUSH1 0x20 SHR JUMP JUMPDEST PUSH3 0x3F4 PUSH1 0x20 SHL PUSH1 0x20 SHR JUMP JUMPDEST PUSH1 0x1 PUSH1 0x6 DUP2 SWAP1 SSTORE POP PUSH3 0xD1 CALLER DUP5 PUSH3 0x4BA PUSH1 0x20 SHL PUSH1 0x20 SHR JUMP JUMPDEST DUP2 PUSH1 0x10 PUSH1 0x0 PUSH2 0x100 EXP DUP2 SLOAD DUP2 PUSH20 0xFFFFFFFFFFFFFFFFFFFFFFFFFFFFFFFFFFFFFFFF MUL NOT AND SWAP1 DUP4 PUSH20 0xFFFFFFFFFFFFFFFFFFFFFFFFFFFFFFFFFFFFFFFF AND MUL OR SWAP1 SSTORE POP DUP1 PUSH1 0xF PUSH1 0x0 PUSH2 0x100 EXP DUP2 SLOAD DUP2 PUSH20 0xFFFFFFFFFFFFFFFFFFFFFFFFFFFFFFFFFFFFFFFF MUL NOT AND SWAP1 DUP4 PUSH20 0xFFFFFFFFFFFFFFFFFFFFFFFFFFFFFFFFFFFFFFFF AND MUL OR SWAP1 SSTORE POP CALLER PUSH1 0x13 PUSH1 0x0 PUSH2 0x100 EXP DUP2 SLOAD DUP2 PUSH20 0xFFFFFFFFFFFFFFFFFFFFFFFFFFFFFFFFFFFFFFFF MUL NOT AND SWAP1 DUP4 PUSH20 0xFFFFFFFFFFFFFFFFFFFFFFFFFFFFFFFFFFFFFFFF AND MUL OR SWAP1 SSTORE POP CALLER PUSH1 0x14 PUSH1 0x0 PUSH2 0x100 EXP DUP2 SLOAD DUP2 PUSH20 0xFFFFFFFFFFFFFFFFFFFFFFFFFFFFFFFFFFFFFFFF MUL NOT AND SWAP1 DUP4 PUSH20 0xFFFFFFFFFFFFFFFFFFFFFFFFFFFFFFFFFFFFFFFF AND MUL OR SWAP1 SSTORE POP PUSH1 0x64 PUSH1 0x2 DUP5 PUSH3 0x1E6 SWAP2 SWAP1 PUSH3 0xC81 JUMP JUMPDEST PUSH3 0x1F2 SWAP2 SWAP1 PUSH3 0xCFB JUMP JUMPDEST PUSH1 0xC DUP2 SWAP1 SSTORE POP PUSH1 0x64 PUSH1 0x5 DUP5 PUSH3 0x209 SWAP2 SWAP1 PUSH3 0xC81 JUMP JUMPDEST PUSH3 0x215 SWAP2 SWAP1 PUSH3 0xCFB JUMP JUMPDEST PUSH1 0xD DUP2 SWAP1 SSTORE POP PUSH1 0x1 PUSH1 0x15 PUSH1 0x0 CALLER PUSH20 0xFFFFFFFFFFFFFFFFFFFFFFFFFFFFFFFFFFFFFFFF AND PUSH20 0xFFFFFFFFFFFFFFFFFFFFFFFFFFFFFFFFFFFFFFFF AND DUP2 MSTORE PUSH1 0x20 ADD SWAP1 DUP2 MSTORE PUSH1 0x20 ADD PUSH1 0x0 KECCAK256 PUSH1 0x0 PUSH2 0x100 EXP DUP2 SLOAD DUP2 PUSH1 0xFF MUL NOT AND SWAP1 DUP4 ISZERO ISZERO MUL OR SWAP1 SSTORE POP PUSH1 0x1 PUSH1 0x15 PUSH1 0x0 PUSH1 0x10 PUSH1 0x0 SWAP1 SLOAD SWAP1 PUSH2 0x100 EXP SWAP1 DIV PUSH20 0xFFFFFFFFFFFFFFFFFFFFFFFFFFFFFFFFFFFFFFFF AND PUSH20 0xFFFFFFFFFFFFFFFFFFFFFFFFFFFFFFFFFFFFFFFF AND PUSH20 0xFFFFFFFFFFFFFFFFFFFFFFFFFFFFFFFFFFFFFFFF AND DUP2 MSTORE PUSH1 0x20 ADD SWAP1 DUP2 MSTORE PUSH1 0x20 ADD PUSH1 0x0 KECCAK256 PUSH1 0x0 PUSH2 0x100 EXP DUP2 SLOAD DUP2 PUSH1 0xFF MUL NOT AND SWAP1 DUP4 ISZERO ISZERO MUL OR SWAP1 SSTORE POP PUSH1 0x1 PUSH1 0x15 PUSH1 0x0 PUSH1 0x13 PUSH1 0x0 SWAP1 SLOAD SWAP1 PUSH2 0x100 EXP SWAP1 DIV PUSH20 0xFFFFFFFFFFFFFFFFFFFFFFFFFFFFFFFFFFFFFFFF AND PUSH20 0xFFFFFFFFFFFFFFFFFFFFFFFFFFFFFFFFFFFFFFFF AND PUSH20 0xFFFFFFFFFFFFFFFFFFFFFFFFFFFFFFFFFFFFFFFF AND DUP2 MSTORE PUSH1 0x20 ADD SWAP1 DUP2 MSTORE PUSH1 0x20 ADD PUSH1 0x0 KECCAK256 PUSH1 0x0 PUSH2 0x100 EXP DUP2 SLOAD DUP2 PUSH1 0xFF MUL NOT AND SWAP1 DUP4 ISZERO ISZERO MUL OR SWAP1 SSTORE POP PUSH1 0x1 PUSH1 0x15 PUSH1 0x0 PUSH1 0x14 PUSH1 0x0 SWAP1 SLOAD SWAP1 PUSH2 0x100 EXP SWAP1 DIV PUSH20 0xFFFFFFFFFFFFFFFFFFFFFFFFFFFFFFFFFFFFFFFF AND PUSH20 0xFFFFFFFFFFFFFFFFFFFFFFFFFFFFFFFFFFFFFFFF AND PUSH20 0xFFFFFFFFFFFFFFFFFFFFFFFFFFFFFFFFFFFFFFFF AND DUP2 MSTORE PUSH1 0x20 ADD SWAP1 DUP2 MSTORE PUSH1 0x20 ADD PUSH1 0x0 KECCAK256 PUSH1 0x0 PUSH2 0x100 EXP DUP2 SLOAD DUP2 PUSH1 0xFF MUL NOT AND SWAP1 DUP4 ISZERO ISZERO MUL OR SWAP1 SSTORE POP POP POP POP POP POP PUSH3 0xE1F JUMP JUMPDEST PUSH1 0x0 CALLER SWAP1 POP SWAP1 JUMP JUMPDEST PUSH1 0x0 PUSH1 0x5 PUSH1 0x0 SWAP1 SLOAD SWAP1 PUSH2 0x100 EXP SWAP1 DIV PUSH20 0xFFFFFFFFFFFFFFFFFFFFFFFFFFFFFFFFFFFFFFFF AND SWAP1 POP DUP2 PUSH1 0x5 PUSH1 0x0 PUSH2 0x100 EXP DUP2 SLOAD DUP2 PUSH20 0xFFFFFFFFFFFFFFFFFFFFFFFFFFFFFFFFFFFFFFFF MUL NOT AND SWAP1 DUP4 PUSH20 0xFFFFFFFFFFFFFFFFFFFFFFFFFFFFFFFFFFFFFFFF AND MUL OR SWAP1 SSTORE POP DUP2 PUSH20 0xFFFFFFFFFFFFFFFFFFFFFFFFFFFFFFFFFFFFFFFF AND DUP2 PUSH20 0xFFFFFFFFFFFFFFFFFFFFFFFFFFFFFFFFFFFFFFFF AND PUSH32 0x8BE0079C531659141344CD1FD0A4F28419497F9722A3DAAFE3B4186F6B6457E0 PUSH1 0x40 MLOAD PUSH1 0x40 MLOAD DUP1 SWAP2 SUB SWAP1 LOG3 POP POP JUMP JUMPDEST PUSH1 0x0 PUSH20 0xFFFFFFFFFFFFFFFFFFFFFFFFFFFFFFFFFFFFFFFF AND DUP3 PUSH20 0xFFFFFFFFFFFFFFFFFFFFFFFFFFFFFFFFFFFFFFFF AND SUB PUSH3 0x52C JUMPI PUSH1 0x40 MLOAD PUSH32 0x8C379A000000000000000000000000000000000000000000000000000000000 DUP2 MSTORE PUSH1 0x4 ADD PUSH3 0x523 SWAP1 PUSH3 0xD94 JUMP JUMPDEST PUSH1 0x40 MLOAD DUP1 SWAP2 SUB SWAP1 REVERT JUMPDEST PUSH3 0x540 PUSH1 0x0 DUP4 DUP4 PUSH3 0x627 PUSH1 0x20 SHL PUSH1 0x20 SHR JUMP JUMPDEST DUP1 PUSH1 0x2 PUSH1 0x0 DUP3 DUP3 SLOAD PUSH3 0x554 SWAP2 SWAP1 PUSH3 0xDB6 JUMP JUMPDEST SWAP3 POP POP DUP2 SWAP1 SSTORE POP DUP1 PUSH1 0x0 DUP1 DUP5 PUSH20 0xFFFFFFFFFFFFFFFFFFFFFFFFFFFFFFFFFFFFFFFF AND PUSH20 0xFFFFFFFFFFFFFFFFFFFFFFFFFFFFFFFFFFFFFFFF AND DUP2 MSTORE PUSH1 0x20 ADD SWAP1 DUP2 MSTORE PUSH1 0x20 ADD PUSH1 0x0 KECCAK256 PUSH1 0x0 DUP3 DUP3 SLOAD ADD SWAP3 POP POP DUP2 SWAP1 SSTORE POP DUP2 PUSH20 0xFFFFFFFFFFFFFFFFFFFFFFFFFFFFFFFFFFFFFFFF AND PUSH1 0x0 PUSH20 0xFFFFFFFFFFFFFFFFFFFFFFFFFFFFFFFFFFFFFFFF AND PUSH32 0xDDF252AD1BE2C89B69C2B068FC378DAA952BA7F163C4A11628F55A4DF523B3EF DUP4 PUSH1 0x40 MLOAD PUSH3 0x607 SWAP2 SWAP1 PUSH3 0xE02 JUMP JUMPDEST PUSH1 0x40 MLOAD DUP1 SWAP2 SUB SWAP1 LOG3 PUSH3 0x623 PUSH1 0x0 DUP4 DUP4 PUSH3 0x62C PUSH1 0x20 SHL PUSH1 0x20 SHR JUMP JUMPDEST POP POP JUMP JUMPDEST POP POP POP JUMP JUMPDEST POP POP POP JUMP JUMPDEST PUSH1 0x0 PUSH1 0x40 MLOAD SWAP1 POP SWAP1 JUMP JUMPDEST PUSH1 0x0 DUP1 REVERT JUMPDEST PUSH1 0x0 DUP1 REVERT JUMPDEST PUSH1 0x0 DUP1 REVERT JUMPDEST PUSH1 0x0 DUP1 REVERT JUMPDEST PUSH1 0x0 PUSH1 0x1F NOT PUSH1 0x1F DUP4 ADD AND SWAP1 POP SWAP2 SWAP1 POP JUMP JUMPDEST PUSH32 0x4E487B7100000000000000000000000000000000000000000000000000000000 PUSH1 0x0 MSTORE PUSH1 0x41 PUSH1 0x4 MSTORE PUSH1 0x24 PUSH1 0x0 REVERT JUMPDEST PUSH3 0x69A DUP3 PUSH3 0x64F JUMP JUMPDEST DUP2 ADD DUP2 DUP2 LT PUSH8 0xFFFFFFFFFFFFFFFF DUP3 GT OR ISZERO PUSH3 0x6BC JUMPI PUSH3 0x6BB PUSH3 0x660 JUMP JUMPDEST JUMPDEST DUP1 PUSH1 0x40 MSTORE POP POP POP JUMP JUMPDEST PUSH1 0x0 PUSH3 0x6D1 PUSH3 0x631 JUMP JUMPDEST SWAP1 POP PUSH3 0x6DF DUP3 DUP3 PUSH3 0x68F JUMP JUMPDEST SWAP2 SWAP1 POP JUMP JUMPDEST PUSH1 0x0 PUSH8 0xFFFFFFFFFFFFFFFF DUP3 GT ISZERO PUSH3 0x702 JUMPI PUSH3 0x701 PUSH3 0x660 JUMP JUMPDEST JUMPDEST PUSH3 0x70D DUP3 PUSH3 0x64F JUMP JUMPDEST SWAP1 POP PUSH1 0x20 DUP2 ADD SWAP1 POP SWAP2 SWAP1 POP JUMP JUMPDEST PUSH1 0x0 JUMPDEST DUP4 DUP2 LT ISZERO PUSH3 0x73A JUMPI DUP1 DUP3 ADD MLOAD DUP2 DUP5 ADD MSTORE PUSH1 0x20 DUP2 ADD SWAP1 POP PUSH3 0x71D JUMP JUMPDEST PUSH1 0x0 DUP5 DUP5 ADD MSTORE POP POP POP POP JUMP JUMPDEST PUSH1 0x0 PUSH3 0x75D PUSH3 0x757 DUP5 PUSH3 0x6E4 JUMP JUMPDEST PUSH3 0x6C5 JUMP JUMPDEST SWAP1 POP DUP3 DUP2 MSTORE PUSH1 0x20 DUP2 ADD DUP5 DUP5 DUP5 ADD GT ISZERO PUSH3 0x77C JUMPI PUSH3 0x77B PUSH3 0x64A JUMP JUMPDEST JUMPDEST PUSH3 0x789 DUP5 DUP3 DUP6 PUSH3 0x71A JUMP JUMPDEST POP SWAP4 SWAP3 POP POP POP JUMP JUMPDEST PUSH1 0x0 DUP3 PUSH1 0x1F DUP4 ADD SLT PUSH3 0x7A9 JUMPI PUSH3 0x7A8 PUSH3 0x645 JUMP JUMPDEST JUMPDEST DUP2 MLOAD PUSH3 0x7BB DUP5 DUP3 PUSH1 0x20 DUP7 ADD PUSH3 0x746 JUMP JUMPDEST SWAP2 POP POP SWAP3 SWAP2 POP POP JUMP JUMPDEST PUSH1 0x0 DUP2 SWAP1 POP SWAP2 SWAP1 POP JUMP JUMPDEST PUSH3 0x7D9 DUP2 PUSH3 0x7C4 JUMP JUMPDEST DUP2 EQ PUSH3 0x7E5 JUMPI PUSH1 0x0 DUP1 REVERT JUMPDEST POP JUMP JUMPDEST PUSH1 0x0 DUP2 MLOAD SWAP1 POP PUSH3 0x7F9 DUP2 PUSH3 0x7CE JUMP JUMPDEST SWAP3 SWAP2 POP POP JUMP JUMPDEST PUSH1 0x0 PUSH20 0xFFFFFFFFFFFFFFFFFFFFFFFFFFFFFFFFFFFFFFFF DUP3 AND SWAP1 POP SWAP2 SWAP1 POP JUMP JUMPDEST PUSH1 0x0 PUSH3 0x82C DUP3 PUSH3 0x7FF JUMP JUMPDEST SWAP1 POP SWAP2 SWAP1 POP JUMP JUMPDEST PUSH3 0x83E DUP2 PUSH3 0x81F JUMP JUMPDEST DUP2 EQ PUSH3 0x84A JUMPI PUSH1 0x0 DUP1 REVERT JUMPDEST POP JUMP JUMPDEST PUSH1 0x0 DUP2 MLOAD SWAP1 POP PUSH3 0x85E DUP2 PUSH3 0x833 JUMP JUMPDEST SWAP3 SWAP2 POP POP JUMP JUMPDEST PUSH1 0x0 DUP1 PUSH1 0x0 DUP1 PUSH1 0x0 PUSH1 0xA0 DUP7 DUP9 SUB SLT ISZERO PUSH3 0x883 JUMPI PUSH3 0x882 PUSH3 0x63B JUMP JUMPDEST JUMPDEST PUSH1 0x0 DUP7 ADD MLOAD PUSH8 0xFFFFFFFFFFFFFFFF DUP2 GT ISZERO PUSH3 0x8A4 JUMPI PUSH3 0x8A3 PUSH3 0x640 JUMP JUMPDEST JUMPDEST PUSH3 0x8B2 DUP9 DUP3 DUP10 ADD PUSH3 0x791 JUMP JUMPDEST SWAP6 POP POP PUSH1 0x20 DUP7 ADD MLOAD PUSH8 0xFFFFFFFFFFFFFFFF DUP2 GT ISZERO PUSH3 0x8D6 JUMPI PUSH3 0x8D5 PUSH3 0x640 JUMP JUMPDEST JUMPDEST PUSH3 0x8E4 DUP9 DUP3 DUP10 ADD PUSH3 0x791 JUMP JUMPDEST SWAP5 POP POP PUSH1 0x40 PUSH3 0x8F7 DUP9 DUP3 DUP10 ADD PUSH3 0x7E8 JUMP JUMPDEST SWAP4 POP POP PUSH1 0x60 PUSH3 0x90A DUP9 DUP3 DUP10 ADD PUSH3 0x84D JUMP JUMPDEST SWAP3 POP POP PUSH1 0x80 PUSH3 0x91D DUP9 DUP3 DUP10 ADD PUSH3 0x84D JUMP JUMPDEST SWAP2 POP POP SWAP3 SWAP6 POP SWAP3 SWAP6 SWAP1 SWAP4 POP JUMP JUMPDEST PUSH1 0x0 DUP2 MLOAD SWAP1 POP SWAP2 SWAP1 POP JUMP JUMPDEST PUSH32 0x4E487B7100000000000000000000000000000000000000000000000000000000 PUSH1 0x0 MSTORE PUSH1 0x22 PUSH1 0x4 MSTORE PUSH1 0x24 PUSH1 0x0 REVERT JUMPDEST PUSH1 0x0 PUSH1 0x2 DUP3 DIV SWAP1 POP PUSH1 0x1 DUP3 AND DUP1 PUSH3 0x97D JUMPI PUSH1 0x7F DUP3 AND SWAP2 POP JUMPDEST PUSH1 0x20 DUP3 LT DUP2 SUB PUSH3 0x993 JUMPI PUSH3 0x992 PUSH3 0x935 JUMP JUMPDEST JUMPDEST POP SWAP2 SWAP1 POP JUMP JUMPDEST PUSH1 0x0 DUP2 SWAP1 POP DUP2 PUSH1 0x0 MSTORE PUSH1 0x20 PUSH1 0x0 KECCAK256 SWAP1 POP SWAP2 SWAP1 POP JUMP JUMPDEST PUSH1 0x0 PUSH1 0x20 PUSH1 0x1F DUP4 ADD DIV SWAP1 POP SWAP2 SWAP1 POP JUMP JUMPDEST PUSH1 0x0 DUP3 DUP3 SHL SWAP1 POP SWAP3 SWAP2 POP POP JUMP JUMPDEST PUSH1 0x0 PUSH1 0x8 DUP4 MUL PUSH3 0x9FD PUSH32 0xFFFFFFFFFFFFFFFFFFFFFFFFFFFFFFFFFFFFFFFFFFFFFFFFFFFFFFFFFFFFFFFF DUP3 PUSH3 0x9BE JUMP JUMPDEST PUSH3 0xA09 DUP7 DUP4 PUSH3 0x9BE JUMP JUMPDEST SWAP6 POP DUP1 NOT DUP5 AND SWAP4 POP DUP1 DUP7 AND DUP5 OR SWAP3 POP POP POP SWAP4 SWAP3 POP POP POP JUMP JUMPDEST PUSH1 0x0 DUP2 SWAP1 POP SWAP2 SWAP1 POP JUMP JUMPDEST PUSH1 0x0 PUSH3 0xA4C PUSH3 0xA46 PUSH3 0xA40 DUP5 PUSH3 0x7C4 JUMP JUMPDEST PUSH3 0xA21 JUMP JUMPDEST PUSH3 0x7C4 JUMP JUMPDEST SWAP1 POP SWAP2 SWAP1 POP JUMP JUMPDEST PUSH1 0x0 DUP2 SWAP1 POP SWAP2 SWAP1 POP JUMP JUMPDEST PUSH3 0xA68 DUP4 PUSH3 0xA2B JUMP JUMPDEST PUSH3 0xA80 PUSH3 0xA77 DUP3 PUSH3 0xA53 JUMP JUMPDEST DUP5 DUP5 SLOAD PUSH3 0x9CB JUMP JUMPDEST DUP3 SSTORE POP POP POP POP JUMP JUMPDEST PUSH1 0x0 SWAP1 JUMP JUMPDEST PUSH3 0xA97 PUSH3 0xA88 JUMP JUMPDEST PUSH3 0xAA4 DUP2 DUP5 DUP5 PUSH3 0xA5D JUMP JUMPDEST POP POP POP JUMP JUMPDEST JUMPDEST DUP2 DUP2 LT ISZERO PUSH3 0xACC JUMPI PUSH3 0xAC0 PUSH1 0x0 DUP3 PUSH3 0xA8D JUMP JUMPDEST PUSH1 0x1 DUP2 ADD SWAP1 POP PUSH3 0xAAA JUMP JUMPDEST POP POP JUMP JUMPDEST PUSH1 0x1F DUP3 GT ISZERO PUSH3 0xB1B JUMPI PUSH3 0xAE5 DUP2 PUSH3 0x999 JUMP JUMPDEST PUSH3 0xAF0 DUP5 PUSH3 0x9AE JUMP JUMPDEST DUP2 ADD PUSH1 0x20 DUP6 LT ISZERO PUSH3 0xB00 JUMPI DUP2 SWAP1 POP JUMPDEST PUSH3 0xB18 PUSH3 0xB0F DUP6 PUSH3 0x9AE JUMP JUMPDEST DUP4 ADD DUP3 PUSH3 0xAA9 JUMP JUMPDEST POP POP JUMPDEST POP POP POP JUMP JUMPDEST PUSH1 0x0 DUP3 DUP3 SHR SWAP1 POP SWAP3 SWAP2 POP POP JUMP JUMPDEST PUSH1 0x0 PUSH3 0xB40 PUSH1 0x0 NOT DUP5 PUSH1 0x8 MUL PUSH3 0xB20 JUMP JUMPDEST NOT DUP1 DUP4 AND SWAP2 POP POP SWAP3 SWAP2 POP POP JUMP JUMPDEST PUSH1 0x0 PUSH3 0xB5B DUP4 DUP4 PUSH3 0xB2D JUMP JUMPDEST SWAP2 POP DUP3 PUSH1 0x2 MUL DUP3 OR SWAP1 POP SWAP3 SWAP2 POP POP JUMP JUMPDEST PUSH3 0xB76 DUP3 PUSH3 0x92A JUMP JUMPDEST PUSH8 0xFFFFFFFFFFFFFFFF DUP2 GT ISZERO PUSH3 0xB92 JUMPI PUSH3 0xB91 PUSH3 0x660 JUMP JUMPDEST JUMPDEST PUSH3 0xB9E DUP3 SLOAD PUSH3 0x964 JUMP JUMPDEST PUSH3 0xBAB DUP3 DUP3 DUP6 PUSH3 0xAD0 JUMP JUMPDEST PUSH1 0x0 PUSH1 0x20 SWAP1 POP PUSH1 0x1F DUP4 GT PUSH1 0x1 DUP2 EQ PUSH3 0xBE3 JUMPI PUSH1 0x0 DUP5 ISZERO PUSH3 0xBCE JUMPI DUP3 DUP8 ADD MLOAD SWAP1 POP JUMPDEST PUSH3 0xBDA DUP6 DUP3 PUSH3 0xB4D JUMP JUMPDEST DUP7 SSTORE POP PUSH3 0xC4A JUMP JUMPDEST PUSH1 0x1F NOT DUP5 AND PUSH3 0xBF3 DUP7 PUSH3 0x999 JUMP JUMPDEST PUSH1 0x0 JUMPDEST DUP3 DUP2 LT ISZERO PUSH3 0xC1D JUMPI DUP5 DUP10 ADD MLOAD DUP3 SSTORE PUSH1 0x1 DUP3 ADD SWAP2 POP PUSH1 0x20 DUP6 ADD SWAP5 POP PUSH1 0x20 DUP2 ADD SWAP1 POP PUSH3 0xBF6 JUMP JUMPDEST DUP7 DUP4 LT ISZERO PUSH3 0xC3D JUMPI DUP5 DUP10 ADD MLOAD PUSH3 0xC39 PUSH1 0x1F DUP10 AND DUP3 PUSH3 0xB2D JUMP JUMPDEST DUP4 SSTORE POP JUMPDEST PUSH1 0x1 PUSH1 0x2 DUP9 MUL ADD DUP9 SSTORE POP POP POP JUMPDEST POP POP POP POP POP POP JUMP JUMPDEST PUSH32 0x4E487B7100000000000000000000000000000000000000000000000000000000 PUSH1 0x0 MSTORE PUSH1 0x11 PUSH1 0x4 MSTORE PUSH1 0x24 PUSH1 0x0 REVERT JUMPDEST PUSH1 0x0 PUSH3 0xC8E DUP3 PUSH3 0x7C4 JUMP JUMPDEST SWAP2 POP PUSH3 0xC9B DUP4 PUSH3 0x7C4 JUMP JUMPDEST SWAP3 POP DUP3 DUP3 MUL PUSH3 0xCAB DUP2 PUSH3 0x7C4 JUMP JUMPDEST SWAP2 POP DUP3 DUP3 DIV DUP5 EQ DUP4 ISZERO OR PUSH3 0xCC5 JUMPI PUSH3 0xCC4 PUSH3 0xC52 JUMP JUMPDEST JUMPDEST POP SWAP3 SWAP2 POP POP JUMP JUMPDEST PUSH32 0x4E487B7100000000000000000000000000000000000000000000000000000000 PUSH1 0x0 MSTORE PUSH1 0x12 PUSH1 0x4 MSTORE PUSH1 0x24 PUSH1 0x0 REVERT JUMPDEST PUSH1 0x0 PUSH3 0xD08 DUP3 PUSH3 0x7C4 JUMP JUMPDEST SWAP2 POP PUSH3 0xD15 DUP4 PUSH3 0x7C4 JUMP JUMPDEST SWAP3 POP DUP3 PUSH3 0xD28 JUMPI PUSH3 0xD27 PUSH3 0xCCC JUMP JUMPDEST JUMPDEST DUP3 DUP3 DIV SWAP1 POP SWAP3 SWAP2 POP POP JUMP JUMPDEST PUSH1 0x0 DUP3 DUP3 MSTORE PUSH1 0x20 DUP3 ADD SWAP1 POP SWAP3 SWAP2 POP POP JUMP JUMPDEST PUSH32 0x45524332303A206D696E7420746F20746865207A65726F206164647265737300 PUSH1 0x0 DUP3 ADD MSTORE POP JUMP JUMPDEST PUSH1 0x0 PUSH3 0xD7C PUSH1 0x1F DUP4 PUSH3 0xD33 JUMP JUMPDEST SWAP2 POP PUSH3 0xD89 DUP3 PUSH3 0xD44 JUMP JUMPDEST PUSH1 0x20 DUP3 ADD SWAP1 POP SWAP2 SWAP1 POP JUMP JUMPDEST PUSH1 0x0 PUSH1 0x20 DUP3 ADD SWAP1 POP DUP2 DUP2 SUB PUSH1 0x0 DUP4 ADD MSTORE PUSH3 0xDAF DUP2 PUSH3 0xD6D JUMP JUMPDEST SWAP1 POP SWAP2 SWAP1 POP JUMP JUMPDEST PUSH1 0x0 PUSH3 0xDC3 DUP3 PUSH3 0x7C4 JUMP JUMPDEST SWAP2 POP PUSH3 0xDD0 DUP4 PUSH3 0x7C4 JUMP JUMPDEST SWAP3 POP DUP3 DUP3 ADD SWAP1 POP DUP1 DUP3 GT ISZERO PUSH3 0xDEB JUMPI PUSH3 0xDEA PUSH3 0xC52 JUMP JUMPDEST JUMPDEST SWAP3 SWAP2 POP POP JUMP JUMPDEST PUSH3 0xDFC DUP2 PUSH3 0x7C4 JUMP JUMPDEST DUP3 MSTORE POP POP JUMP JUMPDEST PUSH1 0x0 PUSH1 0x20 DUP3 ADD SWAP1 POP PUSH3 0xE19 PUSH1 0x0 DUP4 ADD DUP5 PUSH3 0xDF1 JUMP JUMPDEST SWAP3 SWAP2 POP POP JUMP JUMPDEST PUSH2 0x335C DUP1 PUSH3 0xE2F PUSH1 0x0 CODECOPY PUSH1 0x0 RETURN INVALID PUSH1 0x80 PUSH1 0x40 MSTORE PUSH1 0x4 CALLDATASIZE LT PUSH2 0x230 JUMPI PUSH1 0x0 CALLDATALOAD PUSH1 0xE0 SHR DUP1 PUSH4 0x8DA5CB5B GT PUSH2 0x12E JUMPI DUP1 PUSH4 0xBE617FA0 GT PUSH2 0xAB JUMPI DUP1 PUSH4 0xD4698016 GT PUSH2 0x6F JUMPI DUP1 PUSH4 0xD4698016 EQ PUSH2 0x836 JUMPI DUP1 PUSH4 0xDD62ED3E EQ PUSH2 0x861 JUMPI DUP1 PUSH4 0xF2FDE38B EQ PUSH2 0x89E JUMPI DUP1 PUSH4 0xF9CC6901 EQ PUSH2 0x8C7 JUMPI DUP1 PUSH4 0xFB75B2C7 EQ PUSH2 0x8F2 JUMPI PUSH2 0x230 JUMP JUMPDEST DUP1 PUSH4 0xBE617FA0 EQ PUSH2 0x74F JUMPI DUP1 PUSH4 0xC2ED286B EQ PUSH2 0x77A JUMPI DUP1 PUSH4 0xC8C8EBE4 EQ PUSH2 0x7A3 JUMPI DUP1 PUSH4 0xCB4CA631 EQ PUSH2 0x7CE JUMPI DUP1 PUSH4 0xCC1776D3 EQ PUSH2 0x80B JUMPI PUSH2 0x230 JUMP JUMPDEST DUP1 PUSH4 0xA457C2D7 GT PUSH2 0xF2 JUMPI DUP1 PUSH4 0xA457C2D7 EQ PUSH2 0x642 JUMPI DUP1 PUSH4 0xA9059CBB EQ PUSH2 0x67F JUMPI DUP1 PUSH4 0xAA4BDE28 EQ PUSH2 0x6BC JUMPI DUP1 PUSH4 0xAF59C95F EQ PUSH2 0x6E7 JUMPI DUP1 PUSH4 0xBBC0C742 EQ PUSH2 0x724 JUMPI PUSH2 0x230 JUMP JUMPDEST DUP1 PUSH4 0x8DA5CB5B EQ PUSH2 0x55B JUMPI DUP1 PUSH4 0x8EA5220F EQ PUSH2 0x586 JUMPI DUP1 PUSH4 0x95D89B41 EQ PUSH2 0x5B1 JUMPI DUP1 PUSH4 0x99BE3375 EQ PUSH2 0x5DC JUMPI DUP1 PUSH4 0x9C8F9F23 EQ PUSH2 0x619 JUMPI PUSH2 0x230 JUMP JUMPDEST DUP1 PUSH4 0x4E81AD29 GT PUSH2 0x1BC JUMPI DUP1 PUSH4 0x6E5C59AE GT PUSH2 0x180 JUMPI DUP1 PUSH4 0x6E5C59AE EQ PUSH2 0x49C JUMPI DUP1 PUSH4 0x6F4A2CD0 EQ PUSH2 0x4C7 JUMPI DUP1 PUSH4 0x70A08231 EQ PUSH2 0x4DE JUMPI DUP1 PUSH4 0x715018A6 EQ PUSH2 0x51B JUMPI DUP1 PUSH4 0x73E94AD4 EQ PUSH2 0x532 JUMPI PUSH2 0x230 JUMP JUMPDEST DUP1 PUSH4 0x4E81AD29 EQ PUSH2 0x3D6 JUMPI DUP1 PUSH4 0x4F7041A5 EQ PUSH2 0x3FF JUMPI DUP1 PUSH4 0x51C6590A EQ PUSH2 0x42A JUMPI DUP1 PUSH4 0x665A11CA EQ PUSH2 0x446 JUMPI DUP1 PUSH4 0x665C6DE9 EQ PUSH2 0x471 JUMPI PUSH2 0x230 JUMP JUMPDEST DUP1 PUSH4 0x18160DDD GT PUSH2 0x203 JUMPI DUP1 PUSH4 0x18160DDD EQ PUSH2 0x2DD JUMPI DUP1 PUSH4 0x1F53AC02 EQ PUSH2 0x308 JUMPI DUP1 PUSH4 0x23B872DD EQ PUSH2 0x331 JUMPI DUP1 PUSH4 0x313CE567 EQ PUSH2 0x36E JUMPI DUP1 PUSH4 0x39509351 EQ PUSH2 0x399 JUMPI PUSH2 0x230 JUMP JUMPDEST DUP1 PUSH4 0x1877020 EQ PUSH2 0x235 JUMPI DUP1 PUSH4 0x6FDDE03 EQ PUSH2 0x25E JUMPI DUP1 PUSH4 0x95EA7B3 EQ PUSH2 0x289 JUMPI DUP1 PUSH4 0xBD05B69 EQ PUSH2 0x2C6 JUMPI JUMPDEST PUSH1 0x0 DUP1 REVERT JUMPDEST CALLVALUE DUP1 ISZERO PUSH2 0x241 JUMPI PUSH1 0x0 DUP1 REVERT JUMPDEST POP PUSH2 0x25C PUSH1 0x4 DUP1 CALLDATASIZE SUB DUP2 ADD SWAP1 PUSH2 0x257 SWAP2 SWAP1 PUSH2 0x21D7 JUMP JUMPDEST PUSH2 0x91D JUMP JUMPDEST STOP JUMPDEST CALLVALUE DUP1 ISZERO PUSH2 0x26A JUMPI PUSH1 0x0 DUP1 REVERT JUMPDEST POP PUSH2 0x273 PUSH2 0x969 JUMP JUMPDEST PUSH1 0x40 MLOAD PUSH2 0x280 SWAP2 SWAP1 PUSH2 0x2294 JUMP JUMPDEST PUSH1 0x40 MLOAD DUP1 SWAP2 SUB SWAP1 RETURN JUMPDEST CALLVALUE DUP1 ISZERO PUSH2 0x295 JUMPI PUSH1 0x0 DUP1 REVERT JUMPDEST POP PUSH2 0x2B0 PUSH1 0x4 DUP1 CALLDATASIZE SUB DUP2 ADD SWAP1 PUSH2 0x2AB SWAP2 SWAP1 PUSH2 0x22EC JUMP JUMPDEST PUSH2 0x9FB JUMP JUMPDEST PUSH1 0x40 MLOAD PUSH2 0x2BD SWAP2 SWAP1 PUSH2 0x2347 JUMP JUMPDEST PUSH1 0x40 MLOAD DUP1 SWAP2 SUB SWAP1 RETURN JUMPDEST CALLVALUE DUP1 ISZERO PUSH2 0x2D2 JUMPI PUSH1 0x0 DUP1 REVERT JUMPDEST POP PUSH2 0x2DB PUSH2 0xA1E JUMP JUMPDEST STOP JUMPDEST CALLVALUE DUP1 ISZERO PUSH2 0x2E9 JUMPI PUSH1 0x0 DUP1 REVERT JUMPDEST POP PUSH2 0x2F2 PUSH2 0xA90 JUMP JUMPDEST PUSH1 0x40 MLOAD PUSH2 0x2FF SWAP2 SWAP1 PUSH2 0x2371 JUMP JUMPDEST PUSH1 0x40 MLOAD DUP1 SWAP2 SUB SWAP1 RETURN JUMPDEST CALLVALUE DUP1 ISZERO PUSH2 0x314 JUMPI PUSH1 0x0 DUP1 REVERT JUMPDEST POP PUSH2 0x32F PUSH1 0x4 DUP1 CALLDATASIZE SUB DUP2 ADD SWAP1 PUSH2 0x32A SWAP2 SWAP1 PUSH2 0x21D7 JUMP JUMPDEST PUSH2 0xA9A JUMP JUMPDEST STOP JUMPDEST CALLVALUE DUP1 ISZERO PUSH2 0x33D JUMPI PUSH1 0x0 DUP1 REVERT JUMPDEST POP PUSH2 0x358 PUSH1 0x4 DUP1 CALLDATASIZE SUB DUP2 ADD SWAP1 PUSH2 0x353 SWAP2 SWAP1 PUSH2 0x238C JUMP JUMPDEST PUSH2 0xAE6 JUMP JUMPDEST PUSH1 0x40 MLOAD PUSH2 0x365 SWAP2 SWAP1 PUSH2 0x2347 JUMP JUMPDEST PUSH1 0x40 MLOAD DUP1 SWAP2 SUB SWAP1 RETURN JUMPDEST CALLVALUE DUP1 ISZERO PUSH2 0x37A JUMPI PUSH1 0x0 DUP1 REVERT JUMPDEST POP PUSH2 0x383 PUSH2 0xB15 JUMP JUMPDEST PUSH1 0x40 MLOAD PUSH2 0x390 SWAP2 SWAP1 PUSH2 0x23FB JUMP JUMPDEST PUSH1 0x40 MLOAD DUP1 SWAP2 SUB SWAP1 RETURN JUMPDEST CALLVALUE DUP1 ISZERO PUSH2 0x3A5 JUMPI PUSH1 0x0 DUP1 REVERT JUMPDEST POP PUSH2 0x3C0 PUSH1 0x4 DUP1 CALLDATASIZE SUB DUP2 ADD SWAP1 PUSH2 0x3BB SWAP2 SWAP1 PUSH2 0x22EC JUMP JUMPDEST PUSH2 0xB1E JUMP JUMPDEST PUSH1 0x40 MLOAD PUSH2 0x3CD SWAP2 SWAP1 PUSH2 0x2347 JUMP JUMPDEST PUSH1 0x40 MLOAD DUP1 SWAP2 SUB SWAP1 RETURN JUMPDEST CALLVALUE DUP1 ISZERO PUSH2 0x3E2 JUMPI PUSH1 0x0 DUP1 REVERT JUMPDEST POP PUSH2 0x3FD PUSH1 0x4 DUP1 CALLDATASIZE SUB DUP2 ADD SWAP1 PUSH2 0x3F8 SWAP2 SWAP1 PUSH2 0x2416 JUMP JUMPDEST PUSH2 0xB55 JUMP JUMPDEST STOP JUMPDEST CALLVALUE DUP1 ISZERO PUSH2 0x40B JUMPI PUSH1 0x0 DUP1 REVERT JUMPDEST POP PUSH2 0x414 PUSH2 0xBB2 JUMP JUMPDEST PUSH1 0x40 MLOAD PUSH2 0x421 SWAP2 SWAP1 PUSH2 0x2371 JUMP JUMPDEST PUSH1 0x40 MLOAD DUP1 SWAP2 SUB SWAP1 RETURN JUMPDEST PUSH2 0x444 PUSH1 0x4 DUP1 CALLDATASIZE SUB DUP2 ADD SWAP1 PUSH2 0x43F SWAP2 SWAP1 PUSH2 0x2469 JUMP JUMPDEST PUSH2 0xBB8 JUMP JUMPDEST STOP JUMPDEST CALLVALUE DUP1 ISZERO PUSH2 0x452 JUMPI PUSH1 0x0 DUP1 REVERT JUMPDEST POP PUSH2 0x45B PUSH2 0xD62 JUMP JUMPDEST PUSH1 0x40 MLOAD PUSH2 0x468 SWAP2 SWAP1 PUSH2 0x24A5 JUMP JUMPDEST PUSH1 0x40 MLOAD DUP1 SWAP2 SUB SWAP1 RETURN JUMPDEST CALLVALUE DUP1 ISZERO PUSH2 0x47D JUMPI PUSH1 0x0 DUP1 REVERT JUMPDEST POP PUSH2 0x486 PUSH2 0xD88 JUMP JUMPDEST PUSH1 0x40 MLOAD PUSH2 0x493 SWAP2 SWAP1 PUSH2 0x2371 JUMP JUMPDEST PUSH1 0x40 MLOAD DUP1 SWAP2 SUB SWAP1 RETURN JUMPDEST CALLVALUE DUP1 ISZERO PUSH2 0x4A8 JUMPI PUSH1 0x0 DUP1 REVERT JUMPDEST POP PUSH2 0x4B1 PUSH2 0xD8E JUMP JUMPDEST PUSH1 0x40 MLOAD PUSH2 0x4BE SWAP2 SWAP1 PUSH2 0x2371 JUMP JUMPDEST PUSH1 0x40 MLOAD DUP1 SWAP2 SUB SWAP1 RETURN JUMPDEST CALLVALUE DUP1 ISZERO PUSH2 0x4D3 JUMPI PUSH1 0x0 DUP1 REVERT JUMPDEST POP PUSH2 0x4DC PUSH2 0xD94 JUMP JUMPDEST STOP JUMPDEST CALLVALUE DUP1 ISZERO PUSH2 0x4EA JUMPI PUSH1 0x0 DUP1 REVERT JUMPDEST POP PUSH2 0x505 PUSH1 0x4 DUP1 CALLDATASIZE SUB DUP2 ADD SWAP1 PUSH2 0x500 SWAP2 SWAP1 PUSH2 0x21D7 JUMP JUMPDEST PUSH2 0xE19 JUMP JUMPDEST PUSH1 0x40 MLOAD PUSH2 0x512 SWAP2 SWAP1 PUSH2 0x2371 JUMP JUMPDEST PUSH1 0x40 MLOAD DUP1 SWAP2 SUB SWAP1 RETURN JUMPDEST CALLVALUE DUP1 ISZERO PUSH2 0x527 JUMPI PUSH1 0x0 DUP1 REVERT JUMPDEST POP PUSH2 0x530 PUSH2 0xE61 JUMP JUMPDEST STOP JUMPDEST CALLVALUE DUP1 ISZERO PUSH2 0x53E JUMPI PUSH1 0x0 DUP1 REVERT JUMPDEST POP PUSH2 0x559 PUSH1 0x4 DUP1 CALLDATASIZE SUB DUP2 ADD SWAP1 PUSH2 0x554 SWAP2 SWAP1 PUSH2 0x24C0 JUMP JUMPDEST PUSH2 0xE75 JUMP JUMPDEST STOP JUMPDEST CALLVALUE DUP1 ISZERO PUSH2 0x567 JUMPI PUSH1 0x0 DUP1 REVERT JUMPDEST POP PUSH2 0x570 PUSH2 0xF98 JUMP JUMPDEST PUSH1 0x40 MLOAD PUSH2 0x57D SWAP2 SWAP1 PUSH2 0x24A5 JUMP JUMPDEST PUSH1 0x40 MLOAD DUP1 SWAP2 SUB SWAP1 RETURN JUMPDEST CALLVALUE DUP1 ISZERO PUSH2 0x592 JUMPI PUSH1 0x0 DUP1 REVERT JUMPDEST POP PUSH2 0x59B PUSH2 0xFC2 JUMP JUMPDEST PUSH1 0x40 MLOAD PUSH2 0x5A8 SWAP2 SWAP1 PUSH2 0x24A5 JUMP JUMPDEST PUSH1 0x40 MLOAD DUP1 SWAP2 SUB SWAP1 RETURN JUMPDEST CALLVALUE DUP1 ISZERO PUSH2 0x5BD JUMPI PUSH1 0x0 DUP1 REVERT JUMPDEST POP PUSH2 0x5C6 PUSH2 0xFE8 JUMP JUMPDEST PUSH1 0x40 MLOAD PUSH2 0x5D3 SWAP2 SWAP1 PUSH2 0x2294 JUMP JUMPDEST PUSH1 0x40 MLOAD DUP1 SWAP2 SUB SWAP1 RETURN JUMPDEST CALLVALUE DUP1 ISZERO PUSH2 0x5E8 JUMPI PUSH1 0x0 DUP1 REVERT JUMPDEST POP PUSH2 0x603 PUSH1 0x4 DUP1 CALLDATASIZE SUB DUP2 ADD SWAP1 PUSH2 0x5FE SWAP2 SWAP1 PUSH2 0x21D7 JUMP JUMPDEST PUSH2 0x107A JUMP JUMPDEST PUSH1 0x40 MLOAD PUSH2 0x610 SWAP2 SWAP1 PUSH2 0x2371 JUMP JUMPDEST PUSH1 0x40 MLOAD DUP1 SWAP2 SUB SWAP1 RETURN JUMPDEST CALLVALUE DUP1 ISZERO PUSH2 0x625 JUMPI PUSH1 0x0 DUP1 REVERT JUMPDEST POP PUSH2 0x640 PUSH1 0x4 DUP1 CALLDATASIZE SUB DUP2 ADD SWAP1 PUSH2 0x63B SWAP2 SWAP1 PUSH2 0x2469 JUMP JUMPDEST PUSH2 0x1092 JUMP JUMPDEST STOP JUMPDEST CALLVALUE DUP1 ISZERO PUSH2 0x64E JUMPI PUSH1 0x0 DUP1 REVERT JUMPDEST POP PUSH2 0x669 PUSH1 0x4 DUP1 CALLDATASIZE SUB DUP2 ADD SWAP1 PUSH2 0x664 SWAP2 SWAP1 PUSH2 0x22EC JUMP JUMPDEST PUSH2 0x1181 JUMP JUMPDEST PUSH1 0x40 MLOAD PUSH2 0x676 SWAP2 SWAP1 PUSH2 0x2347 JUMP JUMPDEST PUSH1 0x40 MLOAD DUP1 SWAP2 SUB SWAP1 RETURN JUMPDEST CALLVALUE DUP1 ISZERO PUSH2 0x68B JUMPI PUSH1 0x0 DUP1 REVERT JUMPDEST POP PUSH2 0x6A6 PUSH1 0x4 DUP1 CALLDATASIZE SUB DUP2 ADD SWAP1 PUSH2 0x6A1 SWAP2 SWAP1 PUSH2 0x22EC JUMP JUMPDEST PUSH2 0x11F8 JUMP JUMPDEST PUSH1 0x40 MLOAD PUSH2 0x6B3 SWAP2 SWAP1 PUSH2 0x2347 JUMP JUMPDEST PUSH1 0x40 MLOAD DUP1 SWAP2 SUB SWAP1 RETURN JUMPDEST CALLVALUE DUP1 ISZERO PUSH2 0x6C8 JUMPI PUSH1 0x0 DUP1 REVERT JUMPDEST POP PUSH2 0x6D1 PUSH2 0x123F JUMP JUMPDEST PUSH1 0x40 MLOAD PUSH2 0x6DE SWAP2 SWAP1 PUSH2 0x2371 JUMP JUMPDEST PUSH1 0x40 MLOAD DUP1 SWAP2 SUB SWAP1 RETURN JUMPDEST CALLVALUE DUP1 ISZERO PUSH2 0x6F3 JUMPI PUSH1 0x0 DUP1 REVERT JUMPDEST POP PUSH2 0x70E PUSH1 0x4 DUP1 CALLDATASIZE SUB DUP2 ADD SWAP1 PUSH2 0x709 SWAP2 SWAP1 PUSH2 0x21D7 JUMP JUMPDEST PUSH2 0x1245 JUMP JUMPDEST PUSH1 0x40 MLOAD PUSH2 0x71B SWAP2 SWAP1 PUSH2 0x2371 JUMP JUMPDEST PUSH1 0x40 MLOAD DUP1 SWAP2 SUB SWAP1 RETURN JUMPDEST CALLVALUE DUP1 ISZERO PUSH2 0x730 JUMPI PUSH1 0x0 DUP1 REVERT JUMPDEST POP PUSH2 0x739 PUSH2 0x125D JUMP JUMPDEST PUSH1 0x40 MLOAD PUSH2 0x746 SWAP2 SWAP1 PUSH2 0x2347 JUMP JUMPDEST PUSH1 0x40 MLOAD DUP1 SWAP2 SUB SWAP1 RETURN JUMPDEST CALLVALUE DUP1 ISZERO PUSH2 0x75B JUMPI PUSH1 0x0 DUP1 REVERT JUMPDEST POP PUSH2 0x764 PUSH2 0x126E JUMP JUMPDEST PUSH1 0x40 MLOAD PUSH2 0x771 SWAP2 SWAP1 PUSH2 0x2371 JUMP JUMPDEST PUSH1 0x40 MLOAD DUP1 SWAP2 SUB SWAP1 RETURN JUMPDEST CALLVALUE DUP1 ISZERO PUSH2 0x786 JUMPI PUSH1 0x0 DUP1 REVERT JUMPDEST POP PUSH2 0x7A1 PUSH1 0x4 DUP1 CALLDATASIZE SUB DUP2 ADD SWAP1 PUSH2 0x79C SWAP2 SWAP1 PUSH2 0x2567 JUMP JUMPDEST PUSH2 0x1274 JUMP JUMPDEST STOP JUMPDEST CALLVALUE DUP1 ISZERO PUSH2 0x7AF JUMPI PUSH1 0x0 DUP1 REVERT JUMPDEST POP PUSH2 0x7B8 PUSH2 0x12D7 JUMP JUMPDEST PUSH1 0x40 MLOAD PUSH2 0x7C5 SWAP2 SWAP1 PUSH2 0x2371 JUMP JUMPDEST PUSH1 0x40 MLOAD DUP1 SWAP2 SUB SWAP1 RETURN JUMPDEST CALLVALUE DUP1 ISZERO PUSH2 0x7DA JUMPI PUSH1 0x0 DUP1 REVERT JUMPDEST POP PUSH2 0x7F5 PUSH1 0x4 DUP1 CALLDATASIZE SUB DUP2 ADD SWAP1 PUSH2 0x7F0 SWAP2 SWAP1 PUSH2 0x21D7 JUMP JUMPDEST PUSH2 0x12DD JUMP JUMPDEST PUSH1 0x40 MLOAD PUSH2 0x802 SWAP2 SWAP1 PUSH2 0x2347 JUMP JUMPDEST PUSH1 0x40 MLOAD DUP1 SWAP2 SUB SWAP1 RETURN JUMPDEST CALLVALUE DUP1 ISZERO PUSH2 0x817 JUMPI PUSH1 0x0 DUP1 REVERT JUMPDEST POP PUSH2 0x820 PUSH2 0x12FD JUMP JUMPDEST PUSH1 0x40 MLOAD PUSH2 0x82D SWAP2 SWAP1 PUSH2 0x2371 JUMP JUMPDEST PUSH1 0x40 MLOAD DUP1 SWAP2 SUB SWAP1 RETURN JUMPDEST CALLVALUE DUP1 ISZERO PUSH2 0x842 JUMPI PUSH1 0x0 DUP1 REVERT JUMPDEST POP PUSH2 0x84B PUSH2 0x1303 JUMP JUMPDEST PUSH1 0x40 MLOAD PUSH2 0x858 SWAP2 SWAP1 PUSH2 0x24A5 JUMP JUMPDEST PUSH1 0x40 MLOAD DUP1 SWAP2 SUB SWAP1 RETURN JUMPDEST CALLVALUE DUP1 ISZERO PUSH2 0x86D JUMPI PUSH1 0x0 DUP1 REVERT JUMPDEST POP PUSH2 0x888 PUSH1 0x4 DUP1 CALLDATASIZE SUB DUP2 ADD SWAP1 PUSH2 0x883 SWAP2 SWAP1 PUSH2 0x25A7 JUMP JUMPDEST PUSH2 0x1329 JUMP JUMPDEST PUSH1 0x40 MLOAD PUSH2 0x895 SWAP2 SWAP1 PUSH2 0x2371 JUMP JUMPDEST PUSH1 0x40 MLOAD DUP1 SWAP2 SUB SWAP1 RETURN JUMPDEST CALLVALUE DUP1 ISZERO PUSH2 0x8AA JUMPI PUSH1 0x0 DUP1 REVERT JUMPDEST POP PUSH2 0x8C5 PUSH1 0x4 DUP1 CALLDATASIZE SUB DUP2 ADD SWAP1 PUSH2 0x8C0 SWAP2 SWAP1 PUSH2 0x21D7 JUMP JUMPDEST PUSH2 0x13B0 JUMP JUMPDEST STOP JUMPDEST CALLVALUE DUP1 ISZERO PUSH2 0x8D3 JUMPI PUSH1 0x0 DUP1 REVERT JUMPDEST POP PUSH2 0x8DC PUSH2 0x1433 JUMP JUMPDEST PUSH1 0x40 MLOAD PUSH2 0x8E9 SWAP2 SWAP1 PUSH2 0x2371 JUMP JUMPDEST PUSH1 0x40 MLOAD DUP1 SWAP2 SUB SWAP1 RETURN JUMPDEST CALLVALUE DUP1 ISZERO PUSH2 0x8FE JUMPI PUSH1 0x0 DUP1 REVERT JUMPDEST POP PUSH2 0x907 PUSH2 0x1439 JUMP JUMPDEST PUSH1 0x40 MLOAD PUSH2 0x914 SWAP2 SWAP1 PUSH2 0x24A5 JUMP JUMPDEST PUSH1 0x40 MLOAD DUP1 SWAP2 SUB SWAP1 RETURN JUMPDEST PUSH2 0x925 PUSH2 0x145F JUMP JUMPDEST DUP1 PUSH1 0xF PUSH1 0x0 PUSH2 0x100 EXP DUP2 SLOAD DUP2 PUSH20 0xFFFFFFFFFFFFFFFFFFFFFFFFFFFFFFFFFFFFFFFF MUL NOT AND SWAP1 DUP4 PUSH20 0xFFFFFFFFFFFFFFFFFFFFFFFFFFFFFFFFFFFFFFFF AND MUL OR SWAP1 SSTORE POP POP JUMP JUMPDEST PUSH1 0x60 PUSH1 0x3 DUP1 SLOAD PUSH2 0x978 SWAP1 PUSH2 0x2616 JUMP JUMPDEST DUP1 PUSH1 0x1F ADD PUSH1 0x20 DUP1 SWAP2 DIV MUL PUSH1 0x20 ADD PUSH1 0x40 MLOAD SWAP1 DUP2 ADD PUSH1 0x40 MSTORE DUP1 SWAP3 SWAP2 SWAP1 DUP2 DUP2 MSTORE PUSH1 0x20 ADD DUP3 DUP1 SLOAD PUSH2 0x9A4 SWAP1 PUSH2 0x2616 JUMP JUMPDEST DUP1 ISZERO PUSH2 0x9F1 JUMPI DUP1 PUSH1 0x1F LT PUSH2 0x9C6 JUMPI PUSH2 0x100 DUP1 DUP4 SLOAD DIV MUL DUP4 MSTORE SWAP2 PUSH1 0x20 ADD SWAP2 PUSH2 0x9F1 JUMP JUMPDEST DUP3 ADD SWAP2 SWAP1 PUSH1 0x0 MSTORE PUSH1 0x20 PUSH1 0x0 KECCAK256 SWAP1 JUMPDEST DUP2 SLOAD DUP2 MSTORE SWAP1 PUSH1 0x1 ADD SWAP1 PUSH1 0x20 ADD DUP1 DUP4 GT PUSH2 0x9D4 JUMPI DUP3 SWAP1 SUB PUSH1 0x1F AND DUP3 ADD SWAP2 JUMPDEST POP POP POP POP POP SWAP1 POP SWAP1 JUMP JUMPDEST PUSH1 0x0 DUP1 PUSH2 0xA06 PUSH2 0x14DD JUMP JUMPDEST SWAP1 POP PUSH2 0xA13 DUP2 DUP6 DUP6 PUSH2 0x14E5 JUMP JUMPDEST PUSH1 0x1 SWAP2 POP POP SWAP3 SWAP2 POP POP JUMP JUMPDEST PUSH2 0xA26 PUSH2 0x145F JUMP JUMPDEST PUSH1 0x14 DUP1 SLOAD SWAP1 PUSH2 0x100 EXP SWAP1 DIV PUSH1 0xFF AND ISZERO PUSH2 0xA74 JUMPI PUSH1 0x40 MLOAD PUSH32 0x8C379A000000000000000000000000000000000000000000000000000000000 DUP2 MSTORE PUSH1 0x4 ADD PUSH2 0xA6B SWAP1 PUSH2 0x2693 JUMP JUMPDEST PUSH1 0x40 MLOAD DUP1 SWAP2 SUB SWAP1 REVERT JUMPDEST PUSH1 0x1 PUSH1 0x14 DUP1 PUSH2 0x100 EXP DUP2 SLOAD DUP2 PUSH1 0xFF MUL NOT AND SWAP1 DUP4 ISZERO ISZERO MUL OR SWAP1 SSTORE POP JUMP JUMPDEST PUSH1 0x0 PUSH1 0x2 SLOAD SWAP1 POP SWAP1 JUMP JUMPDEST PUSH2 0xAA2 PUSH2 0x145F JUMP JUMPDEST DUP1 PUSH1 0x10 PUSH1 0x0 PUSH2 0x100 EXP DUP2 SLOAD DUP2 PUSH20 0xFFFFFFFFFFFFFFFFFFFFFFFFFFFFFFFFFFFFFFFF MUL NOT AND SWAP1 DUP4 PUSH20 0xFFFFFFFFFFFFFFFFFFFFFFFFFFFFFFFFFFFFFFFF AND MUL OR SWAP1 SSTORE POP POP JUMP JUMPDEST PUSH1 0x0 DUP1 PUSH2 0xAF1 PUSH2 0x14DD JUMP JUMPDEST SWAP1 POP PUSH2 0xAFE DUP6 DUP3 DUP6 PUSH2 0x16AE JUMP JUMPDEST PUSH2 0xB09 DUP6 DUP6 DUP6 PUSH2 0x173A JUMP JUMPDEST PUSH1 0x1 SWAP2 POP POP SWAP4 SWAP3 POP POP POP JUMP JUMPDEST PUSH1 0x0 PUSH1 0x12 SWAP1 POP SWAP1 JUMP JUMPDEST PUSH1 0x0 DUP1 PUSH2 0xB29 PUSH2 0x14DD JUMP JUMPDEST SWAP1 POP PUSH2 0xB4A DUP2 DUP6 DUP6 PUSH2 0xB3B DUP6 DUP10 PUSH2 0x1329 JUMP JUMPDEST PUSH2 0xB45 SWAP2 SWAP1 PUSH2 0x26E2 JUMP JUMPDEST PUSH2 0x14E5 JUMP JUMPDEST PUSH1 0x1 SWAP2 POP POP SWAP3 SWAP2 POP POP JUMP JUMPDEST PUSH2 0xB5D PUSH2 0x145F JUMP JUMPDEST DUP3 PUSH1 0xC DUP2 SWAP1 SSTORE POP DUP2 PUSH1 0xD DUP2 SWAP1 SSTORE POP DUP1 PUSH1 0xE DUP2 SWAP1 SSTORE POP PUSH32 0x139005E5694A782FEC3918800DDA36F893FDED6CB7B9603C19B14F62575361CE DUP4 DUP4 DUP4 PUSH1 0x40 MLOAD PUSH2 0xBA5 SWAP4 SWAP3 SWAP2 SWAP1 PUSH2 0x2716 JUMP JUMPDEST PUSH1 0x40 MLOAD DUP1 SWAP2 SUB SWAP1 LOG1 POP POP POP JUMP JUMPDEST PUSH1 0x7 SLOAD DUP2 JUMP JUMPDEST PUSH2 0xBC0 PUSH2 0x19B0 JUMP JUMPDEST PUSH1 0x0 PUSH20 0xFFFFFFFFFFFFFFFFFFFFFFFFFFFFFFFFFFFFFFFF AND PUSH1 0xF PUSH1 0x0 SWAP1 SLOAD SWAP1 PUSH2 0x100 EXP SWAP1 DIV PUSH20 0xFFFFFFFFFFFFFFFFFFFFFFFFFFFFFFFFFFFFFFFF AND PUSH20 0xFFFFFFFFFFFFFFFFFFFFFFFFFFFFFFFFFFFFFFFF AND SUB PUSH2 0xC51 JUMPI PUSH1 0x40 MLOAD PUSH32 0x8C379A000000000000000000000000000000000000000000000000000000000 DUP2 MSTORE PUSH1 0x4 ADD PUSH2 0xC48 SWAP1 PUSH2 0x2799 JUMP JUMPDEST PUSH1 0x40 MLOAD DUP1 SWAP2 SUB SWAP1 REVERT JUMPDEST PUSH1 0x0 DUP2 GT PUSH2 0xC94 JUMPI PUSH1 0x40 MLOAD PUSH32 0x8C379A000000000000000000000000000000000000000000000000000000000 DUP2 MSTORE PUSH1 0x4 ADD PUSH2 0xC8B SWAP1 PUSH2 0x2805 JUMP JUMPDEST PUSH1 0x40 MLOAD DUP1 SWAP2 SUB SWAP1 REVERT JUMPDEST PUSH1 0x0 CALLVALUE GT PUSH2 0xCD7 JUMPI PUSH1 0x40 MLOAD PUSH32 0x8C379A000000000000000000000000000000000000000000000000000000000 DUP2 MSTORE PUSH1 0x4 ADD PUSH2 0xCCE SWAP1 PUSH2 0x2897 JUMP JUMPDEST PUSH1 0x40 MLOAD DUP1 SWAP2 SUB SWAP1 REVERT JUMPDEST PUSH2 0xD04 CALLER PUSH1 0xF PUSH1 0x0 SWAP1 SLOAD SWAP1 PUSH2 0x100 EXP SWAP1 DIV PUSH20 0xFFFFFFFFFFFFFFFFFFFFFFFFFFFFFFFFFFFFFFFF AND DUP4 PUSH2 0x173A JUMP JUMPDEST CALLER PUSH20 0xFFFFFFFFFFFFFFFFFFFFFFFFFFFFFFFFFFFFFFFF AND PUSH32 0xBEB3885786D637A474CBC287C0A44587231633A077F0BD30354D5A4B18996FCE DUP3 CALLVALUE PUSH1 0x0 PUSH1 0x40 MLOAD PUSH2 0xD4F SWAP4 SWAP3 SWAP2 SWAP1 PUSH2 0x28FC JUMP JUMPDEST PUSH1 0x40 MLOAD DUP1 SWAP2 SUB SWAP1 LOG2 PUSH2 0xD5F PUSH2 0x19FF JUMP JUMPDEST POP JUMP JUMPDEST PUSH1 0xF PUSH1 0x0 SWAP1 SLOAD SWAP1 PUSH2 0x100 EXP SWAP1 DIV PUSH20 0xFFFFFFFFFFFFFFFFFFFFFFFFFFFFFFFFFFFFFFFF AND DUP2 JUMP JUMPDEST PUSH1 0xB SLOAD DUP2 JUMP JUMPDEST PUSH1 0xA SLOAD DUP2 JUMP JUMPDEST PUSH2 0xD9C PUSH2 0x19B0 JUMP JUMPDEST PUSH1 0x0 PUSH2 0xDC9 PUSH1 0x13 PUSH1 0x0 SWAP1 SLOAD SWAP1 PUSH2 0x100 EXP SWAP1 DIV PUSH20 0xFFFFFFFFFFFFFFFFFFFFFFFFFFFFFFFFFFFFFFFF AND PUSH2 0xE19 JUMP JUMPDEST SWAP1 POP PUSH1 0x0 DUP2 GT PUSH2 0xE0E JUMPI PUSH1 0x40 MLOAD PUSH32 0x8C379A000000000000000000000000000000000000000000000000000000000 DUP2 MSTORE PUSH1 0x4 ADD PUSH2 0xE05 SWAP1 PUSH2 0x297F JUMP JUMPDEST PUSH1 0x40 MLOAD DUP1 SWAP2 SUB SWAP1 REVERT JUMPDEST POP PUSH2 0xE17 PUSH2 0x19FF JUMP JUMPDEST JUMP JUMPDEST PUSH1 0x0 DUP1 PUSH1 0x0 DUP4 PUSH20 0xFFFFFFFFFFFFFFFFFFFFFFFFFFFFFFFFFFFFFFFF AND PUSH20 0xFFFFFFFFFFFFFFFFFFFFFFFFFFFFFFFFFFFFFFFF AND DUP2 MSTORE PUSH1 0x20 ADD SWAP1 DUP2 MSTORE PUSH1 0x20 ADD PUSH1 0x0 KECCAK256 SLOAD SWAP1 POP SWAP2 SWAP1 POP JUMP JUMPDEST PUSH2 0xE69 PUSH2 0x145F JUMP JUMPDEST PUSH2 0xE73 PUSH1 0x0 PUSH2 0x1A09 JUMP JUMPDEST JUMP JUMPDEST PUSH2 0xE7D PUSH2 0x145F JUMP JUMPDEST DUP5 DUP2 DUP4 DUP6 PUSH2 0xE8B SWAP2 SWAP1 PUSH2 0x26E2 JUMP JUMPDEST PUSH2 0xE95 SWAP2 SWAP1 PUSH2 0x26E2 JUMP JUMPDEST GT ISZERO PUSH2 0xED6 JUMPI PUSH1 0x40 MLOAD PUSH32 0x8C379A000000000000000000000000000000000000000000000000000000000 DUP2 MSTORE PUSH1 0x4 ADD PUSH2 0xECD SWAP1 PUSH2 0x2A11 JUMP JUMPDEST PUSH1 0x40 MLOAD DUP1 SWAP2 SUB SWAP1 REVERT JUMPDEST DUP4 DUP2 DUP4 DUP6 PUSH2 0xEE4 SWAP2 SWAP1 PUSH2 0x26E2 JUMP JUMPDEST PUSH2 0xEEE SWAP2 SWAP1 PUSH2 0x26E2 JUMP JUMPDEST GT ISZERO PUSH2 0xF2F JUMPI PUSH1 0x40 MLOAD PUSH32 0x8C379A000000000000000000000000000000000000000000000000000000000 DUP2 MSTORE PUSH1 0x4 ADD PUSH2 0xF26 SWAP1 PUSH2 0x2AA3 JUMP JUMPDEST PUSH1 0x40 MLOAD DUP1 SWAP2 SUB SWAP1 REVERT JUMPDEST DUP5 PUSH1 0x7 DUP2 SWAP1 SSTORE POP DUP4 PUSH1 0x8 DUP2 SWAP1 SSTORE POP DUP3 PUSH1 0x9 DUP2 SWAP1 SSTORE POP DUP2 PUSH1 0xA DUP2 SWAP1 SSTORE POP DUP1 PUSH1 0xB DUP2 SWAP1 SSTORE POP PUSH32 0x7D66AFA8A3DFF3C2F621FB5123D93148E893B59875E6558680C0B6A6B5957F02 DUP6 DUP6 DUP6 DUP6 DUP6 PUSH1 0x40 MLOAD PUSH2 0xF89 SWAP6 SWAP5 SWAP4 SWAP3 SWAP2 SWAP1 PUSH2 0x2AC3 JUMP JUMPDEST PUSH1 0x40 MLOAD DUP1 SWAP2 SUB SWAP1 LOG1 POP POP POP POP POP JUMP JUMPDEST PUSH1 0x0 PUSH1 0x5 PUSH1 0x0 SWAP1 SLOAD SWAP1 PUSH2 0x100 EXP SWAP1 DIV PUSH20 0xFFFFFFFFFFFFFFFFFFFFFFFFFFFFFFFFFFFFFFFF AND SWAP1 POP SWAP1 JUMP JUMPDEST PUSH1 0x10 PUSH1 0x0 SWAP1 SLOAD SWAP1 PUSH2 0x100 EXP SWAP1 DIV PUSH20 0xFFFFFFFFFFFFFFFFFFFFFFFFFFFFFFFFFFFFFFFF AND DUP2 JUMP JUMPDEST PUSH1 0x60 PUSH1 0x4 DUP1 SLOAD PUSH2 0xFF7 SWAP1 PUSH2 0x2616 JUMP JUMPDEST DUP1 PUSH1 0x1F ADD PUSH1 0x20 DUP1 SWAP2 DIV MUL PUSH1 0x20 ADD PUSH1 0x40 MLOAD SWAP1 DUP2 ADD PUSH1 0x40 MSTORE DUP1 SWAP3 SWAP2 SWAP1 DUP2 DUP2 MSTORE PUSH1 0x20 ADD DUP3 DUP1 SLOAD PUSH2 0x1023 SWAP1 PUSH2 0x2616 JUMP JUMPDEST DUP1 ISZERO PUSH2 0x1070 JUMPI DUP1 PUSH1 0x1F LT PUSH2 0x1045 JUMPI PUSH2 0x100 DUP1 DUP4 SLOAD DIV MUL DUP4 MSTORE SWAP2 PUSH1 0x20 ADD SWAP2 PUSH2 0x1070 JUMP JUMPDEST DUP3 ADD SWAP2 SWAP1 PUSH1 0x0 MSTORE PUSH1 0x20 PUSH1 0x0 KECCAK256 SWAP1 JUMPDEST DUP2 SLOAD DUP2 MSTORE SWAP1 PUSH1 0x1 ADD SWAP1 PUSH1 0x20 ADD DUP1 DUP4 GT PUSH2 0x1053 JUMPI DUP3 SWAP1 SUB PUSH1 0x1F AND DUP3 ADD SWAP2 JUMPDEST POP POP POP POP POP SWAP1 POP SWAP1 JUMP JUMPDEST PUSH1 0x11 PUSH1 0x20 MSTORE DUP1 PUSH1 0x0 MSTORE PUSH1 0x40 PUSH1 0x0 KECCAK256 PUSH1 0x0 SWAP2 POP SWAP1 POP SLOAD DUP2 JUMP JUMPDEST PUSH2 0x109A PUSH2 0x19B0 JUMP JUMPDEST PUSH2 0x10A2 PUSH2 0x145F JUMP JUMPDEST PUSH1 0x0 PUSH20 0xFFFFFFFFFFFFFFFFFFFFFFFFFFFFFFFFFFFFFFFF AND PUSH1 0xF PUSH1 0x0 SWAP1 SLOAD SWAP1 PUSH2 0x100 EXP SWAP1 DIV PUSH20 0xFFFFFFFFFFFFFFFFFFFFFFFFFFFFFFFFFFFFFFFF AND PUSH20 0xFFFFFFFFFFFFFFFFFFFFFFFFFFFFFFFFFFFFFFFF AND SUB PUSH2 0x1133 JUMPI PUSH1 0x40 MLOAD PUSH32 0x8C379A000000000000000000000000000000000000000000000000000000000 DUP2 MSTORE PUSH1 0x4 ADD PUSH2 0x112A SWAP1 PUSH2 0x2799 JUMP JUMPDEST PUSH1 0x40 MLOAD DUP1 SWAP2 SUB SWAP1 REVERT JUMPDEST PUSH1 0x0 DUP2 GT PUSH2 0x1176 JUMPI PUSH1 0x40 MLOAD PUSH32 0x8C379A000000000000000000000000000000000000000000000000000000000 DUP2 MSTORE PUSH1 0x4 ADD PUSH2 0x116D SWAP1 PUSH2 0x2805 JUMP JUMPDEST PUSH1 0x40 MLOAD DUP1 SWAP2 SUB SWAP1 REVERT JUMPDEST PUSH2 0x117E PUSH2 0x19FF JUMP JUMPDEST POP JUMP JUMPDEST PUSH1 0x0 DUP1 PUSH2 0x118C PUSH2 0x14DD JUMP JUMPDEST SWAP1 POP PUSH1 0x0 PUSH2 0x119A DUP3 DUP7 PUSH2 0x1329 JUMP JUMPDEST SWAP1 POP DUP4 DUP2 LT ISZERO PUSH2 0x11DF JUMPI PUSH1 0x40 MLOAD PUSH32 0x8C379A000000000000000000000000000000000000000000000000000000000 DUP2 MSTORE PUSH1 0x4 ADD PUSH2 0x11D6 SWAP1 PUSH2 0x2B88 JUMP JUMPDEST PUSH1 0x40 MLOAD DUP1 SWAP2 SUB SWAP1 REVERT JUMPDEST PUSH2 0x11EC DUP3 DUP7 DUP7 DUP5 SUB PUSH2 0x14E5 JUMP JUMPDEST PUSH1 0x1 SWAP3 POP POP POP SWAP3 SWAP2 POP POP JUMP JUMPDEST PUSH1 0x0 PUSH2 0x120C PUSH2 0x1205 PUSH2 0x14DD JUMP JUMPDEST DUP5 DUP5 PUSH2 0x1ACF JUMP JUMPDEST PUSH1 0x0 PUSH2 0x1220 PUSH2 0x1219 PUSH2 0x14DD JUMP JUMPDEST DUP6 DUP6 PUSH2 0x1E87 JUMP JUMPDEST SWAP1 POP PUSH2 0x1234 PUSH2 0x122D PUSH2 0x14DD JUMP JUMPDEST DUP6 DUP4 PUSH2 0x173A JUMP JUMPDEST PUSH1 0x1 SWAP2 POP POP SWAP3 SWAP2 POP POP JUMP JUMPDEST PUSH1 0xD SLOAD DUP2 JUMP JUMPDEST PUSH1 0x12 PUSH1 0x20 MSTORE DUP1 PUSH1 0x0 MSTORE PUSH1 0x40 PUSH1 0x0 KECCAK256 PUSH1 0x0 SWAP2 POP SWAP1 POP SLOAD DUP2 JUMP JUMPDEST PUSH1 0x14 DUP1 SLOAD SWAP1 PUSH2 0x100 EXP SWAP1 DIV PUSH1 0xFF AND DUP2 JUMP JUMPDEST PUSH1 0x9 SLOAD DUP2 JUMP JUMPDEST PUSH2 0x127C PUSH2 0x145F JUMP JUMPDEST DUP1 PUSH1 0x15 PUSH1 0x0 DUP5 PUSH20 0xFFFFFFFFFFFFFFFFFFFFFFFFFFFFFFFFFFFFFFFF AND PUSH20 0xFFFFFFFFFFFFFFFFFFFFFFFFFFFFFFFFFFFFFFFF AND DUP2 MSTORE PUSH1 0x20 ADD SWAP1 DUP2 MSTORE PUSH1 0x20 ADD PUSH1 0x0 KECCAK256 PUSH1 0x0 PUSH2 0x100 EXP DUP2 SLOAD DUP2 PUSH1 0xFF MUL NOT AND SWAP1 DUP4 ISZERO ISZERO MUL OR SWAP1 SSTORE POP POP POP JUMP JUMPDEST PUSH1 0xC SLOAD DUP2 JUMP JUMPDEST PUSH1 0x15 PUSH1 0x20 MSTORE DUP1 PUSH1 0x0 MSTORE PUSH1 0x40 PUSH1 0x0 KECCAK256 PUSH1 0x0 SWAP2 POP SLOAD SWAP1 PUSH2 0x100 EXP SWAP1 DIV PUSH1 0xFF AND DUP2 JUMP JUMPDEST PUSH1 0x8 SLOAD DUP2 JUMP JUMPDEST PUSH1 0x14 PUSH1 0x0 SWAP1 SLOAD SWAP1 PUSH2 0x100 EXP SWAP1 DIV PUSH20 0xFFFFFFFFFFFFFFFFFFFFFFFFFFFFFFFFFFFFFFFF AND DUP2 JUMP JUMPDEST PUSH1 0x0 PUSH1 0x1 PUSH1 0x0 DUP5 PUSH20 0xFFFFFFFFFFFFFFFFFFFFFFFFFFFFFFFFFFFFFFFF AND PUSH20 0xFFFFFFFFFFFFFFFFFFFFFFFFFFFFFFFFFFFFFFFF AND DUP2 MSTORE PUSH1 0x20 ADD SWAP1 DUP2 MSTORE PUSH1 0x20 ADD PUSH1 0x0 KECCAK256 PUSH1 0x0 DUP4 PUSH20 0xFFFFFFFFFFFFFFFFFFFFFFFFFFFFFFFFFFFFFFFF AND PUSH20 0xFFFFFFFFFFFFFFFFFFFFFFFFFFFFFFFFFFFFFFFF AND DUP2 MSTORE PUSH1 0x20 ADD SWAP1 DUP2 MSTORE PUSH1 0x20 ADD PUSH1 0x0 KECCAK256 SLOAD SWAP1 POP SWAP3 SWAP2 POP POP JUMP JUMPDEST PUSH2 0x13B8 PUSH2 0x145F JUMP JUMPDEST PUSH1 0x0 PUSH20 0xFFFFFFFFFFFFFFFFFFFFFFFFFFFFFFFFFFFFFFFF AND DUP2 PUSH20 0xFFFFFFFFFFFFFFFFFFFFFFFFFFFFFFFFFFFFFFFF AND SUB PUSH2 0x1427 JUMPI PUSH1 0x40 MLOAD PUSH32 0x8C379A000000000000000000000000000000000000000000000000000000000 DUP2 MSTORE PUSH1 0x4 ADD PUSH2 0x141E SWAP1 PUSH2 0x2C1A JUMP JUMPDEST PUSH1 0x40 MLOAD DUP1 SWAP2 SUB SWAP1 REVERT JUMPDEST PUSH2 0x1430 DUP2 PUSH2 0x1A09 JUMP JUMPDEST POP JUMP JUMPDEST PUSH1 0xE SLOAD DUP2 JUMP JUMPDEST PUSH1 0x13 PUSH1 0x0 SWAP1 SLOAD SWAP1 PUSH2 0x100 EXP SWAP1 DIV PUSH20 0xFFFFFFFFFFFFFFFFFFFFFFFFFFFFFFFFFFFFFFFF AND DUP2 JUMP JUMPDEST PUSH2 0x1467 PUSH2 0x14DD JUMP JUMPDEST PUSH20 0xFFFFFFFFFFFFFFFFFFFFFFFFFFFFFFFFFFFFFFFF AND PUSH2 0x1485 PUSH2 0xF98 JUMP JUMPDEST PUSH20 0xFFFFFFFFFFFFFFFFFFFFFFFFFFFFFFFFFFFFFFFF AND EQ PUSH2 0x14DB JUMPI PUSH1 0x40 MLOAD PUSH32 0x8C379A000000000000000000000000000000000000000000000000000000000 DUP2 MSTORE PUSH1 0x4 ADD PUSH2 0x14D2 SWAP1 PUSH2 0x2C86 JUMP JUMPDEST PUSH1 0x40 MLOAD DUP1 SWAP2 SUB SWAP1 REVERT JUMPDEST JUMP JUMPDEST PUSH1 0x0 CALLER SWAP1 POP SWAP1 JUMP JUMPDEST PUSH1 0x0 PUSH20 0xFFFFFFFFFFFFFFFFFFFFFFFFFFFFFFFFFFFFFFFF AND DUP4 PUSH20 0xFFFFFFFFFFFFFFFFFFFFFFFFFFFFFFFFFFFFFFFF AND SUB PUSH2 0x1554 JUMPI PUSH1 0x40 MLOAD PUSH32 0x8C379A000000000000000000000000000000000000000000000000000000000 DUP2 MSTORE PUSH1 0x4 ADD PUSH2 0x154B SWAP1 PUSH2 0x2D18 JUMP JUMPDEST PUSH1 0x40 MLOAD DUP1 SWAP2 SUB SWAP1 REVERT JUMPDEST PUSH1 0x0 PUSH20 0xFFFFFFFFFFFFFFFFFFFFFFFFFFFFFFFFFFFFFFFF AND DUP3 PUSH20 0xFFFFFFFFFFFFFFFFFFFFFFFFFFFFFFFFFFFFFFFF AND SUB PUSH2 0x15C3 JUMPI PUSH1 0x40 MLOAD PUSH32 0x8C379A000000000000000000000000000000000000000000000000000000000 DUP2 MSTORE PUSH1 0x4 ADD PUSH2 0x15BA SWAP1 PUSH2 0x2DAA JUMP JUMPDEST PUSH1 0x40 MLOAD DUP1 SWAP2 SUB SWAP1 REVERT JUMPDEST DUP1 PUSH1 0x1 PUSH1 0x0 DUP6 PUSH20 0xFFFFFFFFFFFFFFFFFFFFFFFFFFFFFFFFFFFFFFFF AND PUSH20 0xFFFFFFFFFFFFFFFFFFFFFFFFFFFFFFFFFFFFFFFF AND DUP2 MSTORE PUSH1 0x20 ADD SWAP1 DUP2 MSTORE PUSH1 0x20 ADD PUSH1 0x0 KECCAK256 PUSH1 0x0 DUP5 PUSH20 0xFFFFFFFFFFFFFFFFFFFFFFFFFFFFFFFFFFFFFFFF AND PUSH20 0xFFFFFFFFFFFFFFFFFFFFFFFFFFFFFFFFFFFFFFFF AND DUP2 MSTORE PUSH1 0x20 ADD SWAP1 DUP2 MSTORE PUSH1 0x20 ADD PUSH1 0x0 KECCAK256 DUP2 SWAP1 SSTORE POP DUP2 PUSH20 0xFFFFFFFFFFFFFFFFFFFFFFFFFFFFFFFFFFFFFFFF AND DUP4 PUSH20 0xFFFFFFFFFFFFFFFFFFFFFFFFFFFFFFFFFFFFFFFF AND PUSH32 0x8C5BE1E5EBEC7D5BD14F71427D1E84F3DD0314C0F7B2291E5B200AC8C7C3B925 DUP4 PUSH1 0x40 MLOAD PUSH2 0x16A1 SWAP2 SWAP1 PUSH2 0x2371 JUMP JUMPDEST PUSH1 0x40 MLOAD DUP1 SWAP2 SUB SWAP1 LOG3 POP POP POP JUMP JUMPDEST PUSH1 0x0 PUSH2 0x16BA DUP5 DUP5 PUSH2 0x1329 JUMP JUMPDEST SWAP1 POP PUSH32 0xFFFFFFFFFFFFFFFFFFFFFFFFFFFFFFFFFFFFFFFFFFFFFFFFFFFFFFFFFFFFFFFF DUP2 EQ PUSH2 0x1734 JUMPI DUP2 DUP2 LT ISZERO PUSH2 0x1726 JUMPI PUSH1 0x40 MLOAD PUSH32 0x8C379A000000000000000000000000000000000000000000000000000000000 DUP2 MSTORE PUSH1 0x4 ADD PUSH2 0x171D SWAP1 PUSH2 0x2E16 JUMP JUMPDEST PUSH1 0x40 MLOAD DUP1 SWAP2 SUB SWAP1 REVERT JUMPDEST PUSH2 0x1733 DUP5 DUP5 DUP5 DUP5 SUB PUSH2 0x14E5 JUMP JUMPDEST JUMPDEST POP POP POP POP JUMP JUMPDEST PUSH1 0x0 PUSH20 0xFFFFFFFFFFFFFFFFFFFFFFFFFFFFFFFFFFFFFFFF AND DUP4 PUSH20 0xFFFFFFFFFFFFFFFFFFFFFFFFFFFFFFFFFFFFFFFF AND SUB PUSH2 0x17A9 JUMPI PUSH1 0x40 MLOAD PUSH32 0x8C379A000000000000000000000000000000000000000000000000000000000 DUP2 MSTORE PUSH1 0x4 ADD PUSH2 0x17A0 SWAP1 PUSH2 0x2EA8 JUMP JUMPDEST PUSH1 0x40 MLOAD DUP1 SWAP2 SUB SWAP1 REVERT JUMPDEST PUSH1 0x0 PUSH20 0xFFFFFFFFFFFFFFFFFFFFFFFFFFFFFFFFFFFFFFFF AND DUP3 PUSH20 0xFFFFFFFFFFFFFFFFFFFFFFFFFFFFFFFFFFFFFFFF AND SUB PUSH2 0x1818 JUMPI PUSH1 0x40 MLOAD PUSH32 0x8C379A000000000000000000000000000000000000000000000000000000000 DUP2 MSTORE PUSH1 0x4 ADD PUSH2 0x180F SWAP1 PUSH2 0x2F3A JUMP JUMPDEST PUSH1 0x40 MLOAD DUP1 SWAP2 SUB SWAP1 REVERT JUMPDEST PUSH2 0x1823 DUP4 DUP4 DUP4 PUSH2 0x20B6 JUMP JUMPDEST PUSH1 0x0 DUP1 PUSH1 0x0 DUP6 PUSH20 0xFFFFFFFFFFFFFFFFFFFFFFFFFFFFFFFFFFFFFFFF AND PUSH20 0xFFFFFFFFFFFFFFFFFFFFFFFFFFFFFFFFFFFFFFFF AND DUP2 MSTORE PUSH1 0x20 ADD SWAP1 DUP2 MSTORE PUSH1 0x20 ADD PUSH1 0x0 KECCAK256 SLOAD SWAP1 POP DUP2 DUP2 LT ISZERO PUSH2 0x18A9 JUMPI PUSH1 0x40 MLOAD PUSH32 0x8C379A000000000000000000000000000000000000000000000000000000000 DUP2 MSTORE PUSH1 0x4 ADD PUSH2 0x18A0 SWAP1 PUSH2 0x2FCC JUMP JUMPDEST PUSH1 0x40 MLOAD DUP1 SWAP2 SUB SWAP1 REVERT JUMPDEST DUP2 DUP2 SUB PUSH1 0x0 DUP1 DUP7 PUSH20 0xFFFFFFFFFFFFFFFFFFFFFFFFFFFFFFFFFFFFFFFF AND PUSH20 0xFFFFFFFFFFFFFFFFFFFFFFFFFFFFFFFFFFFFFFFF AND DUP2 MSTORE PUSH1 0x20 ADD SWAP1 DUP2 MSTORE PUSH1 0x20 ADD PUSH1 0x0 KECCAK256 DUP2 SWAP1 SSTORE POP DUP2 PUSH1 0x0 DUP1 DUP6 PUSH20 0xFFFFFFFFFFFFFFFFFFFFFFFFFFFFFFFFFFFFFFFF AND PUSH20 0xFFFFFFFFFFFFFFFFFFFFFFFFFFFFFFFFFFFFFFFF AND DUP2 MSTORE PUSH1 0x20 ADD SWAP1 DUP2 MSTORE PUSH1 0x20 ADD PUSH1 0x0 KECCAK256 PUSH1 0x0 DUP3 DUP3 SLOAD ADD SWAP3 POP POP DUP2 SWAP1 SSTORE POP DUP3 PUSH20 0xFFFFFFFFFFFFFFFFFFFFFFFFFFFFFFFFFFFFFFFF AND DUP5 PUSH20 0xFFFFFFFFFFFFFFFFFFFFFFFFFFFFFFFFFFFFFFFF AND PUSH32 0xDDF252AD1BE2C89B69C2B068FC378DAA952BA7F163C4A11628F55A4DF523B3EF DUP5 PUSH1 0x40 MLOAD PUSH2 0x1997 SWAP2 SWAP1 PUSH2 0x2371 JUMP JUMPDEST PUSH1 0x40 MLOAD DUP1 SWAP2 SUB SWAP1 LOG3 PUSH2 0x19AA DUP5 DUP5 DUP5 PUSH2 0x20BB JUMP JUMPDEST POP POP POP POP JUMP JUMPDEST PUSH1 0x2 PUSH1 0x6 SLOAD SUB PUSH2 0x19F5 JUMPI PUSH1 0x40 MLOAD PUSH32 0x8C379A000000000000000000000000000000000000000000000000000000000 DUP2 MSTORE PUSH1 0x4 ADD PUSH2 0x19EC SWAP1 PUSH2 0x3038 JUMP JUMPDEST PUSH1 0x40 MLOAD DUP1 SWAP2 SUB SWAP1 REVERT JUMPDEST PUSH1 0x2 PUSH1 0x6 DUP2 SWAP1 SSTORE POP JUMP JUMPDEST PUSH1 0x1 PUSH1 0x6 DUP2 SWAP1 SSTORE POP JUMP JUMPDEST PUSH1 0x0 PUSH1 0x5 PUSH1 0x0 SWAP1 SLOAD SWAP1 PUSH2 0x100 EXP SWAP1 DIV PUSH20 0xFFFFFFFFFFFFFFFFFFFFFFFFFFFFFFFFFFFFFFFF AND SWAP1 POP DUP2 PUSH1 0x5 PUSH1 0x0 PUSH2 0x100 EXP DUP2 SLOAD DUP2 PUSH20 0xFFFFFFFFFFFFFFFFFFFFFFFFFFFFFFFFFFFFFFFF MUL NOT AND SWAP1 DUP4 PUSH20 0xFFFFFFFFFFFFFFFFFFFFFFFFFFFFFFFFFFFFFFFF AND MUL OR SWAP1 SSTORE POP DUP2 PUSH20 0xFFFFFFFFFFFFFFFFFFFFFFFFFFFFFFFFFFFFFFFF AND DUP2 PUSH20 0xFFFFFFFFFFFFFFFFFFFFFFFFFFFFFFFFFFFFFFFF AND PUSH32 0x8BE0079C531659141344CD1FD0A4F28419497F9722A3DAAFE3B4186F6B6457E0 PUSH1 0x40 MLOAD PUSH1 0x40 MLOAD DUP1 SWAP2 SUB SWAP1 LOG3 POP POP JUMP JUMPDEST PUSH1 0x14 DUP1 SLOAD SWAP1 PUSH2 0x100 EXP SWAP1 DIV PUSH1 0xFF AND DUP1 PUSH2 0x1B31 JUMPI POP PUSH1 0x15 PUSH1 0x0 DUP5 PUSH20 0xFFFFFFFFFFFFFFFFFFFFFFFFFFFFFFFFFFFFFFFF AND PUSH20 0xFFFFFFFFFFFFFFFFFFFFFFFFFFFFFFFFFFFFFFFF AND DUP2 MSTORE PUSH1 0x20 ADD SWAP1 DUP2 MSTORE PUSH1 0x20 ADD PUSH1 0x0 KECCAK256 PUSH1 0x0 SWAP1 SLOAD SWAP1 PUSH2 0x100 EXP SWAP1 DIV PUSH1 0xFF AND JUMPDEST PUSH2 0x1B70 JUMPI PUSH1 0x40 MLOAD PUSH32 0x8C379A000000000000000000000000000000000000000000000000000000000 DUP2 MSTORE PUSH1 0x4 ADD PUSH2 0x1B67 SWAP1 PUSH2 0x30A4 JUMP JUMPDEST PUSH1 0x40 MLOAD DUP1 SWAP2 SUB SWAP1 REVERT JUMPDEST PUSH1 0x15 PUSH1 0x0 DUP5 PUSH20 0xFFFFFFFFFFFFFFFFFFFFFFFFFFFFFFFFFFFFFFFF AND PUSH20 0xFFFFFFFFFFFFFFFFFFFFFFFFFFFFFFFFFFFFFFFF AND DUP2 MSTORE PUSH1 0x20 ADD SWAP1 DUP2 MSTORE PUSH1 0x20 ADD PUSH1 0x0 KECCAK256 PUSH1 0x0 SWAP1 SLOAD SWAP1 PUSH2 0x100 EXP SWAP1 DIV PUSH1 0xFF AND ISZERO DUP1 ISZERO PUSH2 0x1C14 JUMPI POP PUSH1 0x15 PUSH1 0x0 DUP4 PUSH20 0xFFFFFFFFFFFFFFFFFFFFFFFFFFFFFFFFFFFFFFFF AND PUSH20 0xFFFFFFFFFFFFFFFFFFFFFFFFFFFFFFFFFFFFFFFF AND DUP2 MSTORE PUSH1 0x20 ADD SWAP1 DUP2 MSTORE PUSH1 0x20 ADD PUSH1 0x0 KECCAK256 PUSH1 0x0 SWAP1 SLOAD SWAP1 PUSH2 0x100 EXP SWAP1 DIV PUSH1 0xFF AND ISZERO JUMPDEST ISZERO PUSH2 0x1E82 JUMPI PUSH1 0xC SLOAD DUP2 GT ISZERO PUSH2 0x1C5E JUMPI PUSH1 0x40 MLOAD PUSH32 0x8C379A000000000000000000000000000000000000000000000000000000000 DUP2 MSTORE PUSH1 0x4 ADD PUSH2 0x1C55 SWAP1 PUSH2 0x3110 JUMP JUMPDEST PUSH1 0x40 MLOAD DUP1 SWAP2 SUB SWAP1 REVERT JUMPDEST PUSH2 0x1C67 DUP4 PUSH2 0x20C0 JUMP JUMPDEST ISZERO PUSH2 0x1CC5 JUMPI PUSH1 0xD SLOAD DUP2 PUSH2 0x1C79 DUP5 PUSH2 0xE19 JUMP JUMPDEST PUSH2 0x1C83 SWAP2 SWAP1 PUSH2 0x26E2 JUMP JUMPDEST GT ISZERO PUSH2 0x1CC4 JUMPI PUSH1 0x40 MLOAD PUSH32 0x8C379A000000000000000000000000000000000000000000000000000000000 DUP2 MSTORE PUSH1 0x4 ADD PUSH2 0x1CBB SWAP1 PUSH2 0x317C JUMP JUMPDEST PUSH1 0x40 MLOAD DUP1 SWAP2 SUB SWAP1 REVERT JUMPDEST JUMPDEST PUSH1 0x0 PUSH3 0x15180 TIMESTAMP PUSH2 0x1CD6 SWAP2 SWAP1 PUSH2 0x31CB JUMP JUMPDEST SWAP1 POP DUP1 PUSH1 0x12 PUSH1 0x0 DUP7 PUSH20 0xFFFFFFFFFFFFFFFFFFFFFFFFFFFFFFFFFFFFFFFF AND PUSH20 0xFFFFFFFFFFFFFFFFFFFFFFFFFFFFFFFFFFFFFFFF AND DUP2 MSTORE PUSH1 0x20 ADD SWAP1 DUP2 MSTORE PUSH1 0x20 ADD PUSH1 0x0 KECCAK256 SLOAD EQ PUSH2 0x1DA8 JUMPI DUP1 PUSH1 0x12 PUSH1 0x0 DUP7 PUSH20 0xFFFFFFFFFFFFFFFFFFFFFFFFFFFFFFFFFFFFFFFF AND PUSH20 0xFFFFFFFFFFFFFFFFFFFFFFFFFFFFFFFFFFFFFFFF AND DUP2 MSTORE PUSH1 0x20 ADD SWAP1 DUP2 MSTORE PUSH1 0x20 ADD PUSH1 0x0 KECCAK256 DUP2 SWAP1 SSTORE POP PUSH1 0x0 PUSH1 0x11 PUSH1 0x0 DUP7 PUSH20 0xFFFFFFFFFFFFFFFFFFFFFFFFFFFFFFFFFFFFFFFF AND PUSH20 0xFFFFFFFFFFFFFFFFFFFFFFFFFFFFFFFFFFFFFFFF AND DUP2 MSTORE PUSH1 0x20 ADD SWAP1 DUP2 MSTORE PUSH1 0x20 ADD PUSH1 0x0 KECCAK256 DUP2 SWAP1 SSTORE POP JUMPDEST PUSH1 0xE SLOAD PUSH1 0x11 PUSH1 0x0 DUP7 PUSH20 0xFFFFFFFFFFFFFFFFFFFFFFFFFFFFFFFFFFFFFFFF AND PUSH20 0xFFFFFFFFFFFFFFFFFFFFFFFFFFFFFFFFFFFFFFFF AND DUP2 MSTORE PUSH1 0x20 ADD SWAP1 DUP2 MSTORE PUSH1 0x20 ADD PUSH1 0x0 KECCAK256 SLOAD LT PUSH2 0x1E2B JUMPI PUSH1 0x40 MLOAD PUSH32 0x8C379A000000000000000000000000000000000000000000000000000000000 DUP2 MSTORE PUSH1 0x4 ADD PUSH2 0x1E22 SWAP1 PUSH2 0x3248 JUMP JUMPDEST PUSH1 0x40 MLOAD DUP1 SWAP2 SUB SWAP1 REVERT JUMPDEST PUSH1 0x11 PUSH1 0x0 DUP6 PUSH20 0xFFFFFFFFFFFFFFFFFFFFFFFFFFFFFFFFFFFFFFFF AND PUSH20 0xFFFFFFFFFFFFFFFFFFFFFFFFFFFFFFFFFFFFFFFF AND DUP2 MSTORE PUSH1 0x20 ADD SWAP1 DUP2 MSTORE PUSH1 0x20 ADD PUSH1 0x0 KECCAK256 PUSH1 0x0 DUP2 SLOAD DUP1 SWAP3 SWAP2 SWAP1 PUSH2 0x1E7B SWAP1 PUSH2 0x3268 JUMP JUMPDEST SWAP2 SWAP1 POP SSTORE POP POP JUMPDEST POP POP POP JUMP JUMPDEST PUSH1 0x0 PUSH1 0x15 PUSH1 0x0 DUP6 PUSH20 0xFFFFFFFFFFFFFFFFFFFFFFFFFFFFFFFFFFFFFFFF AND PUSH20 0xFFFFFFFFFFFFFFFFFFFFFFFFFFFFFFFFFFFFFFFF AND DUP2 MSTORE PUSH1 0x20 ADD SWAP1 DUP2 MSTORE PUSH1 0x20 ADD PUSH1 0x0 KECCAK256 PUSH1 0x0 SWAP1 SLOAD SWAP1 PUSH2 0x100 EXP SWAP1 DIV PUSH1 0xFF AND DUP1 PUSH2 0x1F2A JUMPI POP PUSH1 0x15 PUSH1 0x0 DUP5 PUSH20 0xFFFFFFFFFFFFFFFFFFFFFFFFFFFFFFFFFFFFFFFF AND PUSH20 0xFFFFFFFFFFFFFFFFFFFFFFFFFFFFFFFFFFFFFFFF AND DUP2 MSTORE PUSH1 0x20 ADD SWAP1 DUP2 MSTORE PUSH1 0x20 ADD PUSH1 0x0 KECCAK256 PUSH1 0x0 SWAP1 SLOAD SWAP1 PUSH2 0x100 EXP SWAP1 DIV PUSH1 0xFF AND JUMPDEST ISZERO PUSH2 0x1F37 JUMPI DUP2 SWAP1 POP PUSH2 0x20AF JUMP JUMPDEST PUSH1 0x0 PUSH2 0x1F42 DUP5 PUSH2 0x211A JUMP JUMPDEST PUSH2 0x1F63 JUMPI PUSH2 0x1F4F DUP6 PUSH2 0x20C0 JUMP JUMPDEST PUSH2 0x1F5A JUMPI PUSH1 0x0 PUSH2 0x1F5E JUMP JUMPDEST PUSH1 0x7 SLOAD JUMPDEST PUSH2 0x1F67 JUMP JUMPDEST PUSH1 0x8 SLOAD JUMPDEST SWAP1 POP PUSH1 0x0 DUP2 SUB PUSH2 0x1F7A JUMPI DUP3 SWAP2 POP POP PUSH2 0x20AF JUMP JUMPDEST PUSH1 0x0 PUSH1 0x64 DUP3 DUP6 PUSH2 0x1F8A SWAP2 SWAP1 PUSH2 0x32B0 JUMP JUMPDEST PUSH2 0x1F94 SWAP2 SWAP1 PUSH2 0x31CB JUMP JUMPDEST SWAP1 POP PUSH1 0x0 DUP2 DUP6 PUSH2 0x1FA4 SWAP2 SWAP1 PUSH2 0x32F2 JUMP JUMPDEST SWAP1 POP PUSH1 0x0 PUSH1 0x64 PUSH1 0x9 SLOAD DUP8 PUSH2 0x1FB8 SWAP2 SWAP1 PUSH2 0x32B0 JUMP JUMPDEST PUSH2 0x1FC2 SWAP2 SWAP1 PUSH2 0x31CB JUMP JUMPDEST SWAP1 POP PUSH1 0x0 PUSH1 0x64 PUSH1 0xA SLOAD DUP9 PUSH2 0x1FD6 SWAP2 SWAP1 PUSH2 0x32B0 JUMP JUMPDEST PUSH2 0x1FE0 SWAP2 SWAP1 PUSH2 0x31CB JUMP JUMPDEST SWAP1 POP PUSH1 0x0 PUSH1 0x64 PUSH1 0xB SLOAD DUP10 PUSH2 0x1FF4 SWAP2 SWAP1 PUSH2 0x32B0 JUMP JUMPDEST PUSH2 0x1FFE SWAP2 SWAP1 PUSH2 0x31CB JUMP JUMPDEST SWAP1 POP PUSH1 0x0 DUP4 GT ISZERO PUSH2 0x2037 JUMPI PUSH2 0x2036 DUP11 PUSH1 0x14 PUSH1 0x0 SWAP1 SLOAD SWAP1 PUSH2 0x100 EXP SWAP1 DIV PUSH20 0xFFFFFFFFFFFFFFFFFFFFFFFFFFFFFFFFFFFFFFFF AND DUP6 PUSH2 0x173A JUMP JUMPDEST JUMPDEST PUSH1 0x0 DUP3 GT ISZERO PUSH2 0x206E JUMPI PUSH2 0x206D DUP11 PUSH1 0x13 PUSH1 0x0 SWAP1 SLOAD SWAP1 PUSH2 0x100 EXP SWAP1 DIV PUSH20 0xFFFFFFFFFFFFFFFFFFFFFFFFFFFFFFFFFFFFFFFF AND DUP5 PUSH2 0x173A JUMP JUMPDEST JUMPDEST PUSH1 0x0 DUP2 GT ISZERO PUSH2 0x20A5 JUMPI PUSH2 0x20A4 DUP11 PUSH1 0x10 PUSH1 0x0 SWAP1 SLOAD SWAP1 PUSH2 0x100 EXP SWAP1 DIV PUSH20 0xFFFFFFFFFFFFFFFFFFFFFFFFFFFFFFFFFFFFFFFF AND DUP4 PUSH2 0x173A JUMP JUMPDEST JUMPDEST DUP4 SWAP7 POP POP POP POP POP POP POP JUMPDEST SWAP4 SWAP3 POP POP POP JUMP JUMPDEST POP POP POP JUMP JUMPDEST POP POP POP JUMP JUMPDEST PUSH1 0x0 PUSH1 0xF PUSH1 0x0 SWAP1 SLOAD SWAP1 PUSH2 0x100 EXP SWAP1 DIV PUSH20 0xFFFFFFFFFFFFFFFFFFFFFFFFFFFFFFFFFFFFFFFF AND PUSH20 0xFFFFFFFFFFFFFFFFFFFFFFFFFFFFFFFFFFFFFFFF AND DUP3 PUSH20 0xFFFFFFFFFFFFFFFFFFFFFFFFFFFFFFFFFFFFFFFF AND EQ SWAP1 POP SWAP2 SWAP1 POP JUMP JUMPDEST PUSH1 0x0 PUSH1 0xF PUSH1 0x0 SWAP1 SLOAD SWAP1 PUSH2 0x100 EXP SWAP1 DIV PUSH20 0xFFFFFFFFFFFFFFFFFFFFFFFFFFFFFFFFFFFFFFFF AND PUSH20 0xFFFFFFFFFFFFFFFFFFFFFFFFFFFFFFFFFFFFFFFF AND DUP3 PUSH20 0xFFFFFFFFFFFFFFFFFFFFFFFFFFFFFFFFFFFFFFFF AND EQ SWAP1 POP SWAP2 SWAP1 POP JUMP JUMPDEST PUSH1 0x0 DUP1 REVERT JUMPDEST PUSH1 0x0 PUSH20 0xFFFFFFFFFFFFFFFFFFFFFFFFFFFFFFFFFFFFFFFF DUP3 AND SWAP1 POP SWAP2 SWAP1 POP JUMP JUMPDEST PUSH1 0x0 PUSH2 0x21A4 DUP3 PUSH2 0x2179 JUMP JUMPDEST SWAP1 POP SWAP2 SWAP1 POP JUMP JUMPDEST PUSH2 0x21B4 DUP2 PUSH2 0x2199 JUMP JUMPDEST DUP2 EQ PUSH2 0x21BF JUMPI PUSH1 0x0 DUP1 REVERT JUMPDEST POP JUMP JUMPDEST PUSH1 0x0 DUP2 CALLDATALOAD SWAP1 POP PUSH2 0x21D1 DUP2 PUSH2 0x21AB JUMP JUMPDEST SWAP3 SWAP2 POP POP JUMP JUMPDEST PUSH1 0x0 PUSH1 0x20 DUP3 DUP5 SUB SLT ISZERO PUSH2 0x21ED JUMPI PUSH2 0x21EC PUSH2 0x2174 JUMP JUMPDEST JUMPDEST PUSH1 0x0 PUSH2 0x21FB DUP5 DUP3 DUP6 ADD PUSH2 0x21C2 JUMP JUMPDEST SWAP2 POP POP SWAP3 SWAP2 POP POP JUMP JUMPDEST PUSH1 0x0 DUP2 MLOAD SWAP1 POP SWAP2 SWAP1 POP JUMP JUMPDEST PUSH1 0x0 DUP3 DUP3 MSTORE PUSH1 0x20 DUP3 ADD SWAP1 POP SWAP3 SWAP2 POP POP JUMP JUMPDEST PUSH1 0x0 JUMPDEST DUP4 DUP2 LT ISZERO PUSH2 0x223E JUMPI DUP1 DUP3 ADD MLOAD DUP2 DUP5 ADD MSTORE PUSH1 0x20 DUP2 ADD SWAP1 POP PUSH2 0x2223 JUMP JUMPDEST PUSH1 0x0 DUP5 DUP5 ADD MSTORE POP POP POP POP JUMP JUMPDEST PUSH1 0x0 PUSH1 0x1F NOT PUSH1 0x1F DUP4 ADD AND SWAP1 POP SWAP2 SWAP1 POP JUMP JUMPDEST PUSH1 0x0 PUSH2 0x2266 DUP3 PUSH2 0x2204 JUMP JUMPDEST PUSH2 0x2270 DUP2 DUP6 PUSH2 0x220F JUMP JUMPDEST SWAP4 POP PUSH2 0x2280 DUP2 DUP6 PUSH1 0x20 DUP7 ADD PUSH2 0x2220 JUMP JUMPDEST PUSH2 0x2289 DUP2 PUSH2 0x224A JUMP JUMPDEST DUP5 ADD SWAP2 POP POP SWAP3 SWAP2 POP POP JUMP JUMPDEST PUSH1 0x0 PUSH1 0x20 DUP3 ADD SWAP1 POP DUP2 DUP2 SUB PUSH1 0x0 DUP4 ADD MSTORE PUSH2 0x22AE DUP2 DUP5 PUSH2 0x225B JUMP JUMPDEST SWAP1 POP SWAP3 SWAP2 POP POP JUMP JUMPDEST PUSH1 0x0 DUP2 SWAP1 POP SWAP2 SWAP1 POP JUMP JUMPDEST PUSH2 0x22C9 DUP2 PUSH2 0x22B6 JUMP JUMPDEST DUP2 EQ PUSH2 0x22D4 JUMPI PUSH1 0x0 DUP1 REVERT JUMPDEST POP JUMP JUMPDEST PUSH1 0x0 DUP2 CALLDATALOAD SWAP1 POP PUSH2 0x22E6 DUP2 PUSH2 0x22C0 JUMP JUMPDEST SWAP3 SWAP2 POP POP JUMP JUMPDEST PUSH1 0x0 DUP1 PUSH1 0x40 DUP4 DUP6 SUB SLT ISZERO PUSH2 0x2303 JUMPI PUSH2 0x2302 PUSH2 0x2174 JUMP JUMPDEST JUMPDEST PUSH1 0x0 PUSH2 0x2311 DUP6 DUP3 DUP7 ADD PUSH2 0x21C2 JUMP JUMPDEST SWAP3 POP POP PUSH1 0x20 PUSH2 0x2322 DUP6 DUP3 DUP7 ADD PUSH2 0x22D7 JUMP JUMPDEST SWAP2 POP POP SWAP3 POP SWAP3 SWAP1 POP JUMP JUMPDEST PUSH1 0x0 DUP2 ISZERO ISZERO SWAP1 POP SWAP2 SWAP1 POP JUMP JUMPDEST PUSH2 0x2341 DUP2 PUSH2 0x232C JUMP JUMPDEST DUP3 MSTORE POP POP JUMP JUMPDEST PUSH1 0x0 PUSH1 0x20 DUP3 ADD SWAP1 POP PUSH2 0x235C PUSH1 0x0 DUP4 ADD DUP5 PUSH2 0x2338 JUMP JUMPDEST SWAP3 SWAP2 POP POP JUMP JUMPDEST PUSH2 0x236B DUP2 PUSH2 0x22B6 JUMP JUMPDEST DUP3 MSTORE POP POP JUMP JUMPDEST PUSH1 0x0 PUSH1 0x20 DUP3 ADD SWAP1 POP PUSH2 0x2386 PUSH1 0x0 DUP4 ADD DUP5 PUSH2 0x2362 JUMP JUMPDEST SWAP3 SWAP2 POP POP JUMP JUMPDEST PUSH1 0x0 DUP1 PUSH1 0x0 PUSH1 0x60 DUP5 DUP7 SUB SLT ISZERO PUSH2 0x23A5 JUMPI PUSH2 0x23A4 PUSH2 0x2174 JUMP JUMPDEST JUMPDEST PUSH1 0x0 PUSH2 0x23B3 DUP7 DUP3 DUP8 ADD PUSH2 0x21C2 JUMP JUMPDEST SWAP4 POP POP PUSH1 0x20 PUSH2 0x23C4 DUP7 DUP3 DUP8 ADD PUSH2 0x21C2 JUMP JUMPDEST SWAP3 POP POP PUSH1 0x40 PUSH2 0x23D5 DUP7 DUP3 DUP8 ADD PUSH2 0x22D7 JUMP JUMPDEST SWAP2 POP POP SWAP3 POP SWAP3 POP SWAP3 JUMP JUMPDEST PUSH1 0x0 PUSH1 0xFF DUP3 AND SWAP1 POP SWAP2 SWAP1 POP JUMP JUMPDEST PUSH2 0x23F5 DUP2 PUSH2 0x23DF JUMP JUMPDEST DUP3 MSTORE POP POP JUMP JUMPDEST PUSH1 0x0 PUSH1 0x20 DUP3 ADD SWAP1 POP PUSH2 0x2410 PUSH1 0x0 DUP4 ADD DUP5 PUSH2 0x23EC JUMP JUMPDEST SWAP3 SWAP2 POP POP JUMP JUMPDEST PUSH1 0x0 DUP1 PUSH1 0x0 PUSH1 0x60 DUP5 DUP7 SUB SLT ISZERO PUSH2 0x242F JUMPI PUSH2 0x242E PUSH2 0x2174 JUMP JUMPDEST JUMPDEST PUSH1 0x0 PUSH2 0x243D DUP7 DUP3 DUP8 ADD PUSH2 0x22D7 JUMP JUMPDEST SWAP4 POP POP PUSH1 0x20 PUSH2 0x244E DUP7 DUP3 DUP8 ADD PUSH2 0x22D7 JUMP JUMPDEST SWAP3 POP POP PUSH1 0x40 PUSH2 0x245F DUP7 DUP3 DUP8 ADD PUSH2 0x22D7 JUMP JUMPDEST SWAP2 POP POP SWAP3 POP SWAP3 POP SWAP3 JUMP JUMPDEST PUSH1 0x0 PUSH1 0x20 DUP3 DUP5 SUB SLT ISZERO PUSH2 0x247F JUMPI PUSH2 0x247E PUSH2 0x2174 JUMP JUMPDEST JUMPDEST PUSH1 0x0 PUSH2 0x248D DUP5 DUP3 DUP6 ADD PUSH2 0x22D7 JUMP JUMPDEST SWAP2 POP POP SWAP3 SWAP2 POP POP JUMP JUMPDEST PUSH2 0x249F DUP2 PUSH2 0x2199 JUMP JUMPDEST DUP3 MSTORE POP POP JUMP JUMPDEST PUSH1 0x0 PUSH1 0x20 DUP3 ADD SWAP1 POP PUSH2 0x24BA PUSH1 0x0 DUP4 ADD DUP5 PUSH2 0x2496 JUMP JUMPDEST SWAP3 SWAP2 POP POP JUMP JUMPDEST PUSH1 0x0 DUP1 PUSH1 0x0 DUP1 PUSH1 0x0 PUSH1 0xA0 DUP7 DUP9 SUB SLT ISZERO PUSH2 0x24DC JUMPI PUSH2 0x24DB PUSH2 0x2174 JUMP JUMPDEST JUMPDEST PUSH1 0x0 PUSH2 0x24EA DUP9 DUP3 DUP10 ADD PUSH2 0x22D7 JUMP JUMPDEST SWAP6 POP POP PUSH1 0x20 PUSH2 0x24FB DUP9 DUP3 DUP10 ADD PUSH2 0x22D7 JUMP JUMPDEST SWAP5 POP POP PUSH1 0x40 PUSH2 0x250C DUP9 DUP3 DUP10 ADD PUSH2 0x22D7 JUMP JUMPDEST SWAP4 POP POP PUSH1 0x60 PUSH2 0x251D DUP9 DUP3 DUP10 ADD PUSH2 0x22D7 JUMP JUMPDEST SWAP3 POP POP PUSH1 0x80 PUSH2 0x252E DUP9 DUP3 DUP10 ADD PUSH2 0x22D7 JUMP JUMPDEST SWAP2 POP POP SWAP3 SWAP6 POP SWAP3 SWAP6 SWAP1 SWAP4 POP JUMP JUMPDEST PUSH2 0x2544 DUP2 PUSH2 0x232C JUMP JUMPDEST DUP2 EQ PUSH2 0x254F JUMPI PUSH1 0x0 DUP1 REVERT JUMPDEST POP JUMP JUMPDEST PUSH1 0x0 DUP2 CALLDATALOAD SWAP1 POP PUSH2 0x2561 DUP2 PUSH2 0x253B JUMP JUMPDEST SWAP3 SWAP2 POP POP JUMP JUMPDEST PUSH1 0x0 DUP1 PUSH1 0x40 DUP4 DUP6 SUB SLT ISZERO PUSH2 0x257E JUMPI PUSH2 0x257D PUSH2 0x2174 JUMP JUMPDEST JUMPDEST PUSH1 0x0 PUSH2 0x258C DUP6 DUP3 DUP7 ADD PUSH2 0x21C2 JUMP JUMPDEST SWAP3 POP POP PUSH1 0x20 PUSH2 0x259D DUP6 DUP3 DUP7 ADD PUSH2 0x2552 JUMP JUMPDEST SWAP2 POP POP SWAP3 POP SWAP3 SWAP1 POP JUMP JUMPDEST PUSH1 0x0 DUP1 PUSH1 0x40 DUP4 DUP6 SUB SLT ISZERO PUSH2 0x25BE JUMPI PUSH2 0x25BD PUSH2 0x2174 JUMP JUMPDEST JUMPDEST PUSH1 0x0 PUSH2 0x25CC DUP6 DUP3 DUP7 ADD PUSH2 0x21C2 JUMP JUMPDEST SWAP3 POP POP PUSH1 0x20 PUSH2 0x25DD DUP6 DUP3 DUP7 ADD PUSH2 0x21C2 JUMP JUMPDEST SWAP2 POP POP SWAP3 POP SWAP3 SWAP1 POP JUMP JUMPDEST PUSH32 0x4E487B7100000000000000000000000000000000000000000000000000000000 PUSH1 0x0 MSTORE PUSH1 0x22 PUSH1 0x4 MSTORE PUSH1 0x24 PUSH1 0x0 REVERT JUMPDEST PUSH1 0x0 PUSH1 0x2 DUP3 DIV SWAP1 POP PUSH1 0x1 DUP3 AND DUP1 PUSH2 0x262E JUMPI PUSH1 0x7F DUP3 AND SWAP2 POP JUMPDEST PUSH1 0x20 DUP3 LT DUP2 SUB PUSH2 0x2641 JUMPI PUSH2 0x2640 PUSH2 0x25E7 JUMP JUMPDEST JUMPDEST POP SWAP2 SWAP1 POP JUMP JUMPDEST PUSH32 0x54726164696E6720616C72656164792061637469766500000000000000000000 PUSH1 0x0 DUP3 ADD MSTORE POP JUMP JUMPDEST PUSH1 0x0 PUSH2 0x267D PUSH1 0x16 DUP4 PUSH2 0x220F JUMP JUMPDEST SWAP2 POP PUSH2 0x2688 DUP3 PUSH2 0x2647 JUMP JUMPDEST PUSH1 0x20 DUP3 ADD SWAP1 POP SWAP2 SWAP1 POP JUMP JUMPDEST PUSH1 0x0 PUSH1 0x20 DUP3 ADD SWAP1 POP DUP2 DUP2 SUB PUSH1 0x0 DUP4 ADD MSTORE PUSH2 0x26AC DUP2 PUSH2 0x2670 JUMP JUMPDEST SWAP1 POP SWAP2 SWAP1 POP JUMP JUMPDEST PUSH32 0x4E487B7100000000000000000000000000000000000000000000000000000000 PUSH1 0x0 MSTORE PUSH1 0x11 PUSH1 0x4 MSTORE PUSH1 0x24 PUSH1 0x0 REVERT JUMPDEST PUSH1 0x0 PUSH2 0x26ED DUP3 PUSH2 0x22B6 JUMP JUMPDEST SWAP2 POP PUSH2 0x26F8 DUP4 PUSH2 0x22B6 JUMP JUMPDEST SWAP3 POP DUP3 DUP3 ADD SWAP1 POP DUP1 DUP3 GT ISZERO PUSH2 0x2710 JUMPI PUSH2 0x270F PUSH2 0x26B3 JUMP JUMPDEST JUMPDEST SWAP3 SWAP2 POP POP JUMP JUMPDEST PUSH1 0x0 PUSH1 0x60 DUP3 ADD SWAP1 POP PUSH2 0x272B PUSH1 0x0 DUP4 ADD DUP7 PUSH2 0x2362 JUMP JUMPDEST PUSH2 0x2738 PUSH1 0x20 DUP4 ADD DUP6 PUSH2 0x2362 JUMP JUMPDEST PUSH2 0x2745 PUSH1 0x40 DUP4 ADD DUP5 PUSH2 0x2362 JUMP JUMPDEST SWAP5 SWAP4 POP POP POP POP JUMP JUMPDEST PUSH32 0x4C697175696469747920706F6F6C206E6F742073657400000000000000000000 PUSH1 0x0 DUP3 ADD MSTORE POP JUMP JUMPDEST PUSH1 0x0 PUSH2 0x2783 PUSH1 0x16 DUP4 PUSH2 0x220F JUMP JUMPDEST SWAP2 POP PUSH2 0x278E DUP3 PUSH2 0x274D JUMP JUMPDEST PUSH1 0x20 DUP3 ADD SWAP1 POP SWAP2 SWAP1 POP JUMP JUMPDEST PUSH1 0x0 PUSH1 0x20 DUP3 ADD SWAP1 POP DUP2 DUP2 SUB PUSH1 0x0 DUP4 ADD MSTORE PUSH2 0x27B2 DUP2 PUSH2 0x2776 JUMP JUMPDEST SWAP1 POP SWAP2 SWAP1 POP JUMP JUMPDEST PUSH32 0x416D6F756E74206D7573742062652067726561746572207468616E2030000000 PUSH1 0x0 DUP3 ADD MSTORE POP JUMP JUMPDEST PUSH1 0x0 PUSH2 0x27EF PUSH1 0x1D DUP4 PUSH2 0x220F JUMP JUMPDEST SWAP2 POP PUSH2 0x27FA DUP3 PUSH2 0x27B9 JUMP JUMPDEST PUSH1 0x20 DUP3 ADD SWAP1 POP SWAP2 SWAP1 POP JUMP JUMPDEST PUSH1 0x0 PUSH1 0x20 DUP3 ADD SWAP1 POP DUP2 DUP2 SUB PUSH1 0x0 DUP4 ADD MSTORE PUSH2 0x281E DUP2 PUSH2 0x27E2 JUMP JUMPDEST SWAP1 POP SWAP2 SWAP1 POP JUMP JUMPDEST PUSH32 0x45544820616D6F756E74206D7573742062652067726561746572207468616E20 PUSH1 0x0 DUP3 ADD MSTORE PUSH32 0x3000000000000000000000000000000000000000000000000000000000000000 PUSH1 0x20 DUP3 ADD MSTORE POP JUMP JUMPDEST PUSH1 0x0 PUSH2 0x2881 PUSH1 0x21 DUP4 PUSH2 0x220F JUMP JUMPDEST SWAP2 POP PUSH2 0x288C DUP3 PUSH2 0x2825 JUMP JUMPDEST PUSH1 0x40 DUP3 ADD SWAP1 POP SWAP2 SWAP1 POP JUMP JUMPDEST PUSH1 0x0 PUSH1 0x20 DUP3 ADD SWAP1 POP DUP2 DUP2 SUB PUSH1 0x0 DUP4 ADD MSTORE PUSH2 0x28B0 DUP2 PUSH2 0x2874 JUMP JUMPDEST SWAP1 POP SWAP2 SWAP1 POP JUMP JUMPDEST PUSH1 0x0 DUP2 SWAP1 POP SWAP2 SWAP1 POP JUMP JUMPDEST PUSH1 0x0 DUP2 SWAP1 POP SWAP2 SWAP1 POP JUMP JUMPDEST PUSH1 0x0 PUSH2 0x28E6 PUSH2 0x28E1 PUSH2 0x28DC DUP5 PUSH2 0x28B7 JUMP JUMPDEST PUSH2 0x28C1 JUMP JUMPDEST PUSH2 0x22B6 JUMP JUMPDEST SWAP1 POP SWAP2 SWAP1 POP JUMP JUMPDEST PUSH2 0x28F6 DUP2 PUSH2 0x28CB JUMP JUMPDEST DUP3 MSTORE POP POP JUMP JUMPDEST PUSH1 0x0 PUSH1 0x60 DUP3 ADD SWAP1 POP PUSH2 0x2911 PUSH1 0x0 DUP4 ADD DUP7 PUSH2 0x2362 JUMP JUMPDEST PUSH2 0x291E PUSH1 0x20 DUP4 ADD DUP6 PUSH2 0x2362 JUMP JUMPDEST PUSH2 0x292B PUSH1 0x40 DUP4 ADD DUP5 PUSH2 0x28ED JUMP JUMPDEST SWAP5 SWAP4 POP POP POP POP JUMP JUMPDEST PUSH32 0x4E6F207265776172647320746F20646973747269627574650000000000000000 PUSH1 0x0 DUP3 ADD MSTORE POP JUMP JUMPDEST PUSH1 0x0 PUSH2 0x2969 PUSH1 0x18 DUP4 PUSH2 0x220F JUMP JUMPDEST SWAP2 POP PUSH2 0x2974 DUP3 PUSH2 0x2933 JUMP JUMPDEST PUSH1 0x20 DUP3 ADD SWAP1 POP SWAP2 SWAP1 POP JUMP JUMPDEST PUSH1 0x0 PUSH1 0x20 DUP3 ADD SWAP1 POP DUP2 DUP2 SUB PUSH1 0x0 DUP4 ADD MSTORE PUSH2 0x2998 DUP2 PUSH2 0x295C JUMP JUMPDEST SWAP1 POP SWAP2 SWAP1 POP JUMP JUMPDEST PUSH32 0x4275792074617820636F6D706F6E656E74732065786365656420746F74616C20 PUSH1 0x0 DUP3 ADD MSTORE PUSH32 0x6275792074617800000000000000000000000000000000000000000000000000 PUSH1 0x20 DUP3 ADD MSTORE POP JUMP JUMPDEST PUSH1 0x0 PUSH2 0x29FB PUSH1 0x27 DUP4 PUSH2 0x220F JUMP JUMPDEST SWAP2 POP PUSH2 0x2A06 DUP3 PUSH2 0x299F JUMP JUMPDEST PUSH1 0x40 DUP3 ADD SWAP1 POP SWAP2 SWAP1 POP JUMP JUMPDEST PUSH1 0x0 PUSH1 0x20 DUP3 ADD SWAP1 POP DUP2 DUP2 SUB PUSH1 0x0 DUP4 ADD MSTORE PUSH2 0x2A2A DUP2 PUSH2 0x29EE JUMP JUMPDEST SWAP1 POP SWAP2 SWAP1 POP JUMP JUMPDEST PUSH32 0x53656C6C2074617820636F6D706F6E656E74732065786365656420746F74616C PUSH1 0x0 DUP3 ADD MSTORE PUSH32 0x2073656C6C207461780000000000000000000000000000000000000000000000 PUSH1 0x20 DUP3 ADD MSTORE POP JUMP JUMPDEST PUSH1 0x0 PUSH2 0x2A8D PUSH1 0x29 DUP4 PUSH2 0x220F JUMP JUMPDEST SWAP2 POP PUSH2 0x2A98 DUP3 PUSH2 0x2A31 JUMP JUMPDEST PUSH1 0x40 DUP3 ADD SWAP1 POP SWAP2 SWAP1 POP JUMP JUMPDEST PUSH1 0x0 PUSH1 0x20 DUP3 ADD SWAP1 POP DUP2 DUP2 SUB PUSH1 0x0 DUP4 ADD MSTORE PUSH2 0x2ABC DUP2 PUSH2 0x2A80 JUMP JUMPDEST SWAP1 POP SWAP2 SWAP1 POP JUMP JUMPDEST PUSH1 0x0 PUSH1 0xA0 DUP3 ADD SWAP1 POP PUSH2 0x2AD8 PUSH1 0x0 DUP4 ADD DUP9 PUSH2 0x2362 JUMP JUMPDEST PUSH2 0x2AE5 PUSH1 0x20 DUP4 ADD DUP8 PUSH2 0x2362 JUMP JUMPDEST PUSH2 0x2AF2 PUSH1 0x40 DUP4 ADD DUP7 PUSH2 0x2362 JUMP JUMPDEST PUSH2 0x2AFF PUSH1 0x60 DUP4 ADD DUP6 PUSH2 0x2362 JUMP JUMPDEST PUSH2 0x2B0C PUSH1 0x80 DUP4 ADD DUP5 PUSH2 0x2362 JUMP JUMPDEST SWAP7 SWAP6 POP POP POP POP POP POP JUMP JUMPDEST PUSH32 0x45524332303A2064656372656173656420616C6C6F77616E63652062656C6F77 PUSH1 0x0 DUP3 ADD MSTORE PUSH32 0x207A65726F000000000000000000000000000000000000000000000000000000 PUSH1 0x20 DUP3 ADD MSTORE POP JUMP JUMPDEST PUSH1 0x0 PUSH2 0x2B72 PUSH1 0x25 DUP4 PUSH2 0x220F JUMP JUMPDEST SWAP2 POP PUSH2 0x2B7D DUP3 PUSH2 0x2B16 JUMP JUMPDEST PUSH1 0x40 DUP3 ADD SWAP1 POP SWAP2 SWAP1 POP JUMP JUMPDEST PUSH1 0x0 PUSH1 0x20 DUP3 ADD SWAP1 POP DUP2 DUP2 SUB PUSH1 0x0 DUP4 ADD MSTORE PUSH2 0x2BA1 DUP2 PUSH2 0x2B65 JUMP JUMPDEST SWAP1 POP SWAP2 SWAP1 POP JUMP JUMPDEST PUSH32 0x4F776E61626C653A206E6577206F776E657220697320746865207A65726F2061 PUSH1 0x0 DUP3 ADD MSTORE PUSH32 0x6464726573730000000000000000000000000000000000000000000000000000 PUSH1 0x20 DUP3 ADD MSTORE POP JUMP JUMPDEST PUSH1 0x0 PUSH2 0x2C04 PUSH1 0x26 DUP4 PUSH2 0x220F JUMP JUMPDEST SWAP2 POP PUSH2 0x2C0F DUP3 PUSH2 0x2BA8 JUMP JUMPDEST PUSH1 0x40 DUP3 ADD SWAP1 POP SWAP2 SWAP1 POP JUMP JUMPDEST PUSH1 0x0 PUSH1 0x20 DUP3 ADD SWAP1 POP DUP2 DUP2 SUB PUSH1 0x0 DUP4 ADD MSTORE PUSH2 0x2C33 DUP2 PUSH2 0x2BF7 JUMP JUMPDEST SWAP1 POP SWAP2 SWAP1 POP JUMP JUMPDEST PUSH32 0x4F776E61626C653A2063616C6C6572206973206E6F7420746865206F776E6572 PUSH1 0x0 DUP3 ADD MSTORE POP JUMP JUMPDEST PUSH1 0x0 PUSH2 0x2C70 PUSH1 0x20 DUP4 PUSH2 0x220F JUMP JUMPDEST SWAP2 POP PUSH2 0x2C7B DUP3 PUSH2 0x2C3A JUMP JUMPDEST PUSH1 0x20 DUP3 ADD SWAP1 POP SWAP2 SWAP1 POP JUMP JUMPDEST PUSH1 0x0 PUSH1 0x20 DUP3 ADD SWAP1 POP DUP2 DUP2 SUB PUSH1 0x0 DUP4 ADD MSTORE PUSH2 0x2C9F DUP2 PUSH2 0x2C63 JUMP JUMPDEST SWAP1 POP SWAP2 SWAP1 POP JUMP JUMPDEST PUSH32 0x45524332303A20617070726F76652066726F6D20746865207A65726F20616464 PUSH1 0x0 DUP3 ADD MSTORE PUSH32 0x7265737300000000000000000000000000000000000000000000000000000000 PUSH1 0x20 DUP3 ADD MSTORE POP JUMP JUMPDEST PUSH1 0x0 PUSH2 0x2D02 PUSH1 0x24 DUP4 PUSH2 0x220F JUMP JUMPDEST SWAP2 POP PUSH2 0x2D0D DUP3 PUSH2 0x2CA6 JUMP JUMPDEST PUSH1 0x40 DUP3 ADD SWAP1 POP SWAP2 SWAP1 POP JUMP JUMPDEST PUSH1 0x0 PUSH1 0x20 DUP3 ADD SWAP1 POP DUP2 DUP2 SUB PUSH1 0x0 DUP4 ADD MSTORE PUSH2 0x2D31 DUP2 PUSH2 0x2CF5 JUMP JUMPDEST SWAP1 POP SWAP2 SWAP1 POP JUMP JUMPDEST PUSH32 0x45524332303A20617070726F766520746F20746865207A65726F206164647265 PUSH1 0x0 DUP3 ADD MSTORE PUSH32 0x7373000000000000000000000000000000000000000000000000000000000000 PUSH1 0x20 DUP3 ADD MSTORE POP JUMP JUMPDEST PUSH1 0x0 PUSH2 0x2D94 PUSH1 0x22 DUP4 PUSH2 0x220F JUMP JUMPDEST SWAP2 POP PUSH2 0x2D9F DUP3 PUSH2 0x2D38 JUMP JUMPDEST PUSH1 0x40 DUP3 ADD SWAP1 POP SWAP2 SWAP1 POP JUMP JUMPDEST PUSH1 0x0 PUSH1 0x20 DUP3 ADD SWAP1 POP DUP2 DUP2 SUB PUSH1 0x0 DUP4 ADD MSTORE PUSH2 0x2DC3 DUP2 PUSH2 0x2D87 JUMP JUMPDEST SWAP1 POP SWAP2 SWAP1 POP JUMP JUMPDEST PUSH32 0x45524332303A20696E73756666696369656E7420616C6C6F77616E6365000000 PUSH1 0x0 DUP3 ADD MSTORE POP JUMP JUMPDEST PUSH1 0x0 PUSH2 0x2E00 PUSH1 0x1D DUP4 PUSH2 0x220F JUMP JUMPDEST SWAP2 POP PUSH2 0x2E0B DUP3 PUSH2 0x2DCA JUMP JUMPDEST PUSH1 0x20 DUP3 ADD SWAP1 POP SWAP2 SWAP1 POP JUMP JUMPDEST PUSH1 0x0 PUSH1 0x20 DUP3 ADD SWAP1 POP DUP2 DUP2 SUB PUSH1 0x0 DUP4 ADD MSTORE PUSH2 0x2E2F DUP2 PUSH2 0x2DF3 JUMP JUMPDEST SWAP1 POP SWAP2 SWAP1 POP JUMP JUMPDEST PUSH32 0x45524332303A207472616E736665722066726F6D20746865207A65726F206164 PUSH1 0x0 DUP3 ADD MSTORE PUSH32 0x6472657373000000000000000000000000000000000000000000000000000000 PUSH1 0x20 DUP3 ADD MSTORE POP JUMP JUMPDEST PUSH1 0x0 PUSH2 0x2E92 PUSH1 0x25 DUP4 PUSH2 0x220F JUMP JUMPDEST SWAP2 POP PUSH2 0x2E9D DUP3 PUSH2 0x2E36 JUMP JUMPDEST PUSH1 0x40 DUP3 ADD SWAP1 POP SWAP2 SWAP1 POP JUMP JUMPDEST PUSH1 0x0 PUSH1 0x20 DUP3 ADD SWAP1 POP DUP2 DUP2 SUB PUSH1 0x0 DUP4 ADD MSTORE PUSH2 0x2EC1 DUP2 PUSH2 0x2E85 JUMP JUMPDEST SWAP1 POP SWAP2 SWAP1 POP JUMP JUMPDEST PUSH32 0x45524332303A207472616E7366657220746F20746865207A65726F2061646472 PUSH1 0x0 DUP3 ADD MSTORE PUSH32 0x6573730000000000000000000000000000000000000000000000000000000000 PUSH1 0x20 DUP3 ADD MSTORE POP JUMP JUMPDEST PUSH1 0x0 PUSH2 0x2F24 PUSH1 0x23 DUP4 PUSH2 0x220F JUMP JUMPDEST SWAP2 POP PUSH2 0x2F2F DUP3 PUSH2 0x2EC8 JUMP JUMPDEST PUSH1 0x40 DUP3 ADD SWAP1 POP SWAP2 SWAP1 POP JUMP JUMPDEST PUSH1 0x0 PUSH1 0x20 DUP3 ADD SWAP1 POP DUP2 DUP2 SUB PUSH1 0x0 DUP4 ADD MSTORE PUSH2 0x2F53 DUP2 PUSH2 0x2F17 JUMP JUMPDEST SWAP1 POP SWAP2 SWAP1 POP JUMP JUMPDEST PUSH32 0x45524332303A207472616E7366657220616D6F756E7420657863656564732062 PUSH1 0x0 DUP3 ADD MSTORE PUSH32 0x616C616E63650000000000000000000000000000000000000000000000000000 PUSH1 0x20 DUP3 ADD MSTORE POP JUMP JUMPDEST PUSH1 0x0 PUSH2 0x2FB6 PUSH1 0x26 DUP4 PUSH2 0x220F JUMP JUMPDEST SWAP2 POP PUSH2 0x2FC1 DUP3 PUSH2 0x2F5A JUMP JUMPDEST PUSH1 0x40 DUP3 ADD SWAP1 POP SWAP2 SWAP1 POP JUMP JUMPDEST PUSH1 0x0 PUSH1 0x20 DUP3 ADD SWAP1 POP DUP2 DUP2 SUB PUSH1 0x0 DUP4 ADD MSTORE PUSH2 0x2FE5 DUP2 PUSH2 0x2FA9 JUMP JUMPDEST SWAP1 POP SWAP2 SWAP1 POP JUMP JUMPDEST PUSH32 0x5265656E7472616E637947756172643A207265656E7472616E742063616C6C00 PUSH1 0x0 DUP3 ADD MSTORE POP JUMP JUMPDEST PUSH1 0x0 PUSH2 0x3022 PUSH1 0x1F DUP4 PUSH2 0x220F JUMP JUMPDEST SWAP2 POP PUSH2 0x302D DUP3 PUSH2 0x2FEC JUMP JUMPDEST PUSH1 0x20 DUP3 ADD SWAP1 POP SWAP2 SWAP1 POP JUMP JUMPDEST PUSH1 0x0 PUSH1 0x20 DUP3 ADD SWAP1 POP DUP2 DUP2 SUB PUSH1 0x0 DUP4 ADD MSTORE PUSH2 0x3051 DUP2 PUSH2 0x3015 JUMP JUMPDEST SWAP1 POP SWAP2 SWAP1 POP JUMP JUMPDEST PUSH32 0x54726164696E67206E6F74206163746976650000000000000000000000000000 PUSH1 0x0 DUP3 ADD MSTORE POP JUMP JUMPDEST PUSH1 0x0 PUSH2 0x308E PUSH1 0x12 DUP4 PUSH2 0x220F JUMP JUMPDEST SWAP2 POP PUSH2 0x3099 DUP3 PUSH2 0x3058 JUMP JUMPDEST PUSH1 0x20 DUP3 ADD SWAP1 POP SWAP2 SWAP1 POP JUMP JUMPDEST PUSH1 0x0 PUSH1 0x20 DUP3 ADD SWAP1 POP DUP2 DUP2 SUB PUSH1 0x0 DUP4 ADD MSTORE PUSH2 0x30BD DUP2 PUSH2 0x3081 JUMP JUMPDEST SWAP1 POP SWAP2 SWAP1 POP JUMP JUMPDEST PUSH32 0x416D6F756E742065786365656473206D6178207472616E73616374696F6E0000 PUSH1 0x0 DUP3 ADD MSTORE POP JUMP JUMPDEST PUSH1 0x0 PUSH2 0x30FA PUSH1 0x1E DUP4 PUSH2 0x220F JUMP JUMPDEST SWAP2 POP PUSH2 0x3105 DUP3 PUSH2 0x30C4 JUMP JUMPDEST PUSH1 0x20 DUP3 ADD SWAP1 POP SWAP2 SWAP1 POP JUMP JUMPDEST PUSH1 0x0 PUSH1 0x20 DUP3 ADD SWAP1 POP DUP2 DUP2 SUB PUSH1 0x0 DUP4 ADD MSTORE PUSH2 0x3129 DUP2 PUSH2 0x30ED JUMP JUMPDEST SWAP1 POP SWAP2 SWAP1 POP JUMP JUMPDEST PUSH32 0x57616C6C65742065786365656473206D617820686F6C64696E67000000000000 PUSH1 0x0 DUP3 ADD MSTORE POP JUMP JUMPDEST PUSH1 0x0 PUSH2 0x3166 PUSH1 0x1A DUP4 PUSH2 0x220F JUMP JUMPDEST SWAP2 POP PUSH2 0x3171 DUP3 PUSH2 0x3130 JUMP JUMPDEST PUSH1 0x20 DUP3 ADD SWAP1 POP SWAP2 SWAP1 POP JUMP JUMPDEST PUSH1 0x0 PUSH1 0x20 DUP3 ADD SWAP1 POP DUP2 DUP2 SUB PUSH1 0x0 DUP4 ADD MSTORE PUSH2 0x3195 DUP2 PUSH2 0x3159 JUMP JUMPDEST SWAP1 POP SWAP2 SWAP1 POP JUMP JUMPDEST PUSH32 0x4E487B7100000000000000000000000000000000000000000000000000000000 PUSH1 0x0 MSTORE PUSH1 0x12 PUSH1 0x4 MSTORE PUSH1 0x24 PUSH1 0x0 REVERT JUMPDEST PUSH1 0x0 PUSH2 0x31D6 DUP3 PUSH2 0x22B6 JUMP JUMPDEST SWAP2 POP PUSH2 0x31E1 DUP4 PUSH2 0x22B6 JUMP JUMPDEST SWAP3 POP DUP3 PUSH2 0x31F1 JUMPI PUSH2 0x31F0 PUSH2 0x319C JUMP JUMPDEST JUMPDEST DUP3 DUP3 DIV SWAP1 POP SWAP3 SWAP2 POP POP JUMP JUMPDEST PUSH32 0x4578636565646564206461696C79207472616E73616374696F6E206C696D6974 PUSH1 0x0 DUP3 ADD MSTORE POP JUMP JUMPDEST PUSH1 0x0 PUSH2 0x3232 PUSH1 0x20 DUP4 PUSH2 0x220F JUMP JUMPDEST SWAP2 POP PUSH2 0x323D DUP3 PUSH2 0x31FC JUMP JUMPDEST PUSH1 0x20 DUP3 ADD SWAP1 POP SWAP2 SWAP1 POP JUMP JUMPDEST PUSH1 0x0 PUSH1 0x20 DUP3 ADD SWAP1 POP DUP2 DUP2 SUB PUSH1 0x0 DUP4 ADD MSTORE PUSH2 0x3261 DUP2 PUSH2 0x3225 JUMP JUMPDEST SWAP1 POP SWAP2 SWAP1 POP JUMP JUMPDEST PUSH1 0x0 PUSH2 0x3273 DUP3 PUSH2 0x22B6 JUMP JUMPDEST SWAP2 POP PUSH32 0xFFFFFFFFFFFFFFFFFFFFFFFFFFFFFFFFFFFFFFFFFFFFFFFFFFFFFFFFFFFFFFFF DUP3 SUB PUSH2 0x32A5 JUMPI PUSH2 0x32A4 PUSH2 0x26B3 JUMP JUMPDEST JUMPDEST PUSH1 0x1 DUP3 ADD SWAP1 POP SWAP2 SWAP1 POP JUMP JUMPDEST PUSH1 0x0 PUSH2 0x32BB DUP3 PUSH2 0x22B6 JUMP JUMPDEST SWAP2 POP PUSH2 0x32C6 DUP4 PUSH2 0x22B6 JUMP JUMPDEST SWAP3 POP DUP3 DUP3 MUL PUSH2 0x32D4 DUP2 PUSH2 0x22B6 JUMP JUMPDEST SWAP2 POP DUP3 DUP3 DIV DUP5 EQ DUP4 ISZERO OR PUSH2 0x32EB JUMPI PUSH2 0x32EA PUSH2 0x26B3 JUMP JUMPDEST JUMPDEST POP SWAP3 SWAP2 POP POP JUMP JUMPDEST PUSH1 0x0 PUSH2 0x32FD DUP3 PUSH2 0x22B6 JUMP JUMPDEST SWAP2 POP PUSH2 0x3308 DUP4 PUSH2 0x22B6 JUMP JUMPDEST SWAP3 POP DUP3 DUP3 SUB SWAP1 POP DUP2 DUP2 GT ISZERO PUSH2 0x3320 JUMPI PUSH2 0x331F PUSH2 0x26B3 JUMP JUMPDEST JUMPDEST SWAP3 SWAP2 POP POP JUMP INVALID LOG2 PUSH5 0x6970667358 0x22 SLT KECCAK256 0xFC PUSH21 0x7137B49092DAFF6FF277CFE5A057E397F2D669515C 0x5E 0xFB RETURN 0xC7 0x4F SWAP8 0x5E SWAP3 PUSH17 0x64736F6C63430008110033000000000000 "},"methodIdentifiers":{"activateTrading()":"0bd05b69","addLiquidity(uint256)":"51c6590a","allowance(address,address)":"dd62ed3e","approve(address,uint256)":"095ea7b3","balanceOf(address)":"70a08231","buyTax()":"4f7041a5","dailyTransactionLimit()":"f9cc6901","decimals()":"313ce567","decreaseAllowance(address,uint256)":"a457c2d7","devTax()":"665c6de9","devWallet()":"8ea5220f","distributeRewards()":"6f4a2cd0","increaseAllowance(address,uint256)":"39509351","isExcludedFromTax(address)":"cb4ca631","lastTransactionDay(address)":"af59c95f","liquidityPool()":"665a11ca","liquidityTax()":"be617fa0","liquidityWallet()":"d4698016","maxTransactionAmount()":"c8c8ebe4","maxWalletAmount()":"aa4bde28","name()":"06fdde03","owner()":"8da5cb5b","removeLiquidity(uint256)":"9c8f9f23","renounceOwnership()":"715018a6","rewardTax()":"6e5c59ae","rewardWallet()":"fb75b2c7","sellTax()":"cc1776d3","setDevWallet(address)":"1f53ac02","setExcludedFromTax(address,bool)":"c2ed286b","setLiquidityPool(address)":"01877020","symbol()":"95d89b41","totalSupply()":"18160ddd","tradingActive()":"bbc0c742","transactionCount(address)":"99be3375","transfer(address,uint256)":"a9059cbb","transferFrom(address,address,uint256)":"23b872dd","transferOwnership(address)":"f2fde38b","updateTaxRates(uint256,uint256,uint256,uint256,uint256)":"73e94ad4","updateTransactionLimits(uint256,uint256,uint256)":"4e81ad29"}}}}}